{
	"compilerInput": "{\"language\":\"Solidity\",\"sources\":{\"Gloomers.sol\":{\"content\":\"// SPDX-License-Identifier: MIT\\npragma solidity 0.8.25;\\n\\nimport {ERC721A} from \\\"./ERC721A.sol\\\";\\nimport {IERC721A} from \\\"./IERC721A.sol\\\";\\nimport {ERC721AQueryable} from \\\"./ERC721AQueryable.sol\\\";\\nimport {StartTokenIdHelper} from \\\"./StartTokenIdHelper.sol\\\";\\nimport {Ownable} from \\\"@openzeppelin/contracts/access/Ownable.sol\\\";\\nimport {ERC2981} from \\\"@openzeppelin/contracts/token/common/ERC2981.sol\\\";\\n\\n/**\\n * @title Gloomers #3334 - #6666\\n * @author soko.eth | Gloom Labs | https://www.gloomtoken.com\\n * @dev ERC721A contract with presale, whitelist, and public minting periods.\\n * @notice Gloomers is a 10k PFP collection launched across Base, Solana, and Optimism with teleburning to Bitcoin\\n */\\ncontract Gloomers is\\n    StartTokenIdHelper,\\n    ERC721A,\\n    ERC721AQueryable,\\n    ERC2981,\\n    Ownable\\n{\\n    uint256 public constant START_TOKEN_ID = 3334;\\n    uint256 public constant END_TOKEN_ID = 6666;\\n    uint256 public constant PRICE_PER_TOKEN = 0.03 ether;\\n    uint256 public constant MAX_MINT_PER_WALLET = 3;\\n    bytes32 public constant PROVENANCE_HASH =\\n        0x5158cf3ac201d8d9dfe63ac7c7d1e7aa58b7c33426665c9bf643e0003e095e2f;\\n    uint256 public constant WHITELIST_START_TIMESTAMP = 1714838400; // Sat May 04 2024 16:00:00 GMT\\n    uint256 public constant PUBLIC_MINT_TIMESTAMP =\\n        WHITELIST_START_TIMESTAMP + 3 hours;\\n\\n    enum DropStatus {\\n        DISABLED,\\n        PRESALE,\\n        WHITELIST,\\n        PUBLIC\\n    }\\n\\n    DropStatus public dropStatus = DropStatus.DISABLED;\\n\\n    mapping(address => uint256) private _mintedPerWallet;\\n    mapping(address => uint256) private _presaleAllocationsByWallet;\\n    mapping(uint256 => address) private _presaleWalletsById;\\n    uint256 private _presalesCount;\\n    uint256 private _presaleSupplyOffset;\\n    bytes32 private gloomerHash;\\n\\n    bool private revealed = false;\\n    string private _baseTokenURI =\\n        \\\"https://ipfs.gloomtoken.xyz/ipfs/bafybeidnrgagzrjvavrsjtnz6qhqvnlbkz3vh5q35gfgkj236ylsxwpmsy\\\";\\n\\n    event BatchMetadataUpdate(uint256 _fromTokenId, uint256 _toTokenId);\\n    event GloomersMint(address indexed _to, uint256 _quantity);\\n    event MintWhitelist(address indexed _to, uint256 _quantity);\\n    event RegisterPresale(address indexed _to, uint256 _quantity);\\n    event ClaimPresale(address indexed _to, uint256 _quantity);\\n    event NewDropStatus(DropStatus _dropStatus);\\n\\n    error MintingDisabled();\\n    error PublicMintNotActive();\\n    error WhitelistNotActive();\\n    error PresaleNotActive();\\n    error ClaimNotActive();\\n    error NotEligible();\\n    error ExceedsMaxMintPerWallet();\\n    error ExceedsMaxSupply();\\n    error InsufficientFunds();\\n    error NonEOACaller();\\n\\n    modifier dropEnabled() {\\n        if (dropStatus == DropStatus.DISABLED) {\\n            revert MintingDisabled();\\n        }\\n        _;\\n    }\\n\\n    modifier presaleActive() {\\n        if (block.timestamp > WHITELIST_START_TIMESTAMP) {\\n            revert PresaleNotActive();\\n        }\\n        _;\\n    }\\n\\n    modifier whitelistActive() {\\n        if (\\n            block.timestamp < WHITELIST_START_TIMESTAMP ||\\n            block.timestamp > PUBLIC_MINT_TIMESTAMP\\n        ) {\\n            revert WhitelistNotActive();\\n        }\\n        _;\\n    }\\n\\n    modifier publicMintActive() {\\n        if (block.timestamp < PUBLIC_MINT_TIMESTAMP) {\\n            revert PublicMintNotActive();\\n        }\\n        _;\\n    }\\n\\n    modifier claimEnabled() {\\n        if (block.timestamp < WHITELIST_START_TIMESTAMP) {\\n            revert ClaimNotActive();\\n        }\\n        _;\\n    }\\n\\n    modifier eligibleForClaim() {\\n        if (_presaleAllocationsByWallet[msg.sender] == 0) {\\n            revert NotEligible();\\n        }\\n        _;\\n    }\\n\\n    modifier supplyIsAvailable(uint256 quantity) {\\n        if (\\n            quantity + _nextTokenId() - 1 > END_TOKEN_ID - _presaleSupplyOffset\\n        ) {\\n            revert ExceedsMaxSupply();\\n        }\\n        _;\\n    }\\n\\n    modifier fundsAttached(uint256 quantity) {\\n        if (msg.value < PRICE_PER_TOKEN * quantity) {\\n            revert InsufficientFunds();\\n        }\\n        _;\\n    }\\n\\n    modifier obeysWalletLimit(uint256 quantity) {\\n        if (\\n            _mintedPerWallet[msg.sender] +\\n                _presaleAllocationsByWallet[msg.sender] +\\n                quantity >\\n            MAX_MINT_PER_WALLET &&\\n            msg.sender != owner()\\n        ) {\\n            revert ExceedsMaxMintPerWallet();\\n        }\\n        _;\\n    }\\n\\n    modifier gloomin(bytes32 gloomerHash_) {\\n        if (gloomerHash != gloomerHash_) {\\n            revert NotEligible();\\n        }\\n        _;\\n    }\\n\\n    modifier onlyEOA() {\\n        if (tx.origin != msg.sender) {\\n            revert NonEOACaller();\\n        }\\n        _;\\n    }\\n\\n    constructor()\\n        StartTokenIdHelper(START_TOKEN_ID)\\n        ERC721A(\\\"Gloomers\\\", \\\"GLOOMERS\\\")\\n        Ownable(msg.sender)\\n    {\\n        _setDefaultRoyalty(msg.sender, 500);\\n    }\\n\\n    function mint(\\n        uint256 quantity\\n    )\\n        external\\n        payable\\n        dropEnabled\\n        publicMintActive\\n        fundsAttached(quantity)\\n        obeysWalletLimit(quantity)\\n        supplyIsAvailable(quantity)\\n        onlyEOA\\n    {\\n        _mintedPerWallet[msg.sender] += quantity;\\n        _mint(msg.sender, quantity);\\n\\n        emit GloomersMint(msg.sender, quantity);\\n    }\\n\\n    function mintWhitelist(\\n        uint256 quantity,\\n        bytes32 gloomerHash_\\n    )\\n        external\\n        payable\\n        dropEnabled\\n        whitelistActive\\n        fundsAttached(quantity)\\n        obeysWalletLimit(quantity)\\n        supplyIsAvailable(quantity)\\n        gloomin(gloomerHash_)\\n        onlyEOA\\n    {\\n        if (gloomerHash != gloomerHash_) {\\n            revert NotEligible();\\n        }\\n        _mintedPerWallet[msg.sender] += quantity;\\n        _mint(msg.sender, quantity);\\n\\n        emit MintWhitelist(msg.sender, quantity);\\n        (msg.sender, quantity);\\n    }\\n\\n    function registerPresale(\\n        uint256 quantity,\\n        bytes32 gloomerHash_\\n    )\\n        external\\n        payable\\n        dropEnabled\\n        presaleActive\\n        fundsAttached(quantity)\\n        obeysWalletLimit(quantity)\\n        supplyIsAvailable(quantity)\\n        gloomin(gloomerHash_)\\n        onlyEOA\\n    {\\n        ++_presalesCount;\\n        _presaleSupplyOffset += quantity;\\n        _presaleAllocationsByWallet[msg.sender] = quantity;\\n        _presaleWalletsById[_presalesCount] = msg.sender;\\n\\n        emit RegisterPresale(msg.sender, quantity);\\n        (msg.sender, quantity);\\n    }\\n\\n    function claimPresale()\\n        external\\n        dropEnabled\\n        claimEnabled\\n        eligibleForClaim\\n        obeysWalletLimit(_presaleAllocationsByWallet[msg.sender])\\n        onlyEOA\\n    {\\n        uint256 quantity = _presaleAllocationsByWallet[msg.sender];\\n        _mintedPerWallet[msg.sender] += quantity;\\n        _presaleAllocationsByWallet[msg.sender] = 0;\\n        _presaleSupplyOffset -= quantity;\\n        _mint(msg.sender, quantity);\\n\\n        emit GloomersMint(msg.sender, quantity);\\n    }\\n\\n    function getPresaleAllocation(\\n        address wallet\\n    ) public view returns (uint256) {\\n        return _presaleAllocationsByWallet[wallet];\\n    }\\n\\n    function _startTokenId() internal view override returns (uint256) {\\n        return startTokenId();\\n    }\\n\\n    function _baseURI()\\n        internal\\n        view\\n        override(ERC721A)\\n        returns (string memory)\\n    {\\n        return _baseTokenURI;\\n    }\\n\\n    function tokenURI(\\n        uint256 tokenId\\n    ) public view override(IERC721A, ERC721A) returns (string memory) {\\n        if (!revealed) {\\n            return _baseURI();\\n        }\\n        if (!_exists(tokenId)) {\\n            revert URIQueryForNonexistentToken();\\n        }\\n        string memory baseURI = _baseURI();\\n        string memory metadataPointerId = !revealed ? \\\"\\\" : _toString(tokenId);\\n        string memory result = string(\\n            abi.encodePacked(baseURI, metadataPointerId)\\n        );\\n        return bytes(baseURI).length != 0 ? result : \\\"\\\";\\n    }\\n\\n    function setTokenUri(string calldata baseTokenURI_) external onlyOwner {\\n        revealed = true;\\n        _baseTokenURI = baseTokenURI_;\\n        emit BatchMetadataUpdate(_startTokenId(), (type(uint256).max));\\n    }\\n\\n    function setDefaultRoyalty(\\n        address receiver,\\n        uint96 feeNumerator\\n    ) public onlyOwner {\\n        _setDefaultRoyalty(receiver, feeNumerator);\\n    }\\n\\n    function setDropStatus(DropStatus newDropStatus) public onlyOwner {\\n        dropStatus = newDropStatus;\\n        emit NewDropStatus(newDropStatus);\\n    }\\n\\n    function setGloomerHash(bytes32 gloomerHash_) public onlyOwner {\\n        gloomerHash = gloomerHash_;\\n    }\\n\\n    function withdraw() public onlyOwner {\\n        payable(msg.sender).transfer(address(this).balance);\\n    }\\n\\n    fallback() external payable {}\\n\\n    receive() external payable {}\\n\\n    function supportsInterface(\\n        bytes4 interfaceId\\n    ) public view virtual override(IERC721A, ERC721A, ERC2981) returns (bool) {\\n        return\\n            ERC721A.supportsInterface(interfaceId) ||\\n            ERC2981.supportsInterface(interfaceId);\\n    }\\n}\\n\"},\"@openzeppelin/contracts/token/common/ERC2981.sol\":{\"content\":\"// SPDX-License-Identifier: MIT\\n// OpenZeppelin Contracts (last updated v5.0.0) (token/common/ERC2981.sol)\\n\\npragma solidity ^0.8.20;\\n\\nimport {IERC2981} from \\\"../../interfaces/IERC2981.sol\\\";\\nimport {IERC165, ERC165} from \\\"../../utils/introspection/ERC165.sol\\\";\\n\\n/**\\n * @dev Implementation of the NFT Royalty Standard, a standardized way to retrieve royalty payment information.\\n *\\n * Royalty information can be specified globally for all token ids via {_setDefaultRoyalty}, and/or individually for\\n * specific token ids via {_setTokenRoyalty}. The latter takes precedence over the first.\\n *\\n * Royalty is specified as a fraction of sale price. {_feeDenominator} is overridable but defaults to 10000, meaning the\\n * fee is specified in basis points by default.\\n *\\n * IMPORTANT: ERC-2981 only specifies a way to signal royalty information and does not enforce its payment. See\\n * https://eips.ethereum.org/EIPS/eip-2981#optional-royalty-payments[Rationale] in the EIP. Marketplaces are expected to\\n * voluntarily pay royalties together with sales, but note that this standard is not yet widely supported.\\n */\\nabstract contract ERC2981 is IERC2981, ERC165 {\\n    struct RoyaltyInfo {\\n        address receiver;\\n        uint96 royaltyFraction;\\n    }\\n\\n    RoyaltyInfo private _defaultRoyaltyInfo;\\n    mapping(uint256 tokenId => RoyaltyInfo) private _tokenRoyaltyInfo;\\n\\n    /**\\n     * @dev The default royalty set is invalid (eg. (numerator / denominator) >= 1).\\n     */\\n    error ERC2981InvalidDefaultRoyalty(uint256 numerator, uint256 denominator);\\n\\n    /**\\n     * @dev The default royalty receiver is invalid.\\n     */\\n    error ERC2981InvalidDefaultRoyaltyReceiver(address receiver);\\n\\n    /**\\n     * @dev The royalty set for an specific `tokenId` is invalid (eg. (numerator / denominator) >= 1).\\n     */\\n    error ERC2981InvalidTokenRoyalty(uint256 tokenId, uint256 numerator, uint256 denominator);\\n\\n    /**\\n     * @dev The royalty receiver for `tokenId` is invalid.\\n     */\\n    error ERC2981InvalidTokenRoyaltyReceiver(uint256 tokenId, address receiver);\\n\\n    /**\\n     * @dev See {IERC165-supportsInterface}.\\n     */\\n    function supportsInterface(bytes4 interfaceId) public view virtual override(IERC165, ERC165) returns (bool) {\\n        return interfaceId == type(IERC2981).interfaceId || super.supportsInterface(interfaceId);\\n    }\\n\\n    /**\\n     * @inheritdoc IERC2981\\n     */\\n    function royaltyInfo(uint256 tokenId, uint256 salePrice) public view virtual returns (address, uint256) {\\n        RoyaltyInfo memory royalty = _tokenRoyaltyInfo[tokenId];\\n\\n        if (royalty.receiver == address(0)) {\\n            royalty = _defaultRoyaltyInfo;\\n        }\\n\\n        uint256 royaltyAmount = (salePrice * royalty.royaltyFraction) / _feeDenominator();\\n\\n        return (royalty.receiver, royaltyAmount);\\n    }\\n\\n    /**\\n     * @dev The denominator with which to interpret the fee set in {_setTokenRoyalty} and {_setDefaultRoyalty} as a\\n     * fraction of the sale price. Defaults to 10000 so fees are expressed in basis points, but may be customized by an\\n     * override.\\n     */\\n    function _feeDenominator() internal pure virtual returns (uint96) {\\n        return 10000;\\n    }\\n\\n    /**\\n     * @dev Sets the royalty information that all ids in this contract will default to.\\n     *\\n     * Requirements:\\n     *\\n     * - `receiver` cannot be the zero address.\\n     * - `feeNumerator` cannot be greater than the fee denominator.\\n     */\\n    function _setDefaultRoyalty(address receiver, uint96 feeNumerator) internal virtual {\\n        uint256 denominator = _feeDenominator();\\n        if (feeNumerator > denominator) {\\n            // Royalty fee will exceed the sale price\\n            revert ERC2981InvalidDefaultRoyalty(feeNumerator, denominator);\\n        }\\n        if (receiver == address(0)) {\\n            revert ERC2981InvalidDefaultRoyaltyReceiver(address(0));\\n        }\\n\\n        _defaultRoyaltyInfo = RoyaltyInfo(receiver, feeNumerator);\\n    }\\n\\n    /**\\n     * @dev Removes default royalty information.\\n     */\\n    function _deleteDefaultRoyalty() internal virtual {\\n        delete _defaultRoyaltyInfo;\\n    }\\n\\n    /**\\n     * @dev Sets the royalty information for a specific token id, overriding the global default.\\n     *\\n     * Requirements:\\n     *\\n     * - `receiver` cannot be the zero address.\\n     * - `feeNumerator` cannot be greater than the fee denominator.\\n     */\\n    function _setTokenRoyalty(uint256 tokenId, address receiver, uint96 feeNumerator) internal virtual {\\n        uint256 denominator = _feeDenominator();\\n        if (feeNumerator > denominator) {\\n            // Royalty fee will exceed the sale price\\n            revert ERC2981InvalidTokenRoyalty(tokenId, feeNumerator, denominator);\\n        }\\n        if (receiver == address(0)) {\\n            revert ERC2981InvalidTokenRoyaltyReceiver(tokenId, address(0));\\n        }\\n\\n        _tokenRoyaltyInfo[tokenId] = RoyaltyInfo(receiver, feeNumerator);\\n    }\\n\\n    /**\\n     * @dev Resets royalty information for the token id back to the global default.\\n     */\\n    function _resetTokenRoyalty(uint256 tokenId) internal virtual {\\n        delete _tokenRoyaltyInfo[tokenId];\\n    }\\n}\\n\"},\"@openzeppelin/contracts/access/Ownable.sol\":{\"content\":\"// SPDX-License-Identifier: MIT\\n// OpenZeppelin Contracts (last updated v5.0.0) (access/Ownable.sol)\\n\\npragma solidity ^0.8.20;\\n\\nimport {Context} from \\\"../utils/Context.sol\\\";\\n\\n/**\\n * @dev Contract module which provides a basic access control mechanism, where\\n * there is an account (an owner) that can be granted exclusive access to\\n * specific functions.\\n *\\n * The initial owner is set to the address provided by the deployer. This can\\n * later be changed with {transferOwnership}.\\n *\\n * This module is used through inheritance. It will make available the modifier\\n * `onlyOwner`, which can be applied to your functions to restrict their use to\\n * the owner.\\n */\\nabstract contract Ownable is Context {\\n    address private _owner;\\n\\n    /**\\n     * @dev The caller account is not authorized to perform an operation.\\n     */\\n    error OwnableUnauthorizedAccount(address account);\\n\\n    /**\\n     * @dev The owner is not a valid owner account. (eg. `address(0)`)\\n     */\\n    error OwnableInvalidOwner(address owner);\\n\\n    event OwnershipTransferred(address indexed previousOwner, address indexed newOwner);\\n\\n    /**\\n     * @dev Initializes the contract setting the address provided by the deployer as the initial owner.\\n     */\\n    constructor(address initialOwner) {\\n        if (initialOwner == address(0)) {\\n            revert OwnableInvalidOwner(address(0));\\n        }\\n        _transferOwnership(initialOwner);\\n    }\\n\\n    /**\\n     * @dev Throws if called by any account other than the owner.\\n     */\\n    modifier onlyOwner() {\\n        _checkOwner();\\n        _;\\n    }\\n\\n    /**\\n     * @dev Returns the address of the current owner.\\n     */\\n    function owner() public view virtual returns (address) {\\n        return _owner;\\n    }\\n\\n    /**\\n     * @dev Throws if the sender is not the owner.\\n     */\\n    function _checkOwner() internal view virtual {\\n        if (owner() != _msgSender()) {\\n            revert OwnableUnauthorizedAccount(_msgSender());\\n        }\\n    }\\n\\n    /**\\n     * @dev Leaves the contract without owner. It will not be possible to call\\n     * `onlyOwner` functions. Can only be called by the current owner.\\n     *\\n     * NOTE: Renouncing ownership will leave the contract without an owner,\\n     * thereby disabling any functionality that is only available to the owner.\\n     */\\n    function renounceOwnership() public virtual onlyOwner {\\n        _transferOwnership(address(0));\\n    }\\n\\n    /**\\n     * @dev Transfers ownership of the contract to a new account (`newOwner`).\\n     * Can only be called by the current owner.\\n     */\\n    function transferOwnership(address newOwner) public virtual onlyOwner {\\n        if (newOwner == address(0)) {\\n            revert OwnableInvalidOwner(address(0));\\n        }\\n        _transferOwnership(newOwner);\\n    }\\n\\n    /**\\n     * @dev Transfers ownership of the contract to a new account (`newOwner`).\\n     * Internal function without access restriction.\\n     */\\n    function _transferOwnership(address newOwner) internal virtual {\\n        address oldOwner = _owner;\\n        _owner = newOwner;\\n        emit OwnershipTransferred(oldOwner, newOwner);\\n    }\\n}\\n\"},\"StartTokenIdHelper.sol\":{\"content\":\"// SPDX-License-Identifier: MIT\\n// ERC721A Contracts v4.3.0\\n// Creators: Chiru Labs\\n\\npragma solidity 0.8.25;\\n\\n/**\\n * This Helper is used to return a dynamic value in the overridden _startTokenId() function.\\n * Extending this Helper before the ERC721A contract give us access to the herein set `startTokenId`\\n * to be returned by the overridden `_startTokenId()` function of ERC721A in the ERC721AStartTokenId mocks.\\n */\\ncontract StartTokenIdHelper {\\n    // `bytes4(keccak256('startTokenId'))`.\\n    uint256 private constant _START_TOKEN_ID_STORAGE_SLOT = 0x28f75032;\\n\\n    constructor(uint256 startTokenId_) {\\n        _initializeStartTokenId(startTokenId_);\\n    }\\n\\n    function startTokenId() public view returns (uint256 result) {\\n        assembly {\\n            result := sload(_START_TOKEN_ID_STORAGE_SLOT)\\n        }\\n    }\\n\\n    function _initializeStartTokenId(uint256 value) private {\\n        // We use assembly to directly set the `startTokenId` in storage so that\\n        // inheriting this class won't affect the layout of other storage slots.\\n        assembly {\\n            sstore(_START_TOKEN_ID_STORAGE_SLOT, value)\\n        }\\n    }\\n}\\n\"},\"ERC721AQueryable.sol\":{\"content\":\"// SPDX-License-Identifier: MIT\\n// ERC721A Contracts v4.3.0\\n// Creator: Chiru Labs\\n\\npragma solidity ^0.8.4;\\n\\nimport './IERC721AQueryable.sol';\\nimport '../ERC721A.sol';\\n\\n/**\\n * @title ERC721AQueryable.\\n *\\n * @dev ERC721A subclass with convenience query functions.\\n */\\nabstract contract ERC721AQueryable is ERC721A, IERC721AQueryable {\\n    /**\\n     * @dev Returns the `TokenOwnership` struct at `tokenId` without reverting.\\n     *\\n     * If the `tokenId` is out of bounds:\\n     *\\n     * - `addr = address(0)`\\n     * - `startTimestamp = 0`\\n     * - `burned = false`\\n     * - `extraData = 0`\\n     *\\n     * If the `tokenId` is burned:\\n     *\\n     * - `addr = <Address of owner before token was burned>`\\n     * - `startTimestamp = <Timestamp when token was burned>`\\n     * - `burned = true`\\n     * - `extraData = <Extra data when token was burned>`\\n     *\\n     * Otherwise:\\n     *\\n     * - `addr = <Address of owner>`\\n     * - `startTimestamp = <Timestamp of start of ownership>`\\n     * - `burned = false`\\n     * - `extraData = <Extra data at start of ownership>`\\n     */\\n    function explicitOwnershipOf(uint256 tokenId)\\n        public\\n        view\\n        virtual\\n        override\\n        returns (TokenOwnership memory ownership)\\n    {\\n        unchecked {\\n            if (tokenId >= _startTokenId()) {\\n                if (tokenId > _sequentialUpTo()) return _ownershipAt(tokenId);\\n\\n                if (tokenId < _nextTokenId()) {\\n                    // If the `tokenId` is within bounds,\\n                    // scan backwards for the initialized ownership slot.\\n                    while (!_ownershipIsInitialized(tokenId)) --tokenId;\\n                    return _ownershipAt(tokenId);\\n                }\\n            }\\n        }\\n    }\\n\\n    /**\\n     * @dev Returns an array of `TokenOwnership` structs at `tokenIds` in order.\\n     * See {ERC721AQueryable-explicitOwnershipOf}\\n     */\\n    function explicitOwnershipsOf(uint256[] calldata tokenIds)\\n        external\\n        view\\n        virtual\\n        override\\n        returns (TokenOwnership[] memory)\\n    {\\n        TokenOwnership[] memory ownerships;\\n        uint256 i = tokenIds.length;\\n        assembly {\\n            // Grab the free memory pointer.\\n            ownerships := mload(0x40)\\n            // Store the length.\\n            mstore(ownerships, i)\\n            // Allocate one word for the length,\\n            // `tokenIds.length` words for the pointers.\\n            i := shl(5, i) // Multiply `i` by 32.\\n            mstore(0x40, add(add(ownerships, 0x20), i))\\n        }\\n        while (i != 0) {\\n            uint256 tokenId;\\n            assembly {\\n                i := sub(i, 0x20)\\n                tokenId := calldataload(add(tokenIds.offset, i))\\n            }\\n            TokenOwnership memory ownership = explicitOwnershipOf(tokenId);\\n            assembly {\\n                // Store the pointer of `ownership` in the `ownerships` array.\\n                mstore(add(add(ownerships, 0x20), i), ownership)\\n            }\\n        }\\n        return ownerships;\\n    }\\n\\n    /**\\n     * @dev Returns an array of token IDs owned by `owner`,\\n     * in the range [`start`, `stop`)\\n     * (i.e. `start <= tokenId < stop`).\\n     *\\n     * This function allows for tokens to be queried if the collection\\n     * grows too big for a single call of {ERC721AQueryable-tokensOfOwner}.\\n     *\\n     * Requirements:\\n     *\\n     * - `start < stop`\\n     */\\n    function tokensOfOwnerIn(\\n        address owner,\\n        uint256 start,\\n        uint256 stop\\n    ) external view virtual override returns (uint256[] memory) {\\n        return _tokensOfOwnerIn(owner, start, stop);\\n    }\\n\\n    /**\\n     * @dev Returns an array of token IDs owned by `owner`.\\n     *\\n     * This function scans the ownership mapping and is O(`totalSupply`) in complexity.\\n     * It is meant to be called off-chain.\\n     *\\n     * See {ERC721AQueryable-tokensOfOwnerIn} for splitting the scan into\\n     * multiple smaller scans if the collection is large enough to cause\\n     * an out-of-gas error (10K collections should be fine).\\n     */\\n    function tokensOfOwner(address owner) external view virtual override returns (uint256[] memory) {\\n        // If spot mints are enabled, full-range scan is disabled.\\n        if (_sequentialUpTo() != type(uint256).max) _revert(NotCompatibleWithSpotMints.selector);\\n        uint256 start = _startTokenId();\\n        uint256 stop = _nextTokenId();\\n        uint256[] memory tokenIds;\\n        if (start != stop) tokenIds = _tokensOfOwnerIn(owner, start, stop);\\n        return tokenIds;\\n    }\\n\\n    /**\\n     * @dev Helper function for returning an array of token IDs owned by `owner`.\\n     *\\n     * Note that this function is optimized for smaller bytecode size over runtime gas,\\n     * since it is meant to be called off-chain.\\n     */\\n    function _tokensOfOwnerIn(\\n        address owner,\\n        uint256 start,\\n        uint256 stop\\n    ) private view returns (uint256[] memory tokenIds) {\\n        unchecked {\\n            if (start >= stop) _revert(InvalidQueryRange.selector);\\n            // Set `start = max(start, _startTokenId())`.\\n            if (start < _startTokenId()) start = _startTokenId();\\n            uint256 nextTokenId = _nextTokenId();\\n            // If spot mints are enabled, scan all the way until the specified `stop`.\\n            uint256 stopLimit = _sequentialUpTo() != type(uint256).max ? stop : nextTokenId;\\n            // Set `stop = min(stop, stopLimit)`.\\n            if (stop >= stopLimit) stop = stopLimit;\\n            // Number of tokens to scan.\\n            uint256 tokenIdsMaxLength = balanceOf(owner);\\n            // Set `tokenIdsMaxLength` to zero if the range contains no tokens.\\n            if (start >= stop) tokenIdsMaxLength = 0;\\n            // If there are one or more tokens to scan.\\n            if (tokenIdsMaxLength != 0) {\\n                // Set `tokenIdsMaxLength = min(balanceOf(owner), tokenIdsMaxLength)`.\\n                if (stop - start <= tokenIdsMaxLength) tokenIdsMaxLength = stop - start;\\n                uint256 m; // Start of available memory.\\n                assembly {\\n                    // Grab the free memory pointer.\\n                    tokenIds := mload(0x40)\\n                    // Allocate one word for the length, and `tokenIdsMaxLength` words\\n                    // for the data. `shl(5, x)` is equivalent to `mul(32, x)`.\\n                    m := add(tokenIds, shl(5, add(tokenIdsMaxLength, 1)))\\n                    mstore(0x40, m)\\n                }\\n                // We need to call `explicitOwnershipOf(start)`,\\n                // because the slot at `start` may not be initialized.\\n                TokenOwnership memory ownership = explicitOwnershipOf(start);\\n                address currOwnershipAddr;\\n                // If the starting slot exists (i.e. not burned),\\n                // initialize `currOwnershipAddr`.\\n                // `ownership.address` will not be zero,\\n                // as `start` is clamped to the valid token ID range.\\n                if (!ownership.burned) currOwnershipAddr = ownership.addr;\\n                uint256 tokenIdsIdx;\\n                // Use a do-while, which is slightly more efficient for this case,\\n                // as the array will at least contain one element.\\n                do {\\n                    if (_sequentialUpTo() != type(uint256).max) {\\n                        // Skip the remaining unused sequential slots.\\n                        if (start == nextTokenId) start = _sequentialUpTo() + 1;\\n                        // Reset `currOwnershipAddr`, as each spot-minted token is a batch of one.\\n                        if (start > _sequentialUpTo()) currOwnershipAddr = address(0);\\n                    }\\n                    ownership = _ownershipAt(start); // This implicitly allocates memory.\\n                    assembly {\\n                        switch mload(add(ownership, 0x40))\\n                        // if `ownership.burned == false`.\\n                        case 0 {\\n                            // if `ownership.addr != address(0)`.\\n                            // The `addr` already has it's upper 96 bits clearned,\\n                            // since it is written to memory with regular Solidity.\\n                            if mload(ownership) {\\n                                currOwnershipAddr := mload(ownership)\\n                            }\\n                            // if `currOwnershipAddr == owner`.\\n                            // The `shl(96, x)` is to make the comparison agnostic to any\\n                            // dirty upper 96 bits in `owner`.\\n                            if iszero(shl(96, xor(currOwnershipAddr, owner))) {\\n                                tokenIdsIdx := add(tokenIdsIdx, 1)\\n                                mstore(add(tokenIds, shl(5, tokenIdsIdx)), start)\\n                            }\\n                        }\\n                        // Otherwise, reset `currOwnershipAddr`.\\n                        // This handles the case of batch burned tokens\\n                        // (burned bit of first slot set, remaining slots left uninitialized).\\n                        default {\\n                            currOwnershipAddr := 0\\n                        }\\n                        start := add(start, 1)\\n                        // Free temporary memory implicitly allocated for ownership\\n                        // to avoid quadratic memory expansion costs.\\n                        mstore(0x40, m)\\n                    }\\n                } while (!(start == stop || tokenIdsIdx == tokenIdsMaxLength));\\n                // Store the length of the array.\\n                assembly {\\n                    mstore(tokenIds, tokenIdsIdx)\\n                }\\n            }\\n        }\\n    }\\n}\\n\"},\"IERC721A.sol\":{\"content\":\"// SPDX-License-Identifier: MIT\\n// ERC721A Contracts v4.3.0\\n// Creator: Chiru Labs\\n\\npragma solidity ^0.8.4;\\n\\n/**\\n * @dev Interface of ERC721A.\\n */\\ninterface IERC721A {\\n    /**\\n     * The caller must own the token or be an approved operator.\\n     */\\n    error ApprovalCallerNotOwnerNorApproved();\\n\\n    /**\\n     * The token does not exist.\\n     */\\n    error ApprovalQueryForNonexistentToken();\\n\\n    /**\\n     * Cannot query the balance for the zero address.\\n     */\\n    error BalanceQueryForZeroAddress();\\n\\n    /**\\n     * Cannot mint to the zero address.\\n     */\\n    error MintToZeroAddress();\\n\\n    /**\\n     * The quantity of tokens minted must be more than zero.\\n     */\\n    error MintZeroQuantity();\\n\\n    /**\\n     * The token does not exist.\\n     */\\n    error OwnerQueryForNonexistentToken();\\n\\n    /**\\n     * The caller must own the token or be an approved operator.\\n     */\\n    error TransferCallerNotOwnerNorApproved();\\n\\n    /**\\n     * The token must be owned by `from`.\\n     */\\n    error TransferFromIncorrectOwner();\\n\\n    /**\\n     * Cannot safely transfer to a contract that does not implement the\\n     * ERC721Receiver interface.\\n     */\\n    error TransferToNonERC721ReceiverImplementer();\\n\\n    /**\\n     * Cannot transfer to the zero address.\\n     */\\n    error TransferToZeroAddress();\\n\\n    /**\\n     * The token does not exist.\\n     */\\n    error URIQueryForNonexistentToken();\\n\\n    /**\\n     * The `quantity` minted with ERC2309 exceeds the safety limit.\\n     */\\n    error MintERC2309QuantityExceedsLimit();\\n\\n    /**\\n     * The `extraData` cannot be set on an unintialized ownership slot.\\n     */\\n    error OwnershipNotInitializedForExtraData();\\n\\n    /**\\n     * `_sequentialUpTo()` must be greater than `_startTokenId()`.\\n     */\\n    error SequentialUpToTooSmall();\\n\\n    /**\\n     * The `tokenId` of a sequential mint exceeds `_sequentialUpTo()`.\\n     */\\n    error SequentialMintExceedsLimit();\\n\\n    /**\\n     * Spot minting requires a `tokenId` greater than `_sequentialUpTo()`.\\n     */\\n    error SpotMintTokenIdTooSmall();\\n\\n    /**\\n     * Cannot mint over a token that already exists.\\n     */\\n    error TokenAlreadyExists();\\n\\n    /**\\n     * The feature is not compatible with spot mints.\\n     */\\n    error NotCompatibleWithSpotMints();\\n\\n    // =============================================================\\n    //                            STRUCTS\\n    // =============================================================\\n\\n    struct TokenOwnership {\\n        // The address of the owner.\\n        address addr;\\n        // Stores the start time of ownership with minimal overhead for tokenomics.\\n        uint64 startTimestamp;\\n        // Whether the token has been burned.\\n        bool burned;\\n        // Arbitrary data similar to `startTimestamp` that can be set via {_extraData}.\\n        uint24 extraData;\\n    }\\n\\n    // =============================================================\\n    //                         TOKEN COUNTERS\\n    // =============================================================\\n\\n    /**\\n     * @dev Returns the total number of tokens in existence.\\n     * Burned tokens will reduce the count.\\n     * To get the total number of tokens minted, please see {_totalMinted}.\\n     */\\n    function totalSupply() external view returns (uint256);\\n\\n    // =============================================================\\n    //                            IERC165\\n    // =============================================================\\n\\n    /**\\n     * @dev Returns true if this contract implements the interface defined by\\n     * `interfaceId`. See the corresponding\\n     * [EIP section](https://eips.ethereum.org/EIPS/eip-165#how-interfaces-are-identified)\\n     * to learn more about how these ids are created.\\n     *\\n     * This function call must use less than 30000 gas.\\n     */\\n    function supportsInterface(bytes4 interfaceId) external view returns (bool);\\n\\n    // =============================================================\\n    //                            IERC721\\n    // =============================================================\\n\\n    /**\\n     * @dev Emitted when `tokenId` token is transferred from `from` to `to`.\\n     */\\n    event Transfer(address indexed from, address indexed to, uint256 indexed tokenId);\\n\\n    /**\\n     * @dev Emitted when `owner` enables `approved` to manage the `tokenId` token.\\n     */\\n    event Approval(address indexed owner, address indexed approved, uint256 indexed tokenId);\\n\\n    /**\\n     * @dev Emitted when `owner` enables or disables\\n     * (`approved`) `operator` to manage all of its assets.\\n     */\\n    event ApprovalForAll(address indexed owner, address indexed operator, bool approved);\\n\\n    /**\\n     * @dev Returns the number of tokens in `owner`'s account.\\n     */\\n    function balanceOf(address owner) external view returns (uint256 balance);\\n\\n    /**\\n     * @dev Returns the owner of the `tokenId` token.\\n     *\\n     * Requirements:\\n     *\\n     * - `tokenId` must exist.\\n     */\\n    function ownerOf(uint256 tokenId) external view returns (address owner);\\n\\n    /**\\n     * @dev Safely transfers `tokenId` token from `from` to `to`,\\n     * checking first that contract recipients are aware of the ERC721 protocol\\n     * to prevent tokens from being forever locked.\\n     *\\n     * Requirements:\\n     *\\n     * - `from` cannot be the zero address.\\n     * - `to` cannot be the zero address.\\n     * - `tokenId` token must exist and be owned by `from`.\\n     * - If the caller is not `from`, it must be have been allowed to move\\n     * this token by either {approve} or {setApprovalForAll}.\\n     * - If `to` refers to a smart contract, it must implement\\n     * {IERC721Receiver-onERC721Received}, which is called upon a safe transfer.\\n     *\\n     * Emits a {Transfer} event.\\n     */\\n    function safeTransferFrom(\\n        address from,\\n        address to,\\n        uint256 tokenId,\\n        bytes calldata data\\n    ) external payable;\\n\\n    /**\\n     * @dev Equivalent to `safeTransferFrom(from, to, tokenId, '')`.\\n     */\\n    function safeTransferFrom(\\n        address from,\\n        address to,\\n        uint256 tokenId\\n    ) external payable;\\n\\n    /**\\n     * @dev Transfers `tokenId` from `from` to `to`.\\n     *\\n     * WARNING: Usage of this method is discouraged, use {safeTransferFrom}\\n     * whenever possible.\\n     *\\n     * Requirements:\\n     *\\n     * - `from` cannot be the zero address.\\n     * - `to` cannot be the zero address.\\n     * - `tokenId` token must be owned by `from`.\\n     * - If the caller is not `from`, it must be approved to move this token\\n     * by either {approve} or {setApprovalForAll}.\\n     *\\n     * Emits a {Transfer} event.\\n     */\\n    function transferFrom(\\n        address from,\\n        address to,\\n        uint256 tokenId\\n    ) external payable;\\n\\n    /**\\n     * @dev Gives permission to `to` to transfer `tokenId` token to another account.\\n     * The approval is cleared when the token is transferred.\\n     *\\n     * Only a single account can be approved at a time, so approving the\\n     * zero address clears previous approvals.\\n     *\\n     * Requirements:\\n     *\\n     * - The caller must own the token or be an approved operator.\\n     * - `tokenId` must exist.\\n     *\\n     * Emits an {Approval} event.\\n     */\\n    function approve(address to, uint256 tokenId) external payable;\\n\\n    /**\\n     * @dev Approve or remove `operator` as an operator for the caller.\\n     * Operators can call {transferFrom} or {safeTransferFrom}\\n     * for any token owned by the caller.\\n     *\\n     * Requirements:\\n     *\\n     * - The `operator` cannot be the caller.\\n     *\\n     * Emits an {ApprovalForAll} event.\\n     */\\n    function setApprovalForAll(address operator, bool _approved) external;\\n\\n    /**\\n     * @dev Returns the account approved for `tokenId` token.\\n     *\\n     * Requirements:\\n     *\\n     * - `tokenId` must exist.\\n     */\\n    function getApproved(uint256 tokenId) external view returns (address operator);\\n\\n    /**\\n     * @dev Returns if the `operator` is allowed to manage all of the assets of `owner`.\\n     *\\n     * See {setApprovalForAll}.\\n     */\\n    function isApprovedForAll(address owner, address operator) external view returns (bool);\\n\\n    // =============================================================\\n    //                        IERC721Metadata\\n    // =============================================================\\n\\n    /**\\n     * @dev Returns the token collection name.\\n     */\\n    function name() external view returns (string memory);\\n\\n    /**\\n     * @dev Returns the token collection symbol.\\n     */\\n    function symbol() external view returns (string memory);\\n\\n    /**\\n     * @dev Returns the Uniform Resource Identifier (URI) for `tokenId` token.\\n     */\\n    function tokenURI(uint256 tokenId) external view returns (string memory);\\n\\n    // =============================================================\\n    //                           IERC2309\\n    // =============================================================\\n\\n    /**\\n     * @dev Emitted when tokens in `fromTokenId` to `toTokenId`\\n     * (inclusive) is transferred from `from` to `to`, as defined in the\\n     * [ERC2309](https://eips.ethereum.org/EIPS/eip-2309) standard.\\n     *\\n     * See {_mintERC2309} for more details.\\n     */\\n    event ConsecutiveTransfer(uint256 indexed fromTokenId, uint256 toTokenId, address indexed from, address indexed to);\\n}\\n\"},\"ERC721A.sol\":{\"content\":\"// SPDX-License-Identifier: MIT\\n// ERC721A Contracts v4.3.0\\n// Creator: Chiru Labs\\n\\npragma solidity ^0.8.4;\\n\\nimport \\\"./IERC721A.sol\\\";\\n\\n/**\\n * @dev Interface of ERC721 token receiver.\\n */\\ninterface ERC721A__IERC721Receiver {\\n    function onERC721Received(address operator, address from, uint256 tokenId, bytes calldata data)\\n        external\\n        returns (bytes4);\\n}\\n\\n/**\\n * @title ERC721A\\n *\\n * @dev Implementation of the [ERC721](https://eips.ethereum.org/EIPS/eip-721)\\n * Non-Fungible Token Standard, including the Metadata extension.\\n * Optimized for lower gas during batch mints.\\n *\\n * Token IDs are minted in sequential order (e.g. 0, 1, 2, 3, ...)\\n * starting from `_startTokenId()`.\\n *\\n * The `_sequentialUpTo()` function can be overriden to enable spot mints\\n * (i.e. non-consecutive mints) for `tokenId`s greater than `_sequentialUpTo()`.\\n *\\n * Assumptions:\\n *\\n * - An owner cannot have more than 2**64 - 1 (max value of uint64) of supply.\\n * - The maximum token ID cannot exceed 2**256 - 1 (max value of uint256).\\n */\\ncontract ERC721A is IERC721A {\\n    // Bypass for a `--via-ir` bug (https://github.com/chiru-labs/ERC721A/pull/364).\\n    struct TokenApprovalRef {\\n        address value;\\n    }\\n\\n    // =============================================================\\n    //                           CONSTANTS\\n    // =============================================================\\n\\n    // Mask of an entry in packed address data.\\n    uint256 private constant _BITMASK_ADDRESS_DATA_ENTRY = (1 << 64) - 1;\\n\\n    // The bit position of `numberMinted` in packed address data.\\n    uint256 private constant _BITPOS_NUMBER_MINTED = 64;\\n\\n    // The bit position of `numberBurned` in packed address data.\\n    uint256 private constant _BITPOS_NUMBER_BURNED = 128;\\n\\n    // The bit position of `aux` in packed address data.\\n    uint256 private constant _BITPOS_AUX = 192;\\n\\n    // Mask of all 256 bits in packed address data except the 64 bits for `aux`.\\n    uint256 private constant _BITMASK_AUX_COMPLEMENT = (1 << 192) - 1;\\n\\n    // The bit position of `startTimestamp` in packed ownership.\\n    uint256 private constant _BITPOS_START_TIMESTAMP = 160;\\n\\n    // The bit mask of the `burned` bit in packed ownership.\\n    uint256 private constant _BITMASK_BURNED = 1 << 224;\\n\\n    // The bit position of the `nextInitialized` bit in packed ownership.\\n    uint256 private constant _BITPOS_NEXT_INITIALIZED = 225;\\n\\n    // The bit mask of the `nextInitialized` bit in packed ownership.\\n    uint256 private constant _BITMASK_NEXT_INITIALIZED = 1 << 225;\\n\\n    // The bit position of `extraData` in packed ownership.\\n    uint256 private constant _BITPOS_EXTRA_DATA = 232;\\n\\n    // Mask of all 256 bits in a packed ownership except the 24 bits for `extraData`.\\n    uint256 private constant _BITMASK_EXTRA_DATA_COMPLEMENT = (1 << 232) - 1;\\n\\n    // The mask of the lower 160 bits for addresses.\\n    uint256 private constant _BITMASK_ADDRESS = (1 << 160) - 1;\\n\\n    // The maximum `quantity` that can be minted with {_mintERC2309}.\\n    // This limit is to prevent overflows on the address data entries.\\n    // For a limit of 5000, a total of 3.689e15 calls to {_mintERC2309}\\n    // is required to cause an overflow, which is unrealistic.\\n    uint256 private constant _MAX_MINT_ERC2309_QUANTITY_LIMIT = 5000;\\n\\n    // The `Transfer` event signature is given by:\\n    // `keccak256(bytes(\\\"Transfer(address,address,uint256)\\\"))`.\\n    bytes32 private constant _TRANSFER_EVENT_SIGNATURE =\\n        0xddf252ad1be2c89b69c2b068fc378daa952ba7f163c4a11628f55a4df523b3ef;\\n\\n    // =============================================================\\n    //                            STORAGE\\n    // =============================================================\\n\\n    // The next token ID to be minted.\\n    uint256 private _currentIndex;\\n\\n    // The number of tokens burned.\\n    uint256 private _burnCounter;\\n\\n    // Token name\\n    string private _name;\\n\\n    // Token symbol\\n    string private _symbol;\\n\\n    // Mapping from token ID to ownership details\\n    // An empty struct value does not necessarily mean the token is unowned.\\n    // See {_packedOwnershipOf} implementation for details.\\n    //\\n    // Bits Layout:\\n    // - [0..159]   `addr`\\n    // - [160..223] `startTimestamp`\\n    // - [224]      `burned`\\n    // - [225]      `nextInitialized`\\n    // - [232..255] `extraData`\\n    mapping(uint256 => uint256) private _packedOwnerships;\\n\\n    // Mapping owner address to address data.\\n    //\\n    // Bits Layout:\\n    // - [0..63]    `balance`\\n    // - [64..127]  `numberMinted`\\n    // - [128..191] `numberBurned`\\n    // - [192..255] `aux`\\n    mapping(address => uint256) private _packedAddressData;\\n\\n    // Mapping from token ID to approved address.\\n    mapping(uint256 => TokenApprovalRef) private _tokenApprovals;\\n\\n    // Mapping from owner to operator approvals\\n    mapping(address => mapping(address => bool)) private _operatorApprovals;\\n\\n    // The amount of tokens minted above `_sequentialUpTo()`.\\n    // We call these spot mints (i.e. non-sequential mints).\\n    uint256 private _spotMinted;\\n\\n    // =============================================================\\n    //                          CONSTRUCTOR\\n    // =============================================================\\n\\n    constructor(string memory name_, string memory symbol_) {\\n        _name = name_;\\n        _symbol = symbol_;\\n        _currentIndex = _startTokenId();\\n\\n        if (_sequentialUpTo() < _startTokenId()) _revert(SequentialUpToTooSmall.selector);\\n    }\\n\\n    // =============================================================\\n    //                   TOKEN COUNTING OPERATIONS\\n    // =============================================================\\n\\n    /**\\n     * @dev Returns the starting token ID for sequential mints.\\n     *\\n     * Override this function to change the starting token ID for sequential mints.\\n     *\\n     * Note: The value returned must never change after any tokens have been minted.\\n     */\\n    function _startTokenId() internal view virtual returns (uint256) {\\n        return 0;\\n    }\\n\\n    /**\\n     * @dev Returns the maximum token ID (inclusive) for sequential mints.\\n     *\\n     * Override this function to return a value less than 2**256 - 1,\\n     * but greater than `_startTokenId()`, to enable spot (non-sequential) mints.\\n     *\\n     * Note: The value returned must never change after any tokens have been minted.\\n     */\\n    function _sequentialUpTo() internal view virtual returns (uint256) {\\n        return type(uint256).max;\\n    }\\n\\n    /**\\n     * @dev Returns the next token ID to be minted.\\n     */\\n    function _nextTokenId() internal view virtual returns (uint256) {\\n        return _currentIndex;\\n    }\\n\\n    /**\\n     * @dev Returns the total number of tokens in existence.\\n     * Burned tokens will reduce the count.\\n     * To get the total number of tokens minted, please see {_totalMinted}.\\n     */\\n    function totalSupply() public view virtual override returns (uint256 result) {\\n        // Counter underflow is impossible as `_burnCounter` cannot be incremented\\n        // more than `_currentIndex + _spotMinted - _startTokenId()` times.\\n        unchecked {\\n            // With spot minting, the intermediate `result` can be temporarily negative,\\n            // and the computation must be unchecked.\\n            result = _currentIndex - _burnCounter - _startTokenId();\\n            if (_sequentialUpTo() != type(uint256).max) result += _spotMinted;\\n        }\\n    }\\n\\n    /**\\n     * @dev Returns the total amount of tokens minted in the contract.\\n     */\\n    function _totalMinted() internal view virtual returns (uint256 result) {\\n        // Counter underflow is impossible as `_currentIndex` does not decrement,\\n        // and it is initialized to `_startTokenId()`.\\n        unchecked {\\n            result = _currentIndex - _startTokenId();\\n            if (_sequentialUpTo() != type(uint256).max) result += _spotMinted;\\n        }\\n    }\\n\\n    /**\\n     * @dev Returns the total number of tokens burned.\\n     */\\n    function _totalBurned() internal view virtual returns (uint256) {\\n        return _burnCounter;\\n    }\\n\\n    /**\\n     * @dev Returns the total number of tokens that are spot-minted.\\n     */\\n    function _totalSpotMinted() internal view virtual returns (uint256) {\\n        return _spotMinted;\\n    }\\n\\n    // =============================================================\\n    //                    ADDRESS DATA OPERATIONS\\n    // =============================================================\\n\\n    /**\\n     * @dev Returns the number of tokens in `owner`'s account.\\n     */\\n    function balanceOf(address owner) public view virtual override returns (uint256) {\\n        if (owner == address(0)) _revert(BalanceQueryForZeroAddress.selector);\\n        return _packedAddressData[owner] & _BITMASK_ADDRESS_DATA_ENTRY;\\n    }\\n\\n    /**\\n     * Returns the number of tokens minted by `owner`.\\n     */\\n    function _numberMinted(address owner) internal view returns (uint256) {\\n        return (_packedAddressData[owner] >> _BITPOS_NUMBER_MINTED) & _BITMASK_ADDRESS_DATA_ENTRY;\\n    }\\n\\n    /**\\n     * Returns the number of tokens burned by or on behalf of `owner`.\\n     */\\n    function _numberBurned(address owner) internal view returns (uint256) {\\n        return (_packedAddressData[owner] >> _BITPOS_NUMBER_BURNED) & _BITMASK_ADDRESS_DATA_ENTRY;\\n    }\\n\\n    /**\\n     * Returns the auxiliary data for `owner`. (e.g. number of whitelist mint slots used).\\n     */\\n    function _getAux(address owner) internal view returns (uint64) {\\n        return uint64(_packedAddressData[owner] >> _BITPOS_AUX);\\n    }\\n\\n    /**\\n     * Sets the auxiliary data for `owner`. (e.g. number of whitelist mint slots used).\\n     * If there are multiple variables, please pack them into a uint64.\\n     */\\n    function _setAux(address owner, uint64 aux) internal virtual {\\n        uint256 packed = _packedAddressData[owner];\\n        uint256 auxCasted;\\n        // Cast `aux` with assembly to avoid redundant masking.\\n        assembly {\\n            auxCasted := aux\\n        }\\n        packed = (packed & _BITMASK_AUX_COMPLEMENT) | (auxCasted << _BITPOS_AUX);\\n        _packedAddressData[owner] = packed;\\n    }\\n\\n    // =============================================================\\n    //                            IERC165\\n    // =============================================================\\n\\n    /**\\n     * @dev Returns true if this contract implements the interface defined by\\n     * `interfaceId`. See the corresponding\\n     * [EIP section](https://eips.ethereum.org/EIPS/eip-165#how-interfaces-are-identified)\\n     * to learn more about how these ids are created.\\n     *\\n     * This function call must use less than 30000 gas.\\n     */\\n    function supportsInterface(bytes4 interfaceId) public view virtual override returns (bool) {\\n        // The interface IDs are constants representing the first 4 bytes\\n        // of the XOR of all function selectors in the interface.\\n        // See: [ERC165](https://eips.ethereum.org/EIPS/eip-165)\\n        // (e.g. `bytes4(i.functionA.selector ^ i.functionB.selector ^ ...)`)\\n        return interfaceId == 0x01ffc9a7 // ERC165 interface ID for ERC165.\\n            || interfaceId == 0x80ac58cd // ERC165 interface ID for ERC721.\\n            || interfaceId == 0x5b5e139f; // ERC165 interface ID for ERC721Metadata.\\n    }\\n\\n    // =============================================================\\n    //                        IERC721Metadata\\n    // =============================================================\\n\\n    /**\\n     * @dev Returns the token collection name.\\n     */\\n    function name() public view virtual override returns (string memory) {\\n        return _name;\\n    }\\n\\n    /**\\n     * @dev Returns the token collection symbol.\\n     */\\n    function symbol() public view virtual override returns (string memory) {\\n        return _symbol;\\n    }\\n\\n    /**\\n     * @dev Returns the Uniform Resource Identifier (URI) for `tokenId` token.\\n     */\\n    function tokenURI(uint256 tokenId) public view virtual override returns (string memory) {\\n        if (!_exists(tokenId)) _revert(URIQueryForNonexistentToken.selector);\\n\\n        string memory baseURI = _baseURI();\\n        return bytes(baseURI).length != 0 ? string(abi.encodePacked(baseURI, _toString(tokenId))) : \\\"\\\";\\n    }\\n\\n    /**\\n     * @dev Base URI for computing {tokenURI}. If set, the resulting URI for each\\n     * token will be the concatenation of the `baseURI` and the `tokenId`. Empty\\n     * by default, it can be overridden in child contracts.\\n     */\\n    function _baseURI() internal view virtual returns (string memory) {\\n        return \\\"\\\";\\n    }\\n\\n    // =============================================================\\n    //                     OWNERSHIPS OPERATIONS\\n    // =============================================================\\n\\n    /**\\n     * @dev Returns the owner of the `tokenId` token.\\n     *\\n     * Requirements:\\n     *\\n     * - `tokenId` must exist.\\n     */\\n    function ownerOf(uint256 tokenId) public view virtual override returns (address) {\\n        return address(uint160(_packedOwnershipOf(tokenId)));\\n    }\\n\\n    /**\\n     * @dev Gas spent here starts off proportional to the maximum mint batch size.\\n     * It gradually moves to O(1) as tokens get transferred around over time.\\n     */\\n    function _ownershipOf(uint256 tokenId) internal view virtual returns (TokenOwnership memory) {\\n        return _unpackedOwnership(_packedOwnershipOf(tokenId));\\n    }\\n\\n    /**\\n     * @dev Returns the unpacked `TokenOwnership` struct at `index`.\\n     */\\n    function _ownershipAt(uint256 index) internal view virtual returns (TokenOwnership memory) {\\n        return _unpackedOwnership(_packedOwnerships[index]);\\n    }\\n\\n    /**\\n     * @dev Returns whether the ownership slot at `index` is initialized.\\n     * An uninitialized slot does not necessarily mean that the slot has no owner.\\n     */\\n    function _ownershipIsInitialized(uint256 index) internal view virtual returns (bool) {\\n        return _packedOwnerships[index] != 0;\\n    }\\n\\n    /**\\n     * @dev Initializes the ownership slot minted at `index` for efficiency purposes.\\n     */\\n    function _initializeOwnershipAt(uint256 index) internal virtual {\\n        if (_packedOwnerships[index] == 0) {\\n            _packedOwnerships[index] = _packedOwnershipOf(index);\\n        }\\n    }\\n\\n    /**\\n     * @dev Returns the packed ownership data of `tokenId`.\\n     */\\n    function _packedOwnershipOf(uint256 tokenId) private view returns (uint256 packed) {\\n        if (_startTokenId() <= tokenId) {\\n            packed = _packedOwnerships[tokenId];\\n\\n            if (tokenId > _sequentialUpTo()) {\\n                if (_packedOwnershipExists(packed)) return packed;\\n                _revert(OwnerQueryForNonexistentToken.selector);\\n            }\\n\\n            // If the data at the starting slot does not exist, start the scan.\\n            if (packed == 0) {\\n                if (tokenId >= _currentIndex) _revert(OwnerQueryForNonexistentToken.selector);\\n                // Invariant:\\n                // There will always be an initialized ownership slot\\n                // (i.e. `ownership.addr != address(0) && ownership.burned == false`)\\n                // before an unintialized ownership slot\\n                // (i.e. `ownership.addr == address(0) && ownership.burned == false`)\\n                // Hence, `tokenId` will not underflow.\\n                //\\n                // We can directly compare the packed value.\\n                // If the address is zero, packed will be zero.\\n                for (;;) {\\n                    unchecked {\\n                        packed = _packedOwnerships[--tokenId];\\n                    }\\n                    if (packed == 0) continue;\\n                    if (packed & _BITMASK_BURNED == 0) return packed;\\n                    // Otherwise, the token is burned, and we must revert.\\n                    // This handles the case of batch burned tokens, where only the burned bit\\n                    // of the starting slot is set, and remaining slots are left uninitialized.\\n                    _revert(OwnerQueryForNonexistentToken.selector);\\n                }\\n            }\\n            // Otherwise, the data exists and we can skip the scan.\\n            // This is possible because we have already achieved the target condition.\\n            // This saves 2143 gas on transfers of initialized tokens.\\n            // If the token is not burned, return `packed`. Otherwise, revert.\\n            if (packed & _BITMASK_BURNED == 0) return packed;\\n        }\\n        _revert(OwnerQueryForNonexistentToken.selector);\\n    }\\n\\n    /**\\n     * @dev Returns the unpacked `TokenOwnership` struct from `packed`.\\n     */\\n    function _unpackedOwnership(uint256 packed) private pure returns (TokenOwnership memory ownership) {\\n        ownership.addr = address(uint160(packed));\\n        ownership.startTimestamp = uint64(packed >> _BITPOS_START_TIMESTAMP);\\n        ownership.burned = packed & _BITMASK_BURNED != 0;\\n        ownership.extraData = uint24(packed >> _BITPOS_EXTRA_DATA);\\n    }\\n\\n    /**\\n     * @dev Packs ownership data into a single uint256.\\n     */\\n    function _packOwnershipData(address owner, uint256 flags) private view returns (uint256 result) {\\n        assembly {\\n            // Mask `owner` to the lower 160 bits, in case the upper bits somehow aren't clean.\\n            owner := and(owner, _BITMASK_ADDRESS)\\n            // `owner | (block.timestamp << _BITPOS_START_TIMESTAMP) | flags`.\\n            result := or(owner, or(shl(_BITPOS_START_TIMESTAMP, timestamp()), flags))\\n        }\\n    }\\n\\n    /**\\n     * @dev Returns the `nextInitialized` flag set if `quantity` equals 1.\\n     */\\n    function _nextInitializedFlag(uint256 quantity) private pure returns (uint256 result) {\\n        // For branchless setting of the `nextInitialized` flag.\\n        assembly {\\n            // `(quantity == 1) << _BITPOS_NEXT_INITIALIZED`.\\n            result := shl(_BITPOS_NEXT_INITIALIZED, eq(quantity, 1))\\n        }\\n    }\\n\\n    // =============================================================\\n    //                      APPROVAL OPERATIONS\\n    // =============================================================\\n\\n    /**\\n     * @dev Gives permission to `to` to transfer `tokenId` token to another account. See {ERC721A-_approve}.\\n     *\\n     * Requirements:\\n     *\\n     * - The caller must own the token or be an approved operator.\\n     */\\n    function approve(address to, uint256 tokenId) public payable virtual override {\\n        _approve(to, tokenId, true);\\n    }\\n\\n    /**\\n     * @dev Returns the account approved for `tokenId` token.\\n     *\\n     * Requirements:\\n     *\\n     * - `tokenId` must exist.\\n     */\\n    function getApproved(uint256 tokenId) public view virtual override returns (address) {\\n        if (!_exists(tokenId)) _revert(ApprovalQueryForNonexistentToken.selector);\\n\\n        return _tokenApprovals[tokenId].value;\\n    }\\n\\n    /**\\n     * @dev Approve or remove `operator` as an operator for the caller.\\n     * Operators can call {transferFrom} or {safeTransferFrom}\\n     * for any token owned by the caller.\\n     *\\n     * Requirements:\\n     *\\n     * - The `operator` cannot be the caller.\\n     *\\n     * Emits an {ApprovalForAll} event.\\n     */\\n    function setApprovalForAll(address operator, bool approved) public virtual override {\\n        _operatorApprovals[_msgSenderERC721A()][operator] = approved;\\n        emit ApprovalForAll(_msgSenderERC721A(), operator, approved);\\n    }\\n\\n    /**\\n     * @dev Returns if the `operator` is allowed to manage all of the assets of `owner`.\\n     *\\n     * See {setApprovalForAll}.\\n     */\\n    function isApprovedForAll(address owner, address operator) public view virtual override returns (bool) {\\n        return _operatorApprovals[owner][operator];\\n    }\\n\\n    /**\\n     * @dev Returns whether `tokenId` exists.\\n     *\\n     * Tokens can be managed by their owner or approved accounts via {approve} or {setApprovalForAll}.\\n     *\\n     * Tokens start existing when they are minted. See {_mint}.\\n     */\\n    function _exists(uint256 tokenId) internal view virtual returns (bool result) {\\n        if (_startTokenId() <= tokenId) {\\n            if (tokenId > _sequentialUpTo()) return _packedOwnershipExists(_packedOwnerships[tokenId]);\\n\\n            if (tokenId < _currentIndex) {\\n                uint256 packed;\\n                while ((packed = _packedOwnerships[tokenId]) == 0) --tokenId;\\n                result = packed & _BITMASK_BURNED == 0;\\n            }\\n        }\\n    }\\n\\n    /**\\n     * @dev Returns whether `packed` represents a token that exists.\\n     */\\n    function _packedOwnershipExists(uint256 packed) private pure returns (bool result) {\\n        assembly {\\n            // The following is equivalent to `owner != address(0) && burned == false`.\\n            // Symbolically tested.\\n            result := gt(and(packed, _BITMASK_ADDRESS), and(packed, _BITMASK_BURNED))\\n        }\\n    }\\n\\n    /**\\n     * @dev Returns whether `msgSender` is equal to `approvedAddress` or `owner`.\\n     */\\n    function _isSenderApprovedOrOwner(address approvedAddress, address owner, address msgSender)\\n        private\\n        pure\\n        returns (bool result)\\n    {\\n        assembly {\\n            // Mask `owner` to the lower 160 bits, in case the upper bits somehow aren't clean.\\n            owner := and(owner, _BITMASK_ADDRESS)\\n            // Mask `msgSender` to the lower 160 bits, in case the upper bits somehow aren't clean.\\n            msgSender := and(msgSender, _BITMASK_ADDRESS)\\n            // `msgSender == owner || msgSender == approvedAddress`.\\n            result := or(eq(msgSender, owner), eq(msgSender, approvedAddress))\\n        }\\n    }\\n\\n    /**\\n     * @dev Returns the storage slot and value for the approved address of `tokenId`.\\n     */\\n    function _getApprovedSlotAndAddress(uint256 tokenId)\\n        private\\n        view\\n        returns (uint256 approvedAddressSlot, address approvedAddress)\\n    {\\n        TokenApprovalRef storage tokenApproval = _tokenApprovals[tokenId];\\n        // The following is equivalent to `approvedAddress = _tokenApprovals[tokenId].value`.\\n        assembly {\\n            approvedAddressSlot := tokenApproval.slot\\n            approvedAddress := sload(approvedAddressSlot)\\n        }\\n    }\\n\\n    // =============================================================\\n    //                      TRANSFER OPERATIONS\\n    // =============================================================\\n\\n    /**\\n     * @dev Transfers `tokenId` from `from` to `to`.\\n     *\\n     * Requirements:\\n     *\\n     * - `from` cannot be the zero address.\\n     * - `to` cannot be the zero address.\\n     * - `tokenId` token must be owned by `from`.\\n     * - If the caller is not `from`, it must be approved to move this token\\n     * by either {approve} or {setApprovalForAll}.\\n     *\\n     * Emits a {Transfer} event.\\n     */\\n    function transferFrom(address from, address to, uint256 tokenId) public payable virtual override {\\n        uint256 prevOwnershipPacked = _packedOwnershipOf(tokenId);\\n\\n        // Mask `from` to the lower 160 bits, in case the upper bits somehow aren't clean.\\n        from = address(uint160(uint256(uint160(from)) & _BITMASK_ADDRESS));\\n\\n        if (address(uint160(prevOwnershipPacked)) != from) _revert(TransferFromIncorrectOwner.selector);\\n\\n        (uint256 approvedAddressSlot, address approvedAddress) = _getApprovedSlotAndAddress(tokenId);\\n\\n        // The nested ifs save around 20+ gas over a compound boolean condition.\\n        if (!_isSenderApprovedOrOwner(approvedAddress, from, _msgSenderERC721A())) {\\n            if (!isApprovedForAll(from, _msgSenderERC721A())) _revert(TransferCallerNotOwnerNorApproved.selector);\\n        }\\n\\n        _beforeTokenTransfers(from, to, tokenId, 1);\\n\\n        // Clear approvals from the previous owner.\\n        assembly {\\n            if approvedAddress {\\n                // This is equivalent to `delete _tokenApprovals[tokenId]`.\\n                sstore(approvedAddressSlot, 0)\\n            }\\n        }\\n\\n        // Underflow of the sender's balance is impossible because we check for\\n        // ownership above and the recipient's balance can't realistically overflow.\\n        // Counter overflow is incredibly unrealistic as `tokenId` would have to be 2**256.\\n        unchecked {\\n            // We can directly increment and decrement the balances.\\n            --_packedAddressData[from]; // Updates: `balance -= 1`.\\n            ++_packedAddressData[to]; // Updates: `balance += 1`.\\n\\n            // Updates:\\n            // - `address` to the next owner.\\n            // - `startTimestamp` to the timestamp of transfering.\\n            // - `burned` to `false`.\\n            // - `nextInitialized` to `true`.\\n            _packedOwnerships[tokenId] =\\n                _packOwnershipData(to, _BITMASK_NEXT_INITIALIZED | _nextExtraData(from, to, prevOwnershipPacked));\\n\\n            // If the next slot may not have been initialized (i.e. `nextInitialized == false`) .\\n            if (prevOwnershipPacked & _BITMASK_NEXT_INITIALIZED == 0) {\\n                uint256 nextTokenId = tokenId + 1;\\n                // If the next slot's address is zero and not burned (i.e. packed value is zero).\\n                if (_packedOwnerships[nextTokenId] == 0) {\\n                    // If the next slot is within bounds.\\n                    if (nextTokenId != _currentIndex) {\\n                        // Initialize the next slot to maintain correctness for `ownerOf(tokenId + 1)`.\\n                        _packedOwnerships[nextTokenId] = prevOwnershipPacked;\\n                    }\\n                }\\n            }\\n        }\\n\\n        // Mask `to` to the lower 160 bits, in case the upper bits somehow aren't clean.\\n        uint256 toMasked = uint256(uint160(to)) & _BITMASK_ADDRESS;\\n        assembly {\\n            // Emit the `Transfer` event.\\n            log4(\\n                0, // Start of data (0, since no data).\\n                0, // End of data (0, since no data).\\n                _TRANSFER_EVENT_SIGNATURE, // Signature.\\n                from, // `from`.\\n                toMasked, // `to`.\\n                tokenId // `tokenId`.\\n            )\\n        }\\n        if (toMasked == 0) _revert(TransferToZeroAddress.selector);\\n\\n        _afterTokenTransfers(from, to, tokenId, 1);\\n    }\\n\\n    /**\\n     * @dev Equivalent to `safeTransferFrom(from, to, tokenId, '')`.\\n     */\\n    function safeTransferFrom(address from, address to, uint256 tokenId) public payable virtual override {\\n        safeTransferFrom(from, to, tokenId, \\\"\\\");\\n    }\\n\\n    /**\\n     * @dev Safely transfers `tokenId` token from `from` to `to`.\\n     *\\n     * Requirements:\\n     *\\n     * - `from` cannot be the zero address.\\n     * - `to` cannot be the zero address.\\n     * - `tokenId` token must exist and be owned by `from`.\\n     * - If the caller is not `from`, it must be approved to move this token\\n     * by either {approve} or {setApprovalForAll}.\\n     * - If `to` refers to a smart contract, it must implement\\n     * {IERC721Receiver-onERC721Received}, which is called upon a safe transfer.\\n     *\\n     * Emits a {Transfer} event.\\n     */\\n    function safeTransferFrom(address from, address to, uint256 tokenId, bytes memory _data)\\n        public\\n        payable\\n        virtual\\n        override\\n    {\\n        transferFrom(from, to, tokenId);\\n        if (to.code.length != 0) {\\n            if (!_checkContractOnERC721Received(from, to, tokenId, _data)) {\\n                _revert(TransferToNonERC721ReceiverImplementer.selector);\\n            }\\n        }\\n    }\\n\\n    /**\\n     * @dev Hook that is called before a set of serially-ordered token IDs\\n     * are about to be transferred. This includes minting.\\n     * And also called before burning one token.\\n     *\\n     * `startTokenId` - the first token ID to be transferred.\\n     * `quantity` - the amount to be transferred.\\n     *\\n     * Calling conditions:\\n     *\\n     * - When `from` and `to` are both non-zero, `from`'s `tokenId` will be\\n     * transferred to `to`.\\n     * - When `from` is zero, `tokenId` will be minted for `to`.\\n     * - When `to` is zero, `tokenId` will be burned by `from`.\\n     * - `from` and `to` are never both zero.\\n     */\\n    function _beforeTokenTransfers(address from, address to, uint256 startTokenId, uint256 quantity) internal virtual {}\\n\\n    /**\\n     * @dev Hook that is called after a set of serially-ordered token IDs\\n     * have been transferred. This includes minting.\\n     * And also called after one token has been burned.\\n     *\\n     * `startTokenId` - the first token ID to be transferred.\\n     * `quantity` - the amount to be transferred.\\n     *\\n     * Calling conditions:\\n     *\\n     * - When `from` and `to` are both non-zero, `from`'s `tokenId` has been\\n     * transferred to `to`.\\n     * - When `from` is zero, `tokenId` has been minted for `to`.\\n     * - When `to` is zero, `tokenId` has been burned by `from`.\\n     * - `from` and `to` are never both zero.\\n     */\\n    function _afterTokenTransfers(address from, address to, uint256 startTokenId, uint256 quantity) internal virtual {}\\n\\n    /**\\n     * @dev Private function to invoke {IERC721Receiver-onERC721Received} on a target contract.\\n     *\\n     * `from` - Previous owner of the given token ID.\\n     * `to` - Target address that will receive the token.\\n     * `tokenId` - Token ID to be transferred.\\n     * `_data` - Optional data to send along with the call.\\n     *\\n     * Returns whether the call correctly returned the expected magic value.\\n     */\\n    function _checkContractOnERC721Received(address from, address to, uint256 tokenId, bytes memory _data)\\n        private\\n        returns (bool)\\n    {\\n        try ERC721A__IERC721Receiver(to).onERC721Received(_msgSenderERC721A(), from, tokenId, _data) returns (\\n            bytes4 retval\\n        ) {\\n            return retval == ERC721A__IERC721Receiver(to).onERC721Received.selector;\\n        } catch (bytes memory reason) {\\n            if (reason.length == 0) {\\n                _revert(TransferToNonERC721ReceiverImplementer.selector);\\n            }\\n            assembly {\\n                revert(add(32, reason), mload(reason))\\n            }\\n        }\\n    }\\n\\n    // =============================================================\\n    //                        MINT OPERATIONS\\n    // =============================================================\\n\\n    /**\\n     * @dev Mints `quantity` tokens and transfers them to `to`.\\n     *\\n     * Requirements:\\n     *\\n     * - `to` cannot be the zero address.\\n     * - `quantity` must be greater than 0.\\n     *\\n     * Emits a {Transfer} event for each mint.\\n     */\\n    function _mint(address to, uint256 quantity) internal virtual {\\n        uint256 startTokenId = _currentIndex;\\n        if (quantity == 0) _revert(MintZeroQuantity.selector);\\n\\n        _beforeTokenTransfers(address(0), to, startTokenId, quantity);\\n\\n        // Overflows are incredibly unrealistic.\\n        // `balance` and `numberMinted` have a maximum limit of 2**64.\\n        // `tokenId` has a maximum limit of 2**256.\\n        unchecked {\\n            // Updates:\\n            // - `address` to the owner.\\n            // - `startTimestamp` to the timestamp of minting.\\n            // - `burned` to `false`.\\n            // - `nextInitialized` to `quantity == 1`.\\n            _packedOwnerships[startTokenId] =\\n                _packOwnershipData(to, _nextInitializedFlag(quantity) | _nextExtraData(address(0), to, 0));\\n\\n            // Updates:\\n            // - `balance += quantity`.\\n            // - `numberMinted += quantity`.\\n            //\\n            // We can directly add to the `balance` and `numberMinted`.\\n            _packedAddressData[to] += quantity * ((1 << _BITPOS_NUMBER_MINTED) | 1);\\n\\n            // Mask `to` to the lower 160 bits, in case the upper bits somehow aren't clean.\\n            uint256 toMasked = uint256(uint160(to)) & _BITMASK_ADDRESS;\\n\\n            if (toMasked == 0) _revert(MintToZeroAddress.selector);\\n\\n            uint256 end = startTokenId + quantity;\\n            uint256 tokenId = startTokenId;\\n\\n            if (end - 1 > _sequentialUpTo()) _revert(SequentialMintExceedsLimit.selector);\\n\\n            do {\\n                assembly {\\n                    // Emit the `Transfer` event.\\n                    log4(\\n                        0, // Start of data (0, since no data).\\n                        0, // End of data (0, since no data).\\n                        _TRANSFER_EVENT_SIGNATURE, // Signature.\\n                        0, // `address(0)`.\\n                        toMasked, // `to`.\\n                        tokenId // `tokenId`.\\n                    )\\n                }\\n                // The `!=` check ensures that large values of `quantity`\\n                // that overflows uint256 will make the loop run out of gas.\\n            } while (++tokenId != end);\\n\\n            _currentIndex = end;\\n        }\\n        _afterTokenTransfers(address(0), to, startTokenId, quantity);\\n    }\\n\\n    /**\\n     * @dev Mints `quantity` tokens and transfers them to `to`.\\n     *\\n     * This function is intended for efficient minting only during contract creation.\\n     *\\n     * It emits only one {ConsecutiveTransfer} as defined in\\n     * [ERC2309](https://eips.ethereum.org/EIPS/eip-2309),\\n     * instead of a sequence of {Transfer} event(s).\\n     *\\n     * Calling this function outside of contract creation WILL make your contract\\n     * non-compliant with the ERC721 standard.\\n     * For full ERC721 compliance, substituting ERC721 {Transfer} event(s) with the ERC2309\\n     * {ConsecutiveTransfer} event is only permissible during contract creation.\\n     *\\n     * Requirements:\\n     *\\n     * - `to` cannot be the zero address.\\n     * - `quantity` must be greater than 0.\\n     *\\n     * Emits a {ConsecutiveTransfer} event.\\n     */\\n    function _mintERC2309(address to, uint256 quantity) internal virtual {\\n        uint256 startTokenId = _currentIndex;\\n        if (to == address(0)) _revert(MintToZeroAddress.selector);\\n        if (quantity == 0) _revert(MintZeroQuantity.selector);\\n        if (quantity > _MAX_MINT_ERC2309_QUANTITY_LIMIT) _revert(MintERC2309QuantityExceedsLimit.selector);\\n\\n        _beforeTokenTransfers(address(0), to, startTokenId, quantity);\\n\\n        // Overflows are unrealistic due to the above check for `quantity` to be below the limit.\\n        unchecked {\\n            // Updates:\\n            // - `balance += quantity`.\\n            // - `numberMinted += quantity`.\\n            //\\n            // We can directly add to the `balance` and `numberMinted`.\\n            _packedAddressData[to] += quantity * ((1 << _BITPOS_NUMBER_MINTED) | 1);\\n\\n            // Updates:\\n            // - `address` to the owner.\\n            // - `startTimestamp` to the timestamp of minting.\\n            // - `burned` to `false`.\\n            // - `nextInitialized` to `quantity == 1`.\\n            _packedOwnerships[startTokenId] =\\n                _packOwnershipData(to, _nextInitializedFlag(quantity) | _nextExtraData(address(0), to, 0));\\n\\n            if (startTokenId + quantity - 1 > _sequentialUpTo()) _revert(SequentialMintExceedsLimit.selector);\\n\\n            emit ConsecutiveTransfer(startTokenId, startTokenId + quantity - 1, address(0), to);\\n\\n            _currentIndex = startTokenId + quantity;\\n        }\\n        _afterTokenTransfers(address(0), to, startTokenId, quantity);\\n    }\\n\\n    /**\\n     * @dev Safely mints `quantity` tokens and transfers them to `to`.\\n     *\\n     * Requirements:\\n     *\\n     * - If `to` refers to a smart contract, it must implement\\n     * {IERC721Receiver-onERC721Received}, which is called for each safe transfer.\\n     * - `quantity` must be greater than 0.\\n     *\\n     * See {_mint}.\\n     *\\n     * Emits a {Transfer} event for each mint.\\n     */\\n    function _safeMint(address to, uint256 quantity, bytes memory _data) internal virtual {\\n        _mint(to, quantity);\\n\\n        unchecked {\\n            if (to.code.length != 0) {\\n                uint256 end = _currentIndex;\\n                uint256 index = end - quantity;\\n                do {\\n                    if (!_checkContractOnERC721Received(address(0), to, index++, _data)) {\\n                        _revert(TransferToNonERC721ReceiverImplementer.selector);\\n                    }\\n                } while (index < end);\\n                // This prevents reentrancy to `_safeMint`.\\n                // It does not prevent reentrancy to `_safeMintSpot`.\\n                if (_currentIndex != end) revert();\\n            }\\n        }\\n    }\\n\\n    /**\\n     * @dev Equivalent to `_safeMint(to, quantity, '')`.\\n     */\\n    function _safeMint(address to, uint256 quantity) internal virtual {\\n        _safeMint(to, quantity, \\\"\\\");\\n    }\\n\\n    /**\\n     * @dev Mints a single token at `tokenId`.\\n     *\\n     * Note: A spot-minted `tokenId` that has been burned can be re-minted again.\\n     *\\n     * Requirements:\\n     *\\n     * - `to` cannot be the zero address.\\n     * - `tokenId` must be greater than `_sequentialUpTo()`.\\n     * - `tokenId` must not exist.\\n     *\\n     * Emits a {Transfer} event for each mint.\\n     */\\n    function _mintSpot(address to, uint256 tokenId) internal virtual {\\n        if (tokenId <= _sequentialUpTo()) _revert(SpotMintTokenIdTooSmall.selector);\\n        uint256 prevOwnershipPacked = _packedOwnerships[tokenId];\\n        if (_packedOwnershipExists(prevOwnershipPacked)) _revert(TokenAlreadyExists.selector);\\n\\n        _beforeTokenTransfers(address(0), to, tokenId, 1);\\n\\n        // Overflows are incredibly unrealistic.\\n        // The `numberMinted` for `to` is incremented by 1, and has a max limit of 2**64 - 1.\\n        // `_spotMinted` is incremented by 1, and has a max limit of 2**256 - 1.\\n        unchecked {\\n            // Updates:\\n            // - `address` to the owner.\\n            // - `startTimestamp` to the timestamp of minting.\\n            // - `burned` to `false`.\\n            // - `nextInitialized` to `true` (as `quantity == 1`).\\n            _packedOwnerships[tokenId] =\\n                _packOwnershipData(to, _nextInitializedFlag(1) | _nextExtraData(address(0), to, prevOwnershipPacked));\\n\\n            // Updates:\\n            // - `balance += 1`.\\n            // - `numberMinted += 1`.\\n            //\\n            // We can directly add to the `balance` and `numberMinted`.\\n            _packedAddressData[to] += (1 << _BITPOS_NUMBER_MINTED) | 1;\\n\\n            // Mask `to` to the lower 160 bits, in case the upper bits somehow aren't clean.\\n            uint256 toMasked = uint256(uint160(to)) & _BITMASK_ADDRESS;\\n\\n            if (toMasked == 0) _revert(MintToZeroAddress.selector);\\n\\n            assembly {\\n                // Emit the `Transfer` event.\\n                log4(\\n                    0, // Start of data (0, since no data).\\n                    0, // End of data (0, since no data).\\n                    _TRANSFER_EVENT_SIGNATURE, // Signature.\\n                    0, // `address(0)`.\\n                    toMasked, // `to`.\\n                    tokenId // `tokenId`.\\n                )\\n            }\\n\\n            ++_spotMinted;\\n        }\\n\\n        _afterTokenTransfers(address(0), to, tokenId, 1);\\n    }\\n\\n    /**\\n     * @dev Safely mints a single token at `tokenId`.\\n     *\\n     * Note: A spot-minted `tokenId` that has been burned can be re-minted again.\\n     *\\n     * Requirements:\\n     *\\n     * - If `to` refers to a smart contract, it must implement {IERC721Receiver-onERC721Received}.\\n     * - `tokenId` must be greater than `_sequentialUpTo()`.\\n     * - `tokenId` must not exist.\\n     *\\n     * See {_mintSpot}.\\n     *\\n     * Emits a {Transfer} event.\\n     */\\n    function _safeMintSpot(address to, uint256 tokenId, bytes memory _data) internal virtual {\\n        _mintSpot(to, tokenId);\\n\\n        unchecked {\\n            if (to.code.length != 0) {\\n                uint256 currentSpotMinted = _spotMinted;\\n                if (!_checkContractOnERC721Received(address(0), to, tokenId, _data)) {\\n                    _revert(TransferToNonERC721ReceiverImplementer.selector);\\n                }\\n                // This prevents reentrancy to `_safeMintSpot`.\\n                // It does not prevent reentrancy to `_safeMint`.\\n                if (_spotMinted != currentSpotMinted) revert();\\n            }\\n        }\\n    }\\n\\n    /**\\n     * @dev Equivalent to `_safeMintSpot(to, tokenId, '')`.\\n     */\\n    function _safeMintSpot(address to, uint256 tokenId) internal virtual {\\n        _safeMintSpot(to, tokenId, \\\"\\\");\\n    }\\n\\n    // =============================================================\\n    //                       APPROVAL OPERATIONS\\n    // =============================================================\\n\\n    /**\\n     * @dev Equivalent to `_approve(to, tokenId, false)`.\\n     */\\n    function _approve(address to, uint256 tokenId) internal virtual {\\n        _approve(to, tokenId, false);\\n    }\\n\\n    /**\\n     * @dev Gives permission to `to` to transfer `tokenId` token to another account.\\n     * The approval is cleared when the token is transferred.\\n     *\\n     * Only a single account can be approved at a time, so approving the\\n     * zero address clears previous approvals.\\n     *\\n     * Requirements:\\n     *\\n     * - `tokenId` must exist.\\n     *\\n     * Emits an {Approval} event.\\n     */\\n    function _approve(address to, uint256 tokenId, bool approvalCheck) internal virtual {\\n        address owner = ownerOf(tokenId);\\n\\n        if (approvalCheck && _msgSenderERC721A() != owner) {\\n            if (!isApprovedForAll(owner, _msgSenderERC721A())) {\\n                _revert(ApprovalCallerNotOwnerNorApproved.selector);\\n            }\\n        }\\n\\n        _tokenApprovals[tokenId].value = to;\\n        emit Approval(owner, to, tokenId);\\n    }\\n\\n    // =============================================================\\n    //                        BURN OPERATIONS\\n    // =============================================================\\n\\n    /**\\n     * @dev Equivalent to `_burn(tokenId, false)`.\\n     */\\n    function _burn(uint256 tokenId) internal virtual {\\n        _burn(tokenId, false);\\n    }\\n\\n    /**\\n     * @dev Destroys `tokenId`.\\n     * The approval is cleared when the token is burned.\\n     *\\n     * Requirements:\\n     *\\n     * - `tokenId` must exist.\\n     *\\n     * Emits a {Transfer} event.\\n     */\\n    function _burn(uint256 tokenId, bool approvalCheck) internal virtual {\\n        uint256 prevOwnershipPacked = _packedOwnershipOf(tokenId);\\n\\n        address from = address(uint160(prevOwnershipPacked));\\n\\n        (uint256 approvedAddressSlot, address approvedAddress) = _getApprovedSlotAndAddress(tokenId);\\n\\n        if (approvalCheck) {\\n            // The nested ifs save around 20+ gas over a compound boolean condition.\\n            if (!_isSenderApprovedOrOwner(approvedAddress, from, _msgSenderERC721A())) {\\n                if (!isApprovedForAll(from, _msgSenderERC721A())) _revert(TransferCallerNotOwnerNorApproved.selector);\\n            }\\n        }\\n\\n        _beforeTokenTransfers(from, address(0), tokenId, 1);\\n\\n        // Clear approvals from the previous owner.\\n        assembly {\\n            if approvedAddress {\\n                // This is equivalent to `delete _tokenApprovals[tokenId]`.\\n                sstore(approvedAddressSlot, 0)\\n            }\\n        }\\n\\n        // Underflow of the sender's balance is impossible because we check for\\n        // ownership above and the recipient's balance can't realistically overflow.\\n        // Counter overflow is incredibly unrealistic as `tokenId` would have to be 2**256.\\n        unchecked {\\n            // Updates:\\n            // - `balance -= 1`.\\n            // - `numberBurned += 1`.\\n            //\\n            // We can directly decrement the balance, and increment the number burned.\\n            // This is equivalent to `packed -= 1; packed += 1 << _BITPOS_NUMBER_BURNED;`.\\n            _packedAddressData[from] += (1 << _BITPOS_NUMBER_BURNED) - 1;\\n\\n            // Updates:\\n            // - `address` to the last owner.\\n            // - `startTimestamp` to the timestamp of burning.\\n            // - `burned` to `true`.\\n            // - `nextInitialized` to `true`.\\n            _packedOwnerships[tokenId] = _packOwnershipData(\\n                from,\\n                (_BITMASK_BURNED | _BITMASK_NEXT_INITIALIZED) | _nextExtraData(from, address(0), prevOwnershipPacked)\\n            );\\n\\n            // If the next slot may not have been initialized (i.e. `nextInitialized == false`) .\\n            if (prevOwnershipPacked & _BITMASK_NEXT_INITIALIZED == 0) {\\n                uint256 nextTokenId = tokenId + 1;\\n                // If the next slot's address is zero and not burned (i.e. packed value is zero).\\n                if (_packedOwnerships[nextTokenId] == 0) {\\n                    // If the next slot is within bounds.\\n                    if (nextTokenId != _currentIndex) {\\n                        // Initialize the next slot to maintain correctness for `ownerOf(tokenId + 1)`.\\n                        _packedOwnerships[nextTokenId] = prevOwnershipPacked;\\n                    }\\n                }\\n            }\\n        }\\n\\n        emit Transfer(from, address(0), tokenId);\\n        _afterTokenTransfers(from, address(0), tokenId, 1);\\n\\n        // Overflow not possible, as `_burnCounter` cannot be exceed `_currentIndex + _spotMinted` times.\\n        unchecked {\\n            _burnCounter++;\\n        }\\n    }\\n\\n    // =============================================================\\n    //                     EXTRA DATA OPERATIONS\\n    // =============================================================\\n\\n    /**\\n     * @dev Directly sets the extra data for the ownership data `index`.\\n     */\\n    function _setExtraDataAt(uint256 index, uint24 extraData) internal virtual {\\n        uint256 packed = _packedOwnerships[index];\\n        if (packed == 0) _revert(OwnershipNotInitializedForExtraData.selector);\\n        uint256 extraDataCasted;\\n        // Cast `extraData` with assembly to avoid redundant masking.\\n        assembly {\\n            extraDataCasted := extraData\\n        }\\n        packed = (packed & _BITMASK_EXTRA_DATA_COMPLEMENT) | (extraDataCasted << _BITPOS_EXTRA_DATA);\\n        _packedOwnerships[index] = packed;\\n    }\\n\\n    /**\\n     * @dev Called during each token transfer to set the 24bit `extraData` field.\\n     * Intended to be overridden by the cosumer contract.\\n     *\\n     * `previousExtraData` - the value of `extraData` before transfer.\\n     *\\n     * Calling conditions:\\n     *\\n     * - When `from` and `to` are both non-zero, `from`'s `tokenId` will be\\n     * transferred to `to`.\\n     * - When `from` is zero, `tokenId` will be minted for `to`.\\n     * - When `to` is zero, `tokenId` will be burned by `from`.\\n     * - `from` and `to` are never both zero.\\n     */\\n    function _extraData(address from, address to, uint24 previousExtraData) internal view virtual returns (uint24) {}\\n\\n    /**\\n     * @dev Returns the next extra data for the packed ownership data.\\n     * The returned result is shifted into position.\\n     */\\n    function _nextExtraData(address from, address to, uint256 prevOwnershipPacked) private view returns (uint256) {\\n        uint24 extraData = uint24(prevOwnershipPacked >> _BITPOS_EXTRA_DATA);\\n        return uint256(_extraData(from, to, extraData)) << _BITPOS_EXTRA_DATA;\\n    }\\n\\n    // =============================================================\\n    //                       OTHER OPERATIONS\\n    // =============================================================\\n\\n    /**\\n     * @dev Returns the message sender (defaults to `msg.sender`).\\n     *\\n     * If you are writing GSN compatible contracts, you need to override this function.\\n     */\\n    function _msgSenderERC721A() internal view virtual returns (address) {\\n        return msg.sender;\\n    }\\n\\n    /**\\n     * @dev Converts a uint256 to its ASCII string decimal representation.\\n     */\\n    function _toString(uint256 value) internal pure virtual returns (string memory str) {\\n        assembly {\\n            // The maximum value of a uint256 contains 78 digits (1 byte per digit), but\\n            // we allocate 0xa0 bytes to keep the free memory pointer 32-byte word aligned.\\n            // We will need 1 word for the trailing zeros padding, 1 word for the length,\\n            // and 3 words for a maximum of 78 digits. Total: 5 * 0x20 = 0xa0.\\n            let m := add(mload(0x40), 0xa0)\\n            // Update the free memory pointer to allocate.\\n            mstore(0x40, m)\\n            // Assign the `str` to the end.\\n            str := sub(m, 0x20)\\n            // Zeroize the slot after the string.\\n            mstore(str, 0)\\n\\n            // Cache the end of the memory to calculate the length later.\\n            let end := str\\n\\n            // We write the string from rightmost digit to leftmost digit.\\n            // The following is essentially a do-while loop that also handles the zero case.\\n            // prettier-ignore\\n            for { let temp := value } 1 {} {\\n                str := sub(str, 1)\\n                // Write the character to the pointer.\\n                // The ASCII index of the '0' character is 48.\\n                mstore8(str, add(48, mod(temp, 10)))\\n                // Keep dividing `temp` until zero.\\n                temp := div(temp, 10)\\n                // prettier-ignore\\n                if iszero(temp) { break }\\n            }\\n\\n            let length := sub(end, str)\\n            // Move the pointer 32 bytes leftwards to make room for the length.\\n            str := sub(str, 0x20)\\n            // Store the length.\\n            mstore(str, length)\\n        }\\n    }\\n\\n    /**\\n     * @dev For more efficient reverts.\\n     */\\n    function _revert(bytes4 errorSelector) internal pure {\\n        assembly {\\n            mstore(0x00, errorSelector)\\n            revert(0x00, 0x04)\\n        }\\n    }\\n}\\n\"},\"IERC721AQueryable.sol\":{\"content\":\"// SPDX-License-Identifier: MIT\\n// ERC721A Contracts v4.3.0\\n// Creator: Chiru Labs\\n\\npragma solidity ^0.8.4;\\n\\nimport '../IERC721A.sol';\\n\\n/**\\n * @dev Interface of ERC721AQueryable.\\n */\\ninterface IERC721AQueryable is IERC721A {\\n    /**\\n     * Invalid query range (`start` >= `stop`).\\n     */\\n    error InvalidQueryRange();\\n\\n    /**\\n     * @dev Returns the `TokenOwnership` struct at `tokenId` without reverting.\\n     *\\n     * If the `tokenId` is out of bounds:\\n     *\\n     * - `addr = address(0)`\\n     * - `startTimestamp = 0`\\n     * - `burned = false`\\n     * - `extraData = 0`\\n     *\\n     * If the `tokenId` is burned:\\n     *\\n     * - `addr = <Address of owner before token was burned>`\\n     * - `startTimestamp = <Timestamp when token was burned>`\\n     * - `burned = true`\\n     * - `extraData = <Extra data when token was burned>`\\n     *\\n     * Otherwise:\\n     *\\n     * - `addr = <Address of owner>`\\n     * - `startTimestamp = <Timestamp of start of ownership>`\\n     * - `burned = false`\\n     * - `extraData = <Extra data at start of ownership>`\\n     */\\n    function explicitOwnershipOf(uint256 tokenId) external view returns (TokenOwnership memory);\\n\\n    /**\\n     * @dev Returns an array of `TokenOwnership` structs at `tokenIds` in order.\\n     * See {ERC721AQueryable-explicitOwnershipOf}\\n     */\\n    function explicitOwnershipsOf(uint256[] memory tokenIds) external view returns (TokenOwnership[] memory);\\n\\n    /**\\n     * @dev Returns an array of token IDs owned by `owner`,\\n     * in the range [`start`, `stop`)\\n     * (i.e. `start <= tokenId < stop`).\\n     *\\n     * This function allows for tokens to be queried if the collection\\n     * grows too big for a single call of {ERC721AQueryable-tokensOfOwner}.\\n     *\\n     * Requirements:\\n     *\\n     * - `start < stop`\\n     */\\n    function tokensOfOwnerIn(\\n        address owner,\\n        uint256 start,\\n        uint256 stop\\n    ) external view returns (uint256[] memory);\\n\\n    /**\\n     * @dev Returns an array of token IDs owned by `owner`.\\n     *\\n     * This function scans the ownership mapping and is O(`totalSupply`) in complexity.\\n     * It is meant to be called off-chain.\\n     *\\n     * See {ERC721AQueryable-tokensOfOwnerIn} for splitting the scan into\\n     * multiple smaller scans if the collection is large enough to cause\\n     * an out-of-gas error (10K collections should be fine).\\n     */\\n    function tokensOfOwner(address owner) external view returns (uint256[] memory);\\n}\\n\"},\"@openzeppelin/contracts/utils/introspection/ERC165.sol\":{\"content\":\"// SPDX-License-Identifier: MIT\\n// OpenZeppelin Contracts (last updated v5.0.0) (utils/introspection/ERC165.sol)\\n\\npragma solidity ^0.8.20;\\n\\nimport {IERC165} from \\\"./IERC165.sol\\\";\\n\\n/**\\n * @dev Implementation of the {IERC165} interface.\\n *\\n * Contracts that want to implement ERC165 should inherit from this contract and override {supportsInterface} to check\\n * for the additional interface id that will be supported. For example:\\n *\\n * ```solidity\\n * function supportsInterface(bytes4 interfaceId) public view virtual override returns (bool) {\\n *     return interfaceId == type(MyInterface).interfaceId || super.supportsInterface(interfaceId);\\n * }\\n * ```\\n */\\nabstract contract ERC165 is IERC165 {\\n    /**\\n     * @dev See {IERC165-supportsInterface}.\\n     */\\n    function supportsInterface(bytes4 interfaceId) public view virtual returns (bool) {\\n        return interfaceId == type(IERC165).interfaceId;\\n    }\\n}\\n\"},\"@openzeppelin/contracts/interfaces/IERC2981.sol\":{\"content\":\"// SPDX-License-Identifier: MIT\\n// OpenZeppelin Contracts (last updated v5.0.0) (interfaces/IERC2981.sol)\\n\\npragma solidity ^0.8.20;\\n\\nimport {IERC165} from \\\"../utils/introspection/IERC165.sol\\\";\\n\\n/**\\n * @dev Interface for the NFT Royalty Standard.\\n *\\n * A standardized way to retrieve royalty payment information for non-fungible tokens (NFTs) to enable universal\\n * support for royalty payments across all NFT marketplaces and ecosystem participants.\\n */\\ninterface IERC2981 is IERC165 {\\n    /**\\n     * @dev Returns how much royalty is owed and to whom, based on a sale price that may be denominated in any unit of\\n     * exchange. The royalty amount is denominated and should be paid in that same unit of exchange.\\n     */\\n    function royaltyInfo(\\n        uint256 tokenId,\\n        uint256 salePrice\\n    ) external view returns (address receiver, uint256 royaltyAmount);\\n}\\n\"},\"@openzeppelin/contracts/utils/Context.sol\":{\"content\":\"// SPDX-License-Identifier: MIT\\n// OpenZeppelin Contracts (last updated v5.0.1) (utils/Context.sol)\\n\\npragma solidity ^0.8.20;\\n\\n/**\\n * @dev Provides information about the current execution context, including the\\n * sender of the transaction and its data. While these are generally available\\n * via msg.sender and msg.data, they should not be accessed in such a direct\\n * manner, since when dealing with meta-transactions the account sending and\\n * paying for execution may not be the actual sender (as far as an application\\n * is concerned).\\n *\\n * This contract is only required for intermediate, library-like contracts.\\n */\\nabstract contract Context {\\n    function _msgSender() internal view virtual returns (address) {\\n        return msg.sender;\\n    }\\n\\n    function _msgData() internal view virtual returns (bytes calldata) {\\n        return msg.data;\\n    }\\n\\n    function _contextSuffixLength() internal view virtual returns (uint256) {\\n        return 0;\\n    }\\n}\\n\"},\"@openzeppelin/contracts/utils/introspection/IERC165.sol\":{\"content\":\"// SPDX-License-Identifier: MIT\\n// OpenZeppelin Contracts (last updated v5.0.0) (utils/introspection/IERC165.sol)\\n\\npragma solidity ^0.8.20;\\n\\n/**\\n * @dev Interface of the ERC165 standard, as defined in the\\n * https://eips.ethereum.org/EIPS/eip-165[EIP].\\n *\\n * Implementers can declare support of contract interfaces, which can then be\\n * queried by others ({ERC165Checker}).\\n *\\n * For an implementation, see {ERC165}.\\n */\\ninterface IERC165 {\\n    /**\\n     * @dev Returns true if this contract implements the interface defined by\\n     * `interfaceId`. See the corresponding\\n     * https://eips.ethereum.org/EIPS/eip-165#how-interfaces-are-identified[EIP section]\\n     * to learn more about how these ids are created.\\n     *\\n     * This function call must use less than 30 000 gas.\\n     */\\n    function supportsInterface(bytes4 interfaceId) external view returns (bool);\\n}\\n\"}},\"settings\":{\"optimizer\":{\"enabled\":true,\"runs\":200},\"outputSelection\":{\"*\":{\"\":[\"ast\"],\"*\":[\"abi\",\"metadata\",\"devdoc\",\"userdoc\",\"storageLayout\",\"evm.legacyAssembly\",\"evm.bytecode\",\"evm.deployedBytecode\",\"evm.methodIdentifiers\",\"evm.gasEstimates\",\"evm.assembly\"]}},\"remappings\":[]}}",
	"name": "Gloomers",
	"bytecode": {
		"linkReferences": {},
		"object": "600b805460ff60a01b191690556012805460ff19169055610100604052605c60808181529061285660a03960139061003790826102b7565b50348015610043575f80fd5b503360405180604001604052806008815260200167476c6f6f6d65727360c01b81525060405180604001604052806008815260200167474c4f4f4d45525360c01b815250610d066100998161011260201b60201c565b5060026100a683826102b7565b5060036100b382826102b7565b506100bc61011a565b5f556100c661011a565b5050506001600160a01b0381166100f757604051631e4fbdf760e01b81525f60048201526024015b60405180910390fd5b6101008161012c565b5061010d336101f461017d565b610376565b6328f7503255565b5f6101276328f750325490565b905090565b600b80546001600160a01b038381166001600160a01b0319831681179093556040519116919082907f8be0079c531659141344cd1fd0a4f28419497f9722a3daafe3b4186f6b6457e0905f90a35050565b6127106001600160601b0382168110156101bc57604051636f483d0960e01b81526001600160601b0383166004820152602481018290526044016100ee565b6001600160a01b0383166101e557604051635b6cc80560e11b81525f60048201526024016100ee565b50604080518082019091526001600160a01b039092168083526001600160601b039091166020909201829052600160a01b90910217600955565b634e487b7160e01b5f52604160045260245ffd5b600181811c9082168061024757607f821691505b60208210810361026557634e487b7160e01b5f52602260045260245ffd5b50919050565b601f8211156102b257805f5260205f20601f840160051c810160208510156102905750805b601f840160051c820191505b818110156102af575f815560010161029c565b50505b505050565b81516001600160401b038111156102d0576102d061021f565b6102e4816102de8454610233565b8461026b565b602080601f831160018114610317575f84156103005750858301515b5f19600386901b1c1916600185901b17855561036e565b5f85815260208120601f198616915b8281101561034557888601518255948401946001909101908401610326565b508582101561036257878501515f19600388901b60f8161c191681555b505060018460011b0185555b505050505050565b6124d3806103835f395ff3fe608060405260043610610231575f3560e01c8063833b94991161012c578063b19960e6116100af578063c87b56dd11610076578063c87b56dd14610661578063e6798baa14610680578063e985e9c514610697578063f2fde38b146106de578063fe776953146106fd578063ff1b65561461071457005b8063b19960e6146105bb578063b19fde5a146105cf578063b88d4fde14610603578063c23dc68f14610616578063c62001bd1461064257005b806395d89b41116100f357806395d89b411461054257806399a2557a146105565780639a4f41ba14610575578063a0712d6814610589578063a22cb4651461059c57005b8063833b9499146104b55780638462151c146104cf57806386879235146104fb57806387f65c91146105105780638da5cb5b1461052557005b806329510d34116101b45780634b962d101161017b5780634b962d10146104185780635bbb2177146104375780636352211e1461046357806370a0823114610482578063715018a6146104a157005b806329510d34146103735780632a55205a146103865780633ccfd60b146103c457806342842e0e146103d857806346b00b6d146103eb57005b8063081812fc116101f8578063081812fc146102e1578063095ea7b31461031857806318160ddd1461032b57806323b872dd1461034d578063242261ac1461036057005b806301ffc9a71461023a57806304634d8d1461026e578063046ef9a51461028d5780630675b7c6146102a157806306fdde03146102c057005b3661023857005b005b348015610245575f80fd5b50610259610254366004611d70565b610747565b60405190151581526020015b60405180910390f35b348015610279575f80fd5b50610238610288366004611da8565b610766565b348015610298575f80fd5b5061023861077c565b3480156102ac575f80fd5b506102386102bb366004611de8565b610932565b3480156102cb575f80fd5b506102d4610999565b6040516102659190611e82565b3480156102ec575f80fd5b506103006102fb366004611e94565b610a29565b6040516001600160a01b039091168152602001610265565b610238610326366004611eab565b610a62565b348015610336575f80fd5b5061033f610a6e565b604051908152602001610265565b61023861035b366004611ed3565b610a83565b61023861036e366004611f0c565b610bdd565b610238610381366004611f0c565b610e02565b348015610391575f80fd5b506103a56103a0366004611f0c565b61102d565b604080516001600160a01b039093168352602083019190915201610265565b3480156103cf575f80fd5b506102386110d7565b6102386103e6366004611ed3565b61110b565b3480156103f6575f80fd5b50600b5461040b90600160a01b900460ff1681565b6040516102659190611f40565b348015610423575f80fd5b50610238610432366004611f66565b61112a565b348015610442575f80fd5b50610456610451366004611f84565b611196565b604051610265919061201e565b34801561046e575f80fd5b5061030061047d366004611e94565b6111e1565b34801561048d575f80fd5b5061033f61049c36600461206b565b6111eb565b3480156104ac575f80fd5b5061023861122f565b3480156104c0575f80fd5b5061033f666a94d74f43000081565b3480156104da575f80fd5b506104ee6104e936600461206b565b611242565b6040516102659190612084565b348015610506575f80fd5b5061033f611a0a81565b34801561051b575f80fd5b5061033f610d0681565b348015610530575f80fd5b50600b546001600160a01b0316610300565b34801561054d575f80fd5b506102d4611279565b348015610561575f80fd5b506104ee6105703660046120bb565b611288565b348015610580575f80fd5b5061033f611295565b610238610597366004611e94565b6112a8565b3480156105a7575f80fd5b506102386105b63660046120eb565b611489565b3480156105c6575f80fd5b5061033f600381565b3480156105da575f80fd5b5061033f6105e936600461206b565b6001600160a01b03165f908152600d602052604090205490565b61023861061136600461212d565b6114f4565b348015610621575f80fd5b50610635610630366004611e94565b611535565b6040516102659190612202565b34801561064d575f80fd5b5061023861065c366004611e94565b61159b565b34801561066c575f80fd5b506102d461067b366004611e94565b6115a8565b34801561068b575f80fd5b506328f750325461033f565b3480156106a2575f80fd5b506102596106b1366004612210565b6001600160a01b039182165f90815260076020908152604080832093909416825291909152205460ff1690565b3480156106e9575f80fd5b506102386106f836600461206b565b611661565b348015610708575f80fd5b5061033f6366365b8081565b34801561071f575f80fd5b5061033f7f5158cf3ac201d8d9dfe63ac7c7d1e7aa58b7c33426665c9bf643e0003e095e2f81565b5f610751826116a0565b806107605750610760826116ed565b92915050565b61076e611721565b610778828261174e565b5050565b5f600b54600160a01b900460ff16600381111561079b5761079b611f2c565b036107b95760405163af79b43760e01b815260040160405180910390fd5b6366365b804210156107de5760405163024fbaa960e41b815260040160405180910390fd5b335f908152600d6020526040812054900361080c57604051637c75aa6f60e11b815260040160405180910390fd5b335f908152600d6020908152604080832054600c909252909120546003908290610837908290612255565b6108419190612255565b1180156108595750600b546001600160a01b03163314155b15610877576040516367eec83360e01b815260040160405180910390fd5b323314610897576040516358516b3f60e01b815260040160405180910390fd5b335f908152600d6020908152604080832054600c90925282208054919283926108c1908490612255565b9091555050335f908152600d60205260408120819055601080548392906108e9908490612268565b909155506108f9905033826117f0565b60405181815233907ff07265907aaf7b6329bb73e97ea492ccbbc0678c94313e1f8331013a2e269d339060200160405180910390a25050565b61093a611721565b6012805460ff1916600117905560136109548284836122fe565b507f6bd5c950a8d8df17f772f5af37cb3655737899cbf903264b9795592da439661c61097e6118aa565b604080519182525f1960208301520160405180910390a15050565b6060600280546109a89061227b565b80601f01602080910402602001604051908101604052809291908181526020018280546109d49061227b565b8015610a1f5780601f106109f657610100808354040283529160200191610a1f565b820191905f5260205f20905b815481529060010190602001808311610a0257829003601f168201915b5050505050905090565b5f610a33826118bc565b610a4757610a476333d1c03960e21b61190a565b505f908152600660205260409020546001600160a01b031690565b61077882826001611912565b5f610a776118aa565b6001545f540303905090565b5f610a8d826119b3565b6001600160a01b039485169490915081168414610ab357610ab362a1148160e81b61190a565b5f8281526006602052604090208054338082146001600160a01b03881690911417610af657610ae286336106b1565b610af657610af6632ce44b5f60e11b61190a565b8015610b00575f82555b6001600160a01b038681165f9081526005602052604080822080545f19019055918716808252919020805460010190554260a01b17600160e11b175f85815260046020526040812091909155600160e11b84169003610b8c57600184015f818152600460205260408120549003610b8a575f548114610b8a575f8181526004602052604090208490555b505b6001600160a01b0385168481887fddf252ad1be2c89b69c2b068fc378daa952ba7f163c4a11628f55a4df523b3ef5f80a4805f03610bd457610bd4633a954ecd60e21b61190a565b50505050505050565b5f600b54600160a01b900460ff166003811115610bfc57610bfc611f2c565b03610c1a5760405163af79b43760e01b815260040160405180910390fd5b6366365b80421115610c3f57604051633844da5760e21b815260040160405180910390fd5b81610c5181666a94d74f4300006123b8565b341015610c715760405163356680b760e01b815260040160405180910390fd5b335f908152600d6020908152604080832054600c9092529091205484916003918391610c9c91612255565b610ca69190612255565b118015610cbe5750600b546001600160a01b03163314155b15610cdc576040516367eec83360e01b815260040160405180910390fd5b83601054611a0a610ced9190612268565b6001610cf75f5490565b610d019084612255565b610d0b9190612268565b1115610d2a5760405163c30436e960e01b815260040160405180910390fd5b838060115414610d4d57604051637c75aa6f60e11b815260040160405180910390fd5b323314610d6d576040516358516b3f60e01b815260040160405180910390fd5b600f5f8154610d7b906123cf565b919050819055508560105f828254610d939190612255565b9091555050335f818152600d602090815260408083208a9055600f548352600e82529182902080546001600160a01b0319168417905590518881527f954e53aaa9ee9f9ae7f4cc7c0ba01de261f35bd07352e3c3383ea3b45ad216d491015b60405180910390a2505050505050565b5f600b54600160a01b900460ff166003811115610e2157610e21611f2c565b03610e3f5760405163af79b43760e01b815260040160405180910390fd5b6366365b80421080610e5f5750610e5c6366365b80612a30612255565b42115b15610e7d576040516302664e7160e11b815260040160405180910390fd5b81610e8f81666a94d74f4300006123b8565b341015610eaf5760405163356680b760e01b815260040160405180910390fd5b335f908152600d6020908152604080832054600c9092529091205484916003918391610eda91612255565b610ee49190612255565b118015610efc5750600b546001600160a01b03163314155b15610f1a576040516367eec83360e01b815260040160405180910390fd5b83601054611a0a610f2b9190612268565b6001610f355f5490565b610f3f9084612255565b610f499190612268565b1115610f685760405163c30436e960e01b815260040160405180910390fd5b838060115414610f8b57604051637c75aa6f60e11b815260040160405180910390fd5b323314610fab576040516358516b3f60e01b815260040160405180910390fd5b8460115414610fcd57604051637c75aa6f60e11b815260040160405180910390fd5b335f908152600c602052604081208054889290610feb908490612255565b90915550610ffb905033876117f0565b60405186815233907fda47e427fb170a95b4539ea720c3caf8ad5a319335b1a85fb3a8db83a61159c090602001610df2565b5f828152600a602090815260408083208151808301909252546001600160a01b038116808352600160a01b9091046001600160601b03169282019290925282916110a15750604080518082019091526009546001600160a01b0381168252600160a01b90046001600160601b031660208201525b60208101515f90612710906110bf906001600160601b0316876123b8565b6110c991906123e7565b915196919550909350505050565b6110df611721565b60405133904780156108fc02915f818181858888f19350505050158015611108573d5f803e3d5ffd5b50565b61112583838360405180602001604052805f8152506114f4565b505050565b611132611721565b600b805482919060ff60a01b1916600160a01b83600381111561115757611157611f2c565b02179055507f3bc110370c8d062d875866567d288433541b3f5f05c98fa991b82ef9f63158818160405161118b9190611f40565b60405180910390a150565b60408051828152600583901b8082016020019092526060915b80156111d957601f1980820191860101355f6111ca82611535565b84840160200152506111af9050565b509392505050565b5f610760826119b3565b5f6001600160a01b03821661120a5761120a6323d3ad8160e21b61190a565b506001600160a01b03165f9081526005602052604090205467ffffffffffffffff1690565b611237611721565b6112405f611a52565b565b60605f61124d6118aa565b90505f6112585f5490565b905060608183146112715761126e858484611aa3565b90505b949350505050565b6060600380546109a89061227b565b6060611271848484611aa3565b6112a56366365b80612a30612255565b81565b5f600b54600160a01b900460ff1660038111156112c7576112c7611f2c565b036112e55760405163af79b43760e01b815260040160405180910390fd5b6112f56366365b80612a30612255565b4210156113155760405163cd967e3560e01b815260040160405180910390fd5b8061132781666a94d74f4300006123b8565b3410156113475760405163356680b760e01b815260040160405180910390fd5b335f908152600d6020908152604080832054600c909252909120548391600391839161137291612255565b61137c9190612255565b1180156113945750600b546001600160a01b03163314155b156113b2576040516367eec83360e01b815260040160405180910390fd5b82601054611a0a6113c39190612268565b60016113cd5f5490565b6113d79084612255565b6113e19190612268565b11156114005760405163c30436e960e01b815260040160405180910390fd5b323314611420576040516358516b3f60e01b815260040160405180910390fd5b335f908152600c60205260408120805486929061143e908490612255565b9091555061144e905033856117f0565b60405184815233907ff07265907aaf7b6329bb73e97ea492ccbbc0678c94313e1f8331013a2e269d339060200160405180910390a250505050565b335f8181526007602090815260408083206001600160a01b03871680855290835292819020805460ff191686151590811790915590519081529192917f17307eab39ab6107e8899845ad3d59bd9653f200f220920489ca2b5937696c31910160405180910390a35050565b6114ff848484610a83565b6001600160a01b0383163b1561152f5761151b84848484611bae565b61152f5761152f6368d2bf6b60e11b61190a565b50505050565b604080516080810182525f8082526020820181905291810182905260608101919091526115606118aa565b8210611596575f54821015611596575b5f8281526004602052604090205461158d575f1990910190611570565b61076082611c8c565b919050565b6115a3611721565b601155565b60125460609060ff166115bd57610760611d09565b6115c6826118bc565b6115e357604051630a14c4b560e41b815260040160405180910390fd5b5f6115ec611d09565b6012549091505f9060ff161561160a5761160584611d18565b61161a565b60405180602001604052805f8152505b90505f828260405160200161163092919061241d565b604051602081830303815290604052905082515f036112715760405180602001604052805f81525095945050505050565b611669611721565b6001600160a01b03811661169757604051631e4fbdf760e01b81525f60048201526024015b60405180910390fd5b61110881611a52565b5f6301ffc9a760e01b6001600160e01b0319831614806116d057506380ac58cd60e01b6001600160e01b03198316145b806107605750506001600160e01b031916635b5e139f60e01b1490565b5f6001600160e01b0319821663152a902d60e11b148061076057506301ffc9a760e01b6001600160e01b0319831614610760565b600b546001600160a01b031633146112405760405163118cdaa760e01b815233600482015260240161168e565b6127106001600160601b03821681101561178d57604051636f483d0960e01b81526001600160601b03831660048201526024810182905260440161168e565b6001600160a01b0383166117b657604051635b6cc80560e11b81525f600482015260240161168e565b50604080518082019091526001600160a01b039092168083526001600160601b039091166020909201829052600160a01b90910217600955565b5f80549082900361180b5761180b63b562e8dd60e01b61190a565b5f8181526004602090815260408083206001600160a01b0387164260a01b6001881460e11b1781179091558084526005909252822080546801000000000000000186020190559081900361186857611868622e076360e81b61190a565b818301825b80835f7fddf252ad1be2c89b69c2b068fc378daa952ba7f163c4a11628f55a4df523b3ef5f80a481816001019150810361186d57505f5550505050565b5f6118b76328f750325490565b905090565b5f816118c66118aa565b11611596575f54821015611596575f5b505f82815260046020526040812054908190036118fd576118f683612431565b92506118d6565b600160e01b161592915050565b805f5260045ffd5b5f61191c836111e1565b90508180156119345750336001600160a01b03821614155b156119575761194381336106b1565b611957576119576367d9dca160e11b61190a565b5f8381526006602052604080822080546001600160a01b0319166001600160a01b0388811691821790925591518693918516917f8c5be1e5ebec7d5bd14f71427d1e84f3dd0314c0f7b2291e5b200ac8c7c3b92591a450505050565b5f816119bd6118aa565b11611a4257505f81815260046020526040902054805f03611a30575f5482106119f0576119f0636f96cda160e11b61190a565b5b505f19015f8181526004602052604090205480156119f157600160e01b81165f03611a1b57919050565b611a2b636f96cda160e11b61190a565b6119f1565b600160e01b81165f03611a4257919050565b611596636f96cda160e11b61190a565b600b80546001600160a01b038381166001600160a01b0319831681179093556040519116919082907f8be0079c531659141344cd1fd0a4f28419497f9722a3daafe3b4186f6b6457e0905f90a35050565b6060818310611abc57611abc631960ccad60e11b61190a565b611ac46118aa565b831015611ad657611ad36118aa565b92505b5f5480808410611ae4578093505b5f611aee876111eb565b9050848610611afa57505f5b8015611ba4578086860311611b0e57508484035b604080516001830160051b81019182905294505f611b2b88611535565b90505f8160400151611b3b575080515b5f5b611b468a611c8c565b925060408301515f8114611b5c575f9250611b81565b835115611b6857835192505b8b831860601b611b81576001820191508a8260051b8a01525b5060018a01995083604052888a1480611b9957508481145b15611b3d5787525050505b5050509392505050565b604051630a85bd0160e11b81525f906001600160a01b0385169063150b7a0290611be2903390899088908890600401612446565b6020604051808303815f875af1925050508015611c1c575060408051601f3d908101601f19168201909252611c1991810190612482565b60015b611c6f573d808015611c49576040519150601f19603f3d011682016040523d82523d5f602084013e611c4e565b606091505b5080515f03611c6757611c676368d2bf6b60e11b61190a565b805181602001fd5b6001600160e01b031916630a85bd0160e11b149050949350505050565b604080516080810182525f8082526020820181905291810182905260608101919091525f8281526004602052604090205461076090604080516080810182526001600160a01b038316815260a083901c67ffffffffffffffff166020820152600160e01b831615159181019190915260e89190911c606082015290565b6060601380546109a89061227b565b606060a06040510180604052602081039150505f815280825b600183039250600a81066030018353600a900480611d315750819003601f19909101908152919050565b6001600160e01b031981168114611108575f80fd5b5f60208284031215611d80575f80fd5b8135611d8b81611d5b565b9392505050565b80356001600160a01b0381168114611596575f80fd5b5f8060408385031215611db9575f80fd5b611dc283611d92565b915060208301356001600160601b0381168114611ddd575f80fd5b809150509250929050565b5f8060208385031215611df9575f80fd5b823567ffffffffffffffff80821115611e10575f80fd5b818501915085601f830112611e23575f80fd5b813581811115611e31575f80fd5b866020828501011115611e42575f80fd5b60209290920196919550909350505050565b5f81518084528060208401602086015e5f602082860101526020601f19601f83011685010191505092915050565b602081525f611d8b6020830184611e54565b5f60208284031215611ea4575f80fd5b5035919050565b5f8060408385031215611ebc575f80fd5b611ec583611d92565b946020939093013593505050565b5f805f60608486031215611ee5575f80fd5b611eee84611d92565b9250611efc60208501611d92565b9150604084013590509250925092565b5f8060408385031215611f1d575f80fd5b50508035926020909101359150565b634e487b7160e01b5f52602160045260245ffd5b6020810160048310611f6057634e487b7160e01b5f52602160045260245ffd5b91905290565b5f60208284031215611f76575f80fd5b813560048110611d8b575f80fd5b5f8060208385031215611f95575f80fd5b823567ffffffffffffffff80821115611fac575f80fd5b818501915085601f830112611fbf575f80fd5b813581811115611fcd575f80fd5b8660208260051b8501011115611e42575f80fd5b80516001600160a01b0316825260208082015167ffffffffffffffff169083015260408082015115159083015260609081015162ffffff16910152565b602080825282518282018190525f9190848201906040850190845b8181101561205f5761204c838551611fe1565b9284019260809290920191600101612039565b50909695505050505050565b5f6020828403121561207b575f80fd5b611d8b82611d92565b602080825282518282018190525f9190848201906040850190845b8181101561205f5783518352928401929184019160010161209f565b5f805f606084860312156120cd575f80fd5b6120d684611d92565b95602085013595506040909401359392505050565b5f80604083850312156120fc575f80fd5b61210583611d92565b915060208301358015158114611ddd575f80fd5b634e487b7160e01b5f52604160045260245ffd5b5f805f8060808587031215612140575f80fd5b61214985611d92565b935061215760208601611d92565b925060408501359150606085013567ffffffffffffffff8082111561217a575f80fd5b818701915087601f83011261218d575f80fd5b81358181111561219f5761219f612119565b604051601f8201601f19908116603f011681019083821181831017156121c7576121c7612119565b816040528281528a60208487010111156121df575f80fd5b826020860160208301375f60208483010152809550505050505092959194509250565b608081016107608284611fe1565b5f8060408385031215612221575f80fd5b61222a83611d92565b915061223860208401611d92565b90509250929050565b634e487b7160e01b5f52601160045260245ffd5b8082018082111561076057610760612241565b8181038181111561076057610760612241565b600181811c9082168061228f57607f821691505b6020821081036122ad57634e487b7160e01b5f52602260045260245ffd5b50919050565b601f82111561112557805f5260205f20601f840160051c810160208510156122d85750805b601f840160051c820191505b818110156122f7575f81556001016122e4565b5050505050565b67ffffffffffffffff83111561231657612316612119565b61232a83612324835461227b565b836122b3565b5f601f84116001811461235b575f85156123445750838201355b5f19600387901b1c1916600186901b1783556122f7565b5f83815260208120601f198716915b8281101561238a578685013582556020948501946001909201910161236a565b50868210156123a6575f1960f88860031b161c19848701351681555b505060018560011b0183555050505050565b808202811582820484141761076057610760612241565b5f600182016123e0576123e0612241565b5060010190565b5f8261240157634e487b7160e01b5f52601260045260245ffd5b500490565b5f81518060208401855e5f93019283525090919050565b5f61127161242b8386612406565b84612406565b5f8161243f5761243f612241565b505f190190565b6001600160a01b03858116825284166020820152604081018390526080606082018190525f9061247890830184611e54565b9695505050505050565b5f60208284031215612492575f80fd5b8151611d8b81611d5b56fea2646970667358221220b13bd27fe976b9c80d7f049ec1ea9ffe4285f2dc41fb36a93af9dac3a399ff2b64736f6c6343000819003368747470733a2f2f697066732e676c6f6f6d746f6b656e2e78797a2f697066732f62616679626569646e726761677a726a76617672736a746e7a36716871766e6c626b7a337668357133356766676b6a323336796c737877706d7379",
		"opcodes": "PUSH1 0xB DUP1 SLOAD PUSH1 0xFF PUSH1 0xA0 SHL NOT AND SWAP1 SSTORE PUSH1 0x12 DUP1 SLOAD PUSH1 0xFF NOT AND SWAP1 SSTORE PUSH2 0x100 PUSH1 0x40 MSTORE PUSH1 0x5C PUSH1 0x80 DUP2 DUP2 MSTORE SWAP1 PUSH2 0x2856 PUSH1 0xA0 CODECOPY PUSH1 0x13 SWAP1 PUSH2 0x37 SWAP1 DUP3 PUSH2 0x2B7 JUMP JUMPDEST POP CALLVALUE DUP1 ISZERO PUSH2 0x43 JUMPI PUSH0 DUP1 REVERT JUMPDEST POP CALLER PUSH1 0x40 MLOAD DUP1 PUSH1 0x40 ADD PUSH1 0x40 MSTORE DUP1 PUSH1 0x8 DUP2 MSTORE PUSH1 0x20 ADD PUSH8 0x476C6F6F6D657273 PUSH1 0xC0 SHL DUP2 MSTORE POP PUSH1 0x40 MLOAD DUP1 PUSH1 0x40 ADD PUSH1 0x40 MSTORE DUP1 PUSH1 0x8 DUP2 MSTORE PUSH1 0x20 ADD PUSH8 0x474C4F4F4D455253 PUSH1 0xC0 SHL DUP2 MSTORE POP PUSH2 0xD06 PUSH2 0x99 DUP2 PUSH2 0x112 PUSH1 0x20 SHL PUSH1 0x20 SHR JUMP JUMPDEST POP PUSH1 0x2 PUSH2 0xA6 DUP4 DUP3 PUSH2 0x2B7 JUMP JUMPDEST POP PUSH1 0x3 PUSH2 0xB3 DUP3 DUP3 PUSH2 0x2B7 JUMP JUMPDEST POP PUSH2 0xBC PUSH2 0x11A JUMP JUMPDEST PUSH0 SSTORE PUSH2 0xC6 PUSH2 0x11A JUMP JUMPDEST POP POP POP PUSH1 0x1 PUSH1 0x1 PUSH1 0xA0 SHL SUB DUP2 AND PUSH2 0xF7 JUMPI PUSH1 0x40 MLOAD PUSH4 0x1E4FBDF7 PUSH1 0xE0 SHL DUP2 MSTORE PUSH0 PUSH1 0x4 DUP3 ADD MSTORE PUSH1 0x24 ADD JUMPDEST PUSH1 0x40 MLOAD DUP1 SWAP2 SUB SWAP1 REVERT JUMPDEST PUSH2 0x100 DUP2 PUSH2 0x12C JUMP JUMPDEST POP PUSH2 0x10D CALLER PUSH2 0x1F4 PUSH2 0x17D JUMP JUMPDEST PUSH2 0x376 JUMP JUMPDEST PUSH4 0x28F75032 SSTORE JUMP JUMPDEST PUSH0 PUSH2 0x127 PUSH4 0x28F75032 SLOAD SWAP1 JUMP JUMPDEST SWAP1 POP SWAP1 JUMP JUMPDEST PUSH1 0xB DUP1 SLOAD PUSH1 0x1 PUSH1 0x1 PUSH1 0xA0 SHL SUB DUP4 DUP2 AND PUSH1 0x1 PUSH1 0x1 PUSH1 0xA0 SHL SUB NOT DUP4 AND DUP2 OR SWAP1 SWAP4 SSTORE PUSH1 0x40 MLOAD SWAP2 AND SWAP2 SWAP1 DUP3 SWAP1 PUSH32 0x8BE0079C531659141344CD1FD0A4F28419497F9722A3DAAFE3B4186F6B6457E0 SWAP1 PUSH0 SWAP1 LOG3 POP POP JUMP JUMPDEST PUSH2 0x2710 PUSH1 0x1 PUSH1 0x1 PUSH1 0x60 SHL SUB DUP3 AND DUP2 LT ISZERO PUSH2 0x1BC JUMPI PUSH1 0x40 MLOAD PUSH4 0x6F483D09 PUSH1 0xE0 SHL DUP2 MSTORE PUSH1 0x1 PUSH1 0x1 PUSH1 0x60 SHL SUB DUP4 AND PUSH1 0x4 DUP3 ADD MSTORE PUSH1 0x24 DUP2 ADD DUP3 SWAP1 MSTORE PUSH1 0x44 ADD PUSH2 0xEE JUMP JUMPDEST PUSH1 0x1 PUSH1 0x1 PUSH1 0xA0 SHL SUB DUP4 AND PUSH2 0x1E5 JUMPI PUSH1 0x40 MLOAD PUSH4 0x5B6CC805 PUSH1 0xE1 SHL DUP2 MSTORE PUSH0 PUSH1 0x4 DUP3 ADD MSTORE PUSH1 0x24 ADD PUSH2 0xEE JUMP JUMPDEST POP PUSH1 0x40 DUP1 MLOAD DUP1 DUP3 ADD SWAP1 SWAP2 MSTORE PUSH1 0x1 PUSH1 0x1 PUSH1 0xA0 SHL SUB SWAP1 SWAP3 AND DUP1 DUP4 MSTORE PUSH1 0x1 PUSH1 0x1 PUSH1 0x60 SHL SUB SWAP1 SWAP2 AND PUSH1 0x20 SWAP1 SWAP3 ADD DUP3 SWAP1 MSTORE PUSH1 0x1 PUSH1 0xA0 SHL SWAP1 SWAP2 MUL OR PUSH1 0x9 SSTORE JUMP JUMPDEST PUSH4 0x4E487B71 PUSH1 0xE0 SHL PUSH0 MSTORE PUSH1 0x41 PUSH1 0x4 MSTORE PUSH1 0x24 PUSH0 REVERT JUMPDEST PUSH1 0x1 DUP2 DUP2 SHR SWAP1 DUP3 AND DUP1 PUSH2 0x247 JUMPI PUSH1 0x7F DUP3 AND SWAP2 POP JUMPDEST PUSH1 0x20 DUP3 LT DUP2 SUB PUSH2 0x265 JUMPI PUSH4 0x4E487B71 PUSH1 0xE0 SHL PUSH0 MSTORE PUSH1 0x22 PUSH1 0x4 MSTORE PUSH1 0x24 PUSH0 REVERT JUMPDEST POP SWAP2 SWAP1 POP JUMP JUMPDEST PUSH1 0x1F DUP3 GT ISZERO PUSH2 0x2B2 JUMPI DUP1 PUSH0 MSTORE PUSH1 0x20 PUSH0 KECCAK256 PUSH1 0x1F DUP5 ADD PUSH1 0x5 SHR DUP2 ADD PUSH1 0x20 DUP6 LT ISZERO PUSH2 0x290 JUMPI POP DUP1 JUMPDEST PUSH1 0x1F DUP5 ADD PUSH1 0x5 SHR DUP3 ADD SWAP2 POP JUMPDEST DUP2 DUP2 LT ISZERO PUSH2 0x2AF JUMPI PUSH0 DUP2 SSTORE PUSH1 0x1 ADD PUSH2 0x29C JUMP JUMPDEST POP POP JUMPDEST POP POP POP JUMP JUMPDEST DUP2 MLOAD PUSH1 0x1 PUSH1 0x1 PUSH1 0x40 SHL SUB DUP2 GT ISZERO PUSH2 0x2D0 JUMPI PUSH2 0x2D0 PUSH2 0x21F JUMP JUMPDEST PUSH2 0x2E4 DUP2 PUSH2 0x2DE DUP5 SLOAD PUSH2 0x233 JUMP JUMPDEST DUP5 PUSH2 0x26B JUMP JUMPDEST PUSH1 0x20 DUP1 PUSH1 0x1F DUP4 GT PUSH1 0x1 DUP2 EQ PUSH2 0x317 JUMPI PUSH0 DUP5 ISZERO PUSH2 0x300 JUMPI POP DUP6 DUP4 ADD MLOAD JUMPDEST PUSH0 NOT PUSH1 0x3 DUP7 SWAP1 SHL SHR NOT AND PUSH1 0x1 DUP6 SWAP1 SHL OR DUP6 SSTORE PUSH2 0x36E JUMP JUMPDEST PUSH0 DUP6 DUP2 MSTORE PUSH1 0x20 DUP2 KECCAK256 PUSH1 0x1F NOT DUP7 AND SWAP2 JUMPDEST DUP3 DUP2 LT ISZERO PUSH2 0x345 JUMPI DUP9 DUP7 ADD MLOAD DUP3 SSTORE SWAP5 DUP5 ADD SWAP5 PUSH1 0x1 SWAP1 SWAP2 ADD SWAP1 DUP5 ADD PUSH2 0x326 JUMP JUMPDEST POP DUP6 DUP3 LT ISZERO PUSH2 0x362 JUMPI DUP8 DUP6 ADD MLOAD PUSH0 NOT PUSH1 0x3 DUP9 SWAP1 SHL PUSH1 0xF8 AND SHR NOT AND DUP2 SSTORE JUMPDEST POP POP PUSH1 0x1 DUP5 PUSH1 0x1 SHL ADD DUP6 SSTORE JUMPDEST POP POP POP POP POP POP JUMP JUMPDEST PUSH2 0x24D3 DUP1 PUSH2 0x383 PUSH0 CODECOPY PUSH0 RETURN INVALID PUSH1 0x80 PUSH1 0x40 MSTORE PUSH1 0x4 CALLDATASIZE LT PUSH2 0x231 JUMPI PUSH0 CALLDATALOAD PUSH1 0xE0 SHR DUP1 PUSH4 0x833B9499 GT PUSH2 0x12C JUMPI DUP1 PUSH4 0xB19960E6 GT PUSH2 0xAF JUMPI DUP1 PUSH4 0xC87B56DD GT PUSH2 0x76 JUMPI DUP1 PUSH4 0xC87B56DD EQ PUSH2 0x661 JUMPI DUP1 PUSH4 0xE6798BAA EQ PUSH2 0x680 JUMPI DUP1 PUSH4 0xE985E9C5 EQ PUSH2 0x697 JUMPI DUP1 PUSH4 0xF2FDE38B EQ PUSH2 0x6DE JUMPI DUP1 PUSH4 0xFE776953 EQ PUSH2 0x6FD JUMPI DUP1 PUSH4 0xFF1B6556 EQ PUSH2 0x714 JUMPI STOP JUMPDEST DUP1 PUSH4 0xB19960E6 EQ PUSH2 0x5BB JUMPI DUP1 PUSH4 0xB19FDE5A EQ PUSH2 0x5CF JUMPI DUP1 PUSH4 0xB88D4FDE EQ PUSH2 0x603 JUMPI DUP1 PUSH4 0xC23DC68F EQ PUSH2 0x616 JUMPI DUP1 PUSH4 0xC62001BD EQ PUSH2 0x642 JUMPI STOP JUMPDEST DUP1 PUSH4 0x95D89B41 GT PUSH2 0xF3 JUMPI DUP1 PUSH4 0x95D89B41 EQ PUSH2 0x542 JUMPI DUP1 PUSH4 0x99A2557A EQ PUSH2 0x556 JUMPI DUP1 PUSH4 0x9A4F41BA EQ PUSH2 0x575 JUMPI DUP1 PUSH4 0xA0712D68 EQ PUSH2 0x589 JUMPI DUP1 PUSH4 0xA22CB465 EQ PUSH2 0x59C JUMPI STOP JUMPDEST DUP1 PUSH4 0x833B9499 EQ PUSH2 0x4B5 JUMPI DUP1 PUSH4 0x8462151C EQ PUSH2 0x4CF JUMPI DUP1 PUSH4 0x86879235 EQ PUSH2 0x4FB JUMPI DUP1 PUSH4 0x87F65C91 EQ PUSH2 0x510 JUMPI DUP1 PUSH4 0x8DA5CB5B EQ PUSH2 0x525 JUMPI STOP JUMPDEST DUP1 PUSH4 0x29510D34 GT PUSH2 0x1B4 JUMPI DUP1 PUSH4 0x4B962D10 GT PUSH2 0x17B JUMPI DUP1 PUSH4 0x4B962D10 EQ PUSH2 0x418 JUMPI DUP1 PUSH4 0x5BBB2177 EQ PUSH2 0x437 JUMPI DUP1 PUSH4 0x6352211E EQ PUSH2 0x463 JUMPI DUP1 PUSH4 0x70A08231 EQ PUSH2 0x482 JUMPI DUP1 PUSH4 0x715018A6 EQ PUSH2 0x4A1 JUMPI STOP JUMPDEST DUP1 PUSH4 0x29510D34 EQ PUSH2 0x373 JUMPI DUP1 PUSH4 0x2A55205A EQ PUSH2 0x386 JUMPI DUP1 PUSH4 0x3CCFD60B EQ PUSH2 0x3C4 JUMPI DUP1 PUSH4 0x42842E0E EQ PUSH2 0x3D8 JUMPI DUP1 PUSH4 0x46B00B6D EQ PUSH2 0x3EB JUMPI STOP JUMPDEST DUP1 PUSH4 0x81812FC GT PUSH2 0x1F8 JUMPI DUP1 PUSH4 0x81812FC EQ PUSH2 0x2E1 JUMPI DUP1 PUSH4 0x95EA7B3 EQ PUSH2 0x318 JUMPI DUP1 PUSH4 0x18160DDD EQ PUSH2 0x32B JUMPI DUP1 PUSH4 0x23B872DD EQ PUSH2 0x34D JUMPI DUP1 PUSH4 0x242261AC EQ PUSH2 0x360 JUMPI STOP JUMPDEST DUP1 PUSH4 0x1FFC9A7 EQ PUSH2 0x23A JUMPI DUP1 PUSH4 0x4634D8D EQ PUSH2 0x26E JUMPI DUP1 PUSH4 0x46EF9A5 EQ PUSH2 0x28D JUMPI DUP1 PUSH4 0x675B7C6 EQ PUSH2 0x2A1 JUMPI DUP1 PUSH4 0x6FDDE03 EQ PUSH2 0x2C0 JUMPI STOP JUMPDEST CALLDATASIZE PUSH2 0x238 JUMPI STOP JUMPDEST STOP JUMPDEST CALLVALUE DUP1 ISZERO PUSH2 0x245 JUMPI PUSH0 DUP1 REVERT JUMPDEST POP PUSH2 0x259 PUSH2 0x254 CALLDATASIZE PUSH1 0x4 PUSH2 0x1D70 JUMP JUMPDEST PUSH2 0x747 JUMP JUMPDEST PUSH1 0x40 MLOAD SWAP1 ISZERO ISZERO DUP2 MSTORE PUSH1 0x20 ADD JUMPDEST PUSH1 0x40 MLOAD DUP1 SWAP2 SUB SWAP1 RETURN JUMPDEST CALLVALUE DUP1 ISZERO PUSH2 0x279 JUMPI PUSH0 DUP1 REVERT JUMPDEST POP PUSH2 0x238 PUSH2 0x288 CALLDATASIZE PUSH1 0x4 PUSH2 0x1DA8 JUMP JUMPDEST PUSH2 0x766 JUMP JUMPDEST CALLVALUE DUP1 ISZERO PUSH2 0x298 JUMPI PUSH0 DUP1 REVERT JUMPDEST POP PUSH2 0x238 PUSH2 0x77C JUMP JUMPDEST CALLVALUE DUP1 ISZERO PUSH2 0x2AC JUMPI PUSH0 DUP1 REVERT JUMPDEST POP PUSH2 0x238 PUSH2 0x2BB CALLDATASIZE PUSH1 0x4 PUSH2 0x1DE8 JUMP JUMPDEST PUSH2 0x932 JUMP JUMPDEST CALLVALUE DUP1 ISZERO PUSH2 0x2CB JUMPI PUSH0 DUP1 REVERT JUMPDEST POP PUSH2 0x2D4 PUSH2 0x999 JUMP JUMPDEST PUSH1 0x40 MLOAD PUSH2 0x265 SWAP2 SWAP1 PUSH2 0x1E82 JUMP JUMPDEST CALLVALUE DUP1 ISZERO PUSH2 0x2EC JUMPI PUSH0 DUP1 REVERT JUMPDEST POP PUSH2 0x300 PUSH2 0x2FB CALLDATASIZE PUSH1 0x4 PUSH2 0x1E94 JUMP JUMPDEST PUSH2 0xA29 JUMP JUMPDEST PUSH1 0x40 MLOAD PUSH1 0x1 PUSH1 0x1 PUSH1 0xA0 SHL SUB SWAP1 SWAP2 AND DUP2 MSTORE PUSH1 0x20 ADD PUSH2 0x265 JUMP JUMPDEST PUSH2 0x238 PUSH2 0x326 CALLDATASIZE PUSH1 0x4 PUSH2 0x1EAB JUMP JUMPDEST PUSH2 0xA62 JUMP JUMPDEST CALLVALUE DUP1 ISZERO PUSH2 0x336 JUMPI PUSH0 DUP1 REVERT JUMPDEST POP PUSH2 0x33F PUSH2 0xA6E JUMP JUMPDEST PUSH1 0x40 MLOAD SWAP1 DUP2 MSTORE PUSH1 0x20 ADD PUSH2 0x265 JUMP JUMPDEST PUSH2 0x238 PUSH2 0x35B CALLDATASIZE PUSH1 0x4 PUSH2 0x1ED3 JUMP JUMPDEST PUSH2 0xA83 JUMP JUMPDEST PUSH2 0x238 PUSH2 0x36E CALLDATASIZE PUSH1 0x4 PUSH2 0x1F0C JUMP JUMPDEST PUSH2 0xBDD JUMP JUMPDEST PUSH2 0x238 PUSH2 0x381 CALLDATASIZE PUSH1 0x4 PUSH2 0x1F0C JUMP JUMPDEST PUSH2 0xE02 JUMP JUMPDEST CALLVALUE DUP1 ISZERO PUSH2 0x391 JUMPI PUSH0 DUP1 REVERT JUMPDEST POP PUSH2 0x3A5 PUSH2 0x3A0 CALLDATASIZE PUSH1 0x4 PUSH2 0x1F0C JUMP JUMPDEST PUSH2 0x102D JUMP JUMPDEST PUSH1 0x40 DUP1 MLOAD PUSH1 0x1 PUSH1 0x1 PUSH1 0xA0 SHL SUB SWAP1 SWAP4 AND DUP4 MSTORE PUSH1 0x20 DUP4 ADD SWAP2 SWAP1 SWAP2 MSTORE ADD PUSH2 0x265 JUMP JUMPDEST CALLVALUE DUP1 ISZERO PUSH2 0x3CF JUMPI PUSH0 DUP1 REVERT JUMPDEST POP PUSH2 0x238 PUSH2 0x10D7 JUMP JUMPDEST PUSH2 0x238 PUSH2 0x3E6 CALLDATASIZE PUSH1 0x4 PUSH2 0x1ED3 JUMP JUMPDEST PUSH2 0x110B JUMP JUMPDEST CALLVALUE DUP1 ISZERO PUSH2 0x3F6 JUMPI PUSH0 DUP1 REVERT JUMPDEST POP PUSH1 0xB SLOAD PUSH2 0x40B SWAP1 PUSH1 0x1 PUSH1 0xA0 SHL SWAP1 DIV PUSH1 0xFF AND DUP2 JUMP JUMPDEST PUSH1 0x40 MLOAD PUSH2 0x265 SWAP2 SWAP1 PUSH2 0x1F40 JUMP JUMPDEST CALLVALUE DUP1 ISZERO PUSH2 0x423 JUMPI PUSH0 DUP1 REVERT JUMPDEST POP PUSH2 0x238 PUSH2 0x432 CALLDATASIZE PUSH1 0x4 PUSH2 0x1F66 JUMP JUMPDEST PUSH2 0x112A JUMP JUMPDEST CALLVALUE DUP1 ISZERO PUSH2 0x442 JUMPI PUSH0 DUP1 REVERT JUMPDEST POP PUSH2 0x456 PUSH2 0x451 CALLDATASIZE PUSH1 0x4 PUSH2 0x1F84 JUMP JUMPDEST PUSH2 0x1196 JUMP JUMPDEST PUSH1 0x40 MLOAD PUSH2 0x265 SWAP2 SWAP1 PUSH2 0x201E JUMP JUMPDEST CALLVALUE DUP1 ISZERO PUSH2 0x46E JUMPI PUSH0 DUP1 REVERT JUMPDEST POP PUSH2 0x300 PUSH2 0x47D CALLDATASIZE PUSH1 0x4 PUSH2 0x1E94 JUMP JUMPDEST PUSH2 0x11E1 JUMP JUMPDEST CALLVALUE DUP1 ISZERO PUSH2 0x48D JUMPI PUSH0 DUP1 REVERT JUMPDEST POP PUSH2 0x33F PUSH2 0x49C CALLDATASIZE PUSH1 0x4 PUSH2 0x206B JUMP JUMPDEST PUSH2 0x11EB JUMP JUMPDEST CALLVALUE DUP1 ISZERO PUSH2 0x4AC JUMPI PUSH0 DUP1 REVERT JUMPDEST POP PUSH2 0x238 PUSH2 0x122F JUMP JUMPDEST CALLVALUE DUP1 ISZERO PUSH2 0x4C0 JUMPI PUSH0 DUP1 REVERT JUMPDEST POP PUSH2 0x33F PUSH7 0x6A94D74F430000 DUP2 JUMP JUMPDEST CALLVALUE DUP1 ISZERO PUSH2 0x4DA JUMPI PUSH0 DUP1 REVERT JUMPDEST POP PUSH2 0x4EE PUSH2 0x4E9 CALLDATASIZE PUSH1 0x4 PUSH2 0x206B JUMP JUMPDEST PUSH2 0x1242 JUMP JUMPDEST PUSH1 0x40 MLOAD PUSH2 0x265 SWAP2 SWAP1 PUSH2 0x2084 JUMP JUMPDEST CALLVALUE DUP1 ISZERO PUSH2 0x506 JUMPI PUSH0 DUP1 REVERT JUMPDEST POP PUSH2 0x33F PUSH2 0x1A0A DUP2 JUMP JUMPDEST CALLVALUE DUP1 ISZERO PUSH2 0x51B JUMPI PUSH0 DUP1 REVERT JUMPDEST POP PUSH2 0x33F PUSH2 0xD06 DUP2 JUMP JUMPDEST CALLVALUE DUP1 ISZERO PUSH2 0x530 JUMPI PUSH0 DUP1 REVERT JUMPDEST POP PUSH1 0xB SLOAD PUSH1 0x1 PUSH1 0x1 PUSH1 0xA0 SHL SUB AND PUSH2 0x300 JUMP JUMPDEST CALLVALUE DUP1 ISZERO PUSH2 0x54D JUMPI PUSH0 DUP1 REVERT JUMPDEST POP PUSH2 0x2D4 PUSH2 0x1279 JUMP JUMPDEST CALLVALUE DUP1 ISZERO PUSH2 0x561 JUMPI PUSH0 DUP1 REVERT JUMPDEST POP PUSH2 0x4EE PUSH2 0x570 CALLDATASIZE PUSH1 0x4 PUSH2 0x20BB JUMP JUMPDEST PUSH2 0x1288 JUMP JUMPDEST CALLVALUE DUP1 ISZERO PUSH2 0x580 JUMPI PUSH0 DUP1 REVERT JUMPDEST POP PUSH2 0x33F PUSH2 0x1295 JUMP JUMPDEST PUSH2 0x238 PUSH2 0x597 CALLDATASIZE PUSH1 0x4 PUSH2 0x1E94 JUMP JUMPDEST PUSH2 0x12A8 JUMP JUMPDEST CALLVALUE DUP1 ISZERO PUSH2 0x5A7 JUMPI PUSH0 DUP1 REVERT JUMPDEST POP PUSH2 0x238 PUSH2 0x5B6 CALLDATASIZE PUSH1 0x4 PUSH2 0x20EB JUMP JUMPDEST PUSH2 0x1489 JUMP JUMPDEST CALLVALUE DUP1 ISZERO PUSH2 0x5C6 JUMPI PUSH0 DUP1 REVERT JUMPDEST POP PUSH2 0x33F PUSH1 0x3 DUP2 JUMP JUMPDEST CALLVALUE DUP1 ISZERO PUSH2 0x5DA JUMPI PUSH0 DUP1 REVERT JUMPDEST POP PUSH2 0x33F PUSH2 0x5E9 CALLDATASIZE PUSH1 0x4 PUSH2 0x206B JUMP JUMPDEST PUSH1 0x1 PUSH1 0x1 PUSH1 0xA0 SHL SUB AND PUSH0 SWAP1 DUP2 MSTORE PUSH1 0xD PUSH1 0x20 MSTORE PUSH1 0x40 SWAP1 KECCAK256 SLOAD SWAP1 JUMP JUMPDEST PUSH2 0x238 PUSH2 0x611 CALLDATASIZE PUSH1 0x4 PUSH2 0x212D JUMP JUMPDEST PUSH2 0x14F4 JUMP JUMPDEST CALLVALUE DUP1 ISZERO PUSH2 0x621 JUMPI PUSH0 DUP1 REVERT JUMPDEST POP PUSH2 0x635 PUSH2 0x630 CALLDATASIZE PUSH1 0x4 PUSH2 0x1E94 JUMP JUMPDEST PUSH2 0x1535 JUMP JUMPDEST PUSH1 0x40 MLOAD PUSH2 0x265 SWAP2 SWAP1 PUSH2 0x2202 JUMP JUMPDEST CALLVALUE DUP1 ISZERO PUSH2 0x64D JUMPI PUSH0 DUP1 REVERT JUMPDEST POP PUSH2 0x238 PUSH2 0x65C CALLDATASIZE PUSH1 0x4 PUSH2 0x1E94 JUMP JUMPDEST PUSH2 0x159B JUMP JUMPDEST CALLVALUE DUP1 ISZERO PUSH2 0x66C JUMPI PUSH0 DUP1 REVERT JUMPDEST POP PUSH2 0x2D4 PUSH2 0x67B CALLDATASIZE PUSH1 0x4 PUSH2 0x1E94 JUMP JUMPDEST PUSH2 0x15A8 JUMP JUMPDEST CALLVALUE DUP1 ISZERO PUSH2 0x68B JUMPI PUSH0 DUP1 REVERT JUMPDEST POP PUSH4 0x28F75032 SLOAD PUSH2 0x33F JUMP JUMPDEST CALLVALUE DUP1 ISZERO PUSH2 0x6A2 JUMPI PUSH0 DUP1 REVERT JUMPDEST POP PUSH2 0x259 PUSH2 0x6B1 CALLDATASIZE PUSH1 0x4 PUSH2 0x2210 JUMP JUMPDEST PUSH1 0x1 PUSH1 0x1 PUSH1 0xA0 SHL SUB SWAP2 DUP3 AND PUSH0 SWAP1 DUP2 MSTORE PUSH1 0x7 PUSH1 0x20 SWAP1 DUP2 MSTORE PUSH1 0x40 DUP1 DUP4 KECCAK256 SWAP4 SWAP1 SWAP5 AND DUP3 MSTORE SWAP2 SWAP1 SWAP2 MSTORE KECCAK256 SLOAD PUSH1 0xFF AND SWAP1 JUMP JUMPDEST CALLVALUE DUP1 ISZERO PUSH2 0x6E9 JUMPI PUSH0 DUP1 REVERT JUMPDEST POP PUSH2 0x238 PUSH2 0x6F8 CALLDATASIZE PUSH1 0x4 PUSH2 0x206B JUMP JUMPDEST PUSH2 0x1661 JUMP JUMPDEST CALLVALUE DUP1 ISZERO PUSH2 0x708 JUMPI PUSH0 DUP1 REVERT JUMPDEST POP PUSH2 0x33F PUSH4 0x66365B80 DUP2 JUMP JUMPDEST CALLVALUE DUP1 ISZERO PUSH2 0x71F JUMPI PUSH0 DUP1 REVERT JUMPDEST POP PUSH2 0x33F PUSH32 0x5158CF3AC201D8D9DFE63AC7C7D1E7AA58B7C33426665C9BF643E0003E095E2F DUP2 JUMP JUMPDEST PUSH0 PUSH2 0x751 DUP3 PUSH2 0x16A0 JUMP JUMPDEST DUP1 PUSH2 0x760 JUMPI POP PUSH2 0x760 DUP3 PUSH2 0x16ED JUMP JUMPDEST SWAP3 SWAP2 POP POP JUMP JUMPDEST PUSH2 0x76E PUSH2 0x1721 JUMP JUMPDEST PUSH2 0x778 DUP3 DUP3 PUSH2 0x174E JUMP JUMPDEST POP POP JUMP JUMPDEST PUSH0 PUSH1 0xB SLOAD PUSH1 0x1 PUSH1 0xA0 SHL SWAP1 DIV PUSH1 0xFF AND PUSH1 0x3 DUP2 GT ISZERO PUSH2 0x79B JUMPI PUSH2 0x79B PUSH2 0x1F2C JUMP JUMPDEST SUB PUSH2 0x7B9 JUMPI PUSH1 0x40 MLOAD PUSH4 0xAF79B437 PUSH1 0xE0 SHL DUP2 MSTORE PUSH1 0x4 ADD PUSH1 0x40 MLOAD DUP1 SWAP2 SUB SWAP1 REVERT JUMPDEST PUSH4 0x66365B80 TIMESTAMP LT ISZERO PUSH2 0x7DE JUMPI PUSH1 0x40 MLOAD PUSH4 0x24FBAA9 PUSH1 0xE4 SHL DUP2 MSTORE PUSH1 0x4 ADD PUSH1 0x40 MLOAD DUP1 SWAP2 SUB SWAP1 REVERT JUMPDEST CALLER PUSH0 SWAP1 DUP2 MSTORE PUSH1 0xD PUSH1 0x20 MSTORE PUSH1 0x40 DUP2 KECCAK256 SLOAD SWAP1 SUB PUSH2 0x80C JUMPI PUSH1 0x40 MLOAD PUSH4 0x7C75AA6F PUSH1 0xE1 SHL DUP2 MSTORE PUSH1 0x4 ADD PUSH1 0x40 MLOAD DUP1 SWAP2 SUB SWAP1 REVERT JUMPDEST CALLER PUSH0 SWAP1 DUP2 MSTORE PUSH1 0xD PUSH1 0x20 SWAP1 DUP2 MSTORE PUSH1 0x40 DUP1 DUP4 KECCAK256 SLOAD PUSH1 0xC SWAP1 SWAP3 MSTORE SWAP1 SWAP2 KECCAK256 SLOAD PUSH1 0x3 SWAP1 DUP3 SWAP1 PUSH2 0x837 SWAP1 DUP3 SWAP1 PUSH2 0x2255 JUMP JUMPDEST PUSH2 0x841 SWAP2 SWAP1 PUSH2 0x2255 JUMP JUMPDEST GT DUP1 ISZERO PUSH2 0x859 JUMPI POP PUSH1 0xB SLOAD PUSH1 0x1 PUSH1 0x1 PUSH1 0xA0 SHL SUB AND CALLER EQ ISZERO JUMPDEST ISZERO PUSH2 0x877 JUMPI PUSH1 0x40 MLOAD PUSH4 0x67EEC833 PUSH1 0xE0 SHL DUP2 MSTORE PUSH1 0x4 ADD PUSH1 0x40 MLOAD DUP1 SWAP2 SUB SWAP1 REVERT JUMPDEST ORIGIN CALLER EQ PUSH2 0x897 JUMPI PUSH1 0x40 MLOAD PUSH4 0x58516B3F PUSH1 0xE0 SHL DUP2 MSTORE PUSH1 0x4 ADD PUSH1 0x40 MLOAD DUP1 SWAP2 SUB SWAP1 REVERT JUMPDEST CALLER PUSH0 SWAP1 DUP2 MSTORE PUSH1 0xD PUSH1 0x20 SWAP1 DUP2 MSTORE PUSH1 0x40 DUP1 DUP4 KECCAK256 SLOAD PUSH1 0xC SWAP1 SWAP3 MSTORE DUP3 KECCAK256 DUP1 SLOAD SWAP2 SWAP3 DUP4 SWAP3 PUSH2 0x8C1 SWAP1 DUP5 SWAP1 PUSH2 0x2255 JUMP JUMPDEST SWAP1 SWAP2 SSTORE POP POP CALLER PUSH0 SWAP1 DUP2 MSTORE PUSH1 0xD PUSH1 0x20 MSTORE PUSH1 0x40 DUP2 KECCAK256 DUP2 SWAP1 SSTORE PUSH1 0x10 DUP1 SLOAD DUP4 SWAP3 SWAP1 PUSH2 0x8E9 SWAP1 DUP5 SWAP1 PUSH2 0x2268 JUMP JUMPDEST SWAP1 SWAP2 SSTORE POP PUSH2 0x8F9 SWAP1 POP CALLER DUP3 PUSH2 0x17F0 JUMP JUMPDEST PUSH1 0x40 MLOAD DUP2 DUP2 MSTORE CALLER SWAP1 PUSH32 0xF07265907AAF7B6329BB73E97EA492CCBBC0678C94313E1F8331013A2E269D33 SWAP1 PUSH1 0x20 ADD PUSH1 0x40 MLOAD DUP1 SWAP2 SUB SWAP1 LOG2 POP POP JUMP JUMPDEST PUSH2 0x93A PUSH2 0x1721 JUMP JUMPDEST PUSH1 0x12 DUP1 SLOAD PUSH1 0xFF NOT AND PUSH1 0x1 OR SWAP1 SSTORE PUSH1 0x13 PUSH2 0x954 DUP3 DUP5 DUP4 PUSH2 0x22FE JUMP JUMPDEST POP PUSH32 0x6BD5C950A8D8DF17F772F5AF37CB3655737899CBF903264B9795592DA439661C PUSH2 0x97E PUSH2 0x18AA JUMP JUMPDEST PUSH1 0x40 DUP1 MLOAD SWAP2 DUP3 MSTORE PUSH0 NOT PUSH1 0x20 DUP4 ADD MSTORE ADD PUSH1 0x40 MLOAD DUP1 SWAP2 SUB SWAP1 LOG1 POP POP JUMP JUMPDEST PUSH1 0x60 PUSH1 0x2 DUP1 SLOAD PUSH2 0x9A8 SWAP1 PUSH2 0x227B JUMP JUMPDEST DUP1 PUSH1 0x1F ADD PUSH1 0x20 DUP1 SWAP2 DIV MUL PUSH1 0x20 ADD PUSH1 0x40 MLOAD SWAP1 DUP2 ADD PUSH1 0x40 MSTORE DUP1 SWAP3 SWAP2 SWAP1 DUP2 DUP2 MSTORE PUSH1 0x20 ADD DUP3 DUP1 SLOAD PUSH2 0x9D4 SWAP1 PUSH2 0x227B JUMP JUMPDEST DUP1 ISZERO PUSH2 0xA1F JUMPI DUP1 PUSH1 0x1F LT PUSH2 0x9F6 JUMPI PUSH2 0x100 DUP1 DUP4 SLOAD DIV MUL DUP4 MSTORE SWAP2 PUSH1 0x20 ADD SWAP2 PUSH2 0xA1F JUMP JUMPDEST DUP3 ADD SWAP2 SWAP1 PUSH0 MSTORE PUSH1 0x20 PUSH0 KECCAK256 SWAP1 JUMPDEST DUP2 SLOAD DUP2 MSTORE SWAP1 PUSH1 0x1 ADD SWAP1 PUSH1 0x20 ADD DUP1 DUP4 GT PUSH2 0xA02 JUMPI DUP3 SWAP1 SUB PUSH1 0x1F AND DUP3 ADD SWAP2 JUMPDEST POP POP POP POP POP SWAP1 POP SWAP1 JUMP JUMPDEST PUSH0 PUSH2 0xA33 DUP3 PUSH2 0x18BC JUMP JUMPDEST PUSH2 0xA47 JUMPI PUSH2 0xA47 PUSH4 0x33D1C039 PUSH1 0xE2 SHL PUSH2 0x190A JUMP JUMPDEST POP PUSH0 SWAP1 DUP2 MSTORE PUSH1 0x6 PUSH1 0x20 MSTORE PUSH1 0x40 SWAP1 KECCAK256 SLOAD PUSH1 0x1 PUSH1 0x1 PUSH1 0xA0 SHL SUB AND SWAP1 JUMP JUMPDEST PUSH2 0x778 DUP3 DUP3 PUSH1 0x1 PUSH2 0x1912 JUMP JUMPDEST PUSH0 PUSH2 0xA77 PUSH2 0x18AA JUMP JUMPDEST PUSH1 0x1 SLOAD PUSH0 SLOAD SUB SUB SWAP1 POP SWAP1 JUMP JUMPDEST PUSH0 PUSH2 0xA8D DUP3 PUSH2 0x19B3 JUMP JUMPDEST PUSH1 0x1 PUSH1 0x1 PUSH1 0xA0 SHL SUB SWAP5 DUP6 AND SWAP5 SWAP1 SWAP2 POP DUP2 AND DUP5 EQ PUSH2 0xAB3 JUMPI PUSH2 0xAB3 PUSH3 0xA11481 PUSH1 0xE8 SHL PUSH2 0x190A JUMP JUMPDEST PUSH0 DUP3 DUP2 MSTORE PUSH1 0x6 PUSH1 0x20 MSTORE PUSH1 0x40 SWAP1 KECCAK256 DUP1 SLOAD CALLER DUP1 DUP3 EQ PUSH1 0x1 PUSH1 0x1 PUSH1 0xA0 SHL SUB DUP9 AND SWAP1 SWAP2 EQ OR PUSH2 0xAF6 JUMPI PUSH2 0xAE2 DUP7 CALLER PUSH2 0x6B1 JUMP JUMPDEST PUSH2 0xAF6 JUMPI PUSH2 0xAF6 PUSH4 0x2CE44B5F PUSH1 0xE1 SHL PUSH2 0x190A JUMP JUMPDEST DUP1 ISZERO PUSH2 0xB00 JUMPI PUSH0 DUP3 SSTORE JUMPDEST PUSH1 0x1 PUSH1 0x1 PUSH1 0xA0 SHL SUB DUP7 DUP2 AND PUSH0 SWAP1 DUP2 MSTORE PUSH1 0x5 PUSH1 0x20 MSTORE PUSH1 0x40 DUP1 DUP3 KECCAK256 DUP1 SLOAD PUSH0 NOT ADD SWAP1 SSTORE SWAP2 DUP8 AND DUP1 DUP3 MSTORE SWAP2 SWAP1 KECCAK256 DUP1 SLOAD PUSH1 0x1 ADD SWAP1 SSTORE TIMESTAMP PUSH1 0xA0 SHL OR PUSH1 0x1 PUSH1 0xE1 SHL OR PUSH0 DUP6 DUP2 MSTORE PUSH1 0x4 PUSH1 0x20 MSTORE PUSH1 0x40 DUP2 KECCAK256 SWAP2 SWAP1 SWAP2 SSTORE PUSH1 0x1 PUSH1 0xE1 SHL DUP5 AND SWAP1 SUB PUSH2 0xB8C JUMPI PUSH1 0x1 DUP5 ADD PUSH0 DUP2 DUP2 MSTORE PUSH1 0x4 PUSH1 0x20 MSTORE PUSH1 0x40 DUP2 KECCAK256 SLOAD SWAP1 SUB PUSH2 0xB8A JUMPI PUSH0 SLOAD DUP2 EQ PUSH2 0xB8A JUMPI PUSH0 DUP2 DUP2 MSTORE PUSH1 0x4 PUSH1 0x20 MSTORE PUSH1 0x40 SWAP1 KECCAK256 DUP5 SWAP1 SSTORE JUMPDEST POP JUMPDEST PUSH1 0x1 PUSH1 0x1 PUSH1 0xA0 SHL SUB DUP6 AND DUP5 DUP2 DUP9 PUSH32 0xDDF252AD1BE2C89B69C2B068FC378DAA952BA7F163C4A11628F55A4DF523B3EF PUSH0 DUP1 LOG4 DUP1 PUSH0 SUB PUSH2 0xBD4 JUMPI PUSH2 0xBD4 PUSH4 0x3A954ECD PUSH1 0xE2 SHL PUSH2 0x190A JUMP JUMPDEST POP POP POP POP POP POP POP JUMP JUMPDEST PUSH0 PUSH1 0xB SLOAD PUSH1 0x1 PUSH1 0xA0 SHL SWAP1 DIV PUSH1 0xFF AND PUSH1 0x3 DUP2 GT ISZERO PUSH2 0xBFC JUMPI PUSH2 0xBFC PUSH2 0x1F2C JUMP JUMPDEST SUB PUSH2 0xC1A JUMPI PUSH1 0x40 MLOAD PUSH4 0xAF79B437 PUSH1 0xE0 SHL DUP2 MSTORE PUSH1 0x4 ADD PUSH1 0x40 MLOAD DUP1 SWAP2 SUB SWAP1 REVERT JUMPDEST PUSH4 0x66365B80 TIMESTAMP GT ISZERO PUSH2 0xC3F JUMPI PUSH1 0x40 MLOAD PUSH4 0x3844DA57 PUSH1 0xE2 SHL DUP2 MSTORE PUSH1 0x4 ADD PUSH1 0x40 MLOAD DUP1 SWAP2 SUB SWAP1 REVERT JUMPDEST DUP2 PUSH2 0xC51 DUP2 PUSH7 0x6A94D74F430000 PUSH2 0x23B8 JUMP JUMPDEST CALLVALUE LT ISZERO PUSH2 0xC71 JUMPI PUSH1 0x40 MLOAD PUSH4 0x356680B7 PUSH1 0xE0 SHL DUP2 MSTORE PUSH1 0x4 ADD PUSH1 0x40 MLOAD DUP1 SWAP2 SUB SWAP1 REVERT JUMPDEST CALLER PUSH0 SWAP1 DUP2 MSTORE PUSH1 0xD PUSH1 0x20 SWAP1 DUP2 MSTORE PUSH1 0x40 DUP1 DUP4 KECCAK256 SLOAD PUSH1 0xC SWAP1 SWAP3 MSTORE SWAP1 SWAP2 KECCAK256 SLOAD DUP5 SWAP2 PUSH1 0x3 SWAP2 DUP4 SWAP2 PUSH2 0xC9C SWAP2 PUSH2 0x2255 JUMP JUMPDEST PUSH2 0xCA6 SWAP2 SWAP1 PUSH2 0x2255 JUMP JUMPDEST GT DUP1 ISZERO PUSH2 0xCBE JUMPI POP PUSH1 0xB SLOAD PUSH1 0x1 PUSH1 0x1 PUSH1 0xA0 SHL SUB AND CALLER EQ ISZERO JUMPDEST ISZERO PUSH2 0xCDC JUMPI PUSH1 0x40 MLOAD PUSH4 0x67EEC833 PUSH1 0xE0 SHL DUP2 MSTORE PUSH1 0x4 ADD PUSH1 0x40 MLOAD DUP1 SWAP2 SUB SWAP1 REVERT JUMPDEST DUP4 PUSH1 0x10 SLOAD PUSH2 0x1A0A PUSH2 0xCED SWAP2 SWAP1 PUSH2 0x2268 JUMP JUMPDEST PUSH1 0x1 PUSH2 0xCF7 PUSH0 SLOAD SWAP1 JUMP JUMPDEST PUSH2 0xD01 SWAP1 DUP5 PUSH2 0x2255 JUMP JUMPDEST PUSH2 0xD0B SWAP2 SWAP1 PUSH2 0x2268 JUMP JUMPDEST GT ISZERO PUSH2 0xD2A JUMPI PUSH1 0x40 MLOAD PUSH4 0xC30436E9 PUSH1 0xE0 SHL DUP2 MSTORE PUSH1 0x4 ADD PUSH1 0x40 MLOAD DUP1 SWAP2 SUB SWAP1 REVERT JUMPDEST DUP4 DUP1 PUSH1 0x11 SLOAD EQ PUSH2 0xD4D JUMPI PUSH1 0x40 MLOAD PUSH4 0x7C75AA6F PUSH1 0xE1 SHL DUP2 MSTORE PUSH1 0x4 ADD PUSH1 0x40 MLOAD DUP1 SWAP2 SUB SWAP1 REVERT JUMPDEST ORIGIN CALLER EQ PUSH2 0xD6D JUMPI PUSH1 0x40 MLOAD PUSH4 0x58516B3F PUSH1 0xE0 SHL DUP2 MSTORE PUSH1 0x4 ADD PUSH1 0x40 MLOAD DUP1 SWAP2 SUB SWAP1 REVERT JUMPDEST PUSH1 0xF PUSH0 DUP2 SLOAD PUSH2 0xD7B SWAP1 PUSH2 0x23CF JUMP JUMPDEST SWAP2 SWAP1 POP DUP2 SWAP1 SSTORE POP DUP6 PUSH1 0x10 PUSH0 DUP3 DUP3 SLOAD PUSH2 0xD93 SWAP2 SWAP1 PUSH2 0x2255 JUMP JUMPDEST SWAP1 SWAP2 SSTORE POP POP CALLER PUSH0 DUP2 DUP2 MSTORE PUSH1 0xD PUSH1 0x20 SWAP1 DUP2 MSTORE PUSH1 0x40 DUP1 DUP4 KECCAK256 DUP11 SWAP1 SSTORE PUSH1 0xF SLOAD DUP4 MSTORE PUSH1 0xE DUP3 MSTORE SWAP2 DUP3 SWAP1 KECCAK256 DUP1 SLOAD PUSH1 0x1 PUSH1 0x1 PUSH1 0xA0 SHL SUB NOT AND DUP5 OR SWAP1 SSTORE SWAP1 MLOAD DUP9 DUP2 MSTORE PUSH32 0x954E53AAA9EE9F9AE7F4CC7C0BA01DE261F35BD07352E3C3383EA3B45AD216D4 SWAP2 ADD JUMPDEST PUSH1 0x40 MLOAD DUP1 SWAP2 SUB SWAP1 LOG2 POP POP POP POP POP POP JUMP JUMPDEST PUSH0 PUSH1 0xB SLOAD PUSH1 0x1 PUSH1 0xA0 SHL SWAP1 DIV PUSH1 0xFF AND PUSH1 0x3 DUP2 GT ISZERO PUSH2 0xE21 JUMPI PUSH2 0xE21 PUSH2 0x1F2C JUMP JUMPDEST SUB PUSH2 0xE3F JUMPI PUSH1 0x40 MLOAD PUSH4 0xAF79B437 PUSH1 0xE0 SHL DUP2 MSTORE PUSH1 0x4 ADD PUSH1 0x40 MLOAD DUP1 SWAP2 SUB SWAP1 REVERT JUMPDEST PUSH4 0x66365B80 TIMESTAMP LT DUP1 PUSH2 0xE5F JUMPI POP PUSH2 0xE5C PUSH4 0x66365B80 PUSH2 0x2A30 PUSH2 0x2255 JUMP JUMPDEST TIMESTAMP GT JUMPDEST ISZERO PUSH2 0xE7D JUMPI PUSH1 0x40 MLOAD PUSH4 0x2664E71 PUSH1 0xE1 SHL DUP2 MSTORE PUSH1 0x4 ADD PUSH1 0x40 MLOAD DUP1 SWAP2 SUB SWAP1 REVERT JUMPDEST DUP2 PUSH2 0xE8F DUP2 PUSH7 0x6A94D74F430000 PUSH2 0x23B8 JUMP JUMPDEST CALLVALUE LT ISZERO PUSH2 0xEAF JUMPI PUSH1 0x40 MLOAD PUSH4 0x356680B7 PUSH1 0xE0 SHL DUP2 MSTORE PUSH1 0x4 ADD PUSH1 0x40 MLOAD DUP1 SWAP2 SUB SWAP1 REVERT JUMPDEST CALLER PUSH0 SWAP1 DUP2 MSTORE PUSH1 0xD PUSH1 0x20 SWAP1 DUP2 MSTORE PUSH1 0x40 DUP1 DUP4 KECCAK256 SLOAD PUSH1 0xC SWAP1 SWAP3 MSTORE SWAP1 SWAP2 KECCAK256 SLOAD DUP5 SWAP2 PUSH1 0x3 SWAP2 DUP4 SWAP2 PUSH2 0xEDA SWAP2 PUSH2 0x2255 JUMP JUMPDEST PUSH2 0xEE4 SWAP2 SWAP1 PUSH2 0x2255 JUMP JUMPDEST GT DUP1 ISZERO PUSH2 0xEFC JUMPI POP PUSH1 0xB SLOAD PUSH1 0x1 PUSH1 0x1 PUSH1 0xA0 SHL SUB AND CALLER EQ ISZERO JUMPDEST ISZERO PUSH2 0xF1A JUMPI PUSH1 0x40 MLOAD PUSH4 0x67EEC833 PUSH1 0xE0 SHL DUP2 MSTORE PUSH1 0x4 ADD PUSH1 0x40 MLOAD DUP1 SWAP2 SUB SWAP1 REVERT JUMPDEST DUP4 PUSH1 0x10 SLOAD PUSH2 0x1A0A PUSH2 0xF2B SWAP2 SWAP1 PUSH2 0x2268 JUMP JUMPDEST PUSH1 0x1 PUSH2 0xF35 PUSH0 SLOAD SWAP1 JUMP JUMPDEST PUSH2 0xF3F SWAP1 DUP5 PUSH2 0x2255 JUMP JUMPDEST PUSH2 0xF49 SWAP2 SWAP1 PUSH2 0x2268 JUMP JUMPDEST GT ISZERO PUSH2 0xF68 JUMPI PUSH1 0x40 MLOAD PUSH4 0xC30436E9 PUSH1 0xE0 SHL DUP2 MSTORE PUSH1 0x4 ADD PUSH1 0x40 MLOAD DUP1 SWAP2 SUB SWAP1 REVERT JUMPDEST DUP4 DUP1 PUSH1 0x11 SLOAD EQ PUSH2 0xF8B JUMPI PUSH1 0x40 MLOAD PUSH4 0x7C75AA6F PUSH1 0xE1 SHL DUP2 MSTORE PUSH1 0x4 ADD PUSH1 0x40 MLOAD DUP1 SWAP2 SUB SWAP1 REVERT JUMPDEST ORIGIN CALLER EQ PUSH2 0xFAB JUMPI PUSH1 0x40 MLOAD PUSH4 0x58516B3F PUSH1 0xE0 SHL DUP2 MSTORE PUSH1 0x4 ADD PUSH1 0x40 MLOAD DUP1 SWAP2 SUB SWAP1 REVERT JUMPDEST DUP5 PUSH1 0x11 SLOAD EQ PUSH2 0xFCD JUMPI PUSH1 0x40 MLOAD PUSH4 0x7C75AA6F PUSH1 0xE1 SHL DUP2 MSTORE PUSH1 0x4 ADD PUSH1 0x40 MLOAD DUP1 SWAP2 SUB SWAP1 REVERT JUMPDEST CALLER PUSH0 SWAP1 DUP2 MSTORE PUSH1 0xC PUSH1 0x20 MSTORE PUSH1 0x40 DUP2 KECCAK256 DUP1 SLOAD DUP9 SWAP3 SWAP1 PUSH2 0xFEB SWAP1 DUP5 SWAP1 PUSH2 0x2255 JUMP JUMPDEST SWAP1 SWAP2 SSTORE POP PUSH2 0xFFB SWAP1 POP CALLER DUP8 PUSH2 0x17F0 JUMP JUMPDEST PUSH1 0x40 MLOAD DUP7 DUP2 MSTORE CALLER SWAP1 PUSH32 0xDA47E427FB170A95B4539EA720C3CAF8AD5A319335B1A85FB3A8DB83A61159C0 SWAP1 PUSH1 0x20 ADD PUSH2 0xDF2 JUMP JUMPDEST PUSH0 DUP3 DUP2 MSTORE PUSH1 0xA PUSH1 0x20 SWAP1 DUP2 MSTORE PUSH1 0x40 DUP1 DUP4 KECCAK256 DUP2 MLOAD DUP1 DUP4 ADD SWAP1 SWAP3 MSTORE SLOAD PUSH1 0x1 PUSH1 0x1 PUSH1 0xA0 SHL SUB DUP2 AND DUP1 DUP4 MSTORE PUSH1 0x1 PUSH1 0xA0 SHL SWAP1 SWAP2 DIV PUSH1 0x1 PUSH1 0x1 PUSH1 0x60 SHL SUB AND SWAP3 DUP3 ADD SWAP3 SWAP1 SWAP3 MSTORE DUP3 SWAP2 PUSH2 0x10A1 JUMPI POP PUSH1 0x40 DUP1 MLOAD DUP1 DUP3 ADD SWAP1 SWAP2 MSTORE PUSH1 0x9 SLOAD PUSH1 0x1 PUSH1 0x1 PUSH1 0xA0 SHL SUB DUP2 AND DUP3 MSTORE PUSH1 0x1 PUSH1 0xA0 SHL SWAP1 DIV PUSH1 0x1 PUSH1 0x1 PUSH1 0x60 SHL SUB AND PUSH1 0x20 DUP3 ADD MSTORE JUMPDEST PUSH1 0x20 DUP2 ADD MLOAD PUSH0 SWAP1 PUSH2 0x2710 SWAP1 PUSH2 0x10BF SWAP1 PUSH1 0x1 PUSH1 0x1 PUSH1 0x60 SHL SUB AND DUP8 PUSH2 0x23B8 JUMP JUMPDEST PUSH2 0x10C9 SWAP2 SWAP1 PUSH2 0x23E7 JUMP JUMPDEST SWAP2 MLOAD SWAP7 SWAP2 SWAP6 POP SWAP1 SWAP4 POP POP POP POP JUMP JUMPDEST PUSH2 0x10DF PUSH2 0x1721 JUMP JUMPDEST PUSH1 0x40 MLOAD CALLER SWAP1 SELFBALANCE DUP1 ISZERO PUSH2 0x8FC MUL SWAP2 PUSH0 DUP2 DUP2 DUP2 DUP6 DUP9 DUP9 CALL SWAP4 POP POP POP POP ISZERO DUP1 ISZERO PUSH2 0x1108 JUMPI RETURNDATASIZE PUSH0 DUP1 RETURNDATACOPY RETURNDATASIZE PUSH0 REVERT JUMPDEST POP JUMP JUMPDEST PUSH2 0x1125 DUP4 DUP4 DUP4 PUSH1 0x40 MLOAD DUP1 PUSH1 0x20 ADD PUSH1 0x40 MSTORE DUP1 PUSH0 DUP2 MSTORE POP PUSH2 0x14F4 JUMP JUMPDEST POP POP POP JUMP JUMPDEST PUSH2 0x1132 PUSH2 0x1721 JUMP JUMPDEST PUSH1 0xB DUP1 SLOAD DUP3 SWAP2 SWAP1 PUSH1 0xFF PUSH1 0xA0 SHL NOT AND PUSH1 0x1 PUSH1 0xA0 SHL DUP4 PUSH1 0x3 DUP2 GT ISZERO PUSH2 0x1157 JUMPI PUSH2 0x1157 PUSH2 0x1F2C JUMP JUMPDEST MUL OR SWAP1 SSTORE POP PUSH32 0x3BC110370C8D062D875866567D288433541B3F5F05C98FA991B82EF9F6315881 DUP2 PUSH1 0x40 MLOAD PUSH2 0x118B SWAP2 SWAP1 PUSH2 0x1F40 JUMP JUMPDEST PUSH1 0x40 MLOAD DUP1 SWAP2 SUB SWAP1 LOG1 POP JUMP JUMPDEST PUSH1 0x40 DUP1 MLOAD DUP3 DUP2 MSTORE PUSH1 0x5 DUP4 SWAP1 SHL DUP1 DUP3 ADD PUSH1 0x20 ADD SWAP1 SWAP3 MSTORE PUSH1 0x60 SWAP2 JUMPDEST DUP1 ISZERO PUSH2 0x11D9 JUMPI PUSH1 0x1F NOT DUP1 DUP3 ADD SWAP2 DUP7 ADD ADD CALLDATALOAD PUSH0 PUSH2 0x11CA DUP3 PUSH2 0x1535 JUMP JUMPDEST DUP5 DUP5 ADD PUSH1 0x20 ADD MSTORE POP PUSH2 0x11AF SWAP1 POP JUMP JUMPDEST POP SWAP4 SWAP3 POP POP POP JUMP JUMPDEST PUSH0 PUSH2 0x760 DUP3 PUSH2 0x19B3 JUMP JUMPDEST PUSH0 PUSH1 0x1 PUSH1 0x1 PUSH1 0xA0 SHL SUB DUP3 AND PUSH2 0x120A JUMPI PUSH2 0x120A PUSH4 0x23D3AD81 PUSH1 0xE2 SHL PUSH2 0x190A JUMP JUMPDEST POP PUSH1 0x1 PUSH1 0x1 PUSH1 0xA0 SHL SUB AND PUSH0 SWAP1 DUP2 MSTORE PUSH1 0x5 PUSH1 0x20 MSTORE PUSH1 0x40 SWAP1 KECCAK256 SLOAD PUSH8 0xFFFFFFFFFFFFFFFF AND SWAP1 JUMP JUMPDEST PUSH2 0x1237 PUSH2 0x1721 JUMP JUMPDEST PUSH2 0x1240 PUSH0 PUSH2 0x1A52 JUMP JUMPDEST JUMP JUMPDEST PUSH1 0x60 PUSH0 PUSH2 0x124D PUSH2 0x18AA JUMP JUMPDEST SWAP1 POP PUSH0 PUSH2 0x1258 PUSH0 SLOAD SWAP1 JUMP JUMPDEST SWAP1 POP PUSH1 0x60 DUP2 DUP4 EQ PUSH2 0x1271 JUMPI PUSH2 0x126E DUP6 DUP5 DUP5 PUSH2 0x1AA3 JUMP JUMPDEST SWAP1 POP JUMPDEST SWAP5 SWAP4 POP POP POP POP JUMP JUMPDEST PUSH1 0x60 PUSH1 0x3 DUP1 SLOAD PUSH2 0x9A8 SWAP1 PUSH2 0x227B JUMP JUMPDEST PUSH1 0x60 PUSH2 0x1271 DUP5 DUP5 DUP5 PUSH2 0x1AA3 JUMP JUMPDEST PUSH2 0x12A5 PUSH4 0x66365B80 PUSH2 0x2A30 PUSH2 0x2255 JUMP JUMPDEST DUP2 JUMP JUMPDEST PUSH0 PUSH1 0xB SLOAD PUSH1 0x1 PUSH1 0xA0 SHL SWAP1 DIV PUSH1 0xFF AND PUSH1 0x3 DUP2 GT ISZERO PUSH2 0x12C7 JUMPI PUSH2 0x12C7 PUSH2 0x1F2C JUMP JUMPDEST SUB PUSH2 0x12E5 JUMPI PUSH1 0x40 MLOAD PUSH4 0xAF79B437 PUSH1 0xE0 SHL DUP2 MSTORE PUSH1 0x4 ADD PUSH1 0x40 MLOAD DUP1 SWAP2 SUB SWAP1 REVERT JUMPDEST PUSH2 0x12F5 PUSH4 0x66365B80 PUSH2 0x2A30 PUSH2 0x2255 JUMP JUMPDEST TIMESTAMP LT ISZERO PUSH2 0x1315 JUMPI PUSH1 0x40 MLOAD PUSH4 0xCD967E35 PUSH1 0xE0 SHL DUP2 MSTORE PUSH1 0x4 ADD PUSH1 0x40 MLOAD DUP1 SWAP2 SUB SWAP1 REVERT JUMPDEST DUP1 PUSH2 0x1327 DUP2 PUSH7 0x6A94D74F430000 PUSH2 0x23B8 JUMP JUMPDEST CALLVALUE LT ISZERO PUSH2 0x1347 JUMPI PUSH1 0x40 MLOAD PUSH4 0x356680B7 PUSH1 0xE0 SHL DUP2 MSTORE PUSH1 0x4 ADD PUSH1 0x40 MLOAD DUP1 SWAP2 SUB SWAP1 REVERT JUMPDEST CALLER PUSH0 SWAP1 DUP2 MSTORE PUSH1 0xD PUSH1 0x20 SWAP1 DUP2 MSTORE PUSH1 0x40 DUP1 DUP4 KECCAK256 SLOAD PUSH1 0xC SWAP1 SWAP3 MSTORE SWAP1 SWAP2 KECCAK256 SLOAD DUP4 SWAP2 PUSH1 0x3 SWAP2 DUP4 SWAP2 PUSH2 0x1372 SWAP2 PUSH2 0x2255 JUMP JUMPDEST PUSH2 0x137C SWAP2 SWAP1 PUSH2 0x2255 JUMP JUMPDEST GT DUP1 ISZERO PUSH2 0x1394 JUMPI POP PUSH1 0xB SLOAD PUSH1 0x1 PUSH1 0x1 PUSH1 0xA0 SHL SUB AND CALLER EQ ISZERO JUMPDEST ISZERO PUSH2 0x13B2 JUMPI PUSH1 0x40 MLOAD PUSH4 0x67EEC833 PUSH1 0xE0 SHL DUP2 MSTORE PUSH1 0x4 ADD PUSH1 0x40 MLOAD DUP1 SWAP2 SUB SWAP1 REVERT JUMPDEST DUP3 PUSH1 0x10 SLOAD PUSH2 0x1A0A PUSH2 0x13C3 SWAP2 SWAP1 PUSH2 0x2268 JUMP JUMPDEST PUSH1 0x1 PUSH2 0x13CD PUSH0 SLOAD SWAP1 JUMP JUMPDEST PUSH2 0x13D7 SWAP1 DUP5 PUSH2 0x2255 JUMP JUMPDEST PUSH2 0x13E1 SWAP2 SWAP1 PUSH2 0x2268 JUMP JUMPDEST GT ISZERO PUSH2 0x1400 JUMPI PUSH1 0x40 MLOAD PUSH4 0xC30436E9 PUSH1 0xE0 SHL DUP2 MSTORE PUSH1 0x4 ADD PUSH1 0x40 MLOAD DUP1 SWAP2 SUB SWAP1 REVERT JUMPDEST ORIGIN CALLER EQ PUSH2 0x1420 JUMPI PUSH1 0x40 MLOAD PUSH4 0x58516B3F PUSH1 0xE0 SHL DUP2 MSTORE PUSH1 0x4 ADD PUSH1 0x40 MLOAD DUP1 SWAP2 SUB SWAP1 REVERT JUMPDEST CALLER PUSH0 SWAP1 DUP2 MSTORE PUSH1 0xC PUSH1 0x20 MSTORE PUSH1 0x40 DUP2 KECCAK256 DUP1 SLOAD DUP7 SWAP3 SWAP1 PUSH2 0x143E SWAP1 DUP5 SWAP1 PUSH2 0x2255 JUMP JUMPDEST SWAP1 SWAP2 SSTORE POP PUSH2 0x144E SWAP1 POP CALLER DUP6 PUSH2 0x17F0 JUMP JUMPDEST PUSH1 0x40 MLOAD DUP5 DUP2 MSTORE CALLER SWAP1 PUSH32 0xF07265907AAF7B6329BB73E97EA492CCBBC0678C94313E1F8331013A2E269D33 SWAP1 PUSH1 0x20 ADD PUSH1 0x40 MLOAD DUP1 SWAP2 SUB SWAP1 LOG2 POP POP POP POP JUMP JUMPDEST CALLER PUSH0 DUP2 DUP2 MSTORE PUSH1 0x7 PUSH1 0x20 SWAP1 DUP2 MSTORE PUSH1 0x40 DUP1 DUP4 KECCAK256 PUSH1 0x1 PUSH1 0x1 PUSH1 0xA0 SHL SUB DUP8 AND DUP1 DUP6 MSTORE SWAP1 DUP4 MSTORE SWAP3 DUP2 SWAP1 KECCAK256 DUP1 SLOAD PUSH1 0xFF NOT AND DUP7 ISZERO ISZERO SWAP1 DUP2 OR SWAP1 SWAP2 SSTORE SWAP1 MLOAD SWAP1 DUP2 MSTORE SWAP2 SWAP3 SWAP2 PUSH32 0x17307EAB39AB6107E8899845AD3D59BD9653F200F220920489CA2B5937696C31 SWAP2 ADD PUSH1 0x40 MLOAD DUP1 SWAP2 SUB SWAP1 LOG3 POP POP JUMP JUMPDEST PUSH2 0x14FF DUP5 DUP5 DUP5 PUSH2 0xA83 JUMP JUMPDEST PUSH1 0x1 PUSH1 0x1 PUSH1 0xA0 SHL SUB DUP4 AND EXTCODESIZE ISZERO PUSH2 0x152F JUMPI PUSH2 0x151B DUP5 DUP5 DUP5 DUP5 PUSH2 0x1BAE JUMP JUMPDEST PUSH2 0x152F JUMPI PUSH2 0x152F PUSH4 0x68D2BF6B PUSH1 0xE1 SHL PUSH2 0x190A JUMP JUMPDEST POP POP POP POP JUMP JUMPDEST PUSH1 0x40 DUP1 MLOAD PUSH1 0x80 DUP2 ADD DUP3 MSTORE PUSH0 DUP1 DUP3 MSTORE PUSH1 0x20 DUP3 ADD DUP2 SWAP1 MSTORE SWAP2 DUP2 ADD DUP3 SWAP1 MSTORE PUSH1 0x60 DUP2 ADD SWAP2 SWAP1 SWAP2 MSTORE PUSH2 0x1560 PUSH2 0x18AA JUMP JUMPDEST DUP3 LT PUSH2 0x1596 JUMPI PUSH0 SLOAD DUP3 LT ISZERO PUSH2 0x1596 JUMPI JUMPDEST PUSH0 DUP3 DUP2 MSTORE PUSH1 0x4 PUSH1 0x20 MSTORE PUSH1 0x40 SWAP1 KECCAK256 SLOAD PUSH2 0x158D JUMPI PUSH0 NOT SWAP1 SWAP2 ADD SWAP1 PUSH2 0x1570 JUMP JUMPDEST PUSH2 0x760 DUP3 PUSH2 0x1C8C JUMP JUMPDEST SWAP2 SWAP1 POP JUMP JUMPDEST PUSH2 0x15A3 PUSH2 0x1721 JUMP JUMPDEST PUSH1 0x11 SSTORE JUMP JUMPDEST PUSH1 0x12 SLOAD PUSH1 0x60 SWAP1 PUSH1 0xFF AND PUSH2 0x15BD JUMPI PUSH2 0x760 PUSH2 0x1D09 JUMP JUMPDEST PUSH2 0x15C6 DUP3 PUSH2 0x18BC JUMP JUMPDEST PUSH2 0x15E3 JUMPI PUSH1 0x40 MLOAD PUSH4 0xA14C4B5 PUSH1 0xE4 SHL DUP2 MSTORE PUSH1 0x4 ADD PUSH1 0x40 MLOAD DUP1 SWAP2 SUB SWAP1 REVERT JUMPDEST PUSH0 PUSH2 0x15EC PUSH2 0x1D09 JUMP JUMPDEST PUSH1 0x12 SLOAD SWAP1 SWAP2 POP PUSH0 SWAP1 PUSH1 0xFF AND ISZERO PUSH2 0x160A JUMPI PUSH2 0x1605 DUP5 PUSH2 0x1D18 JUMP JUMPDEST PUSH2 0x161A JUMP JUMPDEST PUSH1 0x40 MLOAD DUP1 PUSH1 0x20 ADD PUSH1 0x40 MSTORE DUP1 PUSH0 DUP2 MSTORE POP JUMPDEST SWAP1 POP PUSH0 DUP3 DUP3 PUSH1 0x40 MLOAD PUSH1 0x20 ADD PUSH2 0x1630 SWAP3 SWAP2 SWAP1 PUSH2 0x241D JUMP JUMPDEST PUSH1 0x40 MLOAD PUSH1 0x20 DUP2 DUP4 SUB SUB DUP2 MSTORE SWAP1 PUSH1 0x40 MSTORE SWAP1 POP DUP3 MLOAD PUSH0 SUB PUSH2 0x1271 JUMPI PUSH1 0x40 MLOAD DUP1 PUSH1 0x20 ADD PUSH1 0x40 MSTORE DUP1 PUSH0 DUP2 MSTORE POP SWAP6 SWAP5 POP POP POP POP POP JUMP JUMPDEST PUSH2 0x1669 PUSH2 0x1721 JUMP JUMPDEST PUSH1 0x1 PUSH1 0x1 PUSH1 0xA0 SHL SUB DUP2 AND PUSH2 0x1697 JUMPI PUSH1 0x40 MLOAD PUSH4 0x1E4FBDF7 PUSH1 0xE0 SHL DUP2 MSTORE PUSH0 PUSH1 0x4 DUP3 ADD MSTORE PUSH1 0x24 ADD JUMPDEST PUSH1 0x40 MLOAD DUP1 SWAP2 SUB SWAP1 REVERT JUMPDEST PUSH2 0x1108 DUP2 PUSH2 0x1A52 JUMP JUMPDEST PUSH0 PUSH4 0x1FFC9A7 PUSH1 0xE0 SHL PUSH1 0x1 PUSH1 0x1 PUSH1 0xE0 SHL SUB NOT DUP4 AND EQ DUP1 PUSH2 0x16D0 JUMPI POP PUSH4 0x80AC58CD PUSH1 0xE0 SHL PUSH1 0x1 PUSH1 0x1 PUSH1 0xE0 SHL SUB NOT DUP4 AND EQ JUMPDEST DUP1 PUSH2 0x760 JUMPI POP POP PUSH1 0x1 PUSH1 0x1 PUSH1 0xE0 SHL SUB NOT AND PUSH4 0x5B5E139F PUSH1 0xE0 SHL EQ SWAP1 JUMP JUMPDEST PUSH0 PUSH1 0x1 PUSH1 0x1 PUSH1 0xE0 SHL SUB NOT DUP3 AND PUSH4 0x152A902D PUSH1 0xE1 SHL EQ DUP1 PUSH2 0x760 JUMPI POP PUSH4 0x1FFC9A7 PUSH1 0xE0 SHL PUSH1 0x1 PUSH1 0x1 PUSH1 0xE0 SHL SUB NOT DUP4 AND EQ PUSH2 0x760 JUMP JUMPDEST PUSH1 0xB SLOAD PUSH1 0x1 PUSH1 0x1 PUSH1 0xA0 SHL SUB AND CALLER EQ PUSH2 0x1240 JUMPI PUSH1 0x40 MLOAD PUSH4 0x118CDAA7 PUSH1 0xE0 SHL DUP2 MSTORE CALLER PUSH1 0x4 DUP3 ADD MSTORE PUSH1 0x24 ADD PUSH2 0x168E JUMP JUMPDEST PUSH2 0x2710 PUSH1 0x1 PUSH1 0x1 PUSH1 0x60 SHL SUB DUP3 AND DUP2 LT ISZERO PUSH2 0x178D JUMPI PUSH1 0x40 MLOAD PUSH4 0x6F483D09 PUSH1 0xE0 SHL DUP2 MSTORE PUSH1 0x1 PUSH1 0x1 PUSH1 0x60 SHL SUB DUP4 AND PUSH1 0x4 DUP3 ADD MSTORE PUSH1 0x24 DUP2 ADD DUP3 SWAP1 MSTORE PUSH1 0x44 ADD PUSH2 0x168E JUMP JUMPDEST PUSH1 0x1 PUSH1 0x1 PUSH1 0xA0 SHL SUB DUP4 AND PUSH2 0x17B6 JUMPI PUSH1 0x40 MLOAD PUSH4 0x5B6CC805 PUSH1 0xE1 SHL DUP2 MSTORE PUSH0 PUSH1 0x4 DUP3 ADD MSTORE PUSH1 0x24 ADD PUSH2 0x168E JUMP JUMPDEST POP PUSH1 0x40 DUP1 MLOAD DUP1 DUP3 ADD SWAP1 SWAP2 MSTORE PUSH1 0x1 PUSH1 0x1 PUSH1 0xA0 SHL SUB SWAP1 SWAP3 AND DUP1 DUP4 MSTORE PUSH1 0x1 PUSH1 0x1 PUSH1 0x60 SHL SUB SWAP1 SWAP2 AND PUSH1 0x20 SWAP1 SWAP3 ADD DUP3 SWAP1 MSTORE PUSH1 0x1 PUSH1 0xA0 SHL SWAP1 SWAP2 MUL OR PUSH1 0x9 SSTORE JUMP JUMPDEST PUSH0 DUP1 SLOAD SWAP1 DUP3 SWAP1 SUB PUSH2 0x180B JUMPI PUSH2 0x180B PUSH4 0xB562E8DD PUSH1 0xE0 SHL PUSH2 0x190A JUMP JUMPDEST PUSH0 DUP2 DUP2 MSTORE PUSH1 0x4 PUSH1 0x20 SWAP1 DUP2 MSTORE PUSH1 0x40 DUP1 DUP4 KECCAK256 PUSH1 0x1 PUSH1 0x1 PUSH1 0xA0 SHL SUB DUP8 AND TIMESTAMP PUSH1 0xA0 SHL PUSH1 0x1 DUP9 EQ PUSH1 0xE1 SHL OR DUP2 OR SWAP1 SWAP2 SSTORE DUP1 DUP5 MSTORE PUSH1 0x5 SWAP1 SWAP3 MSTORE DUP3 KECCAK256 DUP1 SLOAD PUSH9 0x10000000000000001 DUP7 MUL ADD SWAP1 SSTORE SWAP1 DUP2 SWAP1 SUB PUSH2 0x1868 JUMPI PUSH2 0x1868 PUSH3 0x2E0763 PUSH1 0xE8 SHL PUSH2 0x190A JUMP JUMPDEST DUP2 DUP4 ADD DUP3 JUMPDEST DUP1 DUP4 PUSH0 PUSH32 0xDDF252AD1BE2C89B69C2B068FC378DAA952BA7F163C4A11628F55A4DF523B3EF PUSH0 DUP1 LOG4 DUP2 DUP2 PUSH1 0x1 ADD SWAP2 POP DUP2 SUB PUSH2 0x186D JUMPI POP PUSH0 SSTORE POP POP POP POP JUMP JUMPDEST PUSH0 PUSH2 0x18B7 PUSH4 0x28F75032 SLOAD SWAP1 JUMP JUMPDEST SWAP1 POP SWAP1 JUMP JUMPDEST PUSH0 DUP2 PUSH2 0x18C6 PUSH2 0x18AA JUMP JUMPDEST GT PUSH2 0x1596 JUMPI PUSH0 SLOAD DUP3 LT ISZERO PUSH2 0x1596 JUMPI PUSH0 JUMPDEST POP PUSH0 DUP3 DUP2 MSTORE PUSH1 0x4 PUSH1 0x20 MSTORE PUSH1 0x40 DUP2 KECCAK256 SLOAD SWAP1 DUP2 SWAP1 SUB PUSH2 0x18FD JUMPI PUSH2 0x18F6 DUP4 PUSH2 0x2431 JUMP JUMPDEST SWAP3 POP PUSH2 0x18D6 JUMP JUMPDEST PUSH1 0x1 PUSH1 0xE0 SHL AND ISZERO SWAP3 SWAP2 POP POP JUMP JUMPDEST DUP1 PUSH0 MSTORE PUSH1 0x4 PUSH0 REVERT JUMPDEST PUSH0 PUSH2 0x191C DUP4 PUSH2 0x11E1 JUMP JUMPDEST SWAP1 POP DUP2 DUP1 ISZERO PUSH2 0x1934 JUMPI POP CALLER PUSH1 0x1 PUSH1 0x1 PUSH1 0xA0 SHL SUB DUP3 AND EQ ISZERO JUMPDEST ISZERO PUSH2 0x1957 JUMPI PUSH2 0x1943 DUP2 CALLER PUSH2 0x6B1 JUMP JUMPDEST PUSH2 0x1957 JUMPI PUSH2 0x1957 PUSH4 0x67D9DCA1 PUSH1 0xE1 SHL PUSH2 0x190A JUMP JUMPDEST PUSH0 DUP4 DUP2 MSTORE PUSH1 0x6 PUSH1 0x20 MSTORE PUSH1 0x40 DUP1 DUP3 KECCAK256 DUP1 SLOAD PUSH1 0x1 PUSH1 0x1 PUSH1 0xA0 SHL SUB NOT AND PUSH1 0x1 PUSH1 0x1 PUSH1 0xA0 SHL SUB DUP9 DUP2 AND SWAP2 DUP3 OR SWAP1 SWAP3 SSTORE SWAP2 MLOAD DUP7 SWAP4 SWAP2 DUP6 AND SWAP2 PUSH32 0x8C5BE1E5EBEC7D5BD14F71427D1E84F3DD0314C0F7B2291E5B200AC8C7C3B925 SWAP2 LOG4 POP POP POP POP JUMP JUMPDEST PUSH0 DUP2 PUSH2 0x19BD PUSH2 0x18AA JUMP JUMPDEST GT PUSH2 0x1A42 JUMPI POP PUSH0 DUP2 DUP2 MSTORE PUSH1 0x4 PUSH1 0x20 MSTORE PUSH1 0x40 SWAP1 KECCAK256 SLOAD DUP1 PUSH0 SUB PUSH2 0x1A30 JUMPI PUSH0 SLOAD DUP3 LT PUSH2 0x19F0 JUMPI PUSH2 0x19F0 PUSH4 0x6F96CDA1 PUSH1 0xE1 SHL PUSH2 0x190A JUMP JUMPDEST JUMPDEST POP PUSH0 NOT ADD PUSH0 DUP2 DUP2 MSTORE PUSH1 0x4 PUSH1 0x20 MSTORE PUSH1 0x40 SWAP1 KECCAK256 SLOAD DUP1 ISZERO PUSH2 0x19F1 JUMPI PUSH1 0x1 PUSH1 0xE0 SHL DUP2 AND PUSH0 SUB PUSH2 0x1A1B JUMPI SWAP2 SWAP1 POP JUMP JUMPDEST PUSH2 0x1A2B PUSH4 0x6F96CDA1 PUSH1 0xE1 SHL PUSH2 0x190A JUMP JUMPDEST PUSH2 0x19F1 JUMP JUMPDEST PUSH1 0x1 PUSH1 0xE0 SHL DUP2 AND PUSH0 SUB PUSH2 0x1A42 JUMPI SWAP2 SWAP1 POP JUMP JUMPDEST PUSH2 0x1596 PUSH4 0x6F96CDA1 PUSH1 0xE1 SHL PUSH2 0x190A JUMP JUMPDEST PUSH1 0xB DUP1 SLOAD PUSH1 0x1 PUSH1 0x1 PUSH1 0xA0 SHL SUB DUP4 DUP2 AND PUSH1 0x1 PUSH1 0x1 PUSH1 0xA0 SHL SUB NOT DUP4 AND DUP2 OR SWAP1 SWAP4 SSTORE PUSH1 0x40 MLOAD SWAP2 AND SWAP2 SWAP1 DUP3 SWAP1 PUSH32 0x8BE0079C531659141344CD1FD0A4F28419497F9722A3DAAFE3B4186F6B6457E0 SWAP1 PUSH0 SWAP1 LOG3 POP POP JUMP JUMPDEST PUSH1 0x60 DUP2 DUP4 LT PUSH2 0x1ABC JUMPI PUSH2 0x1ABC PUSH4 0x1960CCAD PUSH1 0xE1 SHL PUSH2 0x190A JUMP JUMPDEST PUSH2 0x1AC4 PUSH2 0x18AA JUMP JUMPDEST DUP4 LT ISZERO PUSH2 0x1AD6 JUMPI PUSH2 0x1AD3 PUSH2 0x18AA JUMP JUMPDEST SWAP3 POP JUMPDEST PUSH0 SLOAD DUP1 DUP1 DUP5 LT PUSH2 0x1AE4 JUMPI DUP1 SWAP4 POP JUMPDEST PUSH0 PUSH2 0x1AEE DUP8 PUSH2 0x11EB JUMP JUMPDEST SWAP1 POP DUP5 DUP7 LT PUSH2 0x1AFA JUMPI POP PUSH0 JUMPDEST DUP1 ISZERO PUSH2 0x1BA4 JUMPI DUP1 DUP7 DUP7 SUB GT PUSH2 0x1B0E JUMPI POP DUP5 DUP5 SUB JUMPDEST PUSH1 0x40 DUP1 MLOAD PUSH1 0x1 DUP4 ADD PUSH1 0x5 SHL DUP2 ADD SWAP2 DUP3 SWAP1 MSTORE SWAP5 POP PUSH0 PUSH2 0x1B2B DUP9 PUSH2 0x1535 JUMP JUMPDEST SWAP1 POP PUSH0 DUP2 PUSH1 0x40 ADD MLOAD PUSH2 0x1B3B JUMPI POP DUP1 MLOAD JUMPDEST PUSH0 JUMPDEST PUSH2 0x1B46 DUP11 PUSH2 0x1C8C JUMP JUMPDEST SWAP3 POP PUSH1 0x40 DUP4 ADD MLOAD PUSH0 DUP2 EQ PUSH2 0x1B5C JUMPI PUSH0 SWAP3 POP PUSH2 0x1B81 JUMP JUMPDEST DUP4 MLOAD ISZERO PUSH2 0x1B68 JUMPI DUP4 MLOAD SWAP3 POP JUMPDEST DUP12 DUP4 XOR PUSH1 0x60 SHL PUSH2 0x1B81 JUMPI PUSH1 0x1 DUP3 ADD SWAP2 POP DUP11 DUP3 PUSH1 0x5 SHL DUP11 ADD MSTORE JUMPDEST POP PUSH1 0x1 DUP11 ADD SWAP10 POP DUP4 PUSH1 0x40 MSTORE DUP9 DUP11 EQ DUP1 PUSH2 0x1B99 JUMPI POP DUP5 DUP2 EQ JUMPDEST ISZERO PUSH2 0x1B3D JUMPI DUP8 MSTORE POP POP POP JUMPDEST POP POP POP SWAP4 SWAP3 POP POP POP JUMP JUMPDEST PUSH1 0x40 MLOAD PUSH4 0xA85BD01 PUSH1 0xE1 SHL DUP2 MSTORE PUSH0 SWAP1 PUSH1 0x1 PUSH1 0x1 PUSH1 0xA0 SHL SUB DUP6 AND SWAP1 PUSH4 0x150B7A02 SWAP1 PUSH2 0x1BE2 SWAP1 CALLER SWAP1 DUP10 SWAP1 DUP9 SWAP1 DUP9 SWAP1 PUSH1 0x4 ADD PUSH2 0x2446 JUMP JUMPDEST PUSH1 0x20 PUSH1 0x40 MLOAD DUP1 DUP4 SUB DUP2 PUSH0 DUP8 GAS CALL SWAP3 POP POP POP DUP1 ISZERO PUSH2 0x1C1C JUMPI POP PUSH1 0x40 DUP1 MLOAD PUSH1 0x1F RETURNDATASIZE SWAP1 DUP2 ADD PUSH1 0x1F NOT AND DUP3 ADD SWAP1 SWAP3 MSTORE PUSH2 0x1C19 SWAP2 DUP2 ADD SWAP1 PUSH2 0x2482 JUMP JUMPDEST PUSH1 0x1 JUMPDEST PUSH2 0x1C6F JUMPI RETURNDATASIZE DUP1 DUP1 ISZERO PUSH2 0x1C49 JUMPI PUSH1 0x40 MLOAD SWAP2 POP PUSH1 0x1F NOT PUSH1 0x3F RETURNDATASIZE ADD AND DUP3 ADD PUSH1 0x40 MSTORE RETURNDATASIZE DUP3 MSTORE RETURNDATASIZE PUSH0 PUSH1 0x20 DUP5 ADD RETURNDATACOPY PUSH2 0x1C4E JUMP JUMPDEST PUSH1 0x60 SWAP2 POP JUMPDEST POP DUP1 MLOAD PUSH0 SUB PUSH2 0x1C67 JUMPI PUSH2 0x1C67 PUSH4 0x68D2BF6B PUSH1 0xE1 SHL PUSH2 0x190A JUMP JUMPDEST DUP1 MLOAD DUP2 PUSH1 0x20 ADD REVERT JUMPDEST PUSH1 0x1 PUSH1 0x1 PUSH1 0xE0 SHL SUB NOT AND PUSH4 0xA85BD01 PUSH1 0xE1 SHL EQ SWAP1 POP SWAP5 SWAP4 POP POP POP POP JUMP JUMPDEST PUSH1 0x40 DUP1 MLOAD PUSH1 0x80 DUP2 ADD DUP3 MSTORE PUSH0 DUP1 DUP3 MSTORE PUSH1 0x20 DUP3 ADD DUP2 SWAP1 MSTORE SWAP2 DUP2 ADD DUP3 SWAP1 MSTORE PUSH1 0x60 DUP2 ADD SWAP2 SWAP1 SWAP2 MSTORE PUSH0 DUP3 DUP2 MSTORE PUSH1 0x4 PUSH1 0x20 MSTORE PUSH1 0x40 SWAP1 KECCAK256 SLOAD PUSH2 0x760 SWAP1 PUSH1 0x40 DUP1 MLOAD PUSH1 0x80 DUP2 ADD DUP3 MSTORE PUSH1 0x1 PUSH1 0x1 PUSH1 0xA0 SHL SUB DUP4 AND DUP2 MSTORE PUSH1 0xA0 DUP4 SWAP1 SHR PUSH8 0xFFFFFFFFFFFFFFFF AND PUSH1 0x20 DUP3 ADD MSTORE PUSH1 0x1 PUSH1 0xE0 SHL DUP4 AND ISZERO ISZERO SWAP2 DUP2 ADD SWAP2 SWAP1 SWAP2 MSTORE PUSH1 0xE8 SWAP2 SWAP1 SWAP2 SHR PUSH1 0x60 DUP3 ADD MSTORE SWAP1 JUMP JUMPDEST PUSH1 0x60 PUSH1 0x13 DUP1 SLOAD PUSH2 0x9A8 SWAP1 PUSH2 0x227B JUMP JUMPDEST PUSH1 0x60 PUSH1 0xA0 PUSH1 0x40 MLOAD ADD DUP1 PUSH1 0x40 MSTORE PUSH1 0x20 DUP2 SUB SWAP2 POP POP PUSH0 DUP2 MSTORE DUP1 DUP3 JUMPDEST PUSH1 0x1 DUP4 SUB SWAP3 POP PUSH1 0xA DUP2 MOD PUSH1 0x30 ADD DUP4 MSTORE8 PUSH1 0xA SWAP1 DIV DUP1 PUSH2 0x1D31 JUMPI POP DUP2 SWAP1 SUB PUSH1 0x1F NOT SWAP1 SWAP2 ADD SWAP1 DUP2 MSTORE SWAP2 SWAP1 POP JUMP JUMPDEST PUSH1 0x1 PUSH1 0x1 PUSH1 0xE0 SHL SUB NOT DUP2 AND DUP2 EQ PUSH2 0x1108 JUMPI PUSH0 DUP1 REVERT JUMPDEST PUSH0 PUSH1 0x20 DUP3 DUP5 SUB SLT ISZERO PUSH2 0x1D80 JUMPI PUSH0 DUP1 REVERT JUMPDEST DUP2 CALLDATALOAD PUSH2 0x1D8B DUP2 PUSH2 0x1D5B JUMP JUMPDEST SWAP4 SWAP3 POP POP POP JUMP JUMPDEST DUP1 CALLDATALOAD PUSH1 0x1 PUSH1 0x1 PUSH1 0xA0 SHL SUB DUP2 AND DUP2 EQ PUSH2 0x1596 JUMPI PUSH0 DUP1 REVERT JUMPDEST PUSH0 DUP1 PUSH1 0x40 DUP4 DUP6 SUB SLT ISZERO PUSH2 0x1DB9 JUMPI PUSH0 DUP1 REVERT JUMPDEST PUSH2 0x1DC2 DUP4 PUSH2 0x1D92 JUMP JUMPDEST SWAP2 POP PUSH1 0x20 DUP4 ADD CALLDATALOAD PUSH1 0x1 PUSH1 0x1 PUSH1 0x60 SHL SUB DUP2 AND DUP2 EQ PUSH2 0x1DDD JUMPI PUSH0 DUP1 REVERT JUMPDEST DUP1 SWAP2 POP POP SWAP3 POP SWAP3 SWAP1 POP JUMP JUMPDEST PUSH0 DUP1 PUSH1 0x20 DUP4 DUP6 SUB SLT ISZERO PUSH2 0x1DF9 JUMPI PUSH0 DUP1 REVERT JUMPDEST DUP3 CALLDATALOAD PUSH8 0xFFFFFFFFFFFFFFFF DUP1 DUP3 GT ISZERO PUSH2 0x1E10 JUMPI PUSH0 DUP1 REVERT JUMPDEST DUP2 DUP6 ADD SWAP2 POP DUP6 PUSH1 0x1F DUP4 ADD SLT PUSH2 0x1E23 JUMPI PUSH0 DUP1 REVERT JUMPDEST DUP2 CALLDATALOAD DUP2 DUP2 GT ISZERO PUSH2 0x1E31 JUMPI PUSH0 DUP1 REVERT JUMPDEST DUP7 PUSH1 0x20 DUP3 DUP6 ADD ADD GT ISZERO PUSH2 0x1E42 JUMPI PUSH0 DUP1 REVERT JUMPDEST PUSH1 0x20 SWAP3 SWAP1 SWAP3 ADD SWAP7 SWAP2 SWAP6 POP SWAP1 SWAP4 POP POP POP POP JUMP JUMPDEST PUSH0 DUP2 MLOAD DUP1 DUP5 MSTORE DUP1 PUSH1 0x20 DUP5 ADD PUSH1 0x20 DUP7 ADD MCOPY PUSH0 PUSH1 0x20 DUP3 DUP7 ADD ADD MSTORE PUSH1 0x20 PUSH1 0x1F NOT PUSH1 0x1F DUP4 ADD AND DUP6 ADD ADD SWAP2 POP POP SWAP3 SWAP2 POP POP JUMP JUMPDEST PUSH1 0x20 DUP2 MSTORE PUSH0 PUSH2 0x1D8B PUSH1 0x20 DUP4 ADD DUP5 PUSH2 0x1E54 JUMP JUMPDEST PUSH0 PUSH1 0x20 DUP3 DUP5 SUB SLT ISZERO PUSH2 0x1EA4 JUMPI PUSH0 DUP1 REVERT JUMPDEST POP CALLDATALOAD SWAP2 SWAP1 POP JUMP JUMPDEST PUSH0 DUP1 PUSH1 0x40 DUP4 DUP6 SUB SLT ISZERO PUSH2 0x1EBC JUMPI PUSH0 DUP1 REVERT JUMPDEST PUSH2 0x1EC5 DUP4 PUSH2 0x1D92 JUMP JUMPDEST SWAP5 PUSH1 0x20 SWAP4 SWAP1 SWAP4 ADD CALLDATALOAD SWAP4 POP POP POP JUMP JUMPDEST PUSH0 DUP1 PUSH0 PUSH1 0x60 DUP5 DUP7 SUB SLT ISZERO PUSH2 0x1EE5 JUMPI PUSH0 DUP1 REVERT JUMPDEST PUSH2 0x1EEE DUP5 PUSH2 0x1D92 JUMP JUMPDEST SWAP3 POP PUSH2 0x1EFC PUSH1 0x20 DUP6 ADD PUSH2 0x1D92 JUMP JUMPDEST SWAP2 POP PUSH1 0x40 DUP5 ADD CALLDATALOAD SWAP1 POP SWAP3 POP SWAP3 POP SWAP3 JUMP JUMPDEST PUSH0 DUP1 PUSH1 0x40 DUP4 DUP6 SUB SLT ISZERO PUSH2 0x1F1D JUMPI PUSH0 DUP1 REVERT JUMPDEST POP POP DUP1 CALLDATALOAD SWAP3 PUSH1 0x20 SWAP1 SWAP2 ADD CALLDATALOAD SWAP2 POP JUMP JUMPDEST PUSH4 0x4E487B71 PUSH1 0xE0 SHL PUSH0 MSTORE PUSH1 0x21 PUSH1 0x4 MSTORE PUSH1 0x24 PUSH0 REVERT JUMPDEST PUSH1 0x20 DUP2 ADD PUSH1 0x4 DUP4 LT PUSH2 0x1F60 JUMPI PUSH4 0x4E487B71 PUSH1 0xE0 SHL PUSH0 MSTORE PUSH1 0x21 PUSH1 0x4 MSTORE PUSH1 0x24 PUSH0 REVERT JUMPDEST SWAP2 SWAP1 MSTORE SWAP1 JUMP JUMPDEST PUSH0 PUSH1 0x20 DUP3 DUP5 SUB SLT ISZERO PUSH2 0x1F76 JUMPI PUSH0 DUP1 REVERT JUMPDEST DUP2 CALLDATALOAD PUSH1 0x4 DUP2 LT PUSH2 0x1D8B JUMPI PUSH0 DUP1 REVERT JUMPDEST PUSH0 DUP1 PUSH1 0x20 DUP4 DUP6 SUB SLT ISZERO PUSH2 0x1F95 JUMPI PUSH0 DUP1 REVERT JUMPDEST DUP3 CALLDATALOAD PUSH8 0xFFFFFFFFFFFFFFFF DUP1 DUP3 GT ISZERO PUSH2 0x1FAC JUMPI PUSH0 DUP1 REVERT JUMPDEST DUP2 DUP6 ADD SWAP2 POP DUP6 PUSH1 0x1F DUP4 ADD SLT PUSH2 0x1FBF JUMPI PUSH0 DUP1 REVERT JUMPDEST DUP2 CALLDATALOAD DUP2 DUP2 GT ISZERO PUSH2 0x1FCD JUMPI PUSH0 DUP1 REVERT JUMPDEST DUP7 PUSH1 0x20 DUP3 PUSH1 0x5 SHL DUP6 ADD ADD GT ISZERO PUSH2 0x1E42 JUMPI PUSH0 DUP1 REVERT JUMPDEST DUP1 MLOAD PUSH1 0x1 PUSH1 0x1 PUSH1 0xA0 SHL SUB AND DUP3 MSTORE PUSH1 0x20 DUP1 DUP3 ADD MLOAD PUSH8 0xFFFFFFFFFFFFFFFF AND SWAP1 DUP4 ADD MSTORE PUSH1 0x40 DUP1 DUP3 ADD MLOAD ISZERO ISZERO SWAP1 DUP4 ADD MSTORE PUSH1 0x60 SWAP1 DUP2 ADD MLOAD PUSH3 0xFFFFFF AND SWAP2 ADD MSTORE JUMP JUMPDEST PUSH1 0x20 DUP1 DUP3 MSTORE DUP3 MLOAD DUP3 DUP3 ADD DUP2 SWAP1 MSTORE PUSH0 SWAP2 SWAP1 DUP5 DUP3 ADD SWAP1 PUSH1 0x40 DUP6 ADD SWAP1 DUP5 JUMPDEST DUP2 DUP2 LT ISZERO PUSH2 0x205F JUMPI PUSH2 0x204C DUP4 DUP6 MLOAD PUSH2 0x1FE1 JUMP JUMPDEST SWAP3 DUP5 ADD SWAP3 PUSH1 0x80 SWAP3 SWAP1 SWAP3 ADD SWAP2 PUSH1 0x1 ADD PUSH2 0x2039 JUMP JUMPDEST POP SWAP1 SWAP7 SWAP6 POP POP POP POP POP POP JUMP JUMPDEST PUSH0 PUSH1 0x20 DUP3 DUP5 SUB SLT ISZERO PUSH2 0x207B JUMPI PUSH0 DUP1 REVERT JUMPDEST PUSH2 0x1D8B DUP3 PUSH2 0x1D92 JUMP JUMPDEST PUSH1 0x20 DUP1 DUP3 MSTORE DUP3 MLOAD DUP3 DUP3 ADD DUP2 SWAP1 MSTORE PUSH0 SWAP2 SWAP1 DUP5 DUP3 ADD SWAP1 PUSH1 0x40 DUP6 ADD SWAP1 DUP5 JUMPDEST DUP2 DUP2 LT ISZERO PUSH2 0x205F JUMPI DUP4 MLOAD DUP4 MSTORE SWAP3 DUP5 ADD SWAP3 SWAP2 DUP5 ADD SWAP2 PUSH1 0x1 ADD PUSH2 0x209F JUMP JUMPDEST PUSH0 DUP1 PUSH0 PUSH1 0x60 DUP5 DUP7 SUB SLT ISZERO PUSH2 0x20CD JUMPI PUSH0 DUP1 REVERT JUMPDEST PUSH2 0x20D6 DUP5 PUSH2 0x1D92 JUMP JUMPDEST SWAP6 PUSH1 0x20 DUP6 ADD CALLDATALOAD SWAP6 POP PUSH1 0x40 SWAP1 SWAP5 ADD CALLDATALOAD SWAP4 SWAP3 POP POP POP JUMP JUMPDEST PUSH0 DUP1 PUSH1 0x40 DUP4 DUP6 SUB SLT ISZERO PUSH2 0x20FC JUMPI PUSH0 DUP1 REVERT JUMPDEST PUSH2 0x2105 DUP4 PUSH2 0x1D92 JUMP JUMPDEST SWAP2 POP PUSH1 0x20 DUP4 ADD CALLDATALOAD DUP1 ISZERO ISZERO DUP2 EQ PUSH2 0x1DDD JUMPI PUSH0 DUP1 REVERT JUMPDEST PUSH4 0x4E487B71 PUSH1 0xE0 SHL PUSH0 MSTORE PUSH1 0x41 PUSH1 0x4 MSTORE PUSH1 0x24 PUSH0 REVERT JUMPDEST PUSH0 DUP1 PUSH0 DUP1 PUSH1 0x80 DUP6 DUP8 SUB SLT ISZERO PUSH2 0x2140 JUMPI PUSH0 DUP1 REVERT JUMPDEST PUSH2 0x2149 DUP6 PUSH2 0x1D92 JUMP JUMPDEST SWAP4 POP PUSH2 0x2157 PUSH1 0x20 DUP7 ADD PUSH2 0x1D92 JUMP JUMPDEST SWAP3 POP PUSH1 0x40 DUP6 ADD CALLDATALOAD SWAP2 POP PUSH1 0x60 DUP6 ADD CALLDATALOAD PUSH8 0xFFFFFFFFFFFFFFFF DUP1 DUP3 GT ISZERO PUSH2 0x217A JUMPI PUSH0 DUP1 REVERT JUMPDEST DUP2 DUP8 ADD SWAP2 POP DUP8 PUSH1 0x1F DUP4 ADD SLT PUSH2 0x218D JUMPI PUSH0 DUP1 REVERT JUMPDEST DUP2 CALLDATALOAD DUP2 DUP2 GT ISZERO PUSH2 0x219F JUMPI PUSH2 0x219F PUSH2 0x2119 JUMP JUMPDEST PUSH1 0x40 MLOAD PUSH1 0x1F DUP3 ADD PUSH1 0x1F NOT SWAP1 DUP2 AND PUSH1 0x3F ADD AND DUP2 ADD SWAP1 DUP4 DUP3 GT DUP2 DUP4 LT OR ISZERO PUSH2 0x21C7 JUMPI PUSH2 0x21C7 PUSH2 0x2119 JUMP JUMPDEST DUP2 PUSH1 0x40 MSTORE DUP3 DUP2 MSTORE DUP11 PUSH1 0x20 DUP5 DUP8 ADD ADD GT ISZERO PUSH2 0x21DF JUMPI PUSH0 DUP1 REVERT JUMPDEST DUP3 PUSH1 0x20 DUP7 ADD PUSH1 0x20 DUP4 ADD CALLDATACOPY PUSH0 PUSH1 0x20 DUP5 DUP4 ADD ADD MSTORE DUP1 SWAP6 POP POP POP POP POP POP SWAP3 SWAP6 SWAP2 SWAP5 POP SWAP3 POP JUMP JUMPDEST PUSH1 0x80 DUP2 ADD PUSH2 0x760 DUP3 DUP5 PUSH2 0x1FE1 JUMP JUMPDEST PUSH0 DUP1 PUSH1 0x40 DUP4 DUP6 SUB SLT ISZERO PUSH2 0x2221 JUMPI PUSH0 DUP1 REVERT JUMPDEST PUSH2 0x222A DUP4 PUSH2 0x1D92 JUMP JUMPDEST SWAP2 POP PUSH2 0x2238 PUSH1 0x20 DUP5 ADD PUSH2 0x1D92 JUMP JUMPDEST SWAP1 POP SWAP3 POP SWAP3 SWAP1 POP JUMP JUMPDEST PUSH4 0x4E487B71 PUSH1 0xE0 SHL PUSH0 MSTORE PUSH1 0x11 PUSH1 0x4 MSTORE PUSH1 0x24 PUSH0 REVERT JUMPDEST DUP1 DUP3 ADD DUP1 DUP3 GT ISZERO PUSH2 0x760 JUMPI PUSH2 0x760 PUSH2 0x2241 JUMP JUMPDEST DUP2 DUP2 SUB DUP2 DUP2 GT ISZERO PUSH2 0x760 JUMPI PUSH2 0x760 PUSH2 0x2241 JUMP JUMPDEST PUSH1 0x1 DUP2 DUP2 SHR SWAP1 DUP3 AND DUP1 PUSH2 0x228F JUMPI PUSH1 0x7F DUP3 AND SWAP2 POP JUMPDEST PUSH1 0x20 DUP3 LT DUP2 SUB PUSH2 0x22AD JUMPI PUSH4 0x4E487B71 PUSH1 0xE0 SHL PUSH0 MSTORE PUSH1 0x22 PUSH1 0x4 MSTORE PUSH1 0x24 PUSH0 REVERT JUMPDEST POP SWAP2 SWAP1 POP JUMP JUMPDEST PUSH1 0x1F DUP3 GT ISZERO PUSH2 0x1125 JUMPI DUP1 PUSH0 MSTORE PUSH1 0x20 PUSH0 KECCAK256 PUSH1 0x1F DUP5 ADD PUSH1 0x5 SHR DUP2 ADD PUSH1 0x20 DUP6 LT ISZERO PUSH2 0x22D8 JUMPI POP DUP1 JUMPDEST PUSH1 0x1F DUP5 ADD PUSH1 0x5 SHR DUP3 ADD SWAP2 POP JUMPDEST DUP2 DUP2 LT ISZERO PUSH2 0x22F7 JUMPI PUSH0 DUP2 SSTORE PUSH1 0x1 ADD PUSH2 0x22E4 JUMP JUMPDEST POP POP POP POP POP JUMP JUMPDEST PUSH8 0xFFFFFFFFFFFFFFFF DUP4 GT ISZERO PUSH2 0x2316 JUMPI PUSH2 0x2316 PUSH2 0x2119 JUMP JUMPDEST PUSH2 0x232A DUP4 PUSH2 0x2324 DUP4 SLOAD PUSH2 0x227B JUMP JUMPDEST DUP4 PUSH2 0x22B3 JUMP JUMPDEST PUSH0 PUSH1 0x1F DUP5 GT PUSH1 0x1 DUP2 EQ PUSH2 0x235B JUMPI PUSH0 DUP6 ISZERO PUSH2 0x2344 JUMPI POP DUP4 DUP3 ADD CALLDATALOAD JUMPDEST PUSH0 NOT PUSH1 0x3 DUP8 SWAP1 SHL SHR NOT AND PUSH1 0x1 DUP7 SWAP1 SHL OR DUP4 SSTORE PUSH2 0x22F7 JUMP JUMPDEST PUSH0 DUP4 DUP2 MSTORE PUSH1 0x20 DUP2 KECCAK256 PUSH1 0x1F NOT DUP8 AND SWAP2 JUMPDEST DUP3 DUP2 LT ISZERO PUSH2 0x238A JUMPI DUP7 DUP6 ADD CALLDATALOAD DUP3 SSTORE PUSH1 0x20 SWAP5 DUP6 ADD SWAP5 PUSH1 0x1 SWAP1 SWAP3 ADD SWAP2 ADD PUSH2 0x236A JUMP JUMPDEST POP DUP7 DUP3 LT ISZERO PUSH2 0x23A6 JUMPI PUSH0 NOT PUSH1 0xF8 DUP9 PUSH1 0x3 SHL AND SHR NOT DUP5 DUP8 ADD CALLDATALOAD AND DUP2 SSTORE JUMPDEST POP POP PUSH1 0x1 DUP6 PUSH1 0x1 SHL ADD DUP4 SSTORE POP POP POP POP POP JUMP JUMPDEST DUP1 DUP3 MUL DUP2 ISZERO DUP3 DUP3 DIV DUP5 EQ OR PUSH2 0x760 JUMPI PUSH2 0x760 PUSH2 0x2241 JUMP JUMPDEST PUSH0 PUSH1 0x1 DUP3 ADD PUSH2 0x23E0 JUMPI PUSH2 0x23E0 PUSH2 0x2241 JUMP JUMPDEST POP PUSH1 0x1 ADD SWAP1 JUMP JUMPDEST PUSH0 DUP3 PUSH2 0x2401 JUMPI PUSH4 0x4E487B71 PUSH1 0xE0 SHL PUSH0 MSTORE PUSH1 0x12 PUSH1 0x4 MSTORE PUSH1 0x24 PUSH0 REVERT JUMPDEST POP DIV SWAP1 JUMP JUMPDEST PUSH0 DUP2 MLOAD DUP1 PUSH1 0x20 DUP5 ADD DUP6 MCOPY PUSH0 SWAP4 ADD SWAP3 DUP4 MSTORE POP SWAP1 SWAP2 SWAP1 POP JUMP JUMPDEST PUSH0 PUSH2 0x1271 PUSH2 0x242B DUP4 DUP7 PUSH2 0x2406 JUMP JUMPDEST DUP5 PUSH2 0x2406 JUMP JUMPDEST PUSH0 DUP2 PUSH2 0x243F JUMPI PUSH2 0x243F PUSH2 0x2241 JUMP JUMPDEST POP PUSH0 NOT ADD SWAP1 JUMP JUMPDEST PUSH1 0x1 PUSH1 0x1 PUSH1 0xA0 SHL SUB DUP6 DUP2 AND DUP3 MSTORE DUP5 AND PUSH1 0x20 DUP3 ADD MSTORE PUSH1 0x40 DUP2 ADD DUP4 SWAP1 MSTORE PUSH1 0x80 PUSH1 0x60 DUP3 ADD DUP2 SWAP1 MSTORE PUSH0 SWAP1 PUSH2 0x2478 SWAP1 DUP4 ADD DUP5 PUSH2 0x1E54 JUMP JUMPDEST SWAP7 SWAP6 POP POP POP POP POP POP JUMP JUMPDEST PUSH0 PUSH1 0x20 DUP3 DUP5 SUB SLT ISZERO PUSH2 0x2492 JUMPI PUSH0 DUP1 REVERT JUMPDEST DUP2 MLOAD PUSH2 0x1D8B DUP2 PUSH2 0x1D5B JUMP INVALID LOG2 PUSH5 0x6970667358 0x22 SLT KECCAK256 0xB1 EXTCODESIZE 0xD2 PUSH32 0xE976B9C80D7F049EC1EA9FFE4285F2DC41FB36A93AF9DAC3A399FF2B64736F6C PUSH4 0x43000819 STOP CALLER PUSH9 0x747470733A2F2F6970 PUSH7 0x732E676C6F6F6D PUSH21 0x6F6B656E2E78797A2F697066732F62616679626569 PUSH5 0x6E72676167 PUSH27 0x726A76617672736A746E7A36716871766E6C626B7A337668357133 CALLDATALOAD PUSH8 0x66676B6A32333679 PUSH13 0x737877706D7379000000000000 "
	},
	"abi": [
		{
			"inputs": [],
			"name": "ApprovalCallerNotOwnerNorApproved",
			"type": "error"
		},
		{
			"inputs": [],
			"name": "ApprovalQueryForNonexistentToken",
			"type": "error"
		},
		{
			"inputs": [],
			"name": "BalanceQueryForZeroAddress",
			"type": "error"
		},
		{
			"inputs": [],
			"name": "ClaimNotActive",
			"type": "error"
		},
		{
			"inputs": [
				{
					"internalType": "uint256",
					"name": "numerator",
					"type": "uint256"
				},
				{
					"internalType": "uint256",
					"name": "denominator",
					"type": "uint256"
				}
			],
			"name": "ERC2981InvalidDefaultRoyalty",
			"type": "error"
		},
		{
			"inputs": [
				{
					"internalType": "address",
					"name": "receiver",
					"type": "address"
				}
			],
			"name": "ERC2981InvalidDefaultRoyaltyReceiver",
			"type": "error"
		},
		{
			"inputs": [
				{
					"internalType": "uint256",
					"name": "tokenId",
					"type": "uint256"
				},
				{
					"internalType": "uint256",
					"name": "numerator",
					"type": "uint256"
				},
				{
					"internalType": "uint256",
					"name": "denominator",
					"type": "uint256"
				}
			],
			"name": "ERC2981InvalidTokenRoyalty",
			"type": "error"
		},
		{
			"inputs": [
				{
					"internalType": "uint256",
					"name": "tokenId",
					"type": "uint256"
				},
				{
					"internalType": "address",
					"name": "receiver",
					"type": "address"
				}
			],
			"name": "ERC2981InvalidTokenRoyaltyReceiver",
			"type": "error"
		},
		{
			"inputs": [],
			"name": "ExceedsMaxMintPerWallet",
			"type": "error"
		},
		{
			"inputs": [],
			"name": "ExceedsMaxSupply",
			"type": "error"
		},
		{
			"inputs": [],
			"name": "InsufficientFunds",
			"type": "error"
		},
		{
			"inputs": [],
			"name": "InvalidQueryRange",
			"type": "error"
		},
		{
			"inputs": [],
			"name": "MintERC2309QuantityExceedsLimit",
			"type": "error"
		},
		{
			"inputs": [],
			"name": "MintToZeroAddress",
			"type": "error"
		},
		{
			"inputs": [],
			"name": "MintZeroQuantity",
			"type": "error"
		},
		{
			"inputs": [],
			"name": "MintingDisabled",
			"type": "error"
		},
		{
			"inputs": [],
			"name": "NonEOACaller",
			"type": "error"
		},
		{
			"inputs": [],
			"name": "NotCompatibleWithSpotMints",
			"type": "error"
		},
		{
			"inputs": [],
			"name": "NotEligible",
			"type": "error"
		},
		{
			"inputs": [
				{
					"internalType": "address",
					"name": "owner",
					"type": "address"
				}
			],
			"name": "OwnableInvalidOwner",
			"type": "error"
		},
		{
			"inputs": [
				{
					"internalType": "address",
					"name": "account",
					"type": "address"
				}
			],
			"name": "OwnableUnauthorizedAccount",
			"type": "error"
		},
		{
			"inputs": [],
			"name": "OwnerQueryForNonexistentToken",
			"type": "error"
		},
		{
			"inputs": [],
			"name": "OwnershipNotInitializedForExtraData",
			"type": "error"
		},
		{
			"inputs": [],
			"name": "PresaleNotActive",
			"type": "error"
		},
		{
			"inputs": [],
			"name": "PublicMintNotActive",
			"type": "error"
		},
		{
			"inputs": [],
			"name": "SequentialMintExceedsLimit",
			"type": "error"
		},
		{
			"inputs": [],
			"name": "SequentialUpToTooSmall",
			"type": "error"
		},
		{
			"inputs": [],
			"name": "SpotMintTokenIdTooSmall",
			"type": "error"
		},
		{
			"inputs": [],
			"name": "TokenAlreadyExists",
			"type": "error"
		},
		{
			"inputs": [],
			"name": "TransferCallerNotOwnerNorApproved",
			"type": "error"
		},
		{
			"inputs": [],
			"name": "TransferFromIncorrectOwner",
			"type": "error"
		},
		{
			"inputs": [],
			"name": "TransferToNonERC721ReceiverImplementer",
			"type": "error"
		},
		{
			"inputs": [],
			"name": "TransferToZeroAddress",
			"type": "error"
		},
		{
			"inputs": [],
			"name": "URIQueryForNonexistentToken",
			"type": "error"
		},
		{
			"inputs": [],
			"name": "WhitelistNotActive",
			"type": "error"
		},
		{
			"anonymous": false,
			"inputs": [
				{
					"indexed": true,
					"internalType": "address",
					"name": "owner",
					"type": "address"
				},
				{
					"indexed": true,
					"internalType": "address",
					"name": "approved",
					"type": "address"
				},
				{
					"indexed": true,
					"internalType": "uint256",
					"name": "tokenId",
					"type": "uint256"
				}
			],
			"name": "Approval",
			"type": "event"
		},
		{
			"anonymous": false,
			"inputs": [
				{
					"indexed": true,
					"internalType": "address",
					"name": "owner",
					"type": "address"
				},
				{
					"indexed": true,
					"internalType": "address",
					"name": "operator",
					"type": "address"
				},
				{
					"indexed": false,
					"internalType": "bool",
					"name": "approved",
					"type": "bool"
				}
			],
			"name": "ApprovalForAll",
			"type": "event"
		},
		{
			"anonymous": false,
			"inputs": [
				{
					"indexed": false,
					"internalType": "uint256",
					"name": "_fromTokenId",
					"type": "uint256"
				},
				{
					"indexed": false,
					"internalType": "uint256",
					"name": "_toTokenId",
					"type": "uint256"
				}
			],
			"name": "BatchMetadataUpdate",
			"type": "event"
		},
		{
			"anonymous": false,
			"inputs": [
				{
					"indexed": true,
					"internalType": "address",
					"name": "_to",
					"type": "address"
				},
				{
					"indexed": false,
					"internalType": "uint256",
					"name": "_quantity",
					"type": "uint256"
				}
			],
			"name": "ClaimPresale",
			"type": "event"
		},
		{
			"anonymous": false,
			"inputs": [
				{
					"indexed": true,
					"internalType": "uint256",
					"name": "fromTokenId",
					"type": "uint256"
				},
				{
					"indexed": false,
					"internalType": "uint256",
					"name": "toTokenId",
					"type": "uint256"
				},
				{
					"indexed": true,
					"internalType": "address",
					"name": "from",
					"type": "address"
				},
				{
					"indexed": true,
					"internalType": "address",
					"name": "to",
					"type": "address"
				}
			],
			"name": "ConsecutiveTransfer",
			"type": "event"
		},
		{
			"anonymous": false,
			"inputs": [
				{
					"indexed": true,
					"internalType": "address",
					"name": "_to",
					"type": "address"
				},
				{
					"indexed": false,
					"internalType": "uint256",
					"name": "_quantity",
					"type": "uint256"
				}
			],
			"name": "GloomersMint",
			"type": "event"
		},
		{
			"anonymous": false,
			"inputs": [
				{
					"indexed": true,
					"internalType": "address",
					"name": "_to",
					"type": "address"
				},
				{
					"indexed": false,
					"internalType": "uint256",
					"name": "_quantity",
					"type": "uint256"
				}
			],
			"name": "MintWhitelist",
			"type": "event"
		},
		{
			"anonymous": false,
			"inputs": [
				{
					"indexed": false,
					"internalType": "enum Gloomers.DropStatus",
					"name": "_dropStatus",
					"type": "uint8"
				}
			],
			"name": "NewDropStatus",
			"type": "event"
		},
		{
			"anonymous": false,
			"inputs": [
				{
					"indexed": true,
					"internalType": "address",
					"name": "previousOwner",
					"type": "address"
				},
				{
					"indexed": true,
					"internalType": "address",
					"name": "newOwner",
					"type": "address"
				}
			],
			"name": "OwnershipTransferred",
			"type": "event"
		},
		{
			"anonymous": false,
			"inputs": [
				{
					"indexed": true,
					"internalType": "address",
					"name": "_to",
					"type": "address"
				},
				{
					"indexed": false,
					"internalType": "uint256",
					"name": "_quantity",
					"type": "uint256"
				}
			],
			"name": "RegisterPresale",
			"type": "event"
		},
		{
			"anonymous": false,
			"inputs": [
				{
					"indexed": true,
					"internalType": "address",
					"name": "from",
					"type": "address"
				},
				{
					"indexed": true,
					"internalType": "address",
					"name": "to",
					"type": "address"
				},
				{
					"indexed": true,
					"internalType": "uint256",
					"name": "tokenId",
					"type": "uint256"
				}
			],
			"name": "Transfer",
			"type": "event"
		},
		{
			"inputs": [
				{
					"internalType": "address",
					"name": "to",
					"type": "address"
				},
				{
					"internalType": "uint256",
					"name": "tokenId",
					"type": "uint256"
				}
			],
			"name": "approve",
			"outputs": [],
			"stateMutability": "payable",
			"type": "function"
		},
		{
			"inputs": [],
			"name": "claimPresale",
			"outputs": [],
			"stateMutability": "nonpayable",
			"type": "function"
		},
		{
			"inputs": [
				{
					"internalType": "uint256",
					"name": "quantity",
					"type": "uint256"
				}
			],
			"name": "mint",
			"outputs": [],
			"stateMutability": "payable",
			"type": "function"
		},
		{
			"inputs": [
				{
					"internalType": "uint256",
					"name": "quantity",
					"type": "uint256"
				},
				{
					"internalType": "bytes32",
					"name": "gloomerHash_",
					"type": "bytes32"
				}
			],
			"name": "mintWhitelist",
			"outputs": [],
			"stateMutability": "payable",
			"type": "function"
		},
		{
			"inputs": [
				{
					"internalType": "uint256",
					"name": "quantity",
					"type": "uint256"
				},
				{
					"internalType": "bytes32",
					"name": "gloomerHash_",
					"type": "bytes32"
				}
			],
			"name": "registerPresale",
			"outputs": [],
			"stateMutability": "payable",
			"type": "function"
		},
		{
			"inputs": [],
			"name": "renounceOwnership",
			"outputs": [],
			"stateMutability": "nonpayable",
			"type": "function"
		},
		{
			"inputs": [
				{
					"internalType": "address",
					"name": "from",
					"type": "address"
				},
				{
					"internalType": "address",
					"name": "to",
					"type": "address"
				},
				{
					"internalType": "uint256",
					"name": "tokenId",
					"type": "uint256"
				}
			],
			"name": "safeTransferFrom",
			"outputs": [],
			"stateMutability": "payable",
			"type": "function"
		},
		{
			"inputs": [
				{
					"internalType": "address",
					"name": "from",
					"type": "address"
				},
				{
					"internalType": "address",
					"name": "to",
					"type": "address"
				},
				{
					"internalType": "uint256",
					"name": "tokenId",
					"type": "uint256"
				},
				{
					"internalType": "bytes",
					"name": "_data",
					"type": "bytes"
				}
			],
			"name": "safeTransferFrom",
			"outputs": [],
			"stateMutability": "payable",
			"type": "function"
		},
		{
			"inputs": [
				{
					"internalType": "address",
					"name": "operator",
					"type": "address"
				},
				{
					"internalType": "bool",
					"name": "approved",
					"type": "bool"
				}
			],
			"name": "setApprovalForAll",
			"outputs": [],
			"stateMutability": "nonpayable",
			"type": "function"
		},
		{
			"inputs": [
				{
					"internalType": "address",
					"name": "receiver",
					"type": "address"
				},
				{
					"internalType": "uint96",
					"name": "feeNumerator",
					"type": "uint96"
				}
			],
			"name": "setDefaultRoyalty",
			"outputs": [],
			"stateMutability": "nonpayable",
			"type": "function"
		},
		{
			"inputs": [
				{
					"internalType": "enum Gloomers.DropStatus",
					"name": "newDropStatus",
					"type": "uint8"
				}
			],
			"name": "setDropStatus",
			"outputs": [],
			"stateMutability": "nonpayable",
			"type": "function"
		},
		{
			"inputs": [
				{
					"internalType": "bytes32",
					"name": "gloomerHash_",
					"type": "bytes32"
				}
			],
			"name": "setGloomerHash",
			"outputs": [],
			"stateMutability": "nonpayable",
			"type": "function"
		},
		{
			"inputs": [
				{
					"internalType": "string",
					"name": "baseTokenURI_",
					"type": "string"
				}
			],
			"name": "setTokenUri",
			"outputs": [],
			"stateMutability": "nonpayable",
			"type": "function"
		},
		{
			"inputs": [
				{
					"internalType": "address",
					"name": "from",
					"type": "address"
				},
				{
					"internalType": "address",
					"name": "to",
					"type": "address"
				},
				{
					"internalType": "uint256",
					"name": "tokenId",
					"type": "uint256"
				}
			],
			"name": "transferFrom",
			"outputs": [],
			"stateMutability": "payable",
			"type": "function"
		},
		{
			"inputs": [
				{
					"internalType": "address",
					"name": "newOwner",
					"type": "address"
				}
			],
			"name": "transferOwnership",
			"outputs": [],
			"stateMutability": "nonpayable",
			"type": "function"
		},
		{
			"stateMutability": "payable",
			"type": "receive"
		},
		{
			"inputs": [],
			"name": "withdraw",
			"outputs": [],
			"stateMutability": "nonpayable",
			"type": "function"
		},
		{
			"stateMutability": "payable",
			"type": "fallback"
		},
		{
			"inputs": [],
			"stateMutability": "nonpayable",
			"type": "constructor"
		},
		{
			"inputs": [
				{
					"internalType": "address",
					"name": "owner",
					"type": "address"
				}
			],
			"name": "balanceOf",
			"outputs": [
				{
					"internalType": "uint256",
					"name": "",
					"type": "uint256"
				}
			],
			"stateMutability": "view",
			"type": "function"
		},
		{
			"inputs": [],
			"name": "dropStatus",
			"outputs": [
				{
					"internalType": "enum Gloomers.DropStatus",
					"name": "",
					"type": "uint8"
				}
			],
			"stateMutability": "view",
			"type": "function"
		},
		{
			"inputs": [],
			"name": "END_TOKEN_ID",
			"outputs": [
				{
					"internalType": "uint256",
					"name": "",
					"type": "uint256"
				}
			],
			"stateMutability": "view",
			"type": "function"
		},
		{
			"inputs": [
				{
					"internalType": "uint256",
					"name": "tokenId",
					"type": "uint256"
				}
			],
			"name": "explicitOwnershipOf",
			"outputs": [
				{
					"components": [
						{
							"internalType": "address",
							"name": "addr",
							"type": "address"
						},
						{
							"internalType": "uint64",
							"name": "startTimestamp",
							"type": "uint64"
						},
						{
							"internalType": "bool",
							"name": "burned",
							"type": "bool"
						},
						{
							"internalType": "uint24",
							"name": "extraData",
							"type": "uint24"
						}
					],
					"internalType": "struct IERC721A.TokenOwnership",
					"name": "ownership",
					"type": "tuple"
				}
			],
			"stateMutability": "view",
			"type": "function"
		},
		{
			"inputs": [
				{
					"internalType": "uint256[]",
					"name": "tokenIds",
					"type": "uint256[]"
				}
			],
			"name": "explicitOwnershipsOf",
			"outputs": [
				{
					"components": [
						{
							"internalType": "address",
							"name": "addr",
							"type": "address"
						},
						{
							"internalType": "uint64",
							"name": "startTimestamp",
							"type": "uint64"
						},
						{
							"internalType": "bool",
							"name": "burned",
							"type": "bool"
						},
						{
							"internalType": "uint24",
							"name": "extraData",
							"type": "uint24"
						}
					],
					"internalType": "struct IERC721A.TokenOwnership[]",
					"name": "",
					"type": "tuple[]"
				}
			],
			"stateMutability": "view",
			"type": "function"
		},
		{
			"inputs": [
				{
					"internalType": "uint256",
					"name": "tokenId",
					"type": "uint256"
				}
			],
			"name": "getApproved",
			"outputs": [
				{
					"internalType": "address",
					"name": "",
					"type": "address"
				}
			],
			"stateMutability": "view",
			"type": "function"
		},
		{
			"inputs": [
				{
					"internalType": "address",
					"name": "wallet",
					"type": "address"
				}
			],
			"name": "getPresaleAllocation",
			"outputs": [
				{
					"internalType": "uint256",
					"name": "",
					"type": "uint256"
				}
			],
			"stateMutability": "view",
			"type": "function"
		},
		{
			"inputs": [
				{
					"internalType": "address",
					"name": "owner",
					"type": "address"
				},
				{
					"internalType": "address",
					"name": "operator",
					"type": "address"
				}
			],
			"name": "isApprovedForAll",
			"outputs": [
				{
					"internalType": "bool",
					"name": "",
					"type": "bool"
				}
			],
			"stateMutability": "view",
			"type": "function"
		},
		{
			"inputs": [],
			"name": "MAX_MINT_PER_WALLET",
			"outputs": [
				{
					"internalType": "uint256",
					"name": "",
					"type": "uint256"
				}
			],
			"stateMutability": "view",
			"type": "function"
		},
		{
			"inputs": [],
			"name": "name",
			"outputs": [
				{
					"internalType": "string",
					"name": "",
					"type": "string"
				}
			],
			"stateMutability": "view",
			"type": "function"
		},
		{
			"inputs": [],
			"name": "owner",
			"outputs": [
				{
					"internalType": "address",
					"name": "",
					"type": "address"
				}
			],
			"stateMutability": "view",
			"type": "function"
		},
		{
			"inputs": [
				{
					"internalType": "uint256",
					"name": "tokenId",
					"type": "uint256"
				}
			],
			"name": "ownerOf",
			"outputs": [
				{
					"internalType": "address",
					"name": "",
					"type": "address"
				}
			],
			"stateMutability": "view",
			"type": "function"
		},
		{
			"inputs": [],
			"name": "PRICE_PER_TOKEN",
			"outputs": [
				{
					"internalType": "uint256",
					"name": "",
					"type": "uint256"
				}
			],
			"stateMutability": "view",
			"type": "function"
		},
		{
			"inputs": [],
			"name": "PROVENANCE_HASH",
			"outputs": [
				{
					"internalType": "bytes32",
					"name": "",
					"type": "bytes32"
				}
			],
			"stateMutability": "view",
			"type": "function"
		},
		{
			"inputs": [],
			"name": "PUBLIC_MINT_TIMESTAMP",
			"outputs": [
				{
					"internalType": "uint256",
					"name": "",
					"type": "uint256"
				}
			],
			"stateMutability": "view",
			"type": "function"
		},
		{
			"inputs": [
				{
					"internalType": "uint256",
					"name": "tokenId",
					"type": "uint256"
				},
				{
					"internalType": "uint256",
					"name": "salePrice",
					"type": "uint256"
				}
			],
			"name": "royaltyInfo",
			"outputs": [
				{
					"internalType": "address",
					"name": "",
					"type": "address"
				},
				{
					"internalType": "uint256",
					"name": "",
					"type": "uint256"
				}
			],
			"stateMutability": "view",
			"type": "function"
		},
		{
			"inputs": [],
			"name": "START_TOKEN_ID",
			"outputs": [
				{
					"internalType": "uint256",
					"name": "",
					"type": "uint256"
				}
			],
			"stateMutability": "view",
			"type": "function"
		},
		{
			"inputs": [],
			"name": "startTokenId",
			"outputs": [
				{
					"internalType": "uint256",
					"name": "result",
					"type": "uint256"
				}
			],
			"stateMutability": "view",
			"type": "function"
		},
		{
			"inputs": [
				{
					"internalType": "bytes4",
					"name": "interfaceId",
					"type": "bytes4"
				}
			],
			"name": "supportsInterface",
			"outputs": [
				{
					"internalType": "bool",
					"name": "",
					"type": "bool"
				}
			],
			"stateMutability": "view",
			"type": "function"
		},
		{
			"inputs": [],
			"name": "symbol",
			"outputs": [
				{
					"internalType": "string",
					"name": "",
					"type": "string"
				}
			],
			"stateMutability": "view",
			"type": "function"
		},
		{
			"inputs": [
				{
					"internalType": "address",
					"name": "owner",
					"type": "address"
				}
			],
			"name": "tokensOfOwner",
			"outputs": [
				{
					"internalType": "uint256[]",
					"name": "",
					"type": "uint256[]"
				}
			],
			"stateMutability": "view",
			"type": "function"
		},
		{
			"inputs": [
				{
					"internalType": "address",
					"name": "owner",
					"type": "address"
				},
				{
					"internalType": "uint256",
					"name": "start",
					"type": "uint256"
				},
				{
					"internalType": "uint256",
					"name": "stop",
					"type": "uint256"
				}
			],
			"name": "tokensOfOwnerIn",
			"outputs": [
				{
					"internalType": "uint256[]",
					"name": "",
					"type": "uint256[]"
				}
			],
			"stateMutability": "view",
			"type": "function"
		},
		{
			"inputs": [
				{
					"internalType": "uint256",
					"name": "tokenId",
					"type": "uint256"
				}
			],
			"name": "tokenURI",
			"outputs": [
				{
					"internalType": "string",
					"name": "",
					"type": "string"
				}
			],
			"stateMutability": "view",
			"type": "function"
		},
		{
			"inputs": [],
			"name": "totalSupply",
			"outputs": [
				{
					"internalType": "uint256",
					"name": "result",
					"type": "uint256"
				}
			],
			"stateMutability": "view",
			"type": "function"
		},
		{
			"inputs": [],
			"name": "WHITELIST_START_TIMESTAMP",
			"outputs": [
				{
					"internalType": "uint256",
					"name": "",
					"type": "uint256"
				}
			],
			"stateMutability": "view",
			"type": "function"
		}
	],
	"storageLayout": {
		"storage": [
			{
				"astId": 579,
				"contract": "Gloomers.sol:Gloomers",
				"label": "_currentIndex",
				"offset": 0,
				"slot": "0",
				"type": "t_uint256"
			},
			{
				"astId": 581,
				"contract": "Gloomers.sol:Gloomers",
				"label": "_burnCounter",
				"offset": 0,
				"slot": "1",
				"type": "t_uint256"
			},
			{
				"astId": 583,
				"contract": "Gloomers.sol:Gloomers",
				"label": "_name",
				"offset": 0,
				"slot": "2",
				"type": "t_string_storage"
			},
			{
				"astId": 585,
				"contract": "Gloomers.sol:Gloomers",
				"label": "_symbol",
				"offset": 0,
				"slot": "3",
				"type": "t_string_storage"
			},
			{
				"astId": 589,
				"contract": "Gloomers.sol:Gloomers",
				"label": "_packedOwnerships",
				"offset": 0,
				"slot": "4",
				"type": "t_mapping(t_uint256,t_uint256)"
			},
			{
				"astId": 593,
				"contract": "Gloomers.sol:Gloomers",
				"label": "_packedAddressData",
				"offset": 0,
				"slot": "5",
				"type": "t_mapping(t_address,t_uint256)"
			},
			{
				"astId": 598,
				"contract": "Gloomers.sol:Gloomers",
				"label": "_tokenApprovals",
				"offset": 0,
				"slot": "6",
				"type": "t_mapping(t_uint256,t_struct(TokenApprovalRef)511_storage)"
			},
			{
				"astId": 604,
				"contract": "Gloomers.sol:Gloomers",
				"label": "_operatorApprovals",
				"offset": 0,
				"slot": "7",
				"type": "t_mapping(t_address,t_mapping(t_address,t_bool))"
			},
			{
				"astId": 606,
				"contract": "Gloomers.sol:Gloomers",
				"label": "_spotMinted",
				"offset": 0,
				"slot": "8",
				"type": "t_uint256"
			},
			{
				"astId": 187,
				"contract": "Gloomers.sol:Gloomers",
				"label": "_defaultRoyaltyInfo",
				"offset": 0,
				"slot": "9",
				"type": "t_struct(RoyaltyInfo)184_storage"
			},
			{
				"astId": 192,
				"contract": "Gloomers.sol:Gloomers",
				"label": "_tokenRoyaltyInfo",
				"offset": 0,
				"slot": "10",
				"type": "t_mapping(t_uint256,t_struct(RoyaltyInfo)184_storage)"
			},
			{
				"astId": 8,
				"contract": "Gloomers.sol:Gloomers",
				"label": "_owner",
				"offset": 0,
				"slot": "11",
				"type": "t_address"
			},
			{
				"astId": 2994,
				"contract": "Gloomers.sol:Gloomers",
				"label": "dropStatus",
				"offset": 20,
				"slot": "11",
				"type": "t_enum(DropStatus)2989"
			},
			{
				"astId": 2998,
				"contract": "Gloomers.sol:Gloomers",
				"label": "_mintedPerWallet",
				"offset": 0,
				"slot": "12",
				"type": "t_mapping(t_address,t_uint256)"
			},
			{
				"astId": 3002,
				"contract": "Gloomers.sol:Gloomers",
				"label": "_presaleAllocationsByWallet",
				"offset": 0,
				"slot": "13",
				"type": "t_mapping(t_address,t_uint256)"
			},
			{
				"astId": 3006,
				"contract": "Gloomers.sol:Gloomers",
				"label": "_presaleWalletsById",
				"offset": 0,
				"slot": "14",
				"type": "t_mapping(t_uint256,t_address)"
			},
			{
				"astId": 3008,
				"contract": "Gloomers.sol:Gloomers",
				"label": "_presalesCount",
				"offset": 0,
				"slot": "15",
				"type": "t_uint256"
			},
			{
				"astId": 3010,
				"contract": "Gloomers.sol:Gloomers",
				"label": "_presaleSupplyOffset",
				"offset": 0,
				"slot": "16",
				"type": "t_uint256"
			},
			{
				"astId": 3012,
				"contract": "Gloomers.sol:Gloomers",
				"label": "gloomerHash",
				"offset": 0,
				"slot": "17",
				"type": "t_bytes32"
			},
			{
				"astId": 3015,
				"contract": "Gloomers.sol:Gloomers",
				"label": "revealed",
				"offset": 0,
				"slot": "18",
				"type": "t_bool"
			},
			{
				"astId": 3018,
				"contract": "Gloomers.sol:Gloomers",
				"label": "_baseTokenURI",
				"offset": 0,
				"slot": "19",
				"type": "t_string_storage"
			}
		],
		"types": {
			"t_address": {
				"encoding": "inplace",
				"label": "address",
				"numberOfBytes": "20"
			},
			"t_bool": {
				"encoding": "inplace",
				"label": "bool",
				"numberOfBytes": "1"
			},
			"t_bytes32": {
				"encoding": "inplace",
				"label": "bytes32",
				"numberOfBytes": "32"
			},
			"t_enum(DropStatus)2989": {
				"encoding": "inplace",
				"label": "enum Gloomers.DropStatus",
				"numberOfBytes": "1"
			},
			"t_mapping(t_address,t_bool)": {
				"encoding": "mapping",
				"key": "t_address",
				"label": "mapping(address => bool)",
				"numberOfBytes": "32",
				"value": "t_bool"
			},
			"t_mapping(t_address,t_mapping(t_address,t_bool))": {
				"encoding": "mapping",
				"key": "t_address",
				"label": "mapping(address => mapping(address => bool))",
				"numberOfBytes": "32",
				"value": "t_mapping(t_address,t_bool)"
			},
			"t_mapping(t_address,t_uint256)": {
				"encoding": "mapping",
				"key": "t_address",
				"label": "mapping(address => uint256)",
				"numberOfBytes": "32",
				"value": "t_uint256"
			},
			"t_mapping(t_uint256,t_address)": {
				"encoding": "mapping",
				"key": "t_uint256",
				"label": "mapping(uint256 => address)",
				"numberOfBytes": "32",
				"value": "t_address"
			},
			"t_mapping(t_uint256,t_struct(RoyaltyInfo)184_storage)": {
				"encoding": "mapping",
				"key": "t_uint256",
				"label": "mapping(uint256 => struct ERC2981.RoyaltyInfo)",
				"numberOfBytes": "32",
				"value": "t_struct(RoyaltyInfo)184_storage"
			},
			"t_mapping(t_uint256,t_struct(TokenApprovalRef)511_storage)": {
				"encoding": "mapping",
				"key": "t_uint256",
				"label": "mapping(uint256 => struct ERC721A.TokenApprovalRef)",
				"numberOfBytes": "32",
				"value": "t_struct(TokenApprovalRef)511_storage"
			},
			"t_mapping(t_uint256,t_uint256)": {
				"encoding": "mapping",
				"key": "t_uint256",
				"label": "mapping(uint256 => uint256)",
				"numberOfBytes": "32",
				"value": "t_uint256"
			},
			"t_string_storage": {
				"encoding": "bytes",
				"label": "string",
				"numberOfBytes": "32"
			},
			"t_struct(RoyaltyInfo)184_storage": {
				"encoding": "inplace",
				"label": "struct ERC2981.RoyaltyInfo",
				"members": [
					{
						"astId": 181,
						"contract": "Gloomers.sol:Gloomers",
						"label": "receiver",
						"offset": 0,
						"slot": "0",
						"type": "t_address"
					},
					{
						"astId": 183,
						"contract": "Gloomers.sol:Gloomers",
						"label": "royaltyFraction",
						"offset": 20,
						"slot": "0",
						"type": "t_uint96"
					}
				],
				"numberOfBytes": "32"
			},
			"t_struct(TokenApprovalRef)511_storage": {
				"encoding": "inplace",
				"label": "struct ERC721A.TokenApprovalRef",
				"members": [
					{
						"astId": 510,
						"contract": "Gloomers.sol:Gloomers",
						"label": "value",
						"offset": 0,
						"slot": "0",
						"type": "t_address"
					}
				],
				"numberOfBytes": "32"
			},
			"t_uint256": {
				"encoding": "inplace",
				"label": "uint256",
				"numberOfBytes": "32"
			},
			"t_uint96": {
				"encoding": "inplace",
				"label": "uint96",
				"numberOfBytes": "12"
			}
		}
	},
	"web3Deploy": "var gloomersContract = new web3.eth.Contract([{\"inputs\":[],\"stateMutability\":\"nonpayable\",\"type\":\"constructor\"},{\"inputs\":[],\"name\":\"ApprovalCallerNotOwnerNorApproved\",\"type\":\"error\"},{\"inputs\":[],\"name\":\"ApprovalQueryForNonexistentToken\",\"type\":\"error\"},{\"inputs\":[],\"name\":\"BalanceQueryForZeroAddress\",\"type\":\"error\"},{\"inputs\":[],\"name\":\"ClaimNotActive\",\"type\":\"error\"},{\"inputs\":[{\"internalType\":\"uint256\",\"name\":\"numerator\",\"type\":\"uint256\"},{\"internalType\":\"uint256\",\"name\":\"denominator\",\"type\":\"uint256\"}],\"name\":\"ERC2981InvalidDefaultRoyalty\",\"type\":\"error\"},{\"inputs\":[{\"internalType\":\"address\",\"name\":\"receiver\",\"type\":\"address\"}],\"name\":\"ERC2981InvalidDefaultRoyaltyReceiver\",\"type\":\"error\"},{\"inputs\":[{\"internalType\":\"uint256\",\"name\":\"tokenId\",\"type\":\"uint256\"},{\"internalType\":\"uint256\",\"name\":\"numerator\",\"type\":\"uint256\"},{\"internalType\":\"uint256\",\"name\":\"denominator\",\"type\":\"uint256\"}],\"name\":\"ERC2981InvalidTokenRoyalty\",\"type\":\"error\"},{\"inputs\":[{\"internalType\":\"uint256\",\"name\":\"tokenId\",\"type\":\"uint256\"},{\"internalType\":\"address\",\"name\":\"receiver\",\"type\":\"address\"}],\"name\":\"ERC2981InvalidTokenRoyaltyReceiver\",\"type\":\"error\"},{\"inputs\":[],\"name\":\"ExceedsMaxMintPerWallet\",\"type\":\"error\"},{\"inputs\":[],\"name\":\"ExceedsMaxSupply\",\"type\":\"error\"},{\"inputs\":[],\"name\":\"InsufficientFunds\",\"type\":\"error\"},{\"inputs\":[],\"name\":\"InvalidQueryRange\",\"type\":\"error\"},{\"inputs\":[],\"name\":\"MintERC2309QuantityExceedsLimit\",\"type\":\"error\"},{\"inputs\":[],\"name\":\"MintToZeroAddress\",\"type\":\"error\"},{\"inputs\":[],\"name\":\"MintZeroQuantity\",\"type\":\"error\"},{\"inputs\":[],\"name\":\"MintingDisabled\",\"type\":\"error\"},{\"inputs\":[],\"name\":\"NonEOACaller\",\"type\":\"error\"},{\"inputs\":[],\"name\":\"NotCompatibleWithSpotMints\",\"type\":\"error\"},{\"inputs\":[],\"name\":\"NotEligible\",\"type\":\"error\"},{\"inputs\":[{\"internalType\":\"address\",\"name\":\"owner\",\"type\":\"address\"}],\"name\":\"OwnableInvalidOwner\",\"type\":\"error\"},{\"inputs\":[{\"internalType\":\"address\",\"name\":\"account\",\"type\":\"address\"}],\"name\":\"OwnableUnauthorizedAccount\",\"type\":\"error\"},{\"inputs\":[],\"name\":\"OwnerQueryForNonexistentToken\",\"type\":\"error\"},{\"inputs\":[],\"name\":\"OwnershipNotInitializedForExtraData\",\"type\":\"error\"},{\"inputs\":[],\"name\":\"PresaleNotActive\",\"type\":\"error\"},{\"inputs\":[],\"name\":\"PublicMintNotActive\",\"type\":\"error\"},{\"inputs\":[],\"name\":\"SequentialMintExceedsLimit\",\"type\":\"error\"},{\"inputs\":[],\"name\":\"SequentialUpToTooSmall\",\"type\":\"error\"},{\"inputs\":[],\"name\":\"SpotMintTokenIdTooSmall\",\"type\":\"error\"},{\"inputs\":[],\"name\":\"TokenAlreadyExists\",\"type\":\"error\"},{\"inputs\":[],\"name\":\"TransferCallerNotOwnerNorApproved\",\"type\":\"error\"},{\"inputs\":[],\"name\":\"TransferFromIncorrectOwner\",\"type\":\"error\"},{\"inputs\":[],\"name\":\"TransferToNonERC721ReceiverImplementer\",\"type\":\"error\"},{\"inputs\":[],\"name\":\"TransferToZeroAddress\",\"type\":\"error\"},{\"inputs\":[],\"name\":\"URIQueryForNonexistentToken\",\"type\":\"error\"},{\"inputs\":[],\"name\":\"WhitelistNotActive\",\"type\":\"error\"},{\"anonymous\":false,\"inputs\":[{\"indexed\":true,\"internalType\":\"address\",\"name\":\"owner\",\"type\":\"address\"},{\"indexed\":true,\"internalType\":\"address\",\"name\":\"approved\",\"type\":\"address\"},{\"indexed\":true,\"internalType\":\"uint256\",\"name\":\"tokenId\",\"type\":\"uint256\"}],\"name\":\"Approval\",\"type\":\"event\"},{\"anonymous\":false,\"inputs\":[{\"indexed\":true,\"internalType\":\"address\",\"name\":\"owner\",\"type\":\"address\"},{\"indexed\":true,\"internalType\":\"address\",\"name\":\"operator\",\"type\":\"address\"},{\"indexed\":false,\"internalType\":\"bool\",\"name\":\"approved\",\"type\":\"bool\"}],\"name\":\"ApprovalForAll\",\"type\":\"event\"},{\"anonymous\":false,\"inputs\":[{\"indexed\":false,\"internalType\":\"uint256\",\"name\":\"_fromTokenId\",\"type\":\"uint256\"},{\"indexed\":false,\"internalType\":\"uint256\",\"name\":\"_toTokenId\",\"type\":\"uint256\"}],\"name\":\"BatchMetadataUpdate\",\"type\":\"event\"},{\"anonymous\":false,\"inputs\":[{\"indexed\":true,\"internalType\":\"address\",\"name\":\"_to\",\"type\":\"address\"},{\"indexed\":false,\"internalType\":\"uint256\",\"name\":\"_quantity\",\"type\":\"uint256\"}],\"name\":\"ClaimPresale\",\"type\":\"event\"},{\"anonymous\":false,\"inputs\":[{\"indexed\":true,\"internalType\":\"uint256\",\"name\":\"fromTokenId\",\"type\":\"uint256\"},{\"indexed\":false,\"internalType\":\"uint256\",\"name\":\"toTokenId\",\"type\":\"uint256\"},{\"indexed\":true,\"internalType\":\"address\",\"name\":\"from\",\"type\":\"address\"},{\"indexed\":true,\"internalType\":\"address\",\"name\":\"to\",\"type\":\"address\"}],\"name\":\"ConsecutiveTransfer\",\"type\":\"event\"},{\"anonymous\":false,\"inputs\":[{\"indexed\":true,\"internalType\":\"address\",\"name\":\"_to\",\"type\":\"address\"},{\"indexed\":false,\"internalType\":\"uint256\",\"name\":\"_quantity\",\"type\":\"uint256\"}],\"name\":\"GloomersMint\",\"type\":\"event\"},{\"anonymous\":false,\"inputs\":[{\"indexed\":true,\"internalType\":\"address\",\"name\":\"_to\",\"type\":\"address\"},{\"indexed\":false,\"internalType\":\"uint256\",\"name\":\"_quantity\",\"type\":\"uint256\"}],\"name\":\"MintWhitelist\",\"type\":\"event\"},{\"anonymous\":false,\"inputs\":[{\"indexed\":false,\"internalType\":\"enum Gloomers.DropStatus\",\"name\":\"_dropStatus\",\"type\":\"uint8\"}],\"name\":\"NewDropStatus\",\"type\":\"event\"},{\"anonymous\":false,\"inputs\":[{\"indexed\":true,\"internalType\":\"address\",\"name\":\"previousOwner\",\"type\":\"address\"},{\"indexed\":true,\"internalType\":\"address\",\"name\":\"newOwner\",\"type\":\"address\"}],\"name\":\"OwnershipTransferred\",\"type\":\"event\"},{\"anonymous\":false,\"inputs\":[{\"indexed\":true,\"internalType\":\"address\",\"name\":\"_to\",\"type\":\"address\"},{\"indexed\":false,\"internalType\":\"uint256\",\"name\":\"_quantity\",\"type\":\"uint256\"}],\"name\":\"RegisterPresale\",\"type\":\"event\"},{\"anonymous\":false,\"inputs\":[{\"indexed\":true,\"internalType\":\"address\",\"name\":\"from\",\"type\":\"address\"},{\"indexed\":true,\"internalType\":\"address\",\"name\":\"to\",\"type\":\"address\"},{\"indexed\":true,\"internalType\":\"uint256\",\"name\":\"tokenId\",\"type\":\"uint256\"}],\"name\":\"Transfer\",\"type\":\"event\"},{\"stateMutability\":\"payable\",\"type\":\"fallback\"},{\"inputs\":[],\"name\":\"END_TOKEN_ID\",\"outputs\":[{\"internalType\":\"uint256\",\"name\":\"\",\"type\":\"uint256\"}],\"stateMutability\":\"view\",\"type\":\"function\"},{\"inputs\":[],\"name\":\"MAX_MINT_PER_WALLET\",\"outputs\":[{\"internalType\":\"uint256\",\"name\":\"\",\"type\":\"uint256\"}],\"stateMutability\":\"view\",\"type\":\"function\"},{\"inputs\":[],\"name\":\"PRICE_PER_TOKEN\",\"outputs\":[{\"internalType\":\"uint256\",\"name\":\"\",\"type\":\"uint256\"}],\"stateMutability\":\"view\",\"type\":\"function\"},{\"inputs\":[],\"name\":\"PROVENANCE_HASH\",\"outputs\":[{\"internalType\":\"bytes32\",\"name\":\"\",\"type\":\"bytes32\"}],\"stateMutability\":\"view\",\"type\":\"function\"},{\"inputs\":[],\"name\":\"PUBLIC_MINT_TIMESTAMP\",\"outputs\":[{\"internalType\":\"uint256\",\"name\":\"\",\"type\":\"uint256\"}],\"stateMutability\":\"view\",\"type\":\"function\"},{\"inputs\":[],\"name\":\"START_TOKEN_ID\",\"outputs\":[{\"internalType\":\"uint256\",\"name\":\"\",\"type\":\"uint256\"}],\"stateMutability\":\"view\",\"type\":\"function\"},{\"inputs\":[],\"name\":\"WHITELIST_START_TIMESTAMP\",\"outputs\":[{\"internalType\":\"uint256\",\"name\":\"\",\"type\":\"uint256\"}],\"stateMutability\":\"view\",\"type\":\"function\"},{\"inputs\":[{\"internalType\":\"address\",\"name\":\"to\",\"type\":\"address\"},{\"internalType\":\"uint256\",\"name\":\"tokenId\",\"type\":\"uint256\"}],\"name\":\"approve\",\"outputs\":[],\"stateMutability\":\"payable\",\"type\":\"function\"},{\"inputs\":[{\"internalType\":\"address\",\"name\":\"owner\",\"type\":\"address\"}],\"name\":\"balanceOf\",\"outputs\":[{\"internalType\":\"uint256\",\"name\":\"\",\"type\":\"uint256\"}],\"stateMutability\":\"view\",\"type\":\"function\"},{\"inputs\":[],\"name\":\"claimPresale\",\"outputs\":[],\"stateMutability\":\"nonpayable\",\"type\":\"function\"},{\"inputs\":[],\"name\":\"dropStatus\",\"outputs\":[{\"internalType\":\"enum Gloomers.DropStatus\",\"name\":\"\",\"type\":\"uint8\"}],\"stateMutability\":\"view\",\"type\":\"function\"},{\"inputs\":[{\"internalType\":\"uint256\",\"name\":\"tokenId\",\"type\":\"uint256\"}],\"name\":\"explicitOwnershipOf\",\"outputs\":[{\"components\":[{\"internalType\":\"address\",\"name\":\"addr\",\"type\":\"address\"},{\"internalType\":\"uint64\",\"name\":\"startTimestamp\",\"type\":\"uint64\"},{\"internalType\":\"bool\",\"name\":\"burned\",\"type\":\"bool\"},{\"internalType\":\"uint24\",\"name\":\"extraData\",\"type\":\"uint24\"}],\"internalType\":\"struct IERC721A.TokenOwnership\",\"name\":\"ownership\",\"type\":\"tuple\"}],\"stateMutability\":\"view\",\"type\":\"function\"},{\"inputs\":[{\"internalType\":\"uint256[]\",\"name\":\"tokenIds\",\"type\":\"uint256[]\"}],\"name\":\"explicitOwnershipsOf\",\"outputs\":[{\"components\":[{\"internalType\":\"address\",\"name\":\"addr\",\"type\":\"address\"},{\"internalType\":\"uint64\",\"name\":\"startTimestamp\",\"type\":\"uint64\"},{\"internalType\":\"bool\",\"name\":\"burned\",\"type\":\"bool\"},{\"internalType\":\"uint24\",\"name\":\"extraData\",\"type\":\"uint24\"}],\"internalType\":\"struct IERC721A.TokenOwnership[]\",\"name\":\"\",\"type\":\"tuple[]\"}],\"stateMutability\":\"view\",\"type\":\"function\"},{\"inputs\":[{\"internalType\":\"uint256\",\"name\":\"tokenId\",\"type\":\"uint256\"}],\"name\":\"getApproved\",\"outputs\":[{\"internalType\":\"address\",\"name\":\"\",\"type\":\"address\"}],\"stateMutability\":\"view\",\"type\":\"function\"},{\"inputs\":[{\"internalType\":\"address\",\"name\":\"wallet\",\"type\":\"address\"}],\"name\":\"getPresaleAllocation\",\"outputs\":[{\"internalType\":\"uint256\",\"name\":\"\",\"type\":\"uint256\"}],\"stateMutability\":\"view\",\"type\":\"function\"},{\"inputs\":[{\"internalType\":\"address\",\"name\":\"owner\",\"type\":\"address\"},{\"internalType\":\"address\",\"name\":\"operator\",\"type\":\"address\"}],\"name\":\"isApprovedForAll\",\"outputs\":[{\"internalType\":\"bool\",\"name\":\"\",\"type\":\"bool\"}],\"stateMutability\":\"view\",\"type\":\"function\"},{\"inputs\":[{\"internalType\":\"uint256\",\"name\":\"quantity\",\"type\":\"uint256\"}],\"name\":\"mint\",\"outputs\":[],\"stateMutability\":\"payable\",\"type\":\"function\"},{\"inputs\":[{\"internalType\":\"uint256\",\"name\":\"quantity\",\"type\":\"uint256\"},{\"internalType\":\"bytes32\",\"name\":\"gloomerHash_\",\"type\":\"bytes32\"}],\"name\":\"mintWhitelist\",\"outputs\":[],\"stateMutability\":\"payable\",\"type\":\"function\"},{\"inputs\":[],\"name\":\"name\",\"outputs\":[{\"internalType\":\"string\",\"name\":\"\",\"type\":\"string\"}],\"stateMutability\":\"view\",\"type\":\"function\"},{\"inputs\":[],\"name\":\"owner\",\"outputs\":[{\"internalType\":\"address\",\"name\":\"\",\"type\":\"address\"}],\"stateMutability\":\"view\",\"type\":\"function\"},{\"inputs\":[{\"internalType\":\"uint256\",\"name\":\"tokenId\",\"type\":\"uint256\"}],\"name\":\"ownerOf\",\"outputs\":[{\"internalType\":\"address\",\"name\":\"\",\"type\":\"address\"}],\"stateMutability\":\"view\",\"type\":\"function\"},{\"inputs\":[{\"internalType\":\"uint256\",\"name\":\"quantity\",\"type\":\"uint256\"},{\"internalType\":\"bytes32\",\"name\":\"gloomerHash_\",\"type\":\"bytes32\"}],\"name\":\"registerPresale\",\"outputs\":[],\"stateMutability\":\"payable\",\"type\":\"function\"},{\"inputs\":[],\"name\":\"renounceOwnership\",\"outputs\":[],\"stateMutability\":\"nonpayable\",\"type\":\"function\"},{\"inputs\":[{\"internalType\":\"uint256\",\"name\":\"tokenId\",\"type\":\"uint256\"},{\"internalType\":\"uint256\",\"name\":\"salePrice\",\"type\":\"uint256\"}],\"name\":\"royaltyInfo\",\"outputs\":[{\"internalType\":\"address\",\"name\":\"\",\"type\":\"address\"},{\"internalType\":\"uint256\",\"name\":\"\",\"type\":\"uint256\"}],\"stateMutability\":\"view\",\"type\":\"function\"},{\"inputs\":[{\"internalType\":\"address\",\"name\":\"from\",\"type\":\"address\"},{\"internalType\":\"address\",\"name\":\"to\",\"type\":\"address\"},{\"internalType\":\"uint256\",\"name\":\"tokenId\",\"type\":\"uint256\"}],\"name\":\"safeTransferFrom\",\"outputs\":[],\"stateMutability\":\"payable\",\"type\":\"function\"},{\"inputs\":[{\"internalType\":\"address\",\"name\":\"from\",\"type\":\"address\"},{\"internalType\":\"address\",\"name\":\"to\",\"type\":\"address\"},{\"internalType\":\"uint256\",\"name\":\"tokenId\",\"type\":\"uint256\"},{\"internalType\":\"bytes\",\"name\":\"_data\",\"type\":\"bytes\"}],\"name\":\"safeTransferFrom\",\"outputs\":[],\"stateMutability\":\"payable\",\"type\":\"function\"},{\"inputs\":[{\"internalType\":\"address\",\"name\":\"operator\",\"type\":\"address\"},{\"internalType\":\"bool\",\"name\":\"approved\",\"type\":\"bool\"}],\"name\":\"setApprovalForAll\",\"outputs\":[],\"stateMutability\":\"nonpayable\",\"type\":\"function\"},{\"inputs\":[{\"internalType\":\"address\",\"name\":\"receiver\",\"type\":\"address\"},{\"internalType\":\"uint96\",\"name\":\"feeNumerator\",\"type\":\"uint96\"}],\"name\":\"setDefaultRoyalty\",\"outputs\":[],\"stateMutability\":\"nonpayable\",\"type\":\"function\"},{\"inputs\":[{\"internalType\":\"enum Gloomers.DropStatus\",\"name\":\"newDropStatus\",\"type\":\"uint8\"}],\"name\":\"setDropStatus\",\"outputs\":[],\"stateMutability\":\"nonpayable\",\"type\":\"function\"},{\"inputs\":[{\"internalType\":\"bytes32\",\"name\":\"gloomerHash_\",\"type\":\"bytes32\"}],\"name\":\"setGloomerHash\",\"outputs\":[],\"stateMutability\":\"nonpayable\",\"type\":\"function\"},{\"inputs\":[{\"internalType\":\"string\",\"name\":\"baseTokenURI_\",\"type\":\"string\"}],\"name\":\"setTokenUri\",\"outputs\":[],\"stateMutability\":\"nonpayable\",\"type\":\"function\"},{\"inputs\":[],\"name\":\"startTokenId\",\"outputs\":[{\"internalType\":\"uint256\",\"name\":\"result\",\"type\":\"uint256\"}],\"stateMutability\":\"view\",\"type\":\"function\"},{\"inputs\":[{\"internalType\":\"bytes4\",\"name\":\"interfaceId\",\"type\":\"bytes4\"}],\"name\":\"supportsInterface\",\"outputs\":[{\"internalType\":\"bool\",\"name\":\"\",\"type\":\"bool\"}],\"stateMutability\":\"view\",\"type\":\"function\"},{\"inputs\":[],\"name\":\"symbol\",\"outputs\":[{\"internalType\":\"string\",\"name\":\"\",\"type\":\"string\"}],\"stateMutability\":\"view\",\"type\":\"function\"},{\"inputs\":[{\"internalType\":\"uint256\",\"name\":\"tokenId\",\"type\":\"uint256\"}],\"name\":\"tokenURI\",\"outputs\":[{\"internalType\":\"string\",\"name\":\"\",\"type\":\"string\"}],\"stateMutability\":\"view\",\"type\":\"function\"},{\"inputs\":[{\"internalType\":\"address\",\"name\":\"owner\",\"type\":\"address\"}],\"name\":\"tokensOfOwner\",\"outputs\":[{\"internalType\":\"uint256[]\",\"name\":\"\",\"type\":\"uint256[]\"}],\"stateMutability\":\"view\",\"type\":\"function\"},{\"inputs\":[{\"internalType\":\"address\",\"name\":\"owner\",\"type\":\"address\"},{\"internalType\":\"uint256\",\"name\":\"start\",\"type\":\"uint256\"},{\"internalType\":\"uint256\",\"name\":\"stop\",\"type\":\"uint256\"}],\"name\":\"tokensOfOwnerIn\",\"outputs\":[{\"internalType\":\"uint256[]\",\"name\":\"\",\"type\":\"uint256[]\"}],\"stateMutability\":\"view\",\"type\":\"function\"},{\"inputs\":[],\"name\":\"totalSupply\",\"outputs\":[{\"internalType\":\"uint256\",\"name\":\"result\",\"type\":\"uint256\"}],\"stateMutability\":\"view\",\"type\":\"function\"},{\"inputs\":[{\"internalType\":\"address\",\"name\":\"from\",\"type\":\"address\"},{\"internalType\":\"address\",\"name\":\"to\",\"type\":\"address\"},{\"internalType\":\"uint256\",\"name\":\"tokenId\",\"type\":\"uint256\"}],\"name\":\"transferFrom\",\"outputs\":[],\"stateMutability\":\"payable\",\"type\":\"function\"},{\"inputs\":[{\"internalType\":\"address\",\"name\":\"newOwner\",\"type\":\"address\"}],\"name\":\"transferOwnership\",\"outputs\":[],\"stateMutability\":\"nonpayable\",\"type\":\"function\"},{\"inputs\":[],\"name\":\"withdraw\",\"outputs\":[],\"stateMutability\":\"nonpayable\",\"type\":\"function\"},{\"stateMutability\":\"payable\",\"type\":\"receive\"}]);\nvar gloomers = gloomersContract.deploy({\n     data: '0x600b805460ff60a01b191690556012805460ff19169055610100604052605c60808181529061285660a03960139061003790826102b7565b50348015610043575f80fd5b503360405180604001604052806008815260200167476c6f6f6d65727360c01b81525060405180604001604052806008815260200167474c4f4f4d45525360c01b815250610d066100998161011260201b60201c565b5060026100a683826102b7565b5060036100b382826102b7565b506100bc61011a565b5f556100c661011a565b5050506001600160a01b0381166100f757604051631e4fbdf760e01b81525f60048201526024015b60405180910390fd5b6101008161012c565b5061010d336101f461017d565b610376565b6328f7503255565b5f6101276328f750325490565b905090565b600b80546001600160a01b038381166001600160a01b0319831681179093556040519116919082907f8be0079c531659141344cd1fd0a4f28419497f9722a3daafe3b4186f6b6457e0905f90a35050565b6127106001600160601b0382168110156101bc57604051636f483d0960e01b81526001600160601b0383166004820152602481018290526044016100ee565b6001600160a01b0383166101e557604051635b6cc80560e11b81525f60048201526024016100ee565b50604080518082019091526001600160a01b039092168083526001600160601b039091166020909201829052600160a01b90910217600955565b634e487b7160e01b5f52604160045260245ffd5b600181811c9082168061024757607f821691505b60208210810361026557634e487b7160e01b5f52602260045260245ffd5b50919050565b601f8211156102b257805f5260205f20601f840160051c810160208510156102905750805b601f840160051c820191505b818110156102af575f815560010161029c565b50505b505050565b81516001600160401b038111156102d0576102d061021f565b6102e4816102de8454610233565b8461026b565b602080601f831160018114610317575f84156103005750858301515b5f19600386901b1c1916600185901b17855561036e565b5f85815260208120601f198616915b8281101561034557888601518255948401946001909101908401610326565b508582101561036257878501515f19600388901b60f8161c191681555b505060018460011b0185555b505050505050565b6124d3806103835f395ff3fe608060405260043610610231575f3560e01c8063833b94991161012c578063b19960e6116100af578063c87b56dd11610076578063c87b56dd14610661578063e6798baa14610680578063e985e9c514610697578063f2fde38b146106de578063fe776953146106fd578063ff1b65561461071457005b8063b19960e6146105bb578063b19fde5a146105cf578063b88d4fde14610603578063c23dc68f14610616578063c62001bd1461064257005b806395d89b41116100f357806395d89b411461054257806399a2557a146105565780639a4f41ba14610575578063a0712d6814610589578063a22cb4651461059c57005b8063833b9499146104b55780638462151c146104cf57806386879235146104fb57806387f65c91146105105780638da5cb5b1461052557005b806329510d34116101b45780634b962d101161017b5780634b962d10146104185780635bbb2177146104375780636352211e1461046357806370a0823114610482578063715018a6146104a157005b806329510d34146103735780632a55205a146103865780633ccfd60b146103c457806342842e0e146103d857806346b00b6d146103eb57005b8063081812fc116101f8578063081812fc146102e1578063095ea7b31461031857806318160ddd1461032b57806323b872dd1461034d578063242261ac1461036057005b806301ffc9a71461023a57806304634d8d1461026e578063046ef9a51461028d5780630675b7c6146102a157806306fdde03146102c057005b3661023857005b005b348015610245575f80fd5b50610259610254366004611d70565b610747565b60405190151581526020015b60405180910390f35b348015610279575f80fd5b50610238610288366004611da8565b610766565b348015610298575f80fd5b5061023861077c565b3480156102ac575f80fd5b506102386102bb366004611de8565b610932565b3480156102cb575f80fd5b506102d4610999565b6040516102659190611e82565b3480156102ec575f80fd5b506103006102fb366004611e94565b610a29565b6040516001600160a01b039091168152602001610265565b610238610326366004611eab565b610a62565b348015610336575f80fd5b5061033f610a6e565b604051908152602001610265565b61023861035b366004611ed3565b610a83565b61023861036e366004611f0c565b610bdd565b610238610381366004611f0c565b610e02565b348015610391575f80fd5b506103a56103a0366004611f0c565b61102d565b604080516001600160a01b039093168352602083019190915201610265565b3480156103cf575f80fd5b506102386110d7565b6102386103e6366004611ed3565b61110b565b3480156103f6575f80fd5b50600b5461040b90600160a01b900460ff1681565b6040516102659190611f40565b348015610423575f80fd5b50610238610432366004611f66565b61112a565b348015610442575f80fd5b50610456610451366004611f84565b611196565b604051610265919061201e565b34801561046e575f80fd5b5061030061047d366004611e94565b6111e1565b34801561048d575f80fd5b5061033f61049c36600461206b565b6111eb565b3480156104ac575f80fd5b5061023861122f565b3480156104c0575f80fd5b5061033f666a94d74f43000081565b3480156104da575f80fd5b506104ee6104e936600461206b565b611242565b6040516102659190612084565b348015610506575f80fd5b5061033f611a0a81565b34801561051b575f80fd5b5061033f610d0681565b348015610530575f80fd5b50600b546001600160a01b0316610300565b34801561054d575f80fd5b506102d4611279565b348015610561575f80fd5b506104ee6105703660046120bb565b611288565b348015610580575f80fd5b5061033f611295565b610238610597366004611e94565b6112a8565b3480156105a7575f80fd5b506102386105b63660046120eb565b611489565b3480156105c6575f80fd5b5061033f600381565b3480156105da575f80fd5b5061033f6105e936600461206b565b6001600160a01b03165f908152600d602052604090205490565b61023861061136600461212d565b6114f4565b348015610621575f80fd5b50610635610630366004611e94565b611535565b6040516102659190612202565b34801561064d575f80fd5b5061023861065c366004611e94565b61159b565b34801561066c575f80fd5b506102d461067b366004611e94565b6115a8565b34801561068b575f80fd5b506328f750325461033f565b3480156106a2575f80fd5b506102596106b1366004612210565b6001600160a01b039182165f90815260076020908152604080832093909416825291909152205460ff1690565b3480156106e9575f80fd5b506102386106f836600461206b565b611661565b348015610708575f80fd5b5061033f6366365b8081565b34801561071f575f80fd5b5061033f7f5158cf3ac201d8d9dfe63ac7c7d1e7aa58b7c33426665c9bf643e0003e095e2f81565b5f610751826116a0565b806107605750610760826116ed565b92915050565b61076e611721565b610778828261174e565b5050565b5f600b54600160a01b900460ff16600381111561079b5761079b611f2c565b036107b95760405163af79b43760e01b815260040160405180910390fd5b6366365b804210156107de5760405163024fbaa960e41b815260040160405180910390fd5b335f908152600d6020526040812054900361080c57604051637c75aa6f60e11b815260040160405180910390fd5b335f908152600d6020908152604080832054600c909252909120546003908290610837908290612255565b6108419190612255565b1180156108595750600b546001600160a01b03163314155b15610877576040516367eec83360e01b815260040160405180910390fd5b323314610897576040516358516b3f60e01b815260040160405180910390fd5b335f908152600d6020908152604080832054600c90925282208054919283926108c1908490612255565b9091555050335f908152600d60205260408120819055601080548392906108e9908490612268565b909155506108f9905033826117f0565b60405181815233907ff07265907aaf7b6329bb73e97ea492ccbbc0678c94313e1f8331013a2e269d339060200160405180910390a25050565b61093a611721565b6012805460ff1916600117905560136109548284836122fe565b507f6bd5c950a8d8df17f772f5af37cb3655737899cbf903264b9795592da439661c61097e6118aa565b604080519182525f1960208301520160405180910390a15050565b6060600280546109a89061227b565b80601f01602080910402602001604051908101604052809291908181526020018280546109d49061227b565b8015610a1f5780601f106109f657610100808354040283529160200191610a1f565b820191905f5260205f20905b815481529060010190602001808311610a0257829003601f168201915b5050505050905090565b5f610a33826118bc565b610a4757610a476333d1c03960e21b61190a565b505f908152600660205260409020546001600160a01b031690565b61077882826001611912565b5f610a776118aa565b6001545f540303905090565b5f610a8d826119b3565b6001600160a01b039485169490915081168414610ab357610ab362a1148160e81b61190a565b5f8281526006602052604090208054338082146001600160a01b03881690911417610af657610ae286336106b1565b610af657610af6632ce44b5f60e11b61190a565b8015610b00575f82555b6001600160a01b038681165f9081526005602052604080822080545f19019055918716808252919020805460010190554260a01b17600160e11b175f85815260046020526040812091909155600160e11b84169003610b8c57600184015f818152600460205260408120549003610b8a575f548114610b8a575f8181526004602052604090208490555b505b6001600160a01b0385168481887fddf252ad1be2c89b69c2b068fc378daa952ba7f163c4a11628f55a4df523b3ef5f80a4805f03610bd457610bd4633a954ecd60e21b61190a565b50505050505050565b5f600b54600160a01b900460ff166003811115610bfc57610bfc611f2c565b03610c1a5760405163af79b43760e01b815260040160405180910390fd5b6366365b80421115610c3f57604051633844da5760e21b815260040160405180910390fd5b81610c5181666a94d74f4300006123b8565b341015610c715760405163356680b760e01b815260040160405180910390fd5b335f908152600d6020908152604080832054600c9092529091205484916003918391610c9c91612255565b610ca69190612255565b118015610cbe5750600b546001600160a01b03163314155b15610cdc576040516367eec83360e01b815260040160405180910390fd5b83601054611a0a610ced9190612268565b6001610cf75f5490565b610d019084612255565b610d0b9190612268565b1115610d2a5760405163c30436e960e01b815260040160405180910390fd5b838060115414610d4d57604051637c75aa6f60e11b815260040160405180910390fd5b323314610d6d576040516358516b3f60e01b815260040160405180910390fd5b600f5f8154610d7b906123cf565b919050819055508560105f828254610d939190612255565b9091555050335f818152600d602090815260408083208a9055600f548352600e82529182902080546001600160a01b0319168417905590518881527f954e53aaa9ee9f9ae7f4cc7c0ba01de261f35bd07352e3c3383ea3b45ad216d491015b60405180910390a2505050505050565b5f600b54600160a01b900460ff166003811115610e2157610e21611f2c565b03610e3f5760405163af79b43760e01b815260040160405180910390fd5b6366365b80421080610e5f5750610e5c6366365b80612a30612255565b42115b15610e7d576040516302664e7160e11b815260040160405180910390fd5b81610e8f81666a94d74f4300006123b8565b341015610eaf5760405163356680b760e01b815260040160405180910390fd5b335f908152600d6020908152604080832054600c9092529091205484916003918391610eda91612255565b610ee49190612255565b118015610efc5750600b546001600160a01b03163314155b15610f1a576040516367eec83360e01b815260040160405180910390fd5b83601054611a0a610f2b9190612268565b6001610f355f5490565b610f3f9084612255565b610f499190612268565b1115610f685760405163c30436e960e01b815260040160405180910390fd5b838060115414610f8b57604051637c75aa6f60e11b815260040160405180910390fd5b323314610fab576040516358516b3f60e01b815260040160405180910390fd5b8460115414610fcd57604051637c75aa6f60e11b815260040160405180910390fd5b335f908152600c602052604081208054889290610feb908490612255565b90915550610ffb905033876117f0565b60405186815233907fda47e427fb170a95b4539ea720c3caf8ad5a319335b1a85fb3a8db83a61159c090602001610df2565b5f828152600a602090815260408083208151808301909252546001600160a01b038116808352600160a01b9091046001600160601b03169282019290925282916110a15750604080518082019091526009546001600160a01b0381168252600160a01b90046001600160601b031660208201525b60208101515f90612710906110bf906001600160601b0316876123b8565b6110c991906123e7565b915196919550909350505050565b6110df611721565b60405133904780156108fc02915f818181858888f19350505050158015611108573d5f803e3d5ffd5b50565b61112583838360405180602001604052805f8152506114f4565b505050565b611132611721565b600b805482919060ff60a01b1916600160a01b83600381111561115757611157611f2c565b02179055507f3bc110370c8d062d875866567d288433541b3f5f05c98fa991b82ef9f63158818160405161118b9190611f40565b60405180910390a150565b60408051828152600583901b8082016020019092526060915b80156111d957601f1980820191860101355f6111ca82611535565b84840160200152506111af9050565b509392505050565b5f610760826119b3565b5f6001600160a01b03821661120a5761120a6323d3ad8160e21b61190a565b506001600160a01b03165f9081526005602052604090205467ffffffffffffffff1690565b611237611721565b6112405f611a52565b565b60605f61124d6118aa565b90505f6112585f5490565b905060608183146112715761126e858484611aa3565b90505b949350505050565b6060600380546109a89061227b565b6060611271848484611aa3565b6112a56366365b80612a30612255565b81565b5f600b54600160a01b900460ff1660038111156112c7576112c7611f2c565b036112e55760405163af79b43760e01b815260040160405180910390fd5b6112f56366365b80612a30612255565b4210156113155760405163cd967e3560e01b815260040160405180910390fd5b8061132781666a94d74f4300006123b8565b3410156113475760405163356680b760e01b815260040160405180910390fd5b335f908152600d6020908152604080832054600c909252909120548391600391839161137291612255565b61137c9190612255565b1180156113945750600b546001600160a01b03163314155b156113b2576040516367eec83360e01b815260040160405180910390fd5b82601054611a0a6113c39190612268565b60016113cd5f5490565b6113d79084612255565b6113e19190612268565b11156114005760405163c30436e960e01b815260040160405180910390fd5b323314611420576040516358516b3f60e01b815260040160405180910390fd5b335f908152600c60205260408120805486929061143e908490612255565b9091555061144e905033856117f0565b60405184815233907ff07265907aaf7b6329bb73e97ea492ccbbc0678c94313e1f8331013a2e269d339060200160405180910390a250505050565b335f8181526007602090815260408083206001600160a01b03871680855290835292819020805460ff191686151590811790915590519081529192917f17307eab39ab6107e8899845ad3d59bd9653f200f220920489ca2b5937696c31910160405180910390a35050565b6114ff848484610a83565b6001600160a01b0383163b1561152f5761151b84848484611bae565b61152f5761152f6368d2bf6b60e11b61190a565b50505050565b604080516080810182525f8082526020820181905291810182905260608101919091526115606118aa565b8210611596575f54821015611596575b5f8281526004602052604090205461158d575f1990910190611570565b61076082611c8c565b919050565b6115a3611721565b601155565b60125460609060ff166115bd57610760611d09565b6115c6826118bc565b6115e357604051630a14c4b560e41b815260040160405180910390fd5b5f6115ec611d09565b6012549091505f9060ff161561160a5761160584611d18565b61161a565b60405180602001604052805f8152505b90505f828260405160200161163092919061241d565b604051602081830303815290604052905082515f036112715760405180602001604052805f81525095945050505050565b611669611721565b6001600160a01b03811661169757604051631e4fbdf760e01b81525f60048201526024015b60405180910390fd5b61110881611a52565b5f6301ffc9a760e01b6001600160e01b0319831614806116d057506380ac58cd60e01b6001600160e01b03198316145b806107605750506001600160e01b031916635b5e139f60e01b1490565b5f6001600160e01b0319821663152a902d60e11b148061076057506301ffc9a760e01b6001600160e01b0319831614610760565b600b546001600160a01b031633146112405760405163118cdaa760e01b815233600482015260240161168e565b6127106001600160601b03821681101561178d57604051636f483d0960e01b81526001600160601b03831660048201526024810182905260440161168e565b6001600160a01b0383166117b657604051635b6cc80560e11b81525f600482015260240161168e565b50604080518082019091526001600160a01b039092168083526001600160601b039091166020909201829052600160a01b90910217600955565b5f80549082900361180b5761180b63b562e8dd60e01b61190a565b5f8181526004602090815260408083206001600160a01b0387164260a01b6001881460e11b1781179091558084526005909252822080546801000000000000000186020190559081900361186857611868622e076360e81b61190a565b818301825b80835f7fddf252ad1be2c89b69c2b068fc378daa952ba7f163c4a11628f55a4df523b3ef5f80a481816001019150810361186d57505f5550505050565b5f6118b76328f750325490565b905090565b5f816118c66118aa565b11611596575f54821015611596575f5b505f82815260046020526040812054908190036118fd576118f683612431565b92506118d6565b600160e01b161592915050565b805f5260045ffd5b5f61191c836111e1565b90508180156119345750336001600160a01b03821614155b156119575761194381336106b1565b611957576119576367d9dca160e11b61190a565b5f8381526006602052604080822080546001600160a01b0319166001600160a01b0388811691821790925591518693918516917f8c5be1e5ebec7d5bd14f71427d1e84f3dd0314c0f7b2291e5b200ac8c7c3b92591a450505050565b5f816119bd6118aa565b11611a4257505f81815260046020526040902054805f03611a30575f5482106119f0576119f0636f96cda160e11b61190a565b5b505f19015f8181526004602052604090205480156119f157600160e01b81165f03611a1b57919050565b611a2b636f96cda160e11b61190a565b6119f1565b600160e01b81165f03611a4257919050565b611596636f96cda160e11b61190a565b600b80546001600160a01b038381166001600160a01b0319831681179093556040519116919082907f8be0079c531659141344cd1fd0a4f28419497f9722a3daafe3b4186f6b6457e0905f90a35050565b6060818310611abc57611abc631960ccad60e11b61190a565b611ac46118aa565b831015611ad657611ad36118aa565b92505b5f5480808410611ae4578093505b5f611aee876111eb565b9050848610611afa57505f5b8015611ba4578086860311611b0e57508484035b604080516001830160051b81019182905294505f611b2b88611535565b90505f8160400151611b3b575080515b5f5b611b468a611c8c565b925060408301515f8114611b5c575f9250611b81565b835115611b6857835192505b8b831860601b611b81576001820191508a8260051b8a01525b5060018a01995083604052888a1480611b9957508481145b15611b3d5787525050505b5050509392505050565b604051630a85bd0160e11b81525f906001600160a01b0385169063150b7a0290611be2903390899088908890600401612446565b6020604051808303815f875af1925050508015611c1c575060408051601f3d908101601f19168201909252611c1991810190612482565b60015b611c6f573d808015611c49576040519150601f19603f3d011682016040523d82523d5f602084013e611c4e565b606091505b5080515f03611c6757611c676368d2bf6b60e11b61190a565b805181602001fd5b6001600160e01b031916630a85bd0160e11b149050949350505050565b604080516080810182525f8082526020820181905291810182905260608101919091525f8281526004602052604090205461076090604080516080810182526001600160a01b038316815260a083901c67ffffffffffffffff166020820152600160e01b831615159181019190915260e89190911c606082015290565b6060601380546109a89061227b565b606060a06040510180604052602081039150505f815280825b600183039250600a81066030018353600a900480611d315750819003601f19909101908152919050565b6001600160e01b031981168114611108575f80fd5b5f60208284031215611d80575f80fd5b8135611d8b81611d5b565b9392505050565b80356001600160a01b0381168114611596575f80fd5b5f8060408385031215611db9575f80fd5b611dc283611d92565b915060208301356001600160601b0381168114611ddd575f80fd5b809150509250929050565b5f8060208385031215611df9575f80fd5b823567ffffffffffffffff80821115611e10575f80fd5b818501915085601f830112611e23575f80fd5b813581811115611e31575f80fd5b866020828501011115611e42575f80fd5b60209290920196919550909350505050565b5f81518084528060208401602086015e5f602082860101526020601f19601f83011685010191505092915050565b602081525f611d8b6020830184611e54565b5f60208284031215611ea4575f80fd5b5035919050565b5f8060408385031215611ebc575f80fd5b611ec583611d92565b946020939093013593505050565b5f805f60608486031215611ee5575f80fd5b611eee84611d92565b9250611efc60208501611d92565b9150604084013590509250925092565b5f8060408385031215611f1d575f80fd5b50508035926020909101359150565b634e487b7160e01b5f52602160045260245ffd5b6020810160048310611f6057634e487b7160e01b5f52602160045260245ffd5b91905290565b5f60208284031215611f76575f80fd5b813560048110611d8b575f80fd5b5f8060208385031215611f95575f80fd5b823567ffffffffffffffff80821115611fac575f80fd5b818501915085601f830112611fbf575f80fd5b813581811115611fcd575f80fd5b8660208260051b8501011115611e42575f80fd5b80516001600160a01b0316825260208082015167ffffffffffffffff169083015260408082015115159083015260609081015162ffffff16910152565b602080825282518282018190525f9190848201906040850190845b8181101561205f5761204c838551611fe1565b9284019260809290920191600101612039565b50909695505050505050565b5f6020828403121561207b575f80fd5b611d8b82611d92565b602080825282518282018190525f9190848201906040850190845b8181101561205f5783518352928401929184019160010161209f565b5f805f606084860312156120cd575f80fd5b6120d684611d92565b95602085013595506040909401359392505050565b5f80604083850312156120fc575f80fd5b61210583611d92565b915060208301358015158114611ddd575f80fd5b634e487b7160e01b5f52604160045260245ffd5b5f805f8060808587031215612140575f80fd5b61214985611d92565b935061215760208601611d92565b925060408501359150606085013567ffffffffffffffff8082111561217a575f80fd5b818701915087601f83011261218d575f80fd5b81358181111561219f5761219f612119565b604051601f8201601f19908116603f011681019083821181831017156121c7576121c7612119565b816040528281528a60208487010111156121df575f80fd5b826020860160208301375f60208483010152809550505050505092959194509250565b608081016107608284611fe1565b5f8060408385031215612221575f80fd5b61222a83611d92565b915061223860208401611d92565b90509250929050565b634e487b7160e01b5f52601160045260245ffd5b8082018082111561076057610760612241565b8181038181111561076057610760612241565b600181811c9082168061228f57607f821691505b6020821081036122ad57634e487b7160e01b5f52602260045260245ffd5b50919050565b601f82111561112557805f5260205f20601f840160051c810160208510156122d85750805b601f840160051c820191505b818110156122f7575f81556001016122e4565b5050505050565b67ffffffffffffffff83111561231657612316612119565b61232a83612324835461227b565b836122b3565b5f601f84116001811461235b575f85156123445750838201355b5f19600387901b1c1916600186901b1783556122f7565b5f83815260208120601f198716915b8281101561238a578685013582556020948501946001909201910161236a565b50868210156123a6575f1960f88860031b161c19848701351681555b505060018560011b0183555050505050565b808202811582820484141761076057610760612241565b5f600182016123e0576123e0612241565b5060010190565b5f8261240157634e487b7160e01b5f52601260045260245ffd5b500490565b5f81518060208401855e5f93019283525090919050565b5f61127161242b8386612406565b84612406565b5f8161243f5761243f612241565b505f190190565b6001600160a01b03858116825284166020820152604081018390526080606082018190525f9061247890830184611e54565b9695505050505050565b5f60208284031215612492575f80fd5b8151611d8b81611d5b56fea2646970667358221220b13bd27fe976b9c80d7f049ec1ea9ffe4285f2dc41fb36a93af9dac3a399ff2b64736f6c6343000819003368747470733a2f2f697066732e676c6f6f6d746f6b656e2e78797a2f697066732f62616679626569646e726761677a726a76617672736a746e7a36716871766e6c626b7a337668357133356766676b6a323336796c737877706d7379', \n     arguments: [\n     ]\n}).send({\n     from: web3.eth.accounts[0], \n     gas: '4700000'\n   }, function (e, contract){\n    console.log(e, contract);\n    if (typeof contract.address !== 'undefined') {\n         console.log('Contract mined! address: ' + contract.address + ' transactionHash: ' + contract.transactionHash);\n    }\n })",
	"functionHashes": {
		"86879235": "END_TOKEN_ID()",
		"b19960e6": "MAX_MINT_PER_WALLET()",
		"833b9499": "PRICE_PER_TOKEN()",
		"ff1b6556": "PROVENANCE_HASH()",
		"9a4f41ba": "PUBLIC_MINT_TIMESTAMP()",
		"87f65c91": "START_TOKEN_ID()",
		"fe776953": "WHITELIST_START_TIMESTAMP()",
		"095ea7b3": "approve(address,uint256)",
		"70a08231": "balanceOf(address)",
		"046ef9a5": "claimPresale()",
		"46b00b6d": "dropStatus()",
		"c23dc68f": "explicitOwnershipOf(uint256)",
		"5bbb2177": "explicitOwnershipsOf(uint256[])",
		"081812fc": "getApproved(uint256)",
		"b19fde5a": "getPresaleAllocation(address)",
		"e985e9c5": "isApprovedForAll(address,address)",
		"a0712d68": "mint(uint256)",
		"29510d34": "mintWhitelist(uint256,bytes32)",
		"06fdde03": "name()",
		"8da5cb5b": "owner()",
		"6352211e": "ownerOf(uint256)",
		"242261ac": "registerPresale(uint256,bytes32)",
		"715018a6": "renounceOwnership()",
		"2a55205a": "royaltyInfo(uint256,uint256)",
		"42842e0e": "safeTransferFrom(address,address,uint256)",
		"b88d4fde": "safeTransferFrom(address,address,uint256,bytes)",
		"a22cb465": "setApprovalForAll(address,bool)",
		"04634d8d": "setDefaultRoyalty(address,uint96)",
		"4b962d10": "setDropStatus(uint8)",
		"c62001bd": "setGloomerHash(bytes32)",
		"0675b7c6": "setTokenUri(string)",
		"e6798baa": "startTokenId()",
		"01ffc9a7": "supportsInterface(bytes4)",
		"95d89b41": "symbol()",
		"c87b56dd": "tokenURI(uint256)",
		"8462151c": "tokensOfOwner(address)",
		"99a2557a": "tokensOfOwnerIn(address,uint256,uint256)",
		"18160ddd": "totalSupply()",
		"23b872dd": "transferFrom(address,address,uint256)",
		"f2fde38b": "transferOwnership(address)",
		"3ccfd60b": "withdraw()"
	},
	"gasEstimates": {
		"Creation": {
			"codeDepositCost": "1885400",
			"executionCost": "infinite",
			"totalCost": "infinite"
		},
		"External": {
			"": "229",
			"END_TOKEN_ID()": "284",
			"MAX_MINT_PER_WALLET()": "239",
			"PRICE_PER_TOKEN()": "240",
			"PROVENANCE_HASH()": "348",
			"PUBLIC_MINT_TIMESTAMP()": "367",
			"START_TOKEN_ID()": "306",
			"WHITELIST_START_TIMESTAMP()": "326",
			"approve(address,uint256)": "infinite",
			"balanceOf(address)": "2702",
			"claimPresale()": "infinite",
			"dropStatus()": "2501",
			"explicitOwnershipOf(uint256)": "infinite",
			"explicitOwnershipsOf(uint256[])": "infinite",
			"getApproved(uint256)": "infinite",
			"getPresaleAllocation(address)": "2601",
			"isApprovedForAll(address,address)": "infinite",
			"mint(uint256)": "infinite",
			"mintWhitelist(uint256,bytes32)": "infinite",
			"name()": "infinite",
			"owner()": "2464",
			"ownerOf(uint256)": "infinite",
			"registerPresale(uint256,bytes32)": "infinite",
			"renounceOwnership()": "infinite",
			"royaltyInfo(uint256,uint256)": "5162",
			"safeTransferFrom(address,address,uint256)": "infinite",
			"safeTransferFrom(address,address,uint256,bytes)": "infinite",
			"setApprovalForAll(address,bool)": "26715",
			"setDefaultRoyalty(address,uint96)": "24963",
			"setDropStatus(uint8)": "27855",
			"setGloomerHash(bytes32)": "24619",
			"setTokenUri(string)": "infinite",
			"startTokenId()": "2357",
			"supportsInterface(bytes4)": "infinite",
			"symbol()": "infinite",
			"tokenURI(uint256)": "infinite",
			"tokensOfOwner(address)": "infinite",
			"tokensOfOwnerIn(address,uint256,uint256)": "infinite",
			"totalSupply()": "6663",
			"transferFrom(address,address,uint256)": "infinite",
			"transferOwnership(address)": "28443",
			"withdraw()": "infinite"
		},
		"Internal": {
			"_baseURI()": "infinite",
			"_startTokenId()": "2137"
		}
	},
	"devdoc": {
		"author": "soko.eth | Gloom Labs | https://www.gloomtoken.com",
		"details": "ERC721A contract with presale, whitelist, and public minting periods.",
		"errors": {
			"ERC2981InvalidDefaultRoyalty(uint256,uint256)": [
				{
					"details": "The default royalty set is invalid (eg. (numerator / denominator) >= 1)."
				}
			],
			"ERC2981InvalidDefaultRoyaltyReceiver(address)": [
				{
					"details": "The default royalty receiver is invalid."
				}
			],
			"ERC2981InvalidTokenRoyalty(uint256,uint256,uint256)": [
				{
					"details": "The royalty set for an specific `tokenId` is invalid (eg. (numerator / denominator) >= 1)."
				}
			],
			"ERC2981InvalidTokenRoyaltyReceiver(uint256,address)": [
				{
					"details": "The royalty receiver for `tokenId` is invalid."
				}
			],
			"OwnableInvalidOwner(address)": [
				{
					"details": "The owner is not a valid owner account. (eg. `address(0)`)"
				}
			],
			"OwnableUnauthorizedAccount(address)": [
				{
					"details": "The caller account is not authorized to perform an operation."
				}
			]
		},
		"events": {
			"Approval(address,address,uint256)": {
				"details": "Emitted when `owner` enables `approved` to manage the `tokenId` token."
			},
			"ApprovalForAll(address,address,bool)": {
				"details": "Emitted when `owner` enables or disables (`approved`) `operator` to manage all of its assets."
			},
			"ConsecutiveTransfer(uint256,uint256,address,address)": {
				"details": "Emitted when tokens in `fromTokenId` to `toTokenId` (inclusive) is transferred from `from` to `to`, as defined in the [ERC2309](https://eips.ethereum.org/EIPS/eip-2309) standard. See {_mintERC2309} for more details."
			},
			"Transfer(address,address,uint256)": {
				"details": "Emitted when `tokenId` token is transferred from `from` to `to`."
			}
		},
		"kind": "dev",
		"methods": {
			"approve(address,uint256)": {
				"details": "Gives permission to `to` to transfer `tokenId` token to another account. See {ERC721A-_approve}. Requirements: - The caller must own the token or be an approved operator."
			},
			"balanceOf(address)": {
				"details": "Returns the number of tokens in `owner`'s account."
			},
			"explicitOwnershipOf(uint256)": {
				"details": "Returns the `TokenOwnership` struct at `tokenId` without reverting. If the `tokenId` is out of bounds: - `addr = address(0)` - `startTimestamp = 0` - `burned = false` - `extraData = 0` If the `tokenId` is burned: - `addr = <Address of owner before token was burned>` - `startTimestamp = <Timestamp when token was burned>` - `burned = true` - `extraData = <Extra data when token was burned>` Otherwise: - `addr = <Address of owner>` - `startTimestamp = <Timestamp of start of ownership>` - `burned = false` - `extraData = <Extra data at start of ownership>`"
			},
			"explicitOwnershipsOf(uint256[])": {
				"details": "Returns an array of `TokenOwnership` structs at `tokenIds` in order. See {ERC721AQueryable-explicitOwnershipOf}"
			},
			"getApproved(uint256)": {
				"details": "Returns the account approved for `tokenId` token. Requirements: - `tokenId` must exist."
			},
			"isApprovedForAll(address,address)": {
				"details": "Returns if the `operator` is allowed to manage all of the assets of `owner`. See {setApprovalForAll}."
			},
			"name()": {
				"details": "Returns the token collection name."
			},
			"owner()": {
				"details": "Returns the address of the current owner."
			},
			"ownerOf(uint256)": {
				"details": "Returns the owner of the `tokenId` token. Requirements: - `tokenId` must exist."
			},
			"renounceOwnership()": {
				"details": "Leaves the contract without owner. It will not be possible to call `onlyOwner` functions. Can only be called by the current owner. NOTE: Renouncing ownership will leave the contract without an owner, thereby disabling any functionality that is only available to the owner."
			},
			"royaltyInfo(uint256,uint256)": {
				"details": "Returns how much royalty is owed and to whom, based on a sale price that may be denominated in any unit of exchange. The royalty amount is denominated and should be paid in that same unit of exchange."
			},
			"safeTransferFrom(address,address,uint256)": {
				"details": "Equivalent to `safeTransferFrom(from, to, tokenId, '')`."
			},
			"safeTransferFrom(address,address,uint256,bytes)": {
				"details": "Safely transfers `tokenId` token from `from` to `to`. Requirements: - `from` cannot be the zero address. - `to` cannot be the zero address. - `tokenId` token must exist and be owned by `from`. - If the caller is not `from`, it must be approved to move this token by either {approve} or {setApprovalForAll}. - If `to` refers to a smart contract, it must implement {IERC721Receiver-onERC721Received}, which is called upon a safe transfer. Emits a {Transfer} event."
			},
			"setApprovalForAll(address,bool)": {
				"details": "Approve or remove `operator` as an operator for the caller. Operators can call {transferFrom} or {safeTransferFrom} for any token owned by the caller. Requirements: - The `operator` cannot be the caller. Emits an {ApprovalForAll} event."
			},
			"symbol()": {
				"details": "Returns the token collection symbol."
			},
			"tokensOfOwner(address)": {
				"details": "Returns an array of token IDs owned by `owner`. This function scans the ownership mapping and is O(`totalSupply`) in complexity. It is meant to be called off-chain. See {ERC721AQueryable-tokensOfOwnerIn} for splitting the scan into multiple smaller scans if the collection is large enough to cause an out-of-gas error (10K collections should be fine)."
			},
			"tokensOfOwnerIn(address,uint256,uint256)": {
				"details": "Returns an array of token IDs owned by `owner`, in the range [`start`, `stop`) (i.e. `start <= tokenId < stop`). This function allows for tokens to be queried if the collection grows too big for a single call of {ERC721AQueryable-tokensOfOwner}. Requirements: - `start < stop`"
			},
			"totalSupply()": {
				"details": "Returns the total number of tokens in existence. Burned tokens will reduce the count. To get the total number of tokens minted, please see {_totalMinted}."
			},
			"transferFrom(address,address,uint256)": {
				"details": "Transfers `tokenId` from `from` to `to`. Requirements: - `from` cannot be the zero address. - `to` cannot be the zero address. - `tokenId` token must be owned by `from`. - If the caller is not `from`, it must be approved to move this token by either {approve} or {setApprovalForAll}. Emits a {Transfer} event."
			},
			"transferOwnership(address)": {
				"details": "Transfers ownership of the contract to a new account (`newOwner`). Can only be called by the current owner."
			}
		},
		"title": "Gloomers #3334 - #6666",
		"version": 1
	},
	"userdoc": {
		"errors": {
			"ApprovalCallerNotOwnerNorApproved()": [
				{
					"notice": "The caller must own the token or be an approved operator."
				}
			],
			"ApprovalQueryForNonexistentToken()": [
				{
					"notice": "The token does not exist."
				}
			],
			"BalanceQueryForZeroAddress()": [
				{
					"notice": "Cannot query the balance for the zero address."
				}
			],
			"InvalidQueryRange()": [
				{
					"notice": "Invalid query range (`start` >= `stop`)."
				}
			],
			"MintERC2309QuantityExceedsLimit()": [
				{
					"notice": "The `quantity` minted with ERC2309 exceeds the safety limit."
				}
			],
			"MintToZeroAddress()": [
				{
					"notice": "Cannot mint to the zero address."
				}
			],
			"MintZeroQuantity()": [
				{
					"notice": "The quantity of tokens minted must be more than zero."
				}
			],
			"NotCompatibleWithSpotMints()": [
				{
					"notice": "The feature is not compatible with spot mints."
				}
			],
			"OwnerQueryForNonexistentToken()": [
				{
					"notice": "The token does not exist."
				}
			],
			"OwnershipNotInitializedForExtraData()": [
				{
					"notice": "The `extraData` cannot be set on an unintialized ownership slot."
				}
			],
			"SequentialMintExceedsLimit()": [
				{
					"notice": "The `tokenId` of a sequential mint exceeds `_sequentialUpTo()`."
				}
			],
			"SequentialUpToTooSmall()": [
				{
					"notice": "`_sequentialUpTo()` must be greater than `_startTokenId()`."
				}
			],
			"SpotMintTokenIdTooSmall()": [
				{
					"notice": "Spot minting requires a `tokenId` greater than `_sequentialUpTo()`."
				}
			],
			"TokenAlreadyExists()": [
				{
					"notice": "Cannot mint over a token that already exists."
				}
			],
			"TransferCallerNotOwnerNorApproved()": [
				{
					"notice": "The caller must own the token or be an approved operator."
				}
			],
			"TransferFromIncorrectOwner()": [
				{
					"notice": "The token must be owned by `from`."
				}
			],
			"TransferToNonERC721ReceiverImplementer()": [
				{
					"notice": "Cannot safely transfer to a contract that does not implement the ERC721Receiver interface."
				}
			],
			"TransferToZeroAddress()": [
				{
					"notice": "Cannot transfer to the zero address."
				}
			],
			"URIQueryForNonexistentToken()": [
				{
					"notice": "The token does not exist."
				}
			]
		},
		"kind": "user",
		"methods": {},
		"notice": "Gloomers is a 10k PFP collection launched across Base, Solana, and Optimism with teleburning to Bitcoin",
		"version": 1
	},
	"Runtime Bytecode": {
		"immutableReferences": {},
		"linkReferences": {},
		"object": "608060405260043610610231575f3560e01c8063833b94991161012c578063b19960e6116100af578063c87b56dd11610076578063c87b56dd14610661578063e6798baa14610680578063e985e9c514610697578063f2fde38b146106de578063fe776953146106fd578063ff1b65561461071457005b8063b19960e6146105bb578063b19fde5a146105cf578063b88d4fde14610603578063c23dc68f14610616578063c62001bd1461064257005b806395d89b41116100f357806395d89b411461054257806399a2557a146105565780639a4f41ba14610575578063a0712d6814610589578063a22cb4651461059c57005b8063833b9499146104b55780638462151c146104cf57806386879235146104fb57806387f65c91146105105780638da5cb5b1461052557005b806329510d34116101b45780634b962d101161017b5780634b962d10146104185780635bbb2177146104375780636352211e1461046357806370a0823114610482578063715018a6146104a157005b806329510d34146103735780632a55205a146103865780633ccfd60b146103c457806342842e0e146103d857806346b00b6d146103eb57005b8063081812fc116101f8578063081812fc146102e1578063095ea7b31461031857806318160ddd1461032b57806323b872dd1461034d578063242261ac1461036057005b806301ffc9a71461023a57806304634d8d1461026e578063046ef9a51461028d5780630675b7c6146102a157806306fdde03146102c057005b3661023857005b005b348015610245575f80fd5b50610259610254366004611d70565b610747565b60405190151581526020015b60405180910390f35b348015610279575f80fd5b50610238610288366004611da8565b610766565b348015610298575f80fd5b5061023861077c565b3480156102ac575f80fd5b506102386102bb366004611de8565b610932565b3480156102cb575f80fd5b506102d4610999565b6040516102659190611e82565b3480156102ec575f80fd5b506103006102fb366004611e94565b610a29565b6040516001600160a01b039091168152602001610265565b610238610326366004611eab565b610a62565b348015610336575f80fd5b5061033f610a6e565b604051908152602001610265565b61023861035b366004611ed3565b610a83565b61023861036e366004611f0c565b610bdd565b610238610381366004611f0c565b610e02565b348015610391575f80fd5b506103a56103a0366004611f0c565b61102d565b604080516001600160a01b039093168352602083019190915201610265565b3480156103cf575f80fd5b506102386110d7565b6102386103e6366004611ed3565b61110b565b3480156103f6575f80fd5b50600b5461040b90600160a01b900460ff1681565b6040516102659190611f40565b348015610423575f80fd5b50610238610432366004611f66565b61112a565b348015610442575f80fd5b50610456610451366004611f84565b611196565b604051610265919061201e565b34801561046e575f80fd5b5061030061047d366004611e94565b6111e1565b34801561048d575f80fd5b5061033f61049c36600461206b565b6111eb565b3480156104ac575f80fd5b5061023861122f565b3480156104c0575f80fd5b5061033f666a94d74f43000081565b3480156104da575f80fd5b506104ee6104e936600461206b565b611242565b6040516102659190612084565b348015610506575f80fd5b5061033f611a0a81565b34801561051b575f80fd5b5061033f610d0681565b348015610530575f80fd5b50600b546001600160a01b0316610300565b34801561054d575f80fd5b506102d4611279565b348015610561575f80fd5b506104ee6105703660046120bb565b611288565b348015610580575f80fd5b5061033f611295565b610238610597366004611e94565b6112a8565b3480156105a7575f80fd5b506102386105b63660046120eb565b611489565b3480156105c6575f80fd5b5061033f600381565b3480156105da575f80fd5b5061033f6105e936600461206b565b6001600160a01b03165f908152600d602052604090205490565b61023861061136600461212d565b6114f4565b348015610621575f80fd5b50610635610630366004611e94565b611535565b6040516102659190612202565b34801561064d575f80fd5b5061023861065c366004611e94565b61159b565b34801561066c575f80fd5b506102d461067b366004611e94565b6115a8565b34801561068b575f80fd5b506328f750325461033f565b3480156106a2575f80fd5b506102596106b1366004612210565b6001600160a01b039182165f90815260076020908152604080832093909416825291909152205460ff1690565b3480156106e9575f80fd5b506102386106f836600461206b565b611661565b348015610708575f80fd5b5061033f6366365b8081565b34801561071f575f80fd5b5061033f7f5158cf3ac201d8d9dfe63ac7c7d1e7aa58b7c33426665c9bf643e0003e095e2f81565b5f610751826116a0565b806107605750610760826116ed565b92915050565b61076e611721565b610778828261174e565b5050565b5f600b54600160a01b900460ff16600381111561079b5761079b611f2c565b036107b95760405163af79b43760e01b815260040160405180910390fd5b6366365b804210156107de5760405163024fbaa960e41b815260040160405180910390fd5b335f908152600d6020526040812054900361080c57604051637c75aa6f60e11b815260040160405180910390fd5b335f908152600d6020908152604080832054600c909252909120546003908290610837908290612255565b6108419190612255565b1180156108595750600b546001600160a01b03163314155b15610877576040516367eec83360e01b815260040160405180910390fd5b323314610897576040516358516b3f60e01b815260040160405180910390fd5b335f908152600d6020908152604080832054600c90925282208054919283926108c1908490612255565b9091555050335f908152600d60205260408120819055601080548392906108e9908490612268565b909155506108f9905033826117f0565b60405181815233907ff07265907aaf7b6329bb73e97ea492ccbbc0678c94313e1f8331013a2e269d339060200160405180910390a25050565b61093a611721565b6012805460ff1916600117905560136109548284836122fe565b507f6bd5c950a8d8df17f772f5af37cb3655737899cbf903264b9795592da439661c61097e6118aa565b604080519182525f1960208301520160405180910390a15050565b6060600280546109a89061227b565b80601f01602080910402602001604051908101604052809291908181526020018280546109d49061227b565b8015610a1f5780601f106109f657610100808354040283529160200191610a1f565b820191905f5260205f20905b815481529060010190602001808311610a0257829003601f168201915b5050505050905090565b5f610a33826118bc565b610a4757610a476333d1c03960e21b61190a565b505f908152600660205260409020546001600160a01b031690565b61077882826001611912565b5f610a776118aa565b6001545f540303905090565b5f610a8d826119b3565b6001600160a01b039485169490915081168414610ab357610ab362a1148160e81b61190a565b5f8281526006602052604090208054338082146001600160a01b03881690911417610af657610ae286336106b1565b610af657610af6632ce44b5f60e11b61190a565b8015610b00575f82555b6001600160a01b038681165f9081526005602052604080822080545f19019055918716808252919020805460010190554260a01b17600160e11b175f85815260046020526040812091909155600160e11b84169003610b8c57600184015f818152600460205260408120549003610b8a575f548114610b8a575f8181526004602052604090208490555b505b6001600160a01b0385168481887fddf252ad1be2c89b69c2b068fc378daa952ba7f163c4a11628f55a4df523b3ef5f80a4805f03610bd457610bd4633a954ecd60e21b61190a565b50505050505050565b5f600b54600160a01b900460ff166003811115610bfc57610bfc611f2c565b03610c1a5760405163af79b43760e01b815260040160405180910390fd5b6366365b80421115610c3f57604051633844da5760e21b815260040160405180910390fd5b81610c5181666a94d74f4300006123b8565b341015610c715760405163356680b760e01b815260040160405180910390fd5b335f908152600d6020908152604080832054600c9092529091205484916003918391610c9c91612255565b610ca69190612255565b118015610cbe5750600b546001600160a01b03163314155b15610cdc576040516367eec83360e01b815260040160405180910390fd5b83601054611a0a610ced9190612268565b6001610cf75f5490565b610d019084612255565b610d0b9190612268565b1115610d2a5760405163c30436e960e01b815260040160405180910390fd5b838060115414610d4d57604051637c75aa6f60e11b815260040160405180910390fd5b323314610d6d576040516358516b3f60e01b815260040160405180910390fd5b600f5f8154610d7b906123cf565b919050819055508560105f828254610d939190612255565b9091555050335f818152600d602090815260408083208a9055600f548352600e82529182902080546001600160a01b0319168417905590518881527f954e53aaa9ee9f9ae7f4cc7c0ba01de261f35bd07352e3c3383ea3b45ad216d491015b60405180910390a2505050505050565b5f600b54600160a01b900460ff166003811115610e2157610e21611f2c565b03610e3f5760405163af79b43760e01b815260040160405180910390fd5b6366365b80421080610e5f5750610e5c6366365b80612a30612255565b42115b15610e7d576040516302664e7160e11b815260040160405180910390fd5b81610e8f81666a94d74f4300006123b8565b341015610eaf5760405163356680b760e01b815260040160405180910390fd5b335f908152600d6020908152604080832054600c9092529091205484916003918391610eda91612255565b610ee49190612255565b118015610efc5750600b546001600160a01b03163314155b15610f1a576040516367eec83360e01b815260040160405180910390fd5b83601054611a0a610f2b9190612268565b6001610f355f5490565b610f3f9084612255565b610f499190612268565b1115610f685760405163c30436e960e01b815260040160405180910390fd5b838060115414610f8b57604051637c75aa6f60e11b815260040160405180910390fd5b323314610fab576040516358516b3f60e01b815260040160405180910390fd5b8460115414610fcd57604051637c75aa6f60e11b815260040160405180910390fd5b335f908152600c602052604081208054889290610feb908490612255565b90915550610ffb905033876117f0565b60405186815233907fda47e427fb170a95b4539ea720c3caf8ad5a319335b1a85fb3a8db83a61159c090602001610df2565b5f828152600a602090815260408083208151808301909252546001600160a01b038116808352600160a01b9091046001600160601b03169282019290925282916110a15750604080518082019091526009546001600160a01b0381168252600160a01b90046001600160601b031660208201525b60208101515f90612710906110bf906001600160601b0316876123b8565b6110c991906123e7565b915196919550909350505050565b6110df611721565b60405133904780156108fc02915f818181858888f19350505050158015611108573d5f803e3d5ffd5b50565b61112583838360405180602001604052805f8152506114f4565b505050565b611132611721565b600b805482919060ff60a01b1916600160a01b83600381111561115757611157611f2c565b02179055507f3bc110370c8d062d875866567d288433541b3f5f05c98fa991b82ef9f63158818160405161118b9190611f40565b60405180910390a150565b60408051828152600583901b8082016020019092526060915b80156111d957601f1980820191860101355f6111ca82611535565b84840160200152506111af9050565b509392505050565b5f610760826119b3565b5f6001600160a01b03821661120a5761120a6323d3ad8160e21b61190a565b506001600160a01b03165f9081526005602052604090205467ffffffffffffffff1690565b611237611721565b6112405f611a52565b565b60605f61124d6118aa565b90505f6112585f5490565b905060608183146112715761126e858484611aa3565b90505b949350505050565b6060600380546109a89061227b565b6060611271848484611aa3565b6112a56366365b80612a30612255565b81565b5f600b54600160a01b900460ff1660038111156112c7576112c7611f2c565b036112e55760405163af79b43760e01b815260040160405180910390fd5b6112f56366365b80612a30612255565b4210156113155760405163cd967e3560e01b815260040160405180910390fd5b8061132781666a94d74f4300006123b8565b3410156113475760405163356680b760e01b815260040160405180910390fd5b335f908152600d6020908152604080832054600c909252909120548391600391839161137291612255565b61137c9190612255565b1180156113945750600b546001600160a01b03163314155b156113b2576040516367eec83360e01b815260040160405180910390fd5b82601054611a0a6113c39190612268565b60016113cd5f5490565b6113d79084612255565b6113e19190612268565b11156114005760405163c30436e960e01b815260040160405180910390fd5b323314611420576040516358516b3f60e01b815260040160405180910390fd5b335f908152600c60205260408120805486929061143e908490612255565b9091555061144e905033856117f0565b60405184815233907ff07265907aaf7b6329bb73e97ea492ccbbc0678c94313e1f8331013a2e269d339060200160405180910390a250505050565b335f8181526007602090815260408083206001600160a01b03871680855290835292819020805460ff191686151590811790915590519081529192917f17307eab39ab6107e8899845ad3d59bd9653f200f220920489ca2b5937696c31910160405180910390a35050565b6114ff848484610a83565b6001600160a01b0383163b1561152f5761151b84848484611bae565b61152f5761152f6368d2bf6b60e11b61190a565b50505050565b604080516080810182525f8082526020820181905291810182905260608101919091526115606118aa565b8210611596575f54821015611596575b5f8281526004602052604090205461158d575f1990910190611570565b61076082611c8c565b919050565b6115a3611721565b601155565b60125460609060ff166115bd57610760611d09565b6115c6826118bc565b6115e357604051630a14c4b560e41b815260040160405180910390fd5b5f6115ec611d09565b6012549091505f9060ff161561160a5761160584611d18565b61161a565b60405180602001604052805f8152505b90505f828260405160200161163092919061241d565b604051602081830303815290604052905082515f036112715760405180602001604052805f81525095945050505050565b611669611721565b6001600160a01b03811661169757604051631e4fbdf760e01b81525f60048201526024015b60405180910390fd5b61110881611a52565b5f6301ffc9a760e01b6001600160e01b0319831614806116d057506380ac58cd60e01b6001600160e01b03198316145b806107605750506001600160e01b031916635b5e139f60e01b1490565b5f6001600160e01b0319821663152a902d60e11b148061076057506301ffc9a760e01b6001600160e01b0319831614610760565b600b546001600160a01b031633146112405760405163118cdaa760e01b815233600482015260240161168e565b6127106001600160601b03821681101561178d57604051636f483d0960e01b81526001600160601b03831660048201526024810182905260440161168e565b6001600160a01b0383166117b657604051635b6cc80560e11b81525f600482015260240161168e565b50604080518082019091526001600160a01b039092168083526001600160601b039091166020909201829052600160a01b90910217600955565b5f80549082900361180b5761180b63b562e8dd60e01b61190a565b5f8181526004602090815260408083206001600160a01b0387164260a01b6001881460e11b1781179091558084526005909252822080546801000000000000000186020190559081900361186857611868622e076360e81b61190a565b818301825b80835f7fddf252ad1be2c89b69c2b068fc378daa952ba7f163c4a11628f55a4df523b3ef5f80a481816001019150810361186d57505f5550505050565b5f6118b76328f750325490565b905090565b5f816118c66118aa565b11611596575f54821015611596575f5b505f82815260046020526040812054908190036118fd576118f683612431565b92506118d6565b600160e01b161592915050565b805f5260045ffd5b5f61191c836111e1565b90508180156119345750336001600160a01b03821614155b156119575761194381336106b1565b611957576119576367d9dca160e11b61190a565b5f8381526006602052604080822080546001600160a01b0319166001600160a01b0388811691821790925591518693918516917f8c5be1e5ebec7d5bd14f71427d1e84f3dd0314c0f7b2291e5b200ac8c7c3b92591a450505050565b5f816119bd6118aa565b11611a4257505f81815260046020526040902054805f03611a30575f5482106119f0576119f0636f96cda160e11b61190a565b5b505f19015f8181526004602052604090205480156119f157600160e01b81165f03611a1b57919050565b611a2b636f96cda160e11b61190a565b6119f1565b600160e01b81165f03611a4257919050565b611596636f96cda160e11b61190a565b600b80546001600160a01b038381166001600160a01b0319831681179093556040519116919082907f8be0079c531659141344cd1fd0a4f28419497f9722a3daafe3b4186f6b6457e0905f90a35050565b6060818310611abc57611abc631960ccad60e11b61190a565b611ac46118aa565b831015611ad657611ad36118aa565b92505b5f5480808410611ae4578093505b5f611aee876111eb565b9050848610611afa57505f5b8015611ba4578086860311611b0e57508484035b604080516001830160051b81019182905294505f611b2b88611535565b90505f8160400151611b3b575080515b5f5b611b468a611c8c565b925060408301515f8114611b5c575f9250611b81565b835115611b6857835192505b8b831860601b611b81576001820191508a8260051b8a01525b5060018a01995083604052888a1480611b9957508481145b15611b3d5787525050505b5050509392505050565b604051630a85bd0160e11b81525f906001600160a01b0385169063150b7a0290611be2903390899088908890600401612446565b6020604051808303815f875af1925050508015611c1c575060408051601f3d908101601f19168201909252611c1991810190612482565b60015b611c6f573d808015611c49576040519150601f19603f3d011682016040523d82523d5f602084013e611c4e565b606091505b5080515f03611c6757611c676368d2bf6b60e11b61190a565b805181602001fd5b6001600160e01b031916630a85bd0160e11b149050949350505050565b604080516080810182525f8082526020820181905291810182905260608101919091525f8281526004602052604090205461076090604080516080810182526001600160a01b038316815260a083901c67ffffffffffffffff166020820152600160e01b831615159181019190915260e89190911c606082015290565b6060601380546109a89061227b565b606060a06040510180604052602081039150505f815280825b600183039250600a81066030018353600a900480611d315750819003601f19909101908152919050565b6001600160e01b031981168114611108575f80fd5b5f60208284031215611d80575f80fd5b8135611d8b81611d5b565b9392505050565b80356001600160a01b0381168114611596575f80fd5b5f8060408385031215611db9575f80fd5b611dc283611d92565b915060208301356001600160601b0381168114611ddd575f80fd5b809150509250929050565b5f8060208385031215611df9575f80fd5b823567ffffffffffffffff80821115611e10575f80fd5b818501915085601f830112611e23575f80fd5b813581811115611e31575f80fd5b866020828501011115611e42575f80fd5b60209290920196919550909350505050565b5f81518084528060208401602086015e5f602082860101526020601f19601f83011685010191505092915050565b602081525f611d8b6020830184611e54565b5f60208284031215611ea4575f80fd5b5035919050565b5f8060408385031215611ebc575f80fd5b611ec583611d92565b946020939093013593505050565b5f805f60608486031215611ee5575f80fd5b611eee84611d92565b9250611efc60208501611d92565b9150604084013590509250925092565b5f8060408385031215611f1d575f80fd5b50508035926020909101359150565b634e487b7160e01b5f52602160045260245ffd5b6020810160048310611f6057634e487b7160e01b5f52602160045260245ffd5b91905290565b5f60208284031215611f76575f80fd5b813560048110611d8b575f80fd5b5f8060208385031215611f95575f80fd5b823567ffffffffffffffff80821115611fac575f80fd5b818501915085601f830112611fbf575f80fd5b813581811115611fcd575f80fd5b8660208260051b8501011115611e42575f80fd5b80516001600160a01b0316825260208082015167ffffffffffffffff169083015260408082015115159083015260609081015162ffffff16910152565b602080825282518282018190525f9190848201906040850190845b8181101561205f5761204c838551611fe1565b9284019260809290920191600101612039565b50909695505050505050565b5f6020828403121561207b575f80fd5b611d8b82611d92565b602080825282518282018190525f9190848201906040850190845b8181101561205f5783518352928401929184019160010161209f565b5f805f606084860312156120cd575f80fd5b6120d684611d92565b95602085013595506040909401359392505050565b5f80604083850312156120fc575f80fd5b61210583611d92565b915060208301358015158114611ddd575f80fd5b634e487b7160e01b5f52604160045260245ffd5b5f805f8060808587031215612140575f80fd5b61214985611d92565b935061215760208601611d92565b925060408501359150606085013567ffffffffffffffff8082111561217a575f80fd5b818701915087601f83011261218d575f80fd5b81358181111561219f5761219f612119565b604051601f8201601f19908116603f011681019083821181831017156121c7576121c7612119565b816040528281528a60208487010111156121df575f80fd5b826020860160208301375f60208483010152809550505050505092959194509250565b608081016107608284611fe1565b5f8060408385031215612221575f80fd5b61222a83611d92565b915061223860208401611d92565b90509250929050565b634e487b7160e01b5f52601160045260245ffd5b8082018082111561076057610760612241565b8181038181111561076057610760612241565b600181811c9082168061228f57607f821691505b6020821081036122ad57634e487b7160e01b5f52602260045260245ffd5b50919050565b601f82111561112557805f5260205f20601f840160051c810160208510156122d85750805b601f840160051c820191505b818110156122f7575f81556001016122e4565b5050505050565b67ffffffffffffffff83111561231657612316612119565b61232a83612324835461227b565b836122b3565b5f601f84116001811461235b575f85156123445750838201355b5f19600387901b1c1916600186901b1783556122f7565b5f83815260208120601f198716915b8281101561238a578685013582556020948501946001909201910161236a565b50868210156123a6575f1960f88860031b161c19848701351681555b505060018560011b0183555050505050565b808202811582820484141761076057610760612241565b5f600182016123e0576123e0612241565b5060010190565b5f8261240157634e487b7160e01b5f52601260045260245ffd5b500490565b5f81518060208401855e5f93019283525090919050565b5f61127161242b8386612406565b84612406565b5f8161243f5761243f612241565b505f190190565b6001600160a01b03858116825284166020820152604081018390526080606082018190525f9061247890830184611e54565b9695505050505050565b5f60208284031215612492575f80fd5b8151611d8b81611d5b56fea2646970667358221220b13bd27fe976b9c80d7f049ec1ea9ffe4285f2dc41fb36a93af9dac3a399ff2b64736f6c63430008190033",
		"opcodes": "PUSH1 0x80 PUSH1 0x40 MSTORE PUSH1 0x4 CALLDATASIZE LT PUSH2 0x231 JUMPI PUSH0 CALLDATALOAD PUSH1 0xE0 SHR DUP1 PUSH4 0x833B9499 GT PUSH2 0x12C JUMPI DUP1 PUSH4 0xB19960E6 GT PUSH2 0xAF JUMPI DUP1 PUSH4 0xC87B56DD GT PUSH2 0x76 JUMPI DUP1 PUSH4 0xC87B56DD EQ PUSH2 0x661 JUMPI DUP1 PUSH4 0xE6798BAA EQ PUSH2 0x680 JUMPI DUP1 PUSH4 0xE985E9C5 EQ PUSH2 0x697 JUMPI DUP1 PUSH4 0xF2FDE38B EQ PUSH2 0x6DE JUMPI DUP1 PUSH4 0xFE776953 EQ PUSH2 0x6FD JUMPI DUP1 PUSH4 0xFF1B6556 EQ PUSH2 0x714 JUMPI STOP JUMPDEST DUP1 PUSH4 0xB19960E6 EQ PUSH2 0x5BB JUMPI DUP1 PUSH4 0xB19FDE5A EQ PUSH2 0x5CF JUMPI DUP1 PUSH4 0xB88D4FDE EQ PUSH2 0x603 JUMPI DUP1 PUSH4 0xC23DC68F EQ PUSH2 0x616 JUMPI DUP1 PUSH4 0xC62001BD EQ PUSH2 0x642 JUMPI STOP JUMPDEST DUP1 PUSH4 0x95D89B41 GT PUSH2 0xF3 JUMPI DUP1 PUSH4 0x95D89B41 EQ PUSH2 0x542 JUMPI DUP1 PUSH4 0x99A2557A EQ PUSH2 0x556 JUMPI DUP1 PUSH4 0x9A4F41BA EQ PUSH2 0x575 JUMPI DUP1 PUSH4 0xA0712D68 EQ PUSH2 0x589 JUMPI DUP1 PUSH4 0xA22CB465 EQ PUSH2 0x59C JUMPI STOP JUMPDEST DUP1 PUSH4 0x833B9499 EQ PUSH2 0x4B5 JUMPI DUP1 PUSH4 0x8462151C EQ PUSH2 0x4CF JUMPI DUP1 PUSH4 0x86879235 EQ PUSH2 0x4FB JUMPI DUP1 PUSH4 0x87F65C91 EQ PUSH2 0x510 JUMPI DUP1 PUSH4 0x8DA5CB5B EQ PUSH2 0x525 JUMPI STOP JUMPDEST DUP1 PUSH4 0x29510D34 GT PUSH2 0x1B4 JUMPI DUP1 PUSH4 0x4B962D10 GT PUSH2 0x17B JUMPI DUP1 PUSH4 0x4B962D10 EQ PUSH2 0x418 JUMPI DUP1 PUSH4 0x5BBB2177 EQ PUSH2 0x437 JUMPI DUP1 PUSH4 0x6352211E EQ PUSH2 0x463 JUMPI DUP1 PUSH4 0x70A08231 EQ PUSH2 0x482 JUMPI DUP1 PUSH4 0x715018A6 EQ PUSH2 0x4A1 JUMPI STOP JUMPDEST DUP1 PUSH4 0x29510D34 EQ PUSH2 0x373 JUMPI DUP1 PUSH4 0x2A55205A EQ PUSH2 0x386 JUMPI DUP1 PUSH4 0x3CCFD60B EQ PUSH2 0x3C4 JUMPI DUP1 PUSH4 0x42842E0E EQ PUSH2 0x3D8 JUMPI DUP1 PUSH4 0x46B00B6D EQ PUSH2 0x3EB JUMPI STOP JUMPDEST DUP1 PUSH4 0x81812FC GT PUSH2 0x1F8 JUMPI DUP1 PUSH4 0x81812FC EQ PUSH2 0x2E1 JUMPI DUP1 PUSH4 0x95EA7B3 EQ PUSH2 0x318 JUMPI DUP1 PUSH4 0x18160DDD EQ PUSH2 0x32B JUMPI DUP1 PUSH4 0x23B872DD EQ PUSH2 0x34D JUMPI DUP1 PUSH4 0x242261AC EQ PUSH2 0x360 JUMPI STOP JUMPDEST DUP1 PUSH4 0x1FFC9A7 EQ PUSH2 0x23A JUMPI DUP1 PUSH4 0x4634D8D EQ PUSH2 0x26E JUMPI DUP1 PUSH4 0x46EF9A5 EQ PUSH2 0x28D JUMPI DUP1 PUSH4 0x675B7C6 EQ PUSH2 0x2A1 JUMPI DUP1 PUSH4 0x6FDDE03 EQ PUSH2 0x2C0 JUMPI STOP JUMPDEST CALLDATASIZE PUSH2 0x238 JUMPI STOP JUMPDEST STOP JUMPDEST CALLVALUE DUP1 ISZERO PUSH2 0x245 JUMPI PUSH0 DUP1 REVERT JUMPDEST POP PUSH2 0x259 PUSH2 0x254 CALLDATASIZE PUSH1 0x4 PUSH2 0x1D70 JUMP JUMPDEST PUSH2 0x747 JUMP JUMPDEST PUSH1 0x40 MLOAD SWAP1 ISZERO ISZERO DUP2 MSTORE PUSH1 0x20 ADD JUMPDEST PUSH1 0x40 MLOAD DUP1 SWAP2 SUB SWAP1 RETURN JUMPDEST CALLVALUE DUP1 ISZERO PUSH2 0x279 JUMPI PUSH0 DUP1 REVERT JUMPDEST POP PUSH2 0x238 PUSH2 0x288 CALLDATASIZE PUSH1 0x4 PUSH2 0x1DA8 JUMP JUMPDEST PUSH2 0x766 JUMP JUMPDEST CALLVALUE DUP1 ISZERO PUSH2 0x298 JUMPI PUSH0 DUP1 REVERT JUMPDEST POP PUSH2 0x238 PUSH2 0x77C JUMP JUMPDEST CALLVALUE DUP1 ISZERO PUSH2 0x2AC JUMPI PUSH0 DUP1 REVERT JUMPDEST POP PUSH2 0x238 PUSH2 0x2BB CALLDATASIZE PUSH1 0x4 PUSH2 0x1DE8 JUMP JUMPDEST PUSH2 0x932 JUMP JUMPDEST CALLVALUE DUP1 ISZERO PUSH2 0x2CB JUMPI PUSH0 DUP1 REVERT JUMPDEST POP PUSH2 0x2D4 PUSH2 0x999 JUMP JUMPDEST PUSH1 0x40 MLOAD PUSH2 0x265 SWAP2 SWAP1 PUSH2 0x1E82 JUMP JUMPDEST CALLVALUE DUP1 ISZERO PUSH2 0x2EC JUMPI PUSH0 DUP1 REVERT JUMPDEST POP PUSH2 0x300 PUSH2 0x2FB CALLDATASIZE PUSH1 0x4 PUSH2 0x1E94 JUMP JUMPDEST PUSH2 0xA29 JUMP JUMPDEST PUSH1 0x40 MLOAD PUSH1 0x1 PUSH1 0x1 PUSH1 0xA0 SHL SUB SWAP1 SWAP2 AND DUP2 MSTORE PUSH1 0x20 ADD PUSH2 0x265 JUMP JUMPDEST PUSH2 0x238 PUSH2 0x326 CALLDATASIZE PUSH1 0x4 PUSH2 0x1EAB JUMP JUMPDEST PUSH2 0xA62 JUMP JUMPDEST CALLVALUE DUP1 ISZERO PUSH2 0x336 JUMPI PUSH0 DUP1 REVERT JUMPDEST POP PUSH2 0x33F PUSH2 0xA6E JUMP JUMPDEST PUSH1 0x40 MLOAD SWAP1 DUP2 MSTORE PUSH1 0x20 ADD PUSH2 0x265 JUMP JUMPDEST PUSH2 0x238 PUSH2 0x35B CALLDATASIZE PUSH1 0x4 PUSH2 0x1ED3 JUMP JUMPDEST PUSH2 0xA83 JUMP JUMPDEST PUSH2 0x238 PUSH2 0x36E CALLDATASIZE PUSH1 0x4 PUSH2 0x1F0C JUMP JUMPDEST PUSH2 0xBDD JUMP JUMPDEST PUSH2 0x238 PUSH2 0x381 CALLDATASIZE PUSH1 0x4 PUSH2 0x1F0C JUMP JUMPDEST PUSH2 0xE02 JUMP JUMPDEST CALLVALUE DUP1 ISZERO PUSH2 0x391 JUMPI PUSH0 DUP1 REVERT JUMPDEST POP PUSH2 0x3A5 PUSH2 0x3A0 CALLDATASIZE PUSH1 0x4 PUSH2 0x1F0C JUMP JUMPDEST PUSH2 0x102D JUMP JUMPDEST PUSH1 0x40 DUP1 MLOAD PUSH1 0x1 PUSH1 0x1 PUSH1 0xA0 SHL SUB SWAP1 SWAP4 AND DUP4 MSTORE PUSH1 0x20 DUP4 ADD SWAP2 SWAP1 SWAP2 MSTORE ADD PUSH2 0x265 JUMP JUMPDEST CALLVALUE DUP1 ISZERO PUSH2 0x3CF JUMPI PUSH0 DUP1 REVERT JUMPDEST POP PUSH2 0x238 PUSH2 0x10D7 JUMP JUMPDEST PUSH2 0x238 PUSH2 0x3E6 CALLDATASIZE PUSH1 0x4 PUSH2 0x1ED3 JUMP JUMPDEST PUSH2 0x110B JUMP JUMPDEST CALLVALUE DUP1 ISZERO PUSH2 0x3F6 JUMPI PUSH0 DUP1 REVERT JUMPDEST POP PUSH1 0xB SLOAD PUSH2 0x40B SWAP1 PUSH1 0x1 PUSH1 0xA0 SHL SWAP1 DIV PUSH1 0xFF AND DUP2 JUMP JUMPDEST PUSH1 0x40 MLOAD PUSH2 0x265 SWAP2 SWAP1 PUSH2 0x1F40 JUMP JUMPDEST CALLVALUE DUP1 ISZERO PUSH2 0x423 JUMPI PUSH0 DUP1 REVERT JUMPDEST POP PUSH2 0x238 PUSH2 0x432 CALLDATASIZE PUSH1 0x4 PUSH2 0x1F66 JUMP JUMPDEST PUSH2 0x112A JUMP JUMPDEST CALLVALUE DUP1 ISZERO PUSH2 0x442 JUMPI PUSH0 DUP1 REVERT JUMPDEST POP PUSH2 0x456 PUSH2 0x451 CALLDATASIZE PUSH1 0x4 PUSH2 0x1F84 JUMP JUMPDEST PUSH2 0x1196 JUMP JUMPDEST PUSH1 0x40 MLOAD PUSH2 0x265 SWAP2 SWAP1 PUSH2 0x201E JUMP JUMPDEST CALLVALUE DUP1 ISZERO PUSH2 0x46E JUMPI PUSH0 DUP1 REVERT JUMPDEST POP PUSH2 0x300 PUSH2 0x47D CALLDATASIZE PUSH1 0x4 PUSH2 0x1E94 JUMP JUMPDEST PUSH2 0x11E1 JUMP JUMPDEST CALLVALUE DUP1 ISZERO PUSH2 0x48D JUMPI PUSH0 DUP1 REVERT JUMPDEST POP PUSH2 0x33F PUSH2 0x49C CALLDATASIZE PUSH1 0x4 PUSH2 0x206B JUMP JUMPDEST PUSH2 0x11EB JUMP JUMPDEST CALLVALUE DUP1 ISZERO PUSH2 0x4AC JUMPI PUSH0 DUP1 REVERT JUMPDEST POP PUSH2 0x238 PUSH2 0x122F JUMP JUMPDEST CALLVALUE DUP1 ISZERO PUSH2 0x4C0 JUMPI PUSH0 DUP1 REVERT JUMPDEST POP PUSH2 0x33F PUSH7 0x6A94D74F430000 DUP2 JUMP JUMPDEST CALLVALUE DUP1 ISZERO PUSH2 0x4DA JUMPI PUSH0 DUP1 REVERT JUMPDEST POP PUSH2 0x4EE PUSH2 0x4E9 CALLDATASIZE PUSH1 0x4 PUSH2 0x206B JUMP JUMPDEST PUSH2 0x1242 JUMP JUMPDEST PUSH1 0x40 MLOAD PUSH2 0x265 SWAP2 SWAP1 PUSH2 0x2084 JUMP JUMPDEST CALLVALUE DUP1 ISZERO PUSH2 0x506 JUMPI PUSH0 DUP1 REVERT JUMPDEST POP PUSH2 0x33F PUSH2 0x1A0A DUP2 JUMP JUMPDEST CALLVALUE DUP1 ISZERO PUSH2 0x51B JUMPI PUSH0 DUP1 REVERT JUMPDEST POP PUSH2 0x33F PUSH2 0xD06 DUP2 JUMP JUMPDEST CALLVALUE DUP1 ISZERO PUSH2 0x530 JUMPI PUSH0 DUP1 REVERT JUMPDEST POP PUSH1 0xB SLOAD PUSH1 0x1 PUSH1 0x1 PUSH1 0xA0 SHL SUB AND PUSH2 0x300 JUMP JUMPDEST CALLVALUE DUP1 ISZERO PUSH2 0x54D JUMPI PUSH0 DUP1 REVERT JUMPDEST POP PUSH2 0x2D4 PUSH2 0x1279 JUMP JUMPDEST CALLVALUE DUP1 ISZERO PUSH2 0x561 JUMPI PUSH0 DUP1 REVERT JUMPDEST POP PUSH2 0x4EE PUSH2 0x570 CALLDATASIZE PUSH1 0x4 PUSH2 0x20BB JUMP JUMPDEST PUSH2 0x1288 JUMP JUMPDEST CALLVALUE DUP1 ISZERO PUSH2 0x580 JUMPI PUSH0 DUP1 REVERT JUMPDEST POP PUSH2 0x33F PUSH2 0x1295 JUMP JUMPDEST PUSH2 0x238 PUSH2 0x597 CALLDATASIZE PUSH1 0x4 PUSH2 0x1E94 JUMP JUMPDEST PUSH2 0x12A8 JUMP JUMPDEST CALLVALUE DUP1 ISZERO PUSH2 0x5A7 JUMPI PUSH0 DUP1 REVERT JUMPDEST POP PUSH2 0x238 PUSH2 0x5B6 CALLDATASIZE PUSH1 0x4 PUSH2 0x20EB JUMP JUMPDEST PUSH2 0x1489 JUMP JUMPDEST CALLVALUE DUP1 ISZERO PUSH2 0x5C6 JUMPI PUSH0 DUP1 REVERT JUMPDEST POP PUSH2 0x33F PUSH1 0x3 DUP2 JUMP JUMPDEST CALLVALUE DUP1 ISZERO PUSH2 0x5DA JUMPI PUSH0 DUP1 REVERT JUMPDEST POP PUSH2 0x33F PUSH2 0x5E9 CALLDATASIZE PUSH1 0x4 PUSH2 0x206B JUMP JUMPDEST PUSH1 0x1 PUSH1 0x1 PUSH1 0xA0 SHL SUB AND PUSH0 SWAP1 DUP2 MSTORE PUSH1 0xD PUSH1 0x20 MSTORE PUSH1 0x40 SWAP1 KECCAK256 SLOAD SWAP1 JUMP JUMPDEST PUSH2 0x238 PUSH2 0x611 CALLDATASIZE PUSH1 0x4 PUSH2 0x212D JUMP JUMPDEST PUSH2 0x14F4 JUMP JUMPDEST CALLVALUE DUP1 ISZERO PUSH2 0x621 JUMPI PUSH0 DUP1 REVERT JUMPDEST POP PUSH2 0x635 PUSH2 0x630 CALLDATASIZE PUSH1 0x4 PUSH2 0x1E94 JUMP JUMPDEST PUSH2 0x1535 JUMP JUMPDEST PUSH1 0x40 MLOAD PUSH2 0x265 SWAP2 SWAP1 PUSH2 0x2202 JUMP JUMPDEST CALLVALUE DUP1 ISZERO PUSH2 0x64D JUMPI PUSH0 DUP1 REVERT JUMPDEST POP PUSH2 0x238 PUSH2 0x65C CALLDATASIZE PUSH1 0x4 PUSH2 0x1E94 JUMP JUMPDEST PUSH2 0x159B JUMP JUMPDEST CALLVALUE DUP1 ISZERO PUSH2 0x66C JUMPI PUSH0 DUP1 REVERT JUMPDEST POP PUSH2 0x2D4 PUSH2 0x67B CALLDATASIZE PUSH1 0x4 PUSH2 0x1E94 JUMP JUMPDEST PUSH2 0x15A8 JUMP JUMPDEST CALLVALUE DUP1 ISZERO PUSH2 0x68B JUMPI PUSH0 DUP1 REVERT JUMPDEST POP PUSH4 0x28F75032 SLOAD PUSH2 0x33F JUMP JUMPDEST CALLVALUE DUP1 ISZERO PUSH2 0x6A2 JUMPI PUSH0 DUP1 REVERT JUMPDEST POP PUSH2 0x259 PUSH2 0x6B1 CALLDATASIZE PUSH1 0x4 PUSH2 0x2210 JUMP JUMPDEST PUSH1 0x1 PUSH1 0x1 PUSH1 0xA0 SHL SUB SWAP2 DUP3 AND PUSH0 SWAP1 DUP2 MSTORE PUSH1 0x7 PUSH1 0x20 SWAP1 DUP2 MSTORE PUSH1 0x40 DUP1 DUP4 KECCAK256 SWAP4 SWAP1 SWAP5 AND DUP3 MSTORE SWAP2 SWAP1 SWAP2 MSTORE KECCAK256 SLOAD PUSH1 0xFF AND SWAP1 JUMP JUMPDEST CALLVALUE DUP1 ISZERO PUSH2 0x6E9 JUMPI PUSH0 DUP1 REVERT JUMPDEST POP PUSH2 0x238 PUSH2 0x6F8 CALLDATASIZE PUSH1 0x4 PUSH2 0x206B JUMP JUMPDEST PUSH2 0x1661 JUMP JUMPDEST CALLVALUE DUP1 ISZERO PUSH2 0x708 JUMPI PUSH0 DUP1 REVERT JUMPDEST POP PUSH2 0x33F PUSH4 0x66365B80 DUP2 JUMP JUMPDEST CALLVALUE DUP1 ISZERO PUSH2 0x71F JUMPI PUSH0 DUP1 REVERT JUMPDEST POP PUSH2 0x33F PUSH32 0x5158CF3AC201D8D9DFE63AC7C7D1E7AA58B7C33426665C9BF643E0003E095E2F DUP2 JUMP JUMPDEST PUSH0 PUSH2 0x751 DUP3 PUSH2 0x16A0 JUMP JUMPDEST DUP1 PUSH2 0x760 JUMPI POP PUSH2 0x760 DUP3 PUSH2 0x16ED JUMP JUMPDEST SWAP3 SWAP2 POP POP JUMP JUMPDEST PUSH2 0x76E PUSH2 0x1721 JUMP JUMPDEST PUSH2 0x778 DUP3 DUP3 PUSH2 0x174E JUMP JUMPDEST POP POP JUMP JUMPDEST PUSH0 PUSH1 0xB SLOAD PUSH1 0x1 PUSH1 0xA0 SHL SWAP1 DIV PUSH1 0xFF AND PUSH1 0x3 DUP2 GT ISZERO PUSH2 0x79B JUMPI PUSH2 0x79B PUSH2 0x1F2C JUMP JUMPDEST SUB PUSH2 0x7B9 JUMPI PUSH1 0x40 MLOAD PUSH4 0xAF79B437 PUSH1 0xE0 SHL DUP2 MSTORE PUSH1 0x4 ADD PUSH1 0x40 MLOAD DUP1 SWAP2 SUB SWAP1 REVERT JUMPDEST PUSH4 0x66365B80 TIMESTAMP LT ISZERO PUSH2 0x7DE JUMPI PUSH1 0x40 MLOAD PUSH4 0x24FBAA9 PUSH1 0xE4 SHL DUP2 MSTORE PUSH1 0x4 ADD PUSH1 0x40 MLOAD DUP1 SWAP2 SUB SWAP1 REVERT JUMPDEST CALLER PUSH0 SWAP1 DUP2 MSTORE PUSH1 0xD PUSH1 0x20 MSTORE PUSH1 0x40 DUP2 KECCAK256 SLOAD SWAP1 SUB PUSH2 0x80C JUMPI PUSH1 0x40 MLOAD PUSH4 0x7C75AA6F PUSH1 0xE1 SHL DUP2 MSTORE PUSH1 0x4 ADD PUSH1 0x40 MLOAD DUP1 SWAP2 SUB SWAP1 REVERT JUMPDEST CALLER PUSH0 SWAP1 DUP2 MSTORE PUSH1 0xD PUSH1 0x20 SWAP1 DUP2 MSTORE PUSH1 0x40 DUP1 DUP4 KECCAK256 SLOAD PUSH1 0xC SWAP1 SWAP3 MSTORE SWAP1 SWAP2 KECCAK256 SLOAD PUSH1 0x3 SWAP1 DUP3 SWAP1 PUSH2 0x837 SWAP1 DUP3 SWAP1 PUSH2 0x2255 JUMP JUMPDEST PUSH2 0x841 SWAP2 SWAP1 PUSH2 0x2255 JUMP JUMPDEST GT DUP1 ISZERO PUSH2 0x859 JUMPI POP PUSH1 0xB SLOAD PUSH1 0x1 PUSH1 0x1 PUSH1 0xA0 SHL SUB AND CALLER EQ ISZERO JUMPDEST ISZERO PUSH2 0x877 JUMPI PUSH1 0x40 MLOAD PUSH4 0x67EEC833 PUSH1 0xE0 SHL DUP2 MSTORE PUSH1 0x4 ADD PUSH1 0x40 MLOAD DUP1 SWAP2 SUB SWAP1 REVERT JUMPDEST ORIGIN CALLER EQ PUSH2 0x897 JUMPI PUSH1 0x40 MLOAD PUSH4 0x58516B3F PUSH1 0xE0 SHL DUP2 MSTORE PUSH1 0x4 ADD PUSH1 0x40 MLOAD DUP1 SWAP2 SUB SWAP1 REVERT JUMPDEST CALLER PUSH0 SWAP1 DUP2 MSTORE PUSH1 0xD PUSH1 0x20 SWAP1 DUP2 MSTORE PUSH1 0x40 DUP1 DUP4 KECCAK256 SLOAD PUSH1 0xC SWAP1 SWAP3 MSTORE DUP3 KECCAK256 DUP1 SLOAD SWAP2 SWAP3 DUP4 SWAP3 PUSH2 0x8C1 SWAP1 DUP5 SWAP1 PUSH2 0x2255 JUMP JUMPDEST SWAP1 SWAP2 SSTORE POP POP CALLER PUSH0 SWAP1 DUP2 MSTORE PUSH1 0xD PUSH1 0x20 MSTORE PUSH1 0x40 DUP2 KECCAK256 DUP2 SWAP1 SSTORE PUSH1 0x10 DUP1 SLOAD DUP4 SWAP3 SWAP1 PUSH2 0x8E9 SWAP1 DUP5 SWAP1 PUSH2 0x2268 JUMP JUMPDEST SWAP1 SWAP2 SSTORE POP PUSH2 0x8F9 SWAP1 POP CALLER DUP3 PUSH2 0x17F0 JUMP JUMPDEST PUSH1 0x40 MLOAD DUP2 DUP2 MSTORE CALLER SWAP1 PUSH32 0xF07265907AAF7B6329BB73E97EA492CCBBC0678C94313E1F8331013A2E269D33 SWAP1 PUSH1 0x20 ADD PUSH1 0x40 MLOAD DUP1 SWAP2 SUB SWAP1 LOG2 POP POP JUMP JUMPDEST PUSH2 0x93A PUSH2 0x1721 JUMP JUMPDEST PUSH1 0x12 DUP1 SLOAD PUSH1 0xFF NOT AND PUSH1 0x1 OR SWAP1 SSTORE PUSH1 0x13 PUSH2 0x954 DUP3 DUP5 DUP4 PUSH2 0x22FE JUMP JUMPDEST POP PUSH32 0x6BD5C950A8D8DF17F772F5AF37CB3655737899CBF903264B9795592DA439661C PUSH2 0x97E PUSH2 0x18AA JUMP JUMPDEST PUSH1 0x40 DUP1 MLOAD SWAP2 DUP3 MSTORE PUSH0 NOT PUSH1 0x20 DUP4 ADD MSTORE ADD PUSH1 0x40 MLOAD DUP1 SWAP2 SUB SWAP1 LOG1 POP POP JUMP JUMPDEST PUSH1 0x60 PUSH1 0x2 DUP1 SLOAD PUSH2 0x9A8 SWAP1 PUSH2 0x227B JUMP JUMPDEST DUP1 PUSH1 0x1F ADD PUSH1 0x20 DUP1 SWAP2 DIV MUL PUSH1 0x20 ADD PUSH1 0x40 MLOAD SWAP1 DUP2 ADD PUSH1 0x40 MSTORE DUP1 SWAP3 SWAP2 SWAP1 DUP2 DUP2 MSTORE PUSH1 0x20 ADD DUP3 DUP1 SLOAD PUSH2 0x9D4 SWAP1 PUSH2 0x227B JUMP JUMPDEST DUP1 ISZERO PUSH2 0xA1F JUMPI DUP1 PUSH1 0x1F LT PUSH2 0x9F6 JUMPI PUSH2 0x100 DUP1 DUP4 SLOAD DIV MUL DUP4 MSTORE SWAP2 PUSH1 0x20 ADD SWAP2 PUSH2 0xA1F JUMP JUMPDEST DUP3 ADD SWAP2 SWAP1 PUSH0 MSTORE PUSH1 0x20 PUSH0 KECCAK256 SWAP1 JUMPDEST DUP2 SLOAD DUP2 MSTORE SWAP1 PUSH1 0x1 ADD SWAP1 PUSH1 0x20 ADD DUP1 DUP4 GT PUSH2 0xA02 JUMPI DUP3 SWAP1 SUB PUSH1 0x1F AND DUP3 ADD SWAP2 JUMPDEST POP POP POP POP POP SWAP1 POP SWAP1 JUMP JUMPDEST PUSH0 PUSH2 0xA33 DUP3 PUSH2 0x18BC JUMP JUMPDEST PUSH2 0xA47 JUMPI PUSH2 0xA47 PUSH4 0x33D1C039 PUSH1 0xE2 SHL PUSH2 0x190A JUMP JUMPDEST POP PUSH0 SWAP1 DUP2 MSTORE PUSH1 0x6 PUSH1 0x20 MSTORE PUSH1 0x40 SWAP1 KECCAK256 SLOAD PUSH1 0x1 PUSH1 0x1 PUSH1 0xA0 SHL SUB AND SWAP1 JUMP JUMPDEST PUSH2 0x778 DUP3 DUP3 PUSH1 0x1 PUSH2 0x1912 JUMP JUMPDEST PUSH0 PUSH2 0xA77 PUSH2 0x18AA JUMP JUMPDEST PUSH1 0x1 SLOAD PUSH0 SLOAD SUB SUB SWAP1 POP SWAP1 JUMP JUMPDEST PUSH0 PUSH2 0xA8D DUP3 PUSH2 0x19B3 JUMP JUMPDEST PUSH1 0x1 PUSH1 0x1 PUSH1 0xA0 SHL SUB SWAP5 DUP6 AND SWAP5 SWAP1 SWAP2 POP DUP2 AND DUP5 EQ PUSH2 0xAB3 JUMPI PUSH2 0xAB3 PUSH3 0xA11481 PUSH1 0xE8 SHL PUSH2 0x190A JUMP JUMPDEST PUSH0 DUP3 DUP2 MSTORE PUSH1 0x6 PUSH1 0x20 MSTORE PUSH1 0x40 SWAP1 KECCAK256 DUP1 SLOAD CALLER DUP1 DUP3 EQ PUSH1 0x1 PUSH1 0x1 PUSH1 0xA0 SHL SUB DUP9 AND SWAP1 SWAP2 EQ OR PUSH2 0xAF6 JUMPI PUSH2 0xAE2 DUP7 CALLER PUSH2 0x6B1 JUMP JUMPDEST PUSH2 0xAF6 JUMPI PUSH2 0xAF6 PUSH4 0x2CE44B5F PUSH1 0xE1 SHL PUSH2 0x190A JUMP JUMPDEST DUP1 ISZERO PUSH2 0xB00 JUMPI PUSH0 DUP3 SSTORE JUMPDEST PUSH1 0x1 PUSH1 0x1 PUSH1 0xA0 SHL SUB DUP7 DUP2 AND PUSH0 SWAP1 DUP2 MSTORE PUSH1 0x5 PUSH1 0x20 MSTORE PUSH1 0x40 DUP1 DUP3 KECCAK256 DUP1 SLOAD PUSH0 NOT ADD SWAP1 SSTORE SWAP2 DUP8 AND DUP1 DUP3 MSTORE SWAP2 SWAP1 KECCAK256 DUP1 SLOAD PUSH1 0x1 ADD SWAP1 SSTORE TIMESTAMP PUSH1 0xA0 SHL OR PUSH1 0x1 PUSH1 0xE1 SHL OR PUSH0 DUP6 DUP2 MSTORE PUSH1 0x4 PUSH1 0x20 MSTORE PUSH1 0x40 DUP2 KECCAK256 SWAP2 SWAP1 SWAP2 SSTORE PUSH1 0x1 PUSH1 0xE1 SHL DUP5 AND SWAP1 SUB PUSH2 0xB8C JUMPI PUSH1 0x1 DUP5 ADD PUSH0 DUP2 DUP2 MSTORE PUSH1 0x4 PUSH1 0x20 MSTORE PUSH1 0x40 DUP2 KECCAK256 SLOAD SWAP1 SUB PUSH2 0xB8A JUMPI PUSH0 SLOAD DUP2 EQ PUSH2 0xB8A JUMPI PUSH0 DUP2 DUP2 MSTORE PUSH1 0x4 PUSH1 0x20 MSTORE PUSH1 0x40 SWAP1 KECCAK256 DUP5 SWAP1 SSTORE JUMPDEST POP JUMPDEST PUSH1 0x1 PUSH1 0x1 PUSH1 0xA0 SHL SUB DUP6 AND DUP5 DUP2 DUP9 PUSH32 0xDDF252AD1BE2C89B69C2B068FC378DAA952BA7F163C4A11628F55A4DF523B3EF PUSH0 DUP1 LOG4 DUP1 PUSH0 SUB PUSH2 0xBD4 JUMPI PUSH2 0xBD4 PUSH4 0x3A954ECD PUSH1 0xE2 SHL PUSH2 0x190A JUMP JUMPDEST POP POP POP POP POP POP POP JUMP JUMPDEST PUSH0 PUSH1 0xB SLOAD PUSH1 0x1 PUSH1 0xA0 SHL SWAP1 DIV PUSH1 0xFF AND PUSH1 0x3 DUP2 GT ISZERO PUSH2 0xBFC JUMPI PUSH2 0xBFC PUSH2 0x1F2C JUMP JUMPDEST SUB PUSH2 0xC1A JUMPI PUSH1 0x40 MLOAD PUSH4 0xAF79B437 PUSH1 0xE0 SHL DUP2 MSTORE PUSH1 0x4 ADD PUSH1 0x40 MLOAD DUP1 SWAP2 SUB SWAP1 REVERT JUMPDEST PUSH4 0x66365B80 TIMESTAMP GT ISZERO PUSH2 0xC3F JUMPI PUSH1 0x40 MLOAD PUSH4 0x3844DA57 PUSH1 0xE2 SHL DUP2 MSTORE PUSH1 0x4 ADD PUSH1 0x40 MLOAD DUP1 SWAP2 SUB SWAP1 REVERT JUMPDEST DUP2 PUSH2 0xC51 DUP2 PUSH7 0x6A94D74F430000 PUSH2 0x23B8 JUMP JUMPDEST CALLVALUE LT ISZERO PUSH2 0xC71 JUMPI PUSH1 0x40 MLOAD PUSH4 0x356680B7 PUSH1 0xE0 SHL DUP2 MSTORE PUSH1 0x4 ADD PUSH1 0x40 MLOAD DUP1 SWAP2 SUB SWAP1 REVERT JUMPDEST CALLER PUSH0 SWAP1 DUP2 MSTORE PUSH1 0xD PUSH1 0x20 SWAP1 DUP2 MSTORE PUSH1 0x40 DUP1 DUP4 KECCAK256 SLOAD PUSH1 0xC SWAP1 SWAP3 MSTORE SWAP1 SWAP2 KECCAK256 SLOAD DUP5 SWAP2 PUSH1 0x3 SWAP2 DUP4 SWAP2 PUSH2 0xC9C SWAP2 PUSH2 0x2255 JUMP JUMPDEST PUSH2 0xCA6 SWAP2 SWAP1 PUSH2 0x2255 JUMP JUMPDEST GT DUP1 ISZERO PUSH2 0xCBE JUMPI POP PUSH1 0xB SLOAD PUSH1 0x1 PUSH1 0x1 PUSH1 0xA0 SHL SUB AND CALLER EQ ISZERO JUMPDEST ISZERO PUSH2 0xCDC JUMPI PUSH1 0x40 MLOAD PUSH4 0x67EEC833 PUSH1 0xE0 SHL DUP2 MSTORE PUSH1 0x4 ADD PUSH1 0x40 MLOAD DUP1 SWAP2 SUB SWAP1 REVERT JUMPDEST DUP4 PUSH1 0x10 SLOAD PUSH2 0x1A0A PUSH2 0xCED SWAP2 SWAP1 PUSH2 0x2268 JUMP JUMPDEST PUSH1 0x1 PUSH2 0xCF7 PUSH0 SLOAD SWAP1 JUMP JUMPDEST PUSH2 0xD01 SWAP1 DUP5 PUSH2 0x2255 JUMP JUMPDEST PUSH2 0xD0B SWAP2 SWAP1 PUSH2 0x2268 JUMP JUMPDEST GT ISZERO PUSH2 0xD2A JUMPI PUSH1 0x40 MLOAD PUSH4 0xC30436E9 PUSH1 0xE0 SHL DUP2 MSTORE PUSH1 0x4 ADD PUSH1 0x40 MLOAD DUP1 SWAP2 SUB SWAP1 REVERT JUMPDEST DUP4 DUP1 PUSH1 0x11 SLOAD EQ PUSH2 0xD4D JUMPI PUSH1 0x40 MLOAD PUSH4 0x7C75AA6F PUSH1 0xE1 SHL DUP2 MSTORE PUSH1 0x4 ADD PUSH1 0x40 MLOAD DUP1 SWAP2 SUB SWAP1 REVERT JUMPDEST ORIGIN CALLER EQ PUSH2 0xD6D JUMPI PUSH1 0x40 MLOAD PUSH4 0x58516B3F PUSH1 0xE0 SHL DUP2 MSTORE PUSH1 0x4 ADD PUSH1 0x40 MLOAD DUP1 SWAP2 SUB SWAP1 REVERT JUMPDEST PUSH1 0xF PUSH0 DUP2 SLOAD PUSH2 0xD7B SWAP1 PUSH2 0x23CF JUMP JUMPDEST SWAP2 SWAP1 POP DUP2 SWAP1 SSTORE POP DUP6 PUSH1 0x10 PUSH0 DUP3 DUP3 SLOAD PUSH2 0xD93 SWAP2 SWAP1 PUSH2 0x2255 JUMP JUMPDEST SWAP1 SWAP2 SSTORE POP POP CALLER PUSH0 DUP2 DUP2 MSTORE PUSH1 0xD PUSH1 0x20 SWAP1 DUP2 MSTORE PUSH1 0x40 DUP1 DUP4 KECCAK256 DUP11 SWAP1 SSTORE PUSH1 0xF SLOAD DUP4 MSTORE PUSH1 0xE DUP3 MSTORE SWAP2 DUP3 SWAP1 KECCAK256 DUP1 SLOAD PUSH1 0x1 PUSH1 0x1 PUSH1 0xA0 SHL SUB NOT AND DUP5 OR SWAP1 SSTORE SWAP1 MLOAD DUP9 DUP2 MSTORE PUSH32 0x954E53AAA9EE9F9AE7F4CC7C0BA01DE261F35BD07352E3C3383EA3B45AD216D4 SWAP2 ADD JUMPDEST PUSH1 0x40 MLOAD DUP1 SWAP2 SUB SWAP1 LOG2 POP POP POP POP POP POP JUMP JUMPDEST PUSH0 PUSH1 0xB SLOAD PUSH1 0x1 PUSH1 0xA0 SHL SWAP1 DIV PUSH1 0xFF AND PUSH1 0x3 DUP2 GT ISZERO PUSH2 0xE21 JUMPI PUSH2 0xE21 PUSH2 0x1F2C JUMP JUMPDEST SUB PUSH2 0xE3F JUMPI PUSH1 0x40 MLOAD PUSH4 0xAF79B437 PUSH1 0xE0 SHL DUP2 MSTORE PUSH1 0x4 ADD PUSH1 0x40 MLOAD DUP1 SWAP2 SUB SWAP1 REVERT JUMPDEST PUSH4 0x66365B80 TIMESTAMP LT DUP1 PUSH2 0xE5F JUMPI POP PUSH2 0xE5C PUSH4 0x66365B80 PUSH2 0x2A30 PUSH2 0x2255 JUMP JUMPDEST TIMESTAMP GT JUMPDEST ISZERO PUSH2 0xE7D JUMPI PUSH1 0x40 MLOAD PUSH4 0x2664E71 PUSH1 0xE1 SHL DUP2 MSTORE PUSH1 0x4 ADD PUSH1 0x40 MLOAD DUP1 SWAP2 SUB SWAP1 REVERT JUMPDEST DUP2 PUSH2 0xE8F DUP2 PUSH7 0x6A94D74F430000 PUSH2 0x23B8 JUMP JUMPDEST CALLVALUE LT ISZERO PUSH2 0xEAF JUMPI PUSH1 0x40 MLOAD PUSH4 0x356680B7 PUSH1 0xE0 SHL DUP2 MSTORE PUSH1 0x4 ADD PUSH1 0x40 MLOAD DUP1 SWAP2 SUB SWAP1 REVERT JUMPDEST CALLER PUSH0 SWAP1 DUP2 MSTORE PUSH1 0xD PUSH1 0x20 SWAP1 DUP2 MSTORE PUSH1 0x40 DUP1 DUP4 KECCAK256 SLOAD PUSH1 0xC SWAP1 SWAP3 MSTORE SWAP1 SWAP2 KECCAK256 SLOAD DUP5 SWAP2 PUSH1 0x3 SWAP2 DUP4 SWAP2 PUSH2 0xEDA SWAP2 PUSH2 0x2255 JUMP JUMPDEST PUSH2 0xEE4 SWAP2 SWAP1 PUSH2 0x2255 JUMP JUMPDEST GT DUP1 ISZERO PUSH2 0xEFC JUMPI POP PUSH1 0xB SLOAD PUSH1 0x1 PUSH1 0x1 PUSH1 0xA0 SHL SUB AND CALLER EQ ISZERO JUMPDEST ISZERO PUSH2 0xF1A JUMPI PUSH1 0x40 MLOAD PUSH4 0x67EEC833 PUSH1 0xE0 SHL DUP2 MSTORE PUSH1 0x4 ADD PUSH1 0x40 MLOAD DUP1 SWAP2 SUB SWAP1 REVERT JUMPDEST DUP4 PUSH1 0x10 SLOAD PUSH2 0x1A0A PUSH2 0xF2B SWAP2 SWAP1 PUSH2 0x2268 JUMP JUMPDEST PUSH1 0x1 PUSH2 0xF35 PUSH0 SLOAD SWAP1 JUMP JUMPDEST PUSH2 0xF3F SWAP1 DUP5 PUSH2 0x2255 JUMP JUMPDEST PUSH2 0xF49 SWAP2 SWAP1 PUSH2 0x2268 JUMP JUMPDEST GT ISZERO PUSH2 0xF68 JUMPI PUSH1 0x40 MLOAD PUSH4 0xC30436E9 PUSH1 0xE0 SHL DUP2 MSTORE PUSH1 0x4 ADD PUSH1 0x40 MLOAD DUP1 SWAP2 SUB SWAP1 REVERT JUMPDEST DUP4 DUP1 PUSH1 0x11 SLOAD EQ PUSH2 0xF8B JUMPI PUSH1 0x40 MLOAD PUSH4 0x7C75AA6F PUSH1 0xE1 SHL DUP2 MSTORE PUSH1 0x4 ADD PUSH1 0x40 MLOAD DUP1 SWAP2 SUB SWAP1 REVERT JUMPDEST ORIGIN CALLER EQ PUSH2 0xFAB JUMPI PUSH1 0x40 MLOAD PUSH4 0x58516B3F PUSH1 0xE0 SHL DUP2 MSTORE PUSH1 0x4 ADD PUSH1 0x40 MLOAD DUP1 SWAP2 SUB SWAP1 REVERT JUMPDEST DUP5 PUSH1 0x11 SLOAD EQ PUSH2 0xFCD JUMPI PUSH1 0x40 MLOAD PUSH4 0x7C75AA6F PUSH1 0xE1 SHL DUP2 MSTORE PUSH1 0x4 ADD PUSH1 0x40 MLOAD DUP1 SWAP2 SUB SWAP1 REVERT JUMPDEST CALLER PUSH0 SWAP1 DUP2 MSTORE PUSH1 0xC PUSH1 0x20 MSTORE PUSH1 0x40 DUP2 KECCAK256 DUP1 SLOAD DUP9 SWAP3 SWAP1 PUSH2 0xFEB SWAP1 DUP5 SWAP1 PUSH2 0x2255 JUMP JUMPDEST SWAP1 SWAP2 SSTORE POP PUSH2 0xFFB SWAP1 POP CALLER DUP8 PUSH2 0x17F0 JUMP JUMPDEST PUSH1 0x40 MLOAD DUP7 DUP2 MSTORE CALLER SWAP1 PUSH32 0xDA47E427FB170A95B4539EA720C3CAF8AD5A319335B1A85FB3A8DB83A61159C0 SWAP1 PUSH1 0x20 ADD PUSH2 0xDF2 JUMP JUMPDEST PUSH0 DUP3 DUP2 MSTORE PUSH1 0xA PUSH1 0x20 SWAP1 DUP2 MSTORE PUSH1 0x40 DUP1 DUP4 KECCAK256 DUP2 MLOAD DUP1 DUP4 ADD SWAP1 SWAP3 MSTORE SLOAD PUSH1 0x1 PUSH1 0x1 PUSH1 0xA0 SHL SUB DUP2 AND DUP1 DUP4 MSTORE PUSH1 0x1 PUSH1 0xA0 SHL SWAP1 SWAP2 DIV PUSH1 0x1 PUSH1 0x1 PUSH1 0x60 SHL SUB AND SWAP3 DUP3 ADD SWAP3 SWAP1 SWAP3 MSTORE DUP3 SWAP2 PUSH2 0x10A1 JUMPI POP PUSH1 0x40 DUP1 MLOAD DUP1 DUP3 ADD SWAP1 SWAP2 MSTORE PUSH1 0x9 SLOAD PUSH1 0x1 PUSH1 0x1 PUSH1 0xA0 SHL SUB DUP2 AND DUP3 MSTORE PUSH1 0x1 PUSH1 0xA0 SHL SWAP1 DIV PUSH1 0x1 PUSH1 0x1 PUSH1 0x60 SHL SUB AND PUSH1 0x20 DUP3 ADD MSTORE JUMPDEST PUSH1 0x20 DUP2 ADD MLOAD PUSH0 SWAP1 PUSH2 0x2710 SWAP1 PUSH2 0x10BF SWAP1 PUSH1 0x1 PUSH1 0x1 PUSH1 0x60 SHL SUB AND DUP8 PUSH2 0x23B8 JUMP JUMPDEST PUSH2 0x10C9 SWAP2 SWAP1 PUSH2 0x23E7 JUMP JUMPDEST SWAP2 MLOAD SWAP7 SWAP2 SWAP6 POP SWAP1 SWAP4 POP POP POP POP JUMP JUMPDEST PUSH2 0x10DF PUSH2 0x1721 JUMP JUMPDEST PUSH1 0x40 MLOAD CALLER SWAP1 SELFBALANCE DUP1 ISZERO PUSH2 0x8FC MUL SWAP2 PUSH0 DUP2 DUP2 DUP2 DUP6 DUP9 DUP9 CALL SWAP4 POP POP POP POP ISZERO DUP1 ISZERO PUSH2 0x1108 JUMPI RETURNDATASIZE PUSH0 DUP1 RETURNDATACOPY RETURNDATASIZE PUSH0 REVERT JUMPDEST POP JUMP JUMPDEST PUSH2 0x1125 DUP4 DUP4 DUP4 PUSH1 0x40 MLOAD DUP1 PUSH1 0x20 ADD PUSH1 0x40 MSTORE DUP1 PUSH0 DUP2 MSTORE POP PUSH2 0x14F4 JUMP JUMPDEST POP POP POP JUMP JUMPDEST PUSH2 0x1132 PUSH2 0x1721 JUMP JUMPDEST PUSH1 0xB DUP1 SLOAD DUP3 SWAP2 SWAP1 PUSH1 0xFF PUSH1 0xA0 SHL NOT AND PUSH1 0x1 PUSH1 0xA0 SHL DUP4 PUSH1 0x3 DUP2 GT ISZERO PUSH2 0x1157 JUMPI PUSH2 0x1157 PUSH2 0x1F2C JUMP JUMPDEST MUL OR SWAP1 SSTORE POP PUSH32 0x3BC110370C8D062D875866567D288433541B3F5F05C98FA991B82EF9F6315881 DUP2 PUSH1 0x40 MLOAD PUSH2 0x118B SWAP2 SWAP1 PUSH2 0x1F40 JUMP JUMPDEST PUSH1 0x40 MLOAD DUP1 SWAP2 SUB SWAP1 LOG1 POP JUMP JUMPDEST PUSH1 0x40 DUP1 MLOAD DUP3 DUP2 MSTORE PUSH1 0x5 DUP4 SWAP1 SHL DUP1 DUP3 ADD PUSH1 0x20 ADD SWAP1 SWAP3 MSTORE PUSH1 0x60 SWAP2 JUMPDEST DUP1 ISZERO PUSH2 0x11D9 JUMPI PUSH1 0x1F NOT DUP1 DUP3 ADD SWAP2 DUP7 ADD ADD CALLDATALOAD PUSH0 PUSH2 0x11CA DUP3 PUSH2 0x1535 JUMP JUMPDEST DUP5 DUP5 ADD PUSH1 0x20 ADD MSTORE POP PUSH2 0x11AF SWAP1 POP JUMP JUMPDEST POP SWAP4 SWAP3 POP POP POP JUMP JUMPDEST PUSH0 PUSH2 0x760 DUP3 PUSH2 0x19B3 JUMP JUMPDEST PUSH0 PUSH1 0x1 PUSH1 0x1 PUSH1 0xA0 SHL SUB DUP3 AND PUSH2 0x120A JUMPI PUSH2 0x120A PUSH4 0x23D3AD81 PUSH1 0xE2 SHL PUSH2 0x190A JUMP JUMPDEST POP PUSH1 0x1 PUSH1 0x1 PUSH1 0xA0 SHL SUB AND PUSH0 SWAP1 DUP2 MSTORE PUSH1 0x5 PUSH1 0x20 MSTORE PUSH1 0x40 SWAP1 KECCAK256 SLOAD PUSH8 0xFFFFFFFFFFFFFFFF AND SWAP1 JUMP JUMPDEST PUSH2 0x1237 PUSH2 0x1721 JUMP JUMPDEST PUSH2 0x1240 PUSH0 PUSH2 0x1A52 JUMP JUMPDEST JUMP JUMPDEST PUSH1 0x60 PUSH0 PUSH2 0x124D PUSH2 0x18AA JUMP JUMPDEST SWAP1 POP PUSH0 PUSH2 0x1258 PUSH0 SLOAD SWAP1 JUMP JUMPDEST SWAP1 POP PUSH1 0x60 DUP2 DUP4 EQ PUSH2 0x1271 JUMPI PUSH2 0x126E DUP6 DUP5 DUP5 PUSH2 0x1AA3 JUMP JUMPDEST SWAP1 POP JUMPDEST SWAP5 SWAP4 POP POP POP POP JUMP JUMPDEST PUSH1 0x60 PUSH1 0x3 DUP1 SLOAD PUSH2 0x9A8 SWAP1 PUSH2 0x227B JUMP JUMPDEST PUSH1 0x60 PUSH2 0x1271 DUP5 DUP5 DUP5 PUSH2 0x1AA3 JUMP JUMPDEST PUSH2 0x12A5 PUSH4 0x66365B80 PUSH2 0x2A30 PUSH2 0x2255 JUMP JUMPDEST DUP2 JUMP JUMPDEST PUSH0 PUSH1 0xB SLOAD PUSH1 0x1 PUSH1 0xA0 SHL SWAP1 DIV PUSH1 0xFF AND PUSH1 0x3 DUP2 GT ISZERO PUSH2 0x12C7 JUMPI PUSH2 0x12C7 PUSH2 0x1F2C JUMP JUMPDEST SUB PUSH2 0x12E5 JUMPI PUSH1 0x40 MLOAD PUSH4 0xAF79B437 PUSH1 0xE0 SHL DUP2 MSTORE PUSH1 0x4 ADD PUSH1 0x40 MLOAD DUP1 SWAP2 SUB SWAP1 REVERT JUMPDEST PUSH2 0x12F5 PUSH4 0x66365B80 PUSH2 0x2A30 PUSH2 0x2255 JUMP JUMPDEST TIMESTAMP LT ISZERO PUSH2 0x1315 JUMPI PUSH1 0x40 MLOAD PUSH4 0xCD967E35 PUSH1 0xE0 SHL DUP2 MSTORE PUSH1 0x4 ADD PUSH1 0x40 MLOAD DUP1 SWAP2 SUB SWAP1 REVERT JUMPDEST DUP1 PUSH2 0x1327 DUP2 PUSH7 0x6A94D74F430000 PUSH2 0x23B8 JUMP JUMPDEST CALLVALUE LT ISZERO PUSH2 0x1347 JUMPI PUSH1 0x40 MLOAD PUSH4 0x356680B7 PUSH1 0xE0 SHL DUP2 MSTORE PUSH1 0x4 ADD PUSH1 0x40 MLOAD DUP1 SWAP2 SUB SWAP1 REVERT JUMPDEST CALLER PUSH0 SWAP1 DUP2 MSTORE PUSH1 0xD PUSH1 0x20 SWAP1 DUP2 MSTORE PUSH1 0x40 DUP1 DUP4 KECCAK256 SLOAD PUSH1 0xC SWAP1 SWAP3 MSTORE SWAP1 SWAP2 KECCAK256 SLOAD DUP4 SWAP2 PUSH1 0x3 SWAP2 DUP4 SWAP2 PUSH2 0x1372 SWAP2 PUSH2 0x2255 JUMP JUMPDEST PUSH2 0x137C SWAP2 SWAP1 PUSH2 0x2255 JUMP JUMPDEST GT DUP1 ISZERO PUSH2 0x1394 JUMPI POP PUSH1 0xB SLOAD PUSH1 0x1 PUSH1 0x1 PUSH1 0xA0 SHL SUB AND CALLER EQ ISZERO JUMPDEST ISZERO PUSH2 0x13B2 JUMPI PUSH1 0x40 MLOAD PUSH4 0x67EEC833 PUSH1 0xE0 SHL DUP2 MSTORE PUSH1 0x4 ADD PUSH1 0x40 MLOAD DUP1 SWAP2 SUB SWAP1 REVERT JUMPDEST DUP3 PUSH1 0x10 SLOAD PUSH2 0x1A0A PUSH2 0x13C3 SWAP2 SWAP1 PUSH2 0x2268 JUMP JUMPDEST PUSH1 0x1 PUSH2 0x13CD PUSH0 SLOAD SWAP1 JUMP JUMPDEST PUSH2 0x13D7 SWAP1 DUP5 PUSH2 0x2255 JUMP JUMPDEST PUSH2 0x13E1 SWAP2 SWAP1 PUSH2 0x2268 JUMP JUMPDEST GT ISZERO PUSH2 0x1400 JUMPI PUSH1 0x40 MLOAD PUSH4 0xC30436E9 PUSH1 0xE0 SHL DUP2 MSTORE PUSH1 0x4 ADD PUSH1 0x40 MLOAD DUP1 SWAP2 SUB SWAP1 REVERT JUMPDEST ORIGIN CALLER EQ PUSH2 0x1420 JUMPI PUSH1 0x40 MLOAD PUSH4 0x58516B3F PUSH1 0xE0 SHL DUP2 MSTORE PUSH1 0x4 ADD PUSH1 0x40 MLOAD DUP1 SWAP2 SUB SWAP1 REVERT JUMPDEST CALLER PUSH0 SWAP1 DUP2 MSTORE PUSH1 0xC PUSH1 0x20 MSTORE PUSH1 0x40 DUP2 KECCAK256 DUP1 SLOAD DUP7 SWAP3 SWAP1 PUSH2 0x143E SWAP1 DUP5 SWAP1 PUSH2 0x2255 JUMP JUMPDEST SWAP1 SWAP2 SSTORE POP PUSH2 0x144E SWAP1 POP CALLER DUP6 PUSH2 0x17F0 JUMP JUMPDEST PUSH1 0x40 MLOAD DUP5 DUP2 MSTORE CALLER SWAP1 PUSH32 0xF07265907AAF7B6329BB73E97EA492CCBBC0678C94313E1F8331013A2E269D33 SWAP1 PUSH1 0x20 ADD PUSH1 0x40 MLOAD DUP1 SWAP2 SUB SWAP1 LOG2 POP POP POP POP JUMP JUMPDEST CALLER PUSH0 DUP2 DUP2 MSTORE PUSH1 0x7 PUSH1 0x20 SWAP1 DUP2 MSTORE PUSH1 0x40 DUP1 DUP4 KECCAK256 PUSH1 0x1 PUSH1 0x1 PUSH1 0xA0 SHL SUB DUP8 AND DUP1 DUP6 MSTORE SWAP1 DUP4 MSTORE SWAP3 DUP2 SWAP1 KECCAK256 DUP1 SLOAD PUSH1 0xFF NOT AND DUP7 ISZERO ISZERO SWAP1 DUP2 OR SWAP1 SWAP2 SSTORE SWAP1 MLOAD SWAP1 DUP2 MSTORE SWAP2 SWAP3 SWAP2 PUSH32 0x17307EAB39AB6107E8899845AD3D59BD9653F200F220920489CA2B5937696C31 SWAP2 ADD PUSH1 0x40 MLOAD DUP1 SWAP2 SUB SWAP1 LOG3 POP POP JUMP JUMPDEST PUSH2 0x14FF DUP5 DUP5 DUP5 PUSH2 0xA83 JUMP JUMPDEST PUSH1 0x1 PUSH1 0x1 PUSH1 0xA0 SHL SUB DUP4 AND EXTCODESIZE ISZERO PUSH2 0x152F JUMPI PUSH2 0x151B DUP5 DUP5 DUP5 DUP5 PUSH2 0x1BAE JUMP JUMPDEST PUSH2 0x152F JUMPI PUSH2 0x152F PUSH4 0x68D2BF6B PUSH1 0xE1 SHL PUSH2 0x190A JUMP JUMPDEST POP POP POP POP JUMP JUMPDEST PUSH1 0x40 DUP1 MLOAD PUSH1 0x80 DUP2 ADD DUP3 MSTORE PUSH0 DUP1 DUP3 MSTORE PUSH1 0x20 DUP3 ADD DUP2 SWAP1 MSTORE SWAP2 DUP2 ADD DUP3 SWAP1 MSTORE PUSH1 0x60 DUP2 ADD SWAP2 SWAP1 SWAP2 MSTORE PUSH2 0x1560 PUSH2 0x18AA JUMP JUMPDEST DUP3 LT PUSH2 0x1596 JUMPI PUSH0 SLOAD DUP3 LT ISZERO PUSH2 0x1596 JUMPI JUMPDEST PUSH0 DUP3 DUP2 MSTORE PUSH1 0x4 PUSH1 0x20 MSTORE PUSH1 0x40 SWAP1 KECCAK256 SLOAD PUSH2 0x158D JUMPI PUSH0 NOT SWAP1 SWAP2 ADD SWAP1 PUSH2 0x1570 JUMP JUMPDEST PUSH2 0x760 DUP3 PUSH2 0x1C8C JUMP JUMPDEST SWAP2 SWAP1 POP JUMP JUMPDEST PUSH2 0x15A3 PUSH2 0x1721 JUMP JUMPDEST PUSH1 0x11 SSTORE JUMP JUMPDEST PUSH1 0x12 SLOAD PUSH1 0x60 SWAP1 PUSH1 0xFF AND PUSH2 0x15BD JUMPI PUSH2 0x760 PUSH2 0x1D09 JUMP JUMPDEST PUSH2 0x15C6 DUP3 PUSH2 0x18BC JUMP JUMPDEST PUSH2 0x15E3 JUMPI PUSH1 0x40 MLOAD PUSH4 0xA14C4B5 PUSH1 0xE4 SHL DUP2 MSTORE PUSH1 0x4 ADD PUSH1 0x40 MLOAD DUP1 SWAP2 SUB SWAP1 REVERT JUMPDEST PUSH0 PUSH2 0x15EC PUSH2 0x1D09 JUMP JUMPDEST PUSH1 0x12 SLOAD SWAP1 SWAP2 POP PUSH0 SWAP1 PUSH1 0xFF AND ISZERO PUSH2 0x160A JUMPI PUSH2 0x1605 DUP5 PUSH2 0x1D18 JUMP JUMPDEST PUSH2 0x161A JUMP JUMPDEST PUSH1 0x40 MLOAD DUP1 PUSH1 0x20 ADD PUSH1 0x40 MSTORE DUP1 PUSH0 DUP2 MSTORE POP JUMPDEST SWAP1 POP PUSH0 DUP3 DUP3 PUSH1 0x40 MLOAD PUSH1 0x20 ADD PUSH2 0x1630 SWAP3 SWAP2 SWAP1 PUSH2 0x241D JUMP JUMPDEST PUSH1 0x40 MLOAD PUSH1 0x20 DUP2 DUP4 SUB SUB DUP2 MSTORE SWAP1 PUSH1 0x40 MSTORE SWAP1 POP DUP3 MLOAD PUSH0 SUB PUSH2 0x1271 JUMPI PUSH1 0x40 MLOAD DUP1 PUSH1 0x20 ADD PUSH1 0x40 MSTORE DUP1 PUSH0 DUP2 MSTORE POP SWAP6 SWAP5 POP POP POP POP POP JUMP JUMPDEST PUSH2 0x1669 PUSH2 0x1721 JUMP JUMPDEST PUSH1 0x1 PUSH1 0x1 PUSH1 0xA0 SHL SUB DUP2 AND PUSH2 0x1697 JUMPI PUSH1 0x40 MLOAD PUSH4 0x1E4FBDF7 PUSH1 0xE0 SHL DUP2 MSTORE PUSH0 PUSH1 0x4 DUP3 ADD MSTORE PUSH1 0x24 ADD JUMPDEST PUSH1 0x40 MLOAD DUP1 SWAP2 SUB SWAP1 REVERT JUMPDEST PUSH2 0x1108 DUP2 PUSH2 0x1A52 JUMP JUMPDEST PUSH0 PUSH4 0x1FFC9A7 PUSH1 0xE0 SHL PUSH1 0x1 PUSH1 0x1 PUSH1 0xE0 SHL SUB NOT DUP4 AND EQ DUP1 PUSH2 0x16D0 JUMPI POP PUSH4 0x80AC58CD PUSH1 0xE0 SHL PUSH1 0x1 PUSH1 0x1 PUSH1 0xE0 SHL SUB NOT DUP4 AND EQ JUMPDEST DUP1 PUSH2 0x760 JUMPI POP POP PUSH1 0x1 PUSH1 0x1 PUSH1 0xE0 SHL SUB NOT AND PUSH4 0x5B5E139F PUSH1 0xE0 SHL EQ SWAP1 JUMP JUMPDEST PUSH0 PUSH1 0x1 PUSH1 0x1 PUSH1 0xE0 SHL SUB NOT DUP3 AND PUSH4 0x152A902D PUSH1 0xE1 SHL EQ DUP1 PUSH2 0x760 JUMPI POP PUSH4 0x1FFC9A7 PUSH1 0xE0 SHL PUSH1 0x1 PUSH1 0x1 PUSH1 0xE0 SHL SUB NOT DUP4 AND EQ PUSH2 0x760 JUMP JUMPDEST PUSH1 0xB SLOAD PUSH1 0x1 PUSH1 0x1 PUSH1 0xA0 SHL SUB AND CALLER EQ PUSH2 0x1240 JUMPI PUSH1 0x40 MLOAD PUSH4 0x118CDAA7 PUSH1 0xE0 SHL DUP2 MSTORE CALLER PUSH1 0x4 DUP3 ADD MSTORE PUSH1 0x24 ADD PUSH2 0x168E JUMP JUMPDEST PUSH2 0x2710 PUSH1 0x1 PUSH1 0x1 PUSH1 0x60 SHL SUB DUP3 AND DUP2 LT ISZERO PUSH2 0x178D JUMPI PUSH1 0x40 MLOAD PUSH4 0x6F483D09 PUSH1 0xE0 SHL DUP2 MSTORE PUSH1 0x1 PUSH1 0x1 PUSH1 0x60 SHL SUB DUP4 AND PUSH1 0x4 DUP3 ADD MSTORE PUSH1 0x24 DUP2 ADD DUP3 SWAP1 MSTORE PUSH1 0x44 ADD PUSH2 0x168E JUMP JUMPDEST PUSH1 0x1 PUSH1 0x1 PUSH1 0xA0 SHL SUB DUP4 AND PUSH2 0x17B6 JUMPI PUSH1 0x40 MLOAD PUSH4 0x5B6CC805 PUSH1 0xE1 SHL DUP2 MSTORE PUSH0 PUSH1 0x4 DUP3 ADD MSTORE PUSH1 0x24 ADD PUSH2 0x168E JUMP JUMPDEST POP PUSH1 0x40 DUP1 MLOAD DUP1 DUP3 ADD SWAP1 SWAP2 MSTORE PUSH1 0x1 PUSH1 0x1 PUSH1 0xA0 SHL SUB SWAP1 SWAP3 AND DUP1 DUP4 MSTORE PUSH1 0x1 PUSH1 0x1 PUSH1 0x60 SHL SUB SWAP1 SWAP2 AND PUSH1 0x20 SWAP1 SWAP3 ADD DUP3 SWAP1 MSTORE PUSH1 0x1 PUSH1 0xA0 SHL SWAP1 SWAP2 MUL OR PUSH1 0x9 SSTORE JUMP JUMPDEST PUSH0 DUP1 SLOAD SWAP1 DUP3 SWAP1 SUB PUSH2 0x180B JUMPI PUSH2 0x180B PUSH4 0xB562E8DD PUSH1 0xE0 SHL PUSH2 0x190A JUMP JUMPDEST PUSH0 DUP2 DUP2 MSTORE PUSH1 0x4 PUSH1 0x20 SWAP1 DUP2 MSTORE PUSH1 0x40 DUP1 DUP4 KECCAK256 PUSH1 0x1 PUSH1 0x1 PUSH1 0xA0 SHL SUB DUP8 AND TIMESTAMP PUSH1 0xA0 SHL PUSH1 0x1 DUP9 EQ PUSH1 0xE1 SHL OR DUP2 OR SWAP1 SWAP2 SSTORE DUP1 DUP5 MSTORE PUSH1 0x5 SWAP1 SWAP3 MSTORE DUP3 KECCAK256 DUP1 SLOAD PUSH9 0x10000000000000001 DUP7 MUL ADD SWAP1 SSTORE SWAP1 DUP2 SWAP1 SUB PUSH2 0x1868 JUMPI PUSH2 0x1868 PUSH3 0x2E0763 PUSH1 0xE8 SHL PUSH2 0x190A JUMP JUMPDEST DUP2 DUP4 ADD DUP3 JUMPDEST DUP1 DUP4 PUSH0 PUSH32 0xDDF252AD1BE2C89B69C2B068FC378DAA952BA7F163C4A11628F55A4DF523B3EF PUSH0 DUP1 LOG4 DUP2 DUP2 PUSH1 0x1 ADD SWAP2 POP DUP2 SUB PUSH2 0x186D JUMPI POP PUSH0 SSTORE POP POP POP POP JUMP JUMPDEST PUSH0 PUSH2 0x18B7 PUSH4 0x28F75032 SLOAD SWAP1 JUMP JUMPDEST SWAP1 POP SWAP1 JUMP JUMPDEST PUSH0 DUP2 PUSH2 0x18C6 PUSH2 0x18AA JUMP JUMPDEST GT PUSH2 0x1596 JUMPI PUSH0 SLOAD DUP3 LT ISZERO PUSH2 0x1596 JUMPI PUSH0 JUMPDEST POP PUSH0 DUP3 DUP2 MSTORE PUSH1 0x4 PUSH1 0x20 MSTORE PUSH1 0x40 DUP2 KECCAK256 SLOAD SWAP1 DUP2 SWAP1 SUB PUSH2 0x18FD JUMPI PUSH2 0x18F6 DUP4 PUSH2 0x2431 JUMP JUMPDEST SWAP3 POP PUSH2 0x18D6 JUMP JUMPDEST PUSH1 0x1 PUSH1 0xE0 SHL AND ISZERO SWAP3 SWAP2 POP POP JUMP JUMPDEST DUP1 PUSH0 MSTORE PUSH1 0x4 PUSH0 REVERT JUMPDEST PUSH0 PUSH2 0x191C DUP4 PUSH2 0x11E1 JUMP JUMPDEST SWAP1 POP DUP2 DUP1 ISZERO PUSH2 0x1934 JUMPI POP CALLER PUSH1 0x1 PUSH1 0x1 PUSH1 0xA0 SHL SUB DUP3 AND EQ ISZERO JUMPDEST ISZERO PUSH2 0x1957 JUMPI PUSH2 0x1943 DUP2 CALLER PUSH2 0x6B1 JUMP JUMPDEST PUSH2 0x1957 JUMPI PUSH2 0x1957 PUSH4 0x67D9DCA1 PUSH1 0xE1 SHL PUSH2 0x190A JUMP JUMPDEST PUSH0 DUP4 DUP2 MSTORE PUSH1 0x6 PUSH1 0x20 MSTORE PUSH1 0x40 DUP1 DUP3 KECCAK256 DUP1 SLOAD PUSH1 0x1 PUSH1 0x1 PUSH1 0xA0 SHL SUB NOT AND PUSH1 0x1 PUSH1 0x1 PUSH1 0xA0 SHL SUB DUP9 DUP2 AND SWAP2 DUP3 OR SWAP1 SWAP3 SSTORE SWAP2 MLOAD DUP7 SWAP4 SWAP2 DUP6 AND SWAP2 PUSH32 0x8C5BE1E5EBEC7D5BD14F71427D1E84F3DD0314C0F7B2291E5B200AC8C7C3B925 SWAP2 LOG4 POP POP POP POP JUMP JUMPDEST PUSH0 DUP2 PUSH2 0x19BD PUSH2 0x18AA JUMP JUMPDEST GT PUSH2 0x1A42 JUMPI POP PUSH0 DUP2 DUP2 MSTORE PUSH1 0x4 PUSH1 0x20 MSTORE PUSH1 0x40 SWAP1 KECCAK256 SLOAD DUP1 PUSH0 SUB PUSH2 0x1A30 JUMPI PUSH0 SLOAD DUP3 LT PUSH2 0x19F0 JUMPI PUSH2 0x19F0 PUSH4 0x6F96CDA1 PUSH1 0xE1 SHL PUSH2 0x190A JUMP JUMPDEST JUMPDEST POP PUSH0 NOT ADD PUSH0 DUP2 DUP2 MSTORE PUSH1 0x4 PUSH1 0x20 MSTORE PUSH1 0x40 SWAP1 KECCAK256 SLOAD DUP1 ISZERO PUSH2 0x19F1 JUMPI PUSH1 0x1 PUSH1 0xE0 SHL DUP2 AND PUSH0 SUB PUSH2 0x1A1B JUMPI SWAP2 SWAP1 POP JUMP JUMPDEST PUSH2 0x1A2B PUSH4 0x6F96CDA1 PUSH1 0xE1 SHL PUSH2 0x190A JUMP JUMPDEST PUSH2 0x19F1 JUMP JUMPDEST PUSH1 0x1 PUSH1 0xE0 SHL DUP2 AND PUSH0 SUB PUSH2 0x1A42 JUMPI SWAP2 SWAP1 POP JUMP JUMPDEST PUSH2 0x1596 PUSH4 0x6F96CDA1 PUSH1 0xE1 SHL PUSH2 0x190A JUMP JUMPDEST PUSH1 0xB DUP1 SLOAD PUSH1 0x1 PUSH1 0x1 PUSH1 0xA0 SHL SUB DUP4 DUP2 AND PUSH1 0x1 PUSH1 0x1 PUSH1 0xA0 SHL SUB NOT DUP4 AND DUP2 OR SWAP1 SWAP4 SSTORE PUSH1 0x40 MLOAD SWAP2 AND SWAP2 SWAP1 DUP3 SWAP1 PUSH32 0x8BE0079C531659141344CD1FD0A4F28419497F9722A3DAAFE3B4186F6B6457E0 SWAP1 PUSH0 SWAP1 LOG3 POP POP JUMP JUMPDEST PUSH1 0x60 DUP2 DUP4 LT PUSH2 0x1ABC JUMPI PUSH2 0x1ABC PUSH4 0x1960CCAD PUSH1 0xE1 SHL PUSH2 0x190A JUMP JUMPDEST PUSH2 0x1AC4 PUSH2 0x18AA JUMP JUMPDEST DUP4 LT ISZERO PUSH2 0x1AD6 JUMPI PUSH2 0x1AD3 PUSH2 0x18AA JUMP JUMPDEST SWAP3 POP JUMPDEST PUSH0 SLOAD DUP1 DUP1 DUP5 LT PUSH2 0x1AE4 JUMPI DUP1 SWAP4 POP JUMPDEST PUSH0 PUSH2 0x1AEE DUP8 PUSH2 0x11EB JUMP JUMPDEST SWAP1 POP DUP5 DUP7 LT PUSH2 0x1AFA JUMPI POP PUSH0 JUMPDEST DUP1 ISZERO PUSH2 0x1BA4 JUMPI DUP1 DUP7 DUP7 SUB GT PUSH2 0x1B0E JUMPI POP DUP5 DUP5 SUB JUMPDEST PUSH1 0x40 DUP1 MLOAD PUSH1 0x1 DUP4 ADD PUSH1 0x5 SHL DUP2 ADD SWAP2 DUP3 SWAP1 MSTORE SWAP5 POP PUSH0 PUSH2 0x1B2B DUP9 PUSH2 0x1535 JUMP JUMPDEST SWAP1 POP PUSH0 DUP2 PUSH1 0x40 ADD MLOAD PUSH2 0x1B3B JUMPI POP DUP1 MLOAD JUMPDEST PUSH0 JUMPDEST PUSH2 0x1B46 DUP11 PUSH2 0x1C8C JUMP JUMPDEST SWAP3 POP PUSH1 0x40 DUP4 ADD MLOAD PUSH0 DUP2 EQ PUSH2 0x1B5C JUMPI PUSH0 SWAP3 POP PUSH2 0x1B81 JUMP JUMPDEST DUP4 MLOAD ISZERO PUSH2 0x1B68 JUMPI DUP4 MLOAD SWAP3 POP JUMPDEST DUP12 DUP4 XOR PUSH1 0x60 SHL PUSH2 0x1B81 JUMPI PUSH1 0x1 DUP3 ADD SWAP2 POP DUP11 DUP3 PUSH1 0x5 SHL DUP11 ADD MSTORE JUMPDEST POP PUSH1 0x1 DUP11 ADD SWAP10 POP DUP4 PUSH1 0x40 MSTORE DUP9 DUP11 EQ DUP1 PUSH2 0x1B99 JUMPI POP DUP5 DUP2 EQ JUMPDEST ISZERO PUSH2 0x1B3D JUMPI DUP8 MSTORE POP POP POP JUMPDEST POP POP POP SWAP4 SWAP3 POP POP POP JUMP JUMPDEST PUSH1 0x40 MLOAD PUSH4 0xA85BD01 PUSH1 0xE1 SHL DUP2 MSTORE PUSH0 SWAP1 PUSH1 0x1 PUSH1 0x1 PUSH1 0xA0 SHL SUB DUP6 AND SWAP1 PUSH4 0x150B7A02 SWAP1 PUSH2 0x1BE2 SWAP1 CALLER SWAP1 DUP10 SWAP1 DUP9 SWAP1 DUP9 SWAP1 PUSH1 0x4 ADD PUSH2 0x2446 JUMP JUMPDEST PUSH1 0x20 PUSH1 0x40 MLOAD DUP1 DUP4 SUB DUP2 PUSH0 DUP8 GAS CALL SWAP3 POP POP POP DUP1 ISZERO PUSH2 0x1C1C JUMPI POP PUSH1 0x40 DUP1 MLOAD PUSH1 0x1F RETURNDATASIZE SWAP1 DUP2 ADD PUSH1 0x1F NOT AND DUP3 ADD SWAP1 SWAP3 MSTORE PUSH2 0x1C19 SWAP2 DUP2 ADD SWAP1 PUSH2 0x2482 JUMP JUMPDEST PUSH1 0x1 JUMPDEST PUSH2 0x1C6F JUMPI RETURNDATASIZE DUP1 DUP1 ISZERO PUSH2 0x1C49 JUMPI PUSH1 0x40 MLOAD SWAP2 POP PUSH1 0x1F NOT PUSH1 0x3F RETURNDATASIZE ADD AND DUP3 ADD PUSH1 0x40 MSTORE RETURNDATASIZE DUP3 MSTORE RETURNDATASIZE PUSH0 PUSH1 0x20 DUP5 ADD RETURNDATACOPY PUSH2 0x1C4E JUMP JUMPDEST PUSH1 0x60 SWAP2 POP JUMPDEST POP DUP1 MLOAD PUSH0 SUB PUSH2 0x1C67 JUMPI PUSH2 0x1C67 PUSH4 0x68D2BF6B PUSH1 0xE1 SHL PUSH2 0x190A JUMP JUMPDEST DUP1 MLOAD DUP2 PUSH1 0x20 ADD REVERT JUMPDEST PUSH1 0x1 PUSH1 0x1 PUSH1 0xE0 SHL SUB NOT AND PUSH4 0xA85BD01 PUSH1 0xE1 SHL EQ SWAP1 POP SWAP5 SWAP4 POP POP POP POP JUMP JUMPDEST PUSH1 0x40 DUP1 MLOAD PUSH1 0x80 DUP2 ADD DUP3 MSTORE PUSH0 DUP1 DUP3 MSTORE PUSH1 0x20 DUP3 ADD DUP2 SWAP1 MSTORE SWAP2 DUP2 ADD DUP3 SWAP1 MSTORE PUSH1 0x60 DUP2 ADD SWAP2 SWAP1 SWAP2 MSTORE PUSH0 DUP3 DUP2 MSTORE PUSH1 0x4 PUSH1 0x20 MSTORE PUSH1 0x40 SWAP1 KECCAK256 SLOAD PUSH2 0x760 SWAP1 PUSH1 0x40 DUP1 MLOAD PUSH1 0x80 DUP2 ADD DUP3 MSTORE PUSH1 0x1 PUSH1 0x1 PUSH1 0xA0 SHL SUB DUP4 AND DUP2 MSTORE PUSH1 0xA0 DUP4 SWAP1 SHR PUSH8 0xFFFFFFFFFFFFFFFF AND PUSH1 0x20 DUP3 ADD MSTORE PUSH1 0x1 PUSH1 0xE0 SHL DUP4 AND ISZERO ISZERO SWAP2 DUP2 ADD SWAP2 SWAP1 SWAP2 MSTORE PUSH1 0xE8 SWAP2 SWAP1 SWAP2 SHR PUSH1 0x60 DUP3 ADD MSTORE SWAP1 JUMP JUMPDEST PUSH1 0x60 PUSH1 0x13 DUP1 SLOAD PUSH2 0x9A8 SWAP1 PUSH2 0x227B JUMP JUMPDEST PUSH1 0x60 PUSH1 0xA0 PUSH1 0x40 MLOAD ADD DUP1 PUSH1 0x40 MSTORE PUSH1 0x20 DUP2 SUB SWAP2 POP POP PUSH0 DUP2 MSTORE DUP1 DUP3 JUMPDEST PUSH1 0x1 DUP4 SUB SWAP3 POP PUSH1 0xA DUP2 MOD PUSH1 0x30 ADD DUP4 MSTORE8 PUSH1 0xA SWAP1 DIV DUP1 PUSH2 0x1D31 JUMPI POP DUP2 SWAP1 SUB PUSH1 0x1F NOT SWAP1 SWAP2 ADD SWAP1 DUP2 MSTORE SWAP2 SWAP1 POP JUMP JUMPDEST PUSH1 0x1 PUSH1 0x1 PUSH1 0xE0 SHL SUB NOT DUP2 AND DUP2 EQ PUSH2 0x1108 JUMPI PUSH0 DUP1 REVERT JUMPDEST PUSH0 PUSH1 0x20 DUP3 DUP5 SUB SLT ISZERO PUSH2 0x1D80 JUMPI PUSH0 DUP1 REVERT JUMPDEST DUP2 CALLDATALOAD PUSH2 0x1D8B DUP2 PUSH2 0x1D5B JUMP JUMPDEST SWAP4 SWAP3 POP POP POP JUMP JUMPDEST DUP1 CALLDATALOAD PUSH1 0x1 PUSH1 0x1 PUSH1 0xA0 SHL SUB DUP2 AND DUP2 EQ PUSH2 0x1596 JUMPI PUSH0 DUP1 REVERT JUMPDEST PUSH0 DUP1 PUSH1 0x40 DUP4 DUP6 SUB SLT ISZERO PUSH2 0x1DB9 JUMPI PUSH0 DUP1 REVERT JUMPDEST PUSH2 0x1DC2 DUP4 PUSH2 0x1D92 JUMP JUMPDEST SWAP2 POP PUSH1 0x20 DUP4 ADD CALLDATALOAD PUSH1 0x1 PUSH1 0x1 PUSH1 0x60 SHL SUB DUP2 AND DUP2 EQ PUSH2 0x1DDD JUMPI PUSH0 DUP1 REVERT JUMPDEST DUP1 SWAP2 POP POP SWAP3 POP SWAP3 SWAP1 POP JUMP JUMPDEST PUSH0 DUP1 PUSH1 0x20 DUP4 DUP6 SUB SLT ISZERO PUSH2 0x1DF9 JUMPI PUSH0 DUP1 REVERT JUMPDEST DUP3 CALLDATALOAD PUSH8 0xFFFFFFFFFFFFFFFF DUP1 DUP3 GT ISZERO PUSH2 0x1E10 JUMPI PUSH0 DUP1 REVERT JUMPDEST DUP2 DUP6 ADD SWAP2 POP DUP6 PUSH1 0x1F DUP4 ADD SLT PUSH2 0x1E23 JUMPI PUSH0 DUP1 REVERT JUMPDEST DUP2 CALLDATALOAD DUP2 DUP2 GT ISZERO PUSH2 0x1E31 JUMPI PUSH0 DUP1 REVERT JUMPDEST DUP7 PUSH1 0x20 DUP3 DUP6 ADD ADD GT ISZERO PUSH2 0x1E42 JUMPI PUSH0 DUP1 REVERT JUMPDEST PUSH1 0x20 SWAP3 SWAP1 SWAP3 ADD SWAP7 SWAP2 SWAP6 POP SWAP1 SWAP4 POP POP POP POP JUMP JUMPDEST PUSH0 DUP2 MLOAD DUP1 DUP5 MSTORE DUP1 PUSH1 0x20 DUP5 ADD PUSH1 0x20 DUP7 ADD MCOPY PUSH0 PUSH1 0x20 DUP3 DUP7 ADD ADD MSTORE PUSH1 0x20 PUSH1 0x1F NOT PUSH1 0x1F DUP4 ADD AND DUP6 ADD ADD SWAP2 POP POP SWAP3 SWAP2 POP POP JUMP JUMPDEST PUSH1 0x20 DUP2 MSTORE PUSH0 PUSH2 0x1D8B PUSH1 0x20 DUP4 ADD DUP5 PUSH2 0x1E54 JUMP JUMPDEST PUSH0 PUSH1 0x20 DUP3 DUP5 SUB SLT ISZERO PUSH2 0x1EA4 JUMPI PUSH0 DUP1 REVERT JUMPDEST POP CALLDATALOAD SWAP2 SWAP1 POP JUMP JUMPDEST PUSH0 DUP1 PUSH1 0x40 DUP4 DUP6 SUB SLT ISZERO PUSH2 0x1EBC JUMPI PUSH0 DUP1 REVERT JUMPDEST PUSH2 0x1EC5 DUP4 PUSH2 0x1D92 JUMP JUMPDEST SWAP5 PUSH1 0x20 SWAP4 SWAP1 SWAP4 ADD CALLDATALOAD SWAP4 POP POP POP JUMP JUMPDEST PUSH0 DUP1 PUSH0 PUSH1 0x60 DUP5 DUP7 SUB SLT ISZERO PUSH2 0x1EE5 JUMPI PUSH0 DUP1 REVERT JUMPDEST PUSH2 0x1EEE DUP5 PUSH2 0x1D92 JUMP JUMPDEST SWAP3 POP PUSH2 0x1EFC PUSH1 0x20 DUP6 ADD PUSH2 0x1D92 JUMP JUMPDEST SWAP2 POP PUSH1 0x40 DUP5 ADD CALLDATALOAD SWAP1 POP SWAP3 POP SWAP3 POP SWAP3 JUMP JUMPDEST PUSH0 DUP1 PUSH1 0x40 DUP4 DUP6 SUB SLT ISZERO PUSH2 0x1F1D JUMPI PUSH0 DUP1 REVERT JUMPDEST POP POP DUP1 CALLDATALOAD SWAP3 PUSH1 0x20 SWAP1 SWAP2 ADD CALLDATALOAD SWAP2 POP JUMP JUMPDEST PUSH4 0x4E487B71 PUSH1 0xE0 SHL PUSH0 MSTORE PUSH1 0x21 PUSH1 0x4 MSTORE PUSH1 0x24 PUSH0 REVERT JUMPDEST PUSH1 0x20 DUP2 ADD PUSH1 0x4 DUP4 LT PUSH2 0x1F60 JUMPI PUSH4 0x4E487B71 PUSH1 0xE0 SHL PUSH0 MSTORE PUSH1 0x21 PUSH1 0x4 MSTORE PUSH1 0x24 PUSH0 REVERT JUMPDEST SWAP2 SWAP1 MSTORE SWAP1 JUMP JUMPDEST PUSH0 PUSH1 0x20 DUP3 DUP5 SUB SLT ISZERO PUSH2 0x1F76 JUMPI PUSH0 DUP1 REVERT JUMPDEST DUP2 CALLDATALOAD PUSH1 0x4 DUP2 LT PUSH2 0x1D8B JUMPI PUSH0 DUP1 REVERT JUMPDEST PUSH0 DUP1 PUSH1 0x20 DUP4 DUP6 SUB SLT ISZERO PUSH2 0x1F95 JUMPI PUSH0 DUP1 REVERT JUMPDEST DUP3 CALLDATALOAD PUSH8 0xFFFFFFFFFFFFFFFF DUP1 DUP3 GT ISZERO PUSH2 0x1FAC JUMPI PUSH0 DUP1 REVERT JUMPDEST DUP2 DUP6 ADD SWAP2 POP DUP6 PUSH1 0x1F DUP4 ADD SLT PUSH2 0x1FBF JUMPI PUSH0 DUP1 REVERT JUMPDEST DUP2 CALLDATALOAD DUP2 DUP2 GT ISZERO PUSH2 0x1FCD JUMPI PUSH0 DUP1 REVERT JUMPDEST DUP7 PUSH1 0x20 DUP3 PUSH1 0x5 SHL DUP6 ADD ADD GT ISZERO PUSH2 0x1E42 JUMPI PUSH0 DUP1 REVERT JUMPDEST DUP1 MLOAD PUSH1 0x1 PUSH1 0x1 PUSH1 0xA0 SHL SUB AND DUP3 MSTORE PUSH1 0x20 DUP1 DUP3 ADD MLOAD PUSH8 0xFFFFFFFFFFFFFFFF AND SWAP1 DUP4 ADD MSTORE PUSH1 0x40 DUP1 DUP3 ADD MLOAD ISZERO ISZERO SWAP1 DUP4 ADD MSTORE PUSH1 0x60 SWAP1 DUP2 ADD MLOAD PUSH3 0xFFFFFF AND SWAP2 ADD MSTORE JUMP JUMPDEST PUSH1 0x20 DUP1 DUP3 MSTORE DUP3 MLOAD DUP3 DUP3 ADD DUP2 SWAP1 MSTORE PUSH0 SWAP2 SWAP1 DUP5 DUP3 ADD SWAP1 PUSH1 0x40 DUP6 ADD SWAP1 DUP5 JUMPDEST DUP2 DUP2 LT ISZERO PUSH2 0x205F JUMPI PUSH2 0x204C DUP4 DUP6 MLOAD PUSH2 0x1FE1 JUMP JUMPDEST SWAP3 DUP5 ADD SWAP3 PUSH1 0x80 SWAP3 SWAP1 SWAP3 ADD SWAP2 PUSH1 0x1 ADD PUSH2 0x2039 JUMP JUMPDEST POP SWAP1 SWAP7 SWAP6 POP POP POP POP POP POP JUMP JUMPDEST PUSH0 PUSH1 0x20 DUP3 DUP5 SUB SLT ISZERO PUSH2 0x207B JUMPI PUSH0 DUP1 REVERT JUMPDEST PUSH2 0x1D8B DUP3 PUSH2 0x1D92 JUMP JUMPDEST PUSH1 0x20 DUP1 DUP3 MSTORE DUP3 MLOAD DUP3 DUP3 ADD DUP2 SWAP1 MSTORE PUSH0 SWAP2 SWAP1 DUP5 DUP3 ADD SWAP1 PUSH1 0x40 DUP6 ADD SWAP1 DUP5 JUMPDEST DUP2 DUP2 LT ISZERO PUSH2 0x205F JUMPI DUP4 MLOAD DUP4 MSTORE SWAP3 DUP5 ADD SWAP3 SWAP2 DUP5 ADD SWAP2 PUSH1 0x1 ADD PUSH2 0x209F JUMP JUMPDEST PUSH0 DUP1 PUSH0 PUSH1 0x60 DUP5 DUP7 SUB SLT ISZERO PUSH2 0x20CD JUMPI PUSH0 DUP1 REVERT JUMPDEST PUSH2 0x20D6 DUP5 PUSH2 0x1D92 JUMP JUMPDEST SWAP6 PUSH1 0x20 DUP6 ADD CALLDATALOAD SWAP6 POP PUSH1 0x40 SWAP1 SWAP5 ADD CALLDATALOAD SWAP4 SWAP3 POP POP POP JUMP JUMPDEST PUSH0 DUP1 PUSH1 0x40 DUP4 DUP6 SUB SLT ISZERO PUSH2 0x20FC JUMPI PUSH0 DUP1 REVERT JUMPDEST PUSH2 0x2105 DUP4 PUSH2 0x1D92 JUMP JUMPDEST SWAP2 POP PUSH1 0x20 DUP4 ADD CALLDATALOAD DUP1 ISZERO ISZERO DUP2 EQ PUSH2 0x1DDD JUMPI PUSH0 DUP1 REVERT JUMPDEST PUSH4 0x4E487B71 PUSH1 0xE0 SHL PUSH0 MSTORE PUSH1 0x41 PUSH1 0x4 MSTORE PUSH1 0x24 PUSH0 REVERT JUMPDEST PUSH0 DUP1 PUSH0 DUP1 PUSH1 0x80 DUP6 DUP8 SUB SLT ISZERO PUSH2 0x2140 JUMPI PUSH0 DUP1 REVERT JUMPDEST PUSH2 0x2149 DUP6 PUSH2 0x1D92 JUMP JUMPDEST SWAP4 POP PUSH2 0x2157 PUSH1 0x20 DUP7 ADD PUSH2 0x1D92 JUMP JUMPDEST SWAP3 POP PUSH1 0x40 DUP6 ADD CALLDATALOAD SWAP2 POP PUSH1 0x60 DUP6 ADD CALLDATALOAD PUSH8 0xFFFFFFFFFFFFFFFF DUP1 DUP3 GT ISZERO PUSH2 0x217A JUMPI PUSH0 DUP1 REVERT JUMPDEST DUP2 DUP8 ADD SWAP2 POP DUP8 PUSH1 0x1F DUP4 ADD SLT PUSH2 0x218D JUMPI PUSH0 DUP1 REVERT JUMPDEST DUP2 CALLDATALOAD DUP2 DUP2 GT ISZERO PUSH2 0x219F JUMPI PUSH2 0x219F PUSH2 0x2119 JUMP JUMPDEST PUSH1 0x40 MLOAD PUSH1 0x1F DUP3 ADD PUSH1 0x1F NOT SWAP1 DUP2 AND PUSH1 0x3F ADD AND DUP2 ADD SWAP1 DUP4 DUP3 GT DUP2 DUP4 LT OR ISZERO PUSH2 0x21C7 JUMPI PUSH2 0x21C7 PUSH2 0x2119 JUMP JUMPDEST DUP2 PUSH1 0x40 MSTORE DUP3 DUP2 MSTORE DUP11 PUSH1 0x20 DUP5 DUP8 ADD ADD GT ISZERO PUSH2 0x21DF JUMPI PUSH0 DUP1 REVERT JUMPDEST DUP3 PUSH1 0x20 DUP7 ADD PUSH1 0x20 DUP4 ADD CALLDATACOPY PUSH0 PUSH1 0x20 DUP5 DUP4 ADD ADD MSTORE DUP1 SWAP6 POP POP POP POP POP POP SWAP3 SWAP6 SWAP2 SWAP5 POP SWAP3 POP JUMP JUMPDEST PUSH1 0x80 DUP2 ADD PUSH2 0x760 DUP3 DUP5 PUSH2 0x1FE1 JUMP JUMPDEST PUSH0 DUP1 PUSH1 0x40 DUP4 DUP6 SUB SLT ISZERO PUSH2 0x2221 JUMPI PUSH0 DUP1 REVERT JUMPDEST PUSH2 0x222A DUP4 PUSH2 0x1D92 JUMP JUMPDEST SWAP2 POP PUSH2 0x2238 PUSH1 0x20 DUP5 ADD PUSH2 0x1D92 JUMP JUMPDEST SWAP1 POP SWAP3 POP SWAP3 SWAP1 POP JUMP JUMPDEST PUSH4 0x4E487B71 PUSH1 0xE0 SHL PUSH0 MSTORE PUSH1 0x11 PUSH1 0x4 MSTORE PUSH1 0x24 PUSH0 REVERT JUMPDEST DUP1 DUP3 ADD DUP1 DUP3 GT ISZERO PUSH2 0x760 JUMPI PUSH2 0x760 PUSH2 0x2241 JUMP JUMPDEST DUP2 DUP2 SUB DUP2 DUP2 GT ISZERO PUSH2 0x760 JUMPI PUSH2 0x760 PUSH2 0x2241 JUMP JUMPDEST PUSH1 0x1 DUP2 DUP2 SHR SWAP1 DUP3 AND DUP1 PUSH2 0x228F JUMPI PUSH1 0x7F DUP3 AND SWAP2 POP JUMPDEST PUSH1 0x20 DUP3 LT DUP2 SUB PUSH2 0x22AD JUMPI PUSH4 0x4E487B71 PUSH1 0xE0 SHL PUSH0 MSTORE PUSH1 0x22 PUSH1 0x4 MSTORE PUSH1 0x24 PUSH0 REVERT JUMPDEST POP SWAP2 SWAP1 POP JUMP JUMPDEST PUSH1 0x1F DUP3 GT ISZERO PUSH2 0x1125 JUMPI DUP1 PUSH0 MSTORE PUSH1 0x20 PUSH0 KECCAK256 PUSH1 0x1F DUP5 ADD PUSH1 0x5 SHR DUP2 ADD PUSH1 0x20 DUP6 LT ISZERO PUSH2 0x22D8 JUMPI POP DUP1 JUMPDEST PUSH1 0x1F DUP5 ADD PUSH1 0x5 SHR DUP3 ADD SWAP2 POP JUMPDEST DUP2 DUP2 LT ISZERO PUSH2 0x22F7 JUMPI PUSH0 DUP2 SSTORE PUSH1 0x1 ADD PUSH2 0x22E4 JUMP JUMPDEST POP POP POP POP POP JUMP JUMPDEST PUSH8 0xFFFFFFFFFFFFFFFF DUP4 GT ISZERO PUSH2 0x2316 JUMPI PUSH2 0x2316 PUSH2 0x2119 JUMP JUMPDEST PUSH2 0x232A DUP4 PUSH2 0x2324 DUP4 SLOAD PUSH2 0x227B JUMP JUMPDEST DUP4 PUSH2 0x22B3 JUMP JUMPDEST PUSH0 PUSH1 0x1F DUP5 GT PUSH1 0x1 DUP2 EQ PUSH2 0x235B JUMPI PUSH0 DUP6 ISZERO PUSH2 0x2344 JUMPI POP DUP4 DUP3 ADD CALLDATALOAD JUMPDEST PUSH0 NOT PUSH1 0x3 DUP8 SWAP1 SHL SHR NOT AND PUSH1 0x1 DUP7 SWAP1 SHL OR DUP4 SSTORE PUSH2 0x22F7 JUMP JUMPDEST PUSH0 DUP4 DUP2 MSTORE PUSH1 0x20 DUP2 KECCAK256 PUSH1 0x1F NOT DUP8 AND SWAP2 JUMPDEST DUP3 DUP2 LT ISZERO PUSH2 0x238A JUMPI DUP7 DUP6 ADD CALLDATALOAD DUP3 SSTORE PUSH1 0x20 SWAP5 DUP6 ADD SWAP5 PUSH1 0x1 SWAP1 SWAP3 ADD SWAP2 ADD PUSH2 0x236A JUMP JUMPDEST POP DUP7 DUP3 LT ISZERO PUSH2 0x23A6 JUMPI PUSH0 NOT PUSH1 0xF8 DUP9 PUSH1 0x3 SHL AND SHR NOT DUP5 DUP8 ADD CALLDATALOAD AND DUP2 SSTORE JUMPDEST POP POP PUSH1 0x1 DUP6 PUSH1 0x1 SHL ADD DUP4 SSTORE POP POP POP POP POP JUMP JUMPDEST DUP1 DUP3 MUL DUP2 ISZERO DUP3 DUP3 DIV DUP5 EQ OR PUSH2 0x760 JUMPI PUSH2 0x760 PUSH2 0x2241 JUMP JUMPDEST PUSH0 PUSH1 0x1 DUP3 ADD PUSH2 0x23E0 JUMPI PUSH2 0x23E0 PUSH2 0x2241 JUMP JUMPDEST POP PUSH1 0x1 ADD SWAP1 JUMP JUMPDEST PUSH0 DUP3 PUSH2 0x2401 JUMPI PUSH4 0x4E487B71 PUSH1 0xE0 SHL PUSH0 MSTORE PUSH1 0x12 PUSH1 0x4 MSTORE PUSH1 0x24 PUSH0 REVERT JUMPDEST POP DIV SWAP1 JUMP JUMPDEST PUSH0 DUP2 MLOAD DUP1 PUSH1 0x20 DUP5 ADD DUP6 MCOPY PUSH0 SWAP4 ADD SWAP3 DUP4 MSTORE POP SWAP1 SWAP2 SWAP1 POP JUMP JUMPDEST PUSH0 PUSH2 0x1271 PUSH2 0x242B DUP4 DUP7 PUSH2 0x2406 JUMP JUMPDEST DUP5 PUSH2 0x2406 JUMP JUMPDEST PUSH0 DUP2 PUSH2 0x243F JUMPI PUSH2 0x243F PUSH2 0x2241 JUMP JUMPDEST POP PUSH0 NOT ADD SWAP1 JUMP JUMPDEST PUSH1 0x1 PUSH1 0x1 PUSH1 0xA0 SHL SUB DUP6 DUP2 AND DUP3 MSTORE DUP5 AND PUSH1 0x20 DUP3 ADD MSTORE PUSH1 0x40 DUP2 ADD DUP4 SWAP1 MSTORE PUSH1 0x80 PUSH1 0x60 DUP3 ADD DUP2 SWAP1 MSTORE PUSH0 SWAP1 PUSH2 0x2478 SWAP1 DUP4 ADD DUP5 PUSH2 0x1E54 JUMP JUMPDEST SWAP7 SWAP6 POP POP POP POP POP POP JUMP JUMPDEST PUSH0 PUSH1 0x20 DUP3 DUP5 SUB SLT ISZERO PUSH2 0x2492 JUMPI PUSH0 DUP1 REVERT JUMPDEST DUP2 MLOAD PUSH2 0x1D8B DUP2 PUSH2 0x1D5B JUMP INVALID LOG2 PUSH5 0x6970667358 0x22 SLT KECCAK256 0xB1 EXTCODESIZE 0xD2 PUSH32 0xE976B9C80D7F049EC1EA9FFE4285F2DC41FB36A93AF9DAC3A399FF2B64736F6C PUSH4 0x43000819 STOP CALLER "
	},
	"Assembly": ".code\n  PUSH B\t\t\tDropStatus public dropStatus =...\n  DUP1 \t\t\tDropStatus public dropStatus =...\n  SLOAD \t\t\tDropStatus public dropStatus =...\n  PUSH FF\t\t\t\n  PUSH A0\t\t\t\n  SHL \t\t\t\n  NOT \t\t\t\n  AND \t\t\tDropStatus public dropStatus =...\n  SWAP1 \t\t\tDropStatus public dropStatus =...\n  SSTORE \t\t\tDropStatus public dropStatus =...\n  PUSH 12\t\t\tbool private revealed = false\n  DUP1 \t\t\tbool private revealed = false\n  SLOAD \t\t\tbool private revealed = false\n  PUSH FF\t\t\t\n  NOT \t\t\t\n  AND \t\t\tbool private revealed = false\n  SWAP1 \t\t\tbool private revealed = false\n  SSTORE \t\t\tbool private revealed = false\n  PUSH 100\t\t\tstring private _baseTokenURI =...\n  PUSH 40\t\t\tcontract Gloomers is\\n    Star...\n  MSTORE \t\t\tstring private _baseTokenURI =...\n  PUSH 5C\t\t\tstring private _baseTokenURI =...\n  PUSH 80\t\t\tcontract Gloomers is\\n    Star...\n  DUP2 \t\t\tstring private _baseTokenURI =...\n  DUP2 \t\t\tstring private _baseTokenURI =...\n  MSTORE \t\t\tstring private _baseTokenURI =...\n  SWAP1 \t\t\tcontract Gloomers is\\n    Star...\n  PUSH data CF74D66FE868420D434BE9B09CA8E38CFEA32209A70393FE7659CF3EB6C10014\t\t\tstring private _baseTokenURI =...\n  PUSH A0\t\t\tstring private _baseTokenURI =...\n  CODECOPY \t\t\tstring private _baseTokenURI =...\n  PUSH 13\t\t\tstring private _baseTokenURI =...\n  SWAP1 \t\t\tstring private _baseTokenURI =...\n  PUSH [tag] 4\t\t\tstring private _baseTokenURI =...\n  SWAP1 \t\t\tstring private _baseTokenURI =...\n  DUP3 \t\t\tstring private _baseTokenURI =...\n  PUSH [tag] 5\t\t\tstring private _baseTokenURI =...\n  JUMP \t\t\tstring private _baseTokenURI =...\ntag 4\t\t\tstring private _baseTokenURI =...\n  JUMPDEST \t\t\tstring private _baseTokenURI =...\n  POP \t\t\tstring private _baseTokenURI =...\n  CALLVALUE \t\t\tconstructor()\\n        StartTo...\n  DUP1 \t\t\tconstructor()\\n        StartTo...\n  ISZERO \t\t\tconstructor()\\n        StartTo...\n  PUSH [tag] 6\t\t\tconstructor()\\n        StartTo...\n  JUMPI \t\t\tconstructor()\\n        StartTo...\n  PUSH 0\t\t\tconstructor()\\n        StartTo...\n  DUP1 \t\t\tconstructor()\\n        StartTo...\n  REVERT \t\t\tconstructor()\\n        StartTo...\ntag 6\t\t\tconstructor()\\n        StartTo...\n  JUMPDEST \t\t\tconstructor()\\n        StartTo...\n  POP \t\t\tconstructor()\\n        StartTo...\n  CALLER \t\t\tmsg.sender\n  PUSH 40\t\t\tntity);\\n    }\\n\\n    function...\n  MLOAD \t\t\tntity);\\n    }\\n\\n    function...\n  DUP1 \t\t\tntity);\\n    }\\n\\n    function...\n  PUSH 40\t\t\tntity);\\n    }\\n\\n    function...\n  ADD \t\t\tntity);\\n    }\\n\\n    function...\n  PUSH 40\t\t\tntity);\\n    }\\n\\n    function...\n  MSTORE \t\t\tntity);\\n    }\\n\\n    function...\n  DUP1 \t\t\tntity);\\n    }\\n\\n    function...\n  PUSH 8\t\t\tntity);\\n    }\\n\\n    function...\n  DUP2 \t\t\tntity);\\n    }\\n\\n    function...\n  MSTORE \t\t\tntity);\\n    }\\n\\n    function...\n  PUSH 20\t\t\tntity);\\n    }\\n\\n    function...\n  ADD \t\t\tntity);\\n    }\\n\\n    function...\n  PUSH 476C6F6F6D657273\t\t\t\n  PUSH C0\t\t\t\n  SHL \t\t\t\n  DUP2 \t\t\tntity);\\n    }\\n\\n    function...\n  MSTORE \t\t\tntity);\\n    }\\n\\n    function...\n  POP \t\t\tntity);\\n    }\\n\\n    function...\n  PUSH 40\t\t\tntity);\\n    }\\n\\n    function...\n  MLOAD \t\t\tntity);\\n    }\\n\\n    function...\n  DUP1 \t\t\tntity);\\n    }\\n\\n    function...\n  PUSH 40\t\t\tntity);\\n    }\\n\\n    function...\n  ADD \t\t\tntity);\\n    }\\n\\n    function...\n  PUSH 40\t\t\tntity);\\n    }\\n\\n    function...\n  MSTORE \t\t\tntity);\\n    }\\n\\n    function...\n  DUP1 \t\t\tntity);\\n    }\\n\\n    function...\n  PUSH 8\t\t\tntity);\\n    }\\n\\n    function...\n  DUP2 \t\t\tntity);\\n    }\\n\\n    function...\n  MSTORE \t\t\tntity);\\n    }\\n\\n    function...\n  PUSH 20\t\t\tntity);\\n    }\\n\\n    function...\n  ADD \t\t\tntity);\\n    }\\n\\n    function...\n  PUSH 474C4F4F4D455253\t\t\t\n  PUSH C0\t\t\t\n  SHL \t\t\t\n  DUP2 \t\t\tntity);\\n    }\\n\\n    function...\n  MSTORE \t\t\tntity);\\n    }\\n\\n    function...\n  POP \t\t\tntity);\\n    }\\n\\n    function...\n  PUSH D06\t\t\t3334\n  PUSH [tag] 12\t\t\ton launched across Base, Solan...\n  DUP2 \t\t\t Solana, and \n  PUSH [tag] 13\t\t\ton launched across Base\n  PUSH 20\t\t\ton launched across Base\n  SHL \t\t\ton launched across Base\n  PUSH 20\t\t\ton launched across Base, Solan...\n  SHR \t\t\ton launched across Base, Solan...\n  JUMP \t\t\ton launched across Base, Solan...\ntag 12\t\t\ton launched across Base, Solan...\n  JUMPDEST \t\t\ton launched across Base, Solan...\n  POP \t\t\t\n  PUSH 2\t\t\ty,\\n  \n  PUSH [tag] 15\t\t\ty,\\n        by\n  DUP4 \t\t\t   by\n  DUP3 \t\t\ty,\\n  \n  PUSH [tag] 5\t\t\ty,\\n        by\n  JUMP \t\t\ty,\\n        by\ntag 15\t\t\ty,\\n        by\n  JUMPDEST \t\t\ty,\\n        by\n  POP \t\t\t\n  PUSH 3\t\t\tmerHash\n  PUSH [tag] 16\t\t\tmerHash_\\n    )\\n  \n  DUP3 \t\t\t   )\\n  \n  DUP3 \t\t\tmerHash\n  PUSH [tag] 5\t\t\tmerHash_\\n    )\\n  \n  JUMP \t\t\tmerHash_\\n    )\\n  \ntag 16\t\t\tmerHash_\\n    )\\n  \n  JUMPDEST \t\t\tmerHash_\\n    )\\n  \n  POP \t\t\t\n  PUSH [tag] 17\t\t\table\\n        dr\n  PUSH [tag] 18\t\t\table\\n        \n  JUMP \t\t\table\\n        dr\ntag 17\t\t\table\\n        dr\n  JUMPDEST \t\t\table\\n        dr\n  PUSH 0\t\t\trnal\\n        \n  SSTORE \t\t\trnal\\n        payable\\n       ...\n  PUSH [tag] 19\t\t\t       fundsAtt\n  PUSH [tag] 18\t\t\t       fundsA\n  JUMP \t\t\t       fundsAtt\ntag 19\t\t\t       fundsAtt\n  JUMPDEST \t\t\t       fundsAtt\n  POP \t\t\t\n  POP \t\t\t\n  POP \t\t\t\n  PUSH 1\t\t\t\n  PUSH 1\t\t\t\n  PUSH A0\t\t\t\n  SHL \t\t\t\n  SUB \t\t\t\n  DUP2 \t\t\t_TIMESTAMP =\\n        WHITE\n  AND \t\t\t_TIMESTAMP =\\n        WHITE\n  PUSH [tag] 26\t\t\tMINT_TIMESTAMP =\\n        WHIT...\n  JUMPI \t\t\tMINT_TIMESTAMP =\\n        WHIT...\n  PUSH 40\t\t\t3 hours;\\n\\n    enum DropStatu...\n  MLOAD \t\t\t3 hours;\\n\\n    enum DropStatu...\n  PUSH 1E4FBDF7\t\t\t\n  PUSH E0\t\t\t\n  SHL \t\t\t\n  DUP2 \t\t\t3 hours;\\n\\n    enum DropStatu...\n  MSTORE \t\t\t3 hours;\\n\\n    enum DropStatu...\n  PUSH 0\t\t\ts\n  PUSH 4\t\t\t3 hours;\\n\\n    enum DropStatu...\n  DUP3 \t\t\t3 hours;\\n\\n    enum DropStatu...\n  ADD \t\t\t3 hours;\\n\\n    enum DropStatu...\n  MSTORE \t\t\t{\\n        if (\\n            b...\n  PUSH 24\t\t\tmodifier whitelist\n  ADD \t\t\tmodifier whitelist\ntag 27\t\t\t3 hours;\\n\\n    enum DropStatu...\n  JUMPDEST \t\t\t3 hours;\\n\\n    enum DropStatu...\n  PUSH 40\t\t\t3 hours;\\n\\n    enum DropStatu...\n  MLOAD \t\t\t3 hours;\\n\\n    enum DropStatu...\n  DUP1 \t\t\t3 hours;\\n\\n    enum DropStatu...\n  SWAP2 \t\t\t3 hours;\\n\\n    enum DropStatu...\n  SUB \t\t\t3 hours;\\n\\n    enum DropStatu...\n  SWAP1 \t\t\t3 hours;\\n\\n    enum DropStatu...\n  REVERT \t\t\t3 hours;\\n\\n    enum DropStatu...\ntag 26\t\t\tMINT_TIMESTAMP =\\n        WHIT...\n  JUMPDEST \t\t\tMINT_TIMESTAMP =\\n        WHIT...\n  PUSH [tag] 29\t\t\t       PRESALE,\\n        WHITE...\n  DUP2 \t\t\t     WHITELI\n  PUSH [tag] 30\t\t\t       PRESALE,\\n  \n  JUMP \t\t\t       PRESALE,\\n        WHITE...\ntag 29\t\t\t       PRESALE,\\n        WHITE...\n  JUMPDEST \t\t\t       PRESALE,\\n        WHITE...\n  POP \t\t\t\n  PUSH [tag] 32\t\t\t_setDefaultRoyalty(msg.sender,...\n  CALLER \t\t\tmsg.sender\n  PUSH 1F4\t\t\t500\n  PUSH [tag] 33\t\t\t_setDefaultRoyalty\n  JUMP \t\t\t_setDefaultRoyalty(msg.sender,...\ntag 32\t\t\t_setDefaultRoyalty(msg.sender,...\n  JUMPDEST \t\t\t_setDefaultRoyalty(msg.sender,...\n  PUSH [tag] 57\t\t\tcontract Gloomers is\\n    Star...\n  JUMP \t\t\tcontract Gloomers is\\n    Star...\ntag 13\t\t\t START_TOKEN_ID = 3334;\\n    u...\n  JUMPDEST \t\t\t START_TOKEN_ID = 3334;\\n    u...\n  PUSH 28F75032\t\t\te63ac7c7d1e7aa58b7c33426665c\n  SSTORE \t\t\t1d8d9dfe63ac7c7d1e7aa58b7c3342...\n  JUMP \t\t\t START_TOKEN_ID = 3334;\\n    u...\ntag 18\t\t\tfunction _startTokenId() inter...\n  JUMPDEST \t\t\tfunction _startTokenId() inter...\n  PUSH 0\t\t\tuint256\n  PUSH [tag] 37\t\t\tstartTokenId()\n  PUSH 28F75032\t\t\t ERC2981,\\n    Ownable\\n{\\n   ...\n  SLOAD \t\t\te,\\n    ERC2981,\\n    Ownable\\...\n  SWAP1 \t\t\te,\\n    ERC2981,\\n    Ownable\\...\n  JUMP \t\t\tteleburning to Bitcoin\\n */\\nc...\ntag 37\t\t\tstartTokenId()\n  JUMPDEST \t\t\tstartTokenId()\n  SWAP1 \t\t\treturn startTokenId()\n  POP \t\t\treturn startTokenId()\n  SWAP1 \t\t\tfunction _startTokenId() inter...\n  JUMP \t\t\tfunction _startTokenId() inter...\ntag 30\t\t\ttive();\\n        }\\n        _;...\n  JUMPDEST \t\t\ttive();\\n        }\\n        _;...\n  PUSH B\t\t\t  bloc\n  DUP1 \t\t\t  bloc\n  SLOAD \t\t\t  bloc\n  PUSH 1\t\t\t\n  PUSH 1\t\t\t\n  PUSH A0\t\t\t\n  SHL \t\t\t\n  SUB \t\t\t\n  DUP4 \t\t\tp < WHITELIST_STA\n  DUP2 \t\t\tp < WHITELIST_STA\n  AND \t\t\tp < WHITELIST_STA\n  PUSH 1\t\t\t\n  PUSH 1\t\t\t\n  PUSH A0\t\t\t\n  SHL \t\t\t\n  SUB \t\t\t\n  NOT \t\t\t\n  DUP4 \t\t\tp < WHITELIST_STA\n  AND \t\t\tp < WHITELIST_STA\n  DUP2 \t\t\tp < WHITELIST_STA\n  OR \t\t\tp < WHITELIST_STA\n  SWAP1 \t\t\tp < WHITELIST_STA\n  SWAP4 \t\t\tp < WHITELIST_STA\n  SSTORE \t\t\tp < WHITELIST_STA\n  PUSH 40\t\t\t\\n            block.timestamp ...\n  MLOAD \t\t\t\\n            block.timestamp ...\n  SWAP2 \t\t\t  bloc\n  AND \t\t\t  bloc\n  SWAP2 \t\t\t  bloc\n  SWAP1 \t\t\tp < WHITELIST_STA\n  DUP3 \t\t\t  bloc\n  SWAP1 \t\t\t  bloc\n  PUSH 8BE0079C531659141344CD1FD0A4F28419497F9722A3DAAFE3B4186F6B6457E0\t\t\t\\n            block.timestamp ...\n  SWAP1 \t\t\t\\n            block.timestamp ...\n  PUSH 0\t\t\t    if (\\n       \n  SWAP1 \t\t\t    if (\\n       \n  LOG3 \t\t\t\\n            block.timestamp ...\n  POP \t\t\te() {\\n        if (\\n         ...\n  POP \t\t\ttive();\\n        }\\n        _;...\n  JUMP \t\t\ttive();\\n        }\\n        _;...\ntag 33\t\t\tP) {\\n            revert Claim...\n  JUMPDEST \t\t\tP) {\\n            revert Claim...\n  PUSH 2710\t\t\t;\\n   \n  PUSH 1\t\t\t\n  PUSH 1\t\t\t\n  PUSH 60\t\t\t\n  SHL \t\t\t\n  SUB \t\t\t\n  DUP3 \t\t\t.sender] == 0) {\\n         \n  AND \t\t\t.sender] == 0) {\\n         \n  DUP2 \t\t\t.sender] == 0) {\\n         \n  LT \t\t\t\n  ISZERO \t\t\t[msg.sender] == 0) {\\n        ...\n  PUSH [tag] 45\t\t\t[msg.sender] == 0) {\\n        ...\n  JUMPI \t\t\t[msg.sender] == 0) {\\n        ...\n  PUSH 40\t\t\tilable(uint256 quantity) {\\n  ...\n  MLOAD \t\t\tilable(uint256 quantity) {\\n  ...\n  PUSH 6F483D09\t\t\t\n  PUSH E0\t\t\t\n  SHL \t\t\t\n  DUP2 \t\t\tilable(uint256 quantity) {\\n  ...\n  MSTORE \t\t\tilable(uint256 quantity) {\\n  ...\n  PUSH 1\t\t\t\n  PUSH 1\t\t\t\n  PUSH 60\t\t\t\n  SHL \t\t\t\n  SUB \t\t\t\n  DUP4 \t\t\tblock.timestamp < PUBLIC_MINT_...\n  AND \t\t\tblock.timestamp < PUBLIC_MINT_...\n  PUSH 4\t\t\tilable(uint256 quantity) {\\n  ...\n  DUP3 \t\t\tilable(uint256 quantity) {\\n  ...\n  ADD \t\t\tilable(uint256 quantity) {\\n  ...\n  MSTORE \t\t\te() {\\n        if (block.times...\n  PUSH 24\t\t\t       revert Publ\n  DUP2 \t\t\t       revert Publ\n  ADD \t\t\t       revert Publ\n  DUP3 \t\t\t{\\n            revert PublicMi...\n  SWAP1 \t\t\t{\\n            revert PublicMi...\n  MSTORE \t\t\t{\\n            revert PublicMi...\n  PUSH 44\t\t\t   modifier public\n  ADD \t\t\t   modifier public\n  PUSH [tag] 27\t\t\tilable(uint256 quantity) {\\n  ...\n  JUMP \t\t\tIMESTAMP ||\\n            block...\ntag 45\t\t\t[msg.sender] == 0) {\\n        ...\n  JUMPDEST \t\t\t[msg.sender] == 0) {\\n        ...\n  PUSH 1\t\t\t\n  PUSH 1\t\t\t\n  PUSH A0\t\t\t\n  SHL \t\t\t\n  SUB \t\t\t\n  DUP4 \t\t\t 1 > END_TOKEN_ID - _p\n  AND \t\t\t 1 > END_TOKEN_ID - _p\n  PUSH [tag] 48\t\t\t() - 1 > END_TOKEN_ID - _presa...\n  JUMPI \t\t\t() - 1 > END_TOKEN_ID - _presa...\n  PUSH 40\t\t\t    ) {\\n            revert Ex...\n  MLOAD \t\t\t    ) {\\n            revert Ex...\n  PUSH 5B6CC805\t\t\t\n  PUSH E1\t\t\t\n  SHL \t\t\t\n  DUP2 \t\t\t    ) {\\n            revert Ex...\n  MSTORE \t\t\t    ) {\\n            revert Ex...\n  PUSH 0\t\t\t;\n  PUSH 4\t\t\t    ) {\\n            revert Ex...\n  DUP3 \t\t\t    ) {\\n            revert Ex...\n  ADD \t\t\t    ) {\\n            revert Ex...\n  MSTORE \t\t\t{\\n        if (\\n            b...\n  PUSH 24\t\t\tmodifier whitelist\n  ADD \t\t\tmodifier whitelist\n  PUSH [tag] 27\t\t\t    ) {\\n            revert Ex...\n  JUMP \t\t\t(block.timestamp > WHITELIST_S...\ntag 48\t\t\t() - 1 > END_TOKEN_ID - _presa...\n  JUMPDEST \t\t\t() - 1 > END_TOKEN_ID - _presa...\n  POP \t\t\t\n  PUSH 40\t\t\tdsAttached(uint256 quantity) {...\n  DUP1 \t\t\tdsAttached(uint256 quantity) {...\n  MLOAD \t\t\tdsAttached(uint256 quantity) {...\n  DUP1 \t\t\tdsAttached(uint256 quantity) {...\n  DUP3 \t\t\tdsAttached(uint256 quantity) {...\n  ADD \t\t\tdsAttached(uint256 quantity) {...\n  SWAP1 \t\t\tdsAttached(uint256 quantity) {...\n  SWAP2 \t\t\tdsAttached(uint256 quantity) {...\n  MSTORE \t\t\tdsAttached(uint256 quantity) {...\n  PUSH 1\t\t\t\n  PUSH 1\t\t\t\n  PUSH A0\t\t\t\n  SHL \t\t\t\n  SUB \t\t\t\n  SWAP1 \t\t\tdsAttached(uint256 quantity) {...\n  SWAP3 \t\t\tdsAttached(uint256 quantity) {...\n  AND \t\t\tdsAttached(uint256 quantity) {...\n  DUP1 \t\t\tdsAttached(uint256 quantity) {...\n  DUP4 \t\t\tdsAttached(uint256 quantity) {...\n  MSTORE \t\t\tdsAttached(uint256 quantity) {...\n  PUSH 1\t\t\t\n  PUSH 1\t\t\t\n  PUSH 60\t\t\t\n  SHL \t\t\t\n  SUB \t\t\t\n  SWAP1 \t\t\tdsAttached(uint256 quantity) {...\n  SWAP2 \t\t\tdsAttached(uint256 quantity) {...\n  AND \t\t\tdsAttached(uint256 quantity) {...\n  PUSH 20\t\t\tdsAttached(uint256 quantity) {...\n  SWAP1 \t\t\tdsAttached(uint256 quantity) {...\n  SWAP3 \t\t\tdsAttached(uint256 quantity) {...\n  ADD \t\t\tdsAttached(uint256 quantity) {...\n  DUP3 \t\t\tdsAttached(uint256 quantity) {...\n  SWAP1 \t\t\tdsAttached(uint256 quantity) {...\n  MSTORE \t\t\tdsAttached(uint256 quantity) {...\n  PUSH 1\t\t\t\n  PUSH A0\t\t\t\n  SHL \t\t\t\n  SWAP1 \t\t\t   }\\n\\n    modifier fundsAtta...\n  SWAP2 \t\t\t   }\\n\\n    modifier fundsAtta...\n  MUL \t\t\t   }\\n\\n    modifier fundsAtta...\n  OR \t\t\t   }\\n\\n    modifier fundsAtta...\n  PUSH 9\t\t\t   }\\n\\n    modifier \n  SSTORE \t\t\t   }\\n\\n    modifier fundsAtta...\n  JUMP \t\t\tP) {\\n            revert Claim...\ntag 52\t\t\tRC721AQueryable} from \"./ERC72...\n  JUMPDEST \t\t\tRC721AQueryable} from \"./ERC72...\n  PUSH 4E487B71\t\t\tTokenIdHel\n  PUSH E0\t\t\tSta\n  SHL \t\t\trt {StartTokenIdHelp\n  PUSH 0\t\t\tm\n  MSTORE \t\t\tsol\";\\nimport {StartTokenIdHel...\n  PUSH 41\t\t\tenId\n  PUSH 4\t\t\tT\n  MSTORE \t\t\t./StartTokenIdH\n  PUSH 24\t\t\t{Own\n  PUSH 0\t\t\tr\n  REVERT \t\t\t\";\\nimport {Owna\ntag 53\t\t\t@openzeppelin/contracts/access...\n  JUMPDEST \t\t\t@openzeppelin/contracts/access...\n  PUSH 1\t\t\ti\n  DUP2 \t\t\tppelin/contr\n  DUP2 \t\t\tppelin/contr\n  SHR \t\t\tppelin/contr\n  SWAP1 \t\t\tppelin/contr\n  DUP3 \t\t\t*\\n * @title \n  AND \t\t\t*\\n * @title \n  DUP1 \t\t\t*\\n * @title \n  PUSH [tag] 61\t\t\t#3334 - #6666\\n * @author soko...\n  JUMPI \t\t\t#3334 - #6666\\n * @author soko...\n  PUSH 7F\t\t\t://w\n  DUP3 \t\t\t | htt\n  AND \t\t\tLabs | https://ww\n  SWAP2 \t\t\th | Gloom Labs | https://ww\n  POP \t\t\th | Gloom Labs | https://ww\ntag 61\t\t\t#3334 - #6666\\n * @author soko...\n  JUMPDEST \t\t\t#3334 - #6666\\n * @author soko...\n  PUSH 20\t\t\tre\n  DUP3 \t\t\tt with\n  LT \t\t\tract with pres\n  DUP2 \t\t\t * @dev ERC721A co\n  SUB \t\t\tom\\n * @dev ERC721A contract w...\n  PUSH [tag] 62\t\t\tn.com\\n * @dev ERC721A contrac...\n  JUMPI \t\t\tn.com\\n * @dev ERC721A contrac...\n  PUSH 4E487B71\t\t\t\\n * @notic\n  PUSH E0\t\t\tiod\n  SHL \t\t\t periods.\\n * @notice\n  PUSH 0\t\t\ti\n  MSTORE \t\t\tic minting periods.\\n * @notic...\n  PUSH 22\t\t\tolle\n  PUSH 4\t\t\tP\n  MSTORE \t\t\t 10k PFP collec\n  PUSH 24\t\t\tse, \n  PUSH 0\t\t\t \n  REVERT \t\t\t across Base, S\ntag 62\t\t\tn.com\\n * @dev ERC721A contrac...\n  JUMPDEST \t\t\tn.com\\n * @dev ERC721A contrac...\n  POP \t\t\tn.com\\n * @dev ERC721A contrac...\n  SWAP2 \t\t\t@openzeppelin/contracts/access...\n  SWAP1 \t\t\t@openzeppelin/contracts/access...\n  POP \t\t\t@openzeppelin/contracts/access...\n  JUMP \t\t\t@openzeppelin/contracts/access...\ntag 55\t\t\t  Ownable\\n{\\n    uint256 publ...\n  JUMPDEST \t\t\t  Ownable\\n{\\n    uint256 publ...\n  PUSH 1F\t\t\tD \n  DUP3 \t\t\tKEN\n  GT \t\t\t_TOKEN_ID =\n  ISZERO \t\t\tEND_TOKEN_ID = 6666;\\n    uint...\n  PUSH [tag] 65\t\t\tEND_TOKEN_ID = 6666;\\n    uint...\n  JUMPI \t\t\tEND_TOKEN_ID = 6666;\\n    uint...\n  DUP1 \t\t\tt PRI\n  PUSH 0\t\t\tt\n  MSTORE \t\t\tic constant PRIC\n  PUSH 20\t\t\tpubl\n  PUSH 0\t\t\t5\n  KECCAK256 \t\t\t\\n    uint256 publi\n  PUSH 1F\t\t\tRO\n  DUP5 \t\t\tc constant\n  ADD \t\t\tublic constant PROV\n  PUSH 5\t\t\t2\n  SHR \t\t\ttes32 public constant PROVE\n  DUP2 \t\t\t    \n  ADD \t\t\t 3;\\n    bytes32 public consta...\n  PUSH 20\t\t\t201d\n  DUP6 \t\t\t 0x5158cf3\n  LT \t\t\t    0x5158cf3ac201d8\n  ISZERO \t\t\t       0x5158cf3ac201d8d9dfe63...\n  PUSH [tag] 66\t\t\t       0x5158cf3ac201d8d9dfe63...\n  JUMPI \t\t\t       0x5158cf3ac201d8d9dfe63...\n  POP \t\t\t\n  DUP1 \t\t\t58b7\ntag 66\t\t\t       0x5158cf3ac201d8d9dfe63...\n  JUMPDEST \t\t\t       0x5158cf3ac201d8d9dfe63...\n  PUSH 1F\t\t\tns\n  DUP5 \t\t\tic \n  ADD \t\t\tpublic const\n  PUSH 5\t\t\t5\n  SHR \t\t\tint256 public consta\n  DUP3 \t\t\t\\n   \n  ADD \t\t\te2f;\\n    uint256 public const...\n  SWAP2 \t\t\t3e0003e095e2f;\\n    uint256 pu...\n  POP \t\t\t3e0003e095e2f;\\n    uint256 pu...\ntag 67\t\t\tay 04 2024 16:00:00 GMT\\n    u...\n  JUMPDEST \t\t\tay 04 2024 16:00:00 GMT\\n    u...\n  DUP2 \t\t\t0 \n  DUP2 \t\t\t16:00\n  LT \t\t\t24 16:00:00 G\n  ISZERO \t\t\tay 04 2024 16:00:00 GMT\\n    u...\n  PUSH [tag] 69\t\t\tay 04 2024 16:00:00 GMT\\n    u...\n  JUMPI \t\t\tay 04 2024 16:00:00 GMT\\n    u...\n  PUSH 0\t\t\t \n  DUP2 \t\t\t_TIMESTAMP =\\n   \n  SSTORE \t\t\t_TIMESTAMP =\\n   \n  PUSH 1\t\t\to\n  ADD \t\t\t56 public con\n  PUSH [tag] 67\t\t\tay 04 2024 16:00:00 GMT\\n    u...\n  JUMP \t\t\tay 04 2024 16:00:00 GMT\\n    u...\ntag 69\t\t\tay 04 2024 16:00:00 GMT\\n    u...\n  JUMPDEST \t\t\tay 04 2024 16:00:00 GMT\\n    u...\n  POP \t\t\t4 2\n  POP \t\t\t4 2\ntag 65\t\t\tEND_TOKEN_ID = 6666;\\n    uint...\n  JUMPDEST \t\t\tEND_TOKEN_ID = 6666;\\n    uint...\n  POP \t\t\t  Ownable\\n{\\n    uint256 publ...\n  POP \t\t\t  Ownable\\n{\\n    uint256 publ...\n  POP \t\t\t  Ownable\\n{\\n    uint256 publ...\n  JUMP \t\t\t  Ownable\\n{\\n    uint256 publ...\ntag 5\t\t\tD;\\n\\n    mapping(address => u...\n  JUMPDEST \t\t\tD;\\n\\n    mapping(address => u...\n  DUP2 \t\t\tsByWallet;\n  MLOAD \t\t\tsByWallet;\n  PUSH 1\t\t\t\n  PUSH 1\t\t\t\n  PUSH 40\t\t\t\n  SHL \t\t\t\n  SUB \t\t\t\n  DUP2 \t\t\t(uint256 => address) private _\n  GT \t\t\t(uint256 => address) private _\n  ISZERO \t\t\ting(uint256 => address) privat...\n  PUSH [tag] 73\t\t\ting(uint256 => address) privat...\n  JUMPI \t\t\ting(uint256 => address) privat...\n  PUSH [tag] 73\t\t\tsaleWalletsById;\\n \n  PUSH [tag] 52\t\t\tsaleWalletsById;\\n \n  JUMP \t\t\tsaleWalletsById;\\n \ntag 73\t\t\tsaleWalletsById;\\n \n  JUMPDEST \t\t\tsaleWalletsById;\\n \n  PUSH [tag] 74\t\t\tprivate _presalesCount;\\n    u...\n  DUP2 \t\t\tmerHas\n  PUSH [tag] 75\t\t\tleSupplyOffset;\\n    bytes32 p...\n  DUP5 \t\t\tate \n  SLOAD \t\t\t2 private g\n  PUSH [tag] 53\t\t\tleSupplyOffset;\\n    bytes32 p...\n  JUMP \t\t\tleSupplyOffset;\\n    bytes32 p...\ntag 75\t\t\tleSupplyOffset;\\n    bytes32 p...\n  JUMPDEST \t\t\tleSupplyOffset;\\n    bytes32 p...\n  DUP5 \t\t\t_pre\n  PUSH [tag] 55\t\t\tprivate _presalesCount;\\n    u...\n  JUMP \t\t\tprivate _presalesCount;\\n    u...\ntag 74\t\t\tprivate _presalesCount;\\n    u...\n  JUMPDEST \t\t\tprivate _presalesCount;\\n    u...\n  PUSH 20\t\t\te _b\n  DUP1 \t\t\te _b\n  PUSH 1F\t\t\tfs\n  DUP4 \t\t\token.xyz/ipfs/\n  GT \t\t\token.xyz/ipfs/\n  PUSH 1\t\t\tr\n  DUP2 \t\t\trgagzrjvavrsjtnz6qhqvnlbkz3vh5...\n  EQ \t\t\trgagzrjvavrsjtnz6qhqvnlbkz3vh5...\n  PUSH [tag] 77\t\t\trgagzrjvavrsjtnz6qhqvnlbkz3vh5...\n  JUMPI \t\t\trgagzrjvavrsjtnz6qhqvnlbkz3vh5...\n  PUSH 0\t\t\ts\n  DUP5 \t\t\tnEOACa\n  ISZERO \t\t\t NonEOACaller();\\n\\n    modifi...\n  PUSH [tag] 78\t\t\t NonEOACaller();\\n\\n    modifi...\n  JUMPI \t\t\t NonEOACaller();\\n\\n    modifi...\n  POP \t\t\t\n  DUP6 \t\t\tif (dropStatus == D\n  DUP4 \t\t\tif (dropStatus == D\n  ADD \t\t\tif (dropStatus == D\n  MLOAD \t\t\t      if (dropStatus == Dr\ntag 78\t\t\t NonEOACaller();\\n\\n    modifi...\n  JUMPDEST \t\t\t NonEOACaller();\\n\\n    modifi...\n  PUSH 0\t\t\t\n  NOT \t\t\t\n  PUSH 3\t\t\ta\n  DUP7 \t\t\topStatus pu\n  SWAP1 \t\t\topStatus pu\n  SHL \t\t\topStatus pu\n  SHR \t\t\t  DropStatus public drop\n  NOT \t\t\t\\n\\n    DropStatus public drop...\n  AND \t\t\tBLIC\\n    }\\n\\n    DropStatus ...\n  PUSH 1\t\t\t \n  DUP6 \t\t\tus = DropSt\n  SWAP1 \t\t\tus = DropSt\n  SHL \t\t\tus = DropSt\n  OR \t\t\t PUBLIC\\n    }\\n\\n    DropStat...\n  DUP6 \t\t\t      revert MintingDisabled()...\n  SSTORE \t\t\t      revert MintingDisabled()...\n  PUSH [tag] 76\t\t\t.gloomtoken.xyz/ipfs/bafybeidn...\n  JUMP \t\t\t.gloomtoken.xyz/ipfs/bafybeidn...\ntag 77\t\t\trgagzrjvavrsjtnz6qhqvnlbkz3vh5...\n  JUMPDEST \t\t\trgagzrjvavrsjtnz6qhqvnlbkz3vh5...\n  PUSH 0\t\t\tr\n  DUP6 \t\t\tIdHelper,\\n    \n  DUP2 \t\t\tIdHelper,\\n    \n  MSTORE \t\t\tIdHelper,\\n    \n  PUSH 20\t\t\t\\n   \n  DUP2 \t\t\t21AQueryable,\\n    \n  KECCAK256 \t\t\t21AQueryable,\\n    \n  PUSH 1F\t\t\t\n  NOT \t\t\t\n  DUP7 \t\t\tkj236ylsxwpmsy\";\\n\\n  \n  AND \t\t\tkj236ylsxwpmsy\";\\n\\n  \n  SWAP2 \t\t\tkj236ylsxwpmsy\";\\n\\n  \ntag 81\t\t\tess indexed _to, uint256 _quan...\n  JUMPDEST \t\t\tess indexed _to, uint256 _quan...\n  DUP3 \t\t\to, uint\n  DUP2 \t\t\t \n  LT \t\t\txed _to, uint2\n  ISZERO \t\t\tess indexed _to, uint256 _quan...\n  PUSH [tag] 83\t\t\tess indexed _to, uint256 _quan...\n  JUMPI \t\t\tess indexed _to, uint256 _quan...\n  DUP9 \t\t\t   event RegisterPr\n  DUP7 \t\t\t   event RegisterPr\n  ADD \t\t\t   event RegisterPr\n  MLOAD \t\t\tty);\\n    event RegisterPre\n  DUP3 \t\t\tuint256 _quantity);\\n    event...\n  SSTORE \t\t\tuint256 _quantity);\\n    event...\n  SWAP5 \t\t\tress indexed _to, uint256 _\n  DUP5 \t\t\tress indexed _to, uint256 _\n  ADD \t\t\tress indexed _to, uint256 _\n  SWAP5 \t\t\tress indexed _to, uint256 _\n  PUSH 1\t\t\ti\n  SWAP1 \t\t\tnt256 _quantit\n  SWAP2 \t\t\tnt256 _quantit\n  ADD \t\t\tnt256 _quantit\n  SWAP1 \t\t\tnt256 _quantit\n  DUP5 \t\t\ttity);\\n    event Mi\n  ADD \t\t\ttity);\\n    event Mi\n  PUSH [tag] 81\t\t\tess indexed _to, uint256 _quan...\n  JUMP \t\t\tess indexed _to, uint256 _quan...\ntag 83\t\t\tess indexed _to, uint256 _quan...\n  JUMPDEST \t\t\tess indexed _to, uint256 _quan...\n  POP \t\t\tind\n  DUP6 \t\t\ttus _d\n  DUP3 \t\t\ts(DropS\n  LT \t\t\tatus(DropStatus _dr\n  ISZERO \t\t\tpStatus(DropStatus _dropStatus...\n  PUSH [tag] 84\t\t\tpStatus(DropStatus _dropStatus...\n  JUMPI \t\t\tpStatus(DropStatus _dropStatus...\n  DUP8 \t\t\tlicMintNotActive();\n  DUP6 \t\t\tlicMintNotActive();\n  ADD \t\t\tlicMintNotActive();\n  MLOAD \t\t\tor PublicMintNotActive();\\n\n  PUSH 0\t\t\t\n  NOT \t\t\t\n  PUSH 3\t\t\t \n  DUP9 \t\t\t);\\n    error C\n  SWAP1 \t\t\t);\\n    error C\n  SHL \t\t\t);\\n    error C\n  PUSH F8\t\t\timN\n  AND \t\t\tive();\\n    error ClaimNo\n  SHR \t\t\ttActive();\\n    error ClaimNot...\n  NOT \t\t\tleNotActive();\\n    error Clai...\n  AND \t\t\t    error PresaleNotActive();\\...\n  DUP2 \t\t\tstNotActive();\\n    error Pres...\n  SSTORE \t\t\tstNotActive();\\n    error Pres...\ntag 84\t\t\tpStatus(DropStatus _dropStatus...\n  JUMPDEST \t\t\tpStatus(DropStatus _dropStatus...\n  POP \t\t\tpStatus(DropStatus _dropStatus...\n  POP \t\t\tpStatus(DropStatus _dropStatus...\n  PUSH 1\t\t\t\\n\n  DUP5 \t\t\tWallet\n  PUSH 1\t\t\tP\n  SHL \t\t\tMintPerWallet(\n  ADD \t\t\tsMaxMintPerWallet();\\n \n  DUP6 \t\t\tExce\n  SSTORE \t\t\t error ExceedsMaxMintPerWallet...\ntag 76\t\t\t.gloomtoken.xyz/ipfs/bafybeidn...\n  JUMPDEST \t\t\t.gloomtoken.xyz/ipfs/bafybeidn...\n  POP \t\t\t.gloomtoken.xyz/ipfs/bafybeidn...\n  POP \t\t\t.gloomtoken.xyz/ipfs/bafybeidn...\n  POP \t\t\t.gloomtoken.xyz/ipfs/bafybeidn...\n  POP \t\t\t.gloomtoken.xyz/ipfs/bafybeidn...\n  POP \t\t\tD;\\n\\n    mapping(address => u...\n  POP \t\t\tD;\\n\\n    mapping(address => u...\n  JUMP \t\t\tD;\\n\\n    mapping(address => u...\ntag 57\t\t\tIMESTAMP ||\\n            block...\n  JUMPDEST \t\t\tIMESTAMP ||\\n            block...\n  PUSH #[$] 0000000000000000000000000000000000000000000000000000000000000000\t\t\tcontract Gloomers is\\n    Star...\n  DUP1 \t\t\tcontract Gloomers is\\n    Star...\n  PUSH [$] 0000000000000000000000000000000000000000000000000000000000000000\t\t\tcontract Gloomers is\\n    Star...\n  PUSH 0\t\t\tcontract Gloomers is\\n    Star...\n  CODECOPY \t\t\tcontract Gloomers is\\n    Star...\n  PUSH 0\t\t\tcontract Gloomers is\\n    Star...\n  RETURN \t\t\tcontract Gloomers is\\n    Star...\n.data\n  0:\n    .code\n      PUSH 80\t\t\tcontract Gloomers is\\n    Star...\n      PUSH 40\t\t\tcontract Gloomers is\\n    Star...\n      MSTORE \t\t\tcontract Gloomers is\\n    Star...\n      PUSH 4\t\t\tcontract Gloomers is\\n    Star...\n      CALLDATASIZE \t\t\tcontract Gloomers is\\n    Star...\n      LT \t\t\tcontract Gloomers is\\n    Star...\n      PUSH [tag] 1\t\t\tcontract Gloomers is\\n    Star...\n      JUMPI \t\t\tcontract Gloomers is\\n    Star...\n      PUSH 0\t\t\tcontract Gloomers is\\n    Star...\n      CALLDATALOAD \t\t\tcontract Gloomers is\\n    Star...\n      PUSH E0\t\t\tcontract Gloomers is\\n    Star...\n      SHR \t\t\tcontract Gloomers is\\n    Star...\n      DUP1 \t\t\tcontract Gloomers is\\n    Star...\n      PUSH 833B9499\t\t\tcontract Gloomers is\\n    Star...\n      GT \t\t\tcontract Gloomers is\\n    Star...\n      PUSH [tag] 44\t\t\tcontract Gloomers is\\n    Star...\n      JUMPI \t\t\tcontract Gloomers is\\n    Star...\n      DUP1 \t\t\tcontract Gloomers is\\n    Star...\n      PUSH B19960E6\t\t\tcontract Gloomers is\\n    Star...\n      GT \t\t\tcontract Gloomers is\\n    Star...\n      PUSH [tag] 45\t\t\tcontract Gloomers is\\n    Star...\n      JUMPI \t\t\tcontract Gloomers is\\n    Star...\n      DUP1 \t\t\tcontract Gloomers is\\n    Star...\n      PUSH C87B56DD\t\t\tcontract Gloomers is\\n    Star...\n      GT \t\t\tcontract Gloomers is\\n    Star...\n      PUSH [tag] 46\t\t\tcontract Gloomers is\\n    Star...\n      JUMPI \t\t\tcontract Gloomers is\\n    Star...\n      DUP1 \t\t\tcontract Gloomers is\\n    Star...\n      PUSH C87B56DD\t\t\tcontract Gloomers is\\n    Star...\n      EQ \t\t\tcontract Gloomers is\\n    Star...\n      PUSH [tag] 38\t\t\tcontract Gloomers is\\n    Star...\n      JUMPI \t\t\tcontract Gloomers is\\n    Star...\n      DUP1 \t\t\tcontract Gloomers is\\n    Star...\n      PUSH E6798BAA\t\t\tcontract Gloomers is\\n    Star...\n      EQ \t\t\tcontract Gloomers is\\n    Star...\n      PUSH [tag] 39\t\t\tcontract Gloomers is\\n    Star...\n      JUMPI \t\t\tcontract Gloomers is\\n    Star...\n      DUP1 \t\t\tcontract Gloomers is\\n    Star...\n      PUSH E985E9C5\t\t\tcontract Gloomers is\\n    Star...\n      EQ \t\t\tcontract Gloomers is\\n    Star...\n      PUSH [tag] 40\t\t\tcontract Gloomers is\\n    Star...\n      JUMPI \t\t\tcontract Gloomers is\\n    Star...\n      DUP1 \t\t\tcontract Gloomers is\\n    Star...\n      PUSH F2FDE38B\t\t\tcontract Gloomers is\\n    Star...\n      EQ \t\t\tcontract Gloomers is\\n    Star...\n      PUSH [tag] 41\t\t\tcontract Gloomers is\\n    Star...\n      JUMPI \t\t\tcontract Gloomers is\\n    Star...\n      DUP1 \t\t\tcontract Gloomers is\\n    Star...\n      PUSH FE776953\t\t\tcontract Gloomers is\\n    Star...\n      EQ \t\t\tcontract Gloomers is\\n    Star...\n      PUSH [tag] 42\t\t\tcontract Gloomers is\\n    Star...\n      JUMPI \t\t\tcontract Gloomers is\\n    Star...\n      DUP1 \t\t\tcontract Gloomers is\\n    Star...\n      PUSH FF1B6556\t\t\tcontract Gloomers is\\n    Star...\n      EQ \t\t\tcontract Gloomers is\\n    Star...\n      PUSH [tag] 43\t\t\tcontract Gloomers is\\n    Star...\n      JUMPI \t\t\tcontract Gloomers is\\n    Star...\n      STOP \t\t\tcontract Gloomers is\\n    Star...\n    tag 46\t\t\tcontract Gloomers is\\n    Star...\n      JUMPDEST \t\t\tcontract Gloomers is\\n    Star...\n      DUP1 \t\t\tcontract Gloomers is\\n    Star...\n      PUSH B19960E6\t\t\tcontract Gloomers is\\n    Star...\n      EQ \t\t\tcontract Gloomers is\\n    Star...\n      PUSH [tag] 33\t\t\tcontract Gloomers is\\n    Star...\n      JUMPI \t\t\tcontract Gloomers is\\n    Star...\n      DUP1 \t\t\tcontract Gloomers is\\n    Star...\n      PUSH B19FDE5A\t\t\tcontract Gloomers is\\n    Star...\n      EQ \t\t\tcontract Gloomers is\\n    Star...\n      PUSH [tag] 34\t\t\tcontract Gloomers is\\n    Star...\n      JUMPI \t\t\tcontract Gloomers is\\n    Star...\n      DUP1 \t\t\tcontract Gloomers is\\n    Star...\n      PUSH B88D4FDE\t\t\tcontract Gloomers is\\n    Star...\n      EQ \t\t\tcontract Gloomers is\\n    Star...\n      PUSH [tag] 35\t\t\tcontract Gloomers is\\n    Star...\n      JUMPI \t\t\tcontract Gloomers is\\n    Star...\n      DUP1 \t\t\tcontract Gloomers is\\n    Star...\n      PUSH C23DC68F\t\t\tcontract Gloomers is\\n    Star...\n      EQ \t\t\tcontract Gloomers is\\n    Star...\n      PUSH [tag] 36\t\t\tcontract Gloomers is\\n    Star...\n      JUMPI \t\t\tcontract Gloomers is\\n    Star...\n      DUP1 \t\t\tcontract Gloomers is\\n    Star...\n      PUSH C62001BD\t\t\tcontract Gloomers is\\n    Star...\n      EQ \t\t\tcontract Gloomers is\\n    Star...\n      PUSH [tag] 37\t\t\tcontract Gloomers is\\n    Star...\n      JUMPI \t\t\tcontract Gloomers is\\n    Star...\n      STOP \t\t\tcontract Gloomers is\\n    Star...\n    tag 45\t\t\tcontract Gloomers is\\n    Star...\n      JUMPDEST \t\t\tcontract Gloomers is\\n    Star...\n      DUP1 \t\t\tcontract Gloomers is\\n    Star...\n      PUSH 95D89B41\t\t\tcontract Gloomers is\\n    Star...\n      GT \t\t\tcontract Gloomers is\\n    Star...\n      PUSH [tag] 47\t\t\tcontract Gloomers is\\n    Star...\n      JUMPI \t\t\tcontract Gloomers is\\n    Star...\n      DUP1 \t\t\tcontract Gloomers is\\n    Star...\n      PUSH 95D89B41\t\t\tcontract Gloomers is\\n    Star...\n      EQ \t\t\tcontract Gloomers is\\n    Star...\n      PUSH [tag] 28\t\t\tcontract Gloomers is\\n    Star...\n      JUMPI \t\t\tcontract Gloomers is\\n    Star...\n      DUP1 \t\t\tcontract Gloomers is\\n    Star...\n      PUSH 99A2557A\t\t\tcontract Gloomers is\\n    Star...\n      EQ \t\t\tcontract Gloomers is\\n    Star...\n      PUSH [tag] 29\t\t\tcontract Gloomers is\\n    Star...\n      JUMPI \t\t\tcontract Gloomers is\\n    Star...\n      DUP1 \t\t\tcontract Gloomers is\\n    Star...\n      PUSH 9A4F41BA\t\t\tcontract Gloomers is\\n    Star...\n      EQ \t\t\tcontract Gloomers is\\n    Star...\n      PUSH [tag] 30\t\t\tcontract Gloomers is\\n    Star...\n      JUMPI \t\t\tcontract Gloomers is\\n    Star...\n      DUP1 \t\t\tcontract Gloomers is\\n    Star...\n      PUSH A0712D68\t\t\tcontract Gloomers is\\n    Star...\n      EQ \t\t\tcontract Gloomers is\\n    Star...\n      PUSH [tag] 31\t\t\tcontract Gloomers is\\n    Star...\n      JUMPI \t\t\tcontract Gloomers is\\n    Star...\n      DUP1 \t\t\tcontract Gloomers is\\n    Star...\n      PUSH A22CB465\t\t\tcontract Gloomers is\\n    Star...\n      EQ \t\t\tcontract Gloomers is\\n    Star...\n      PUSH [tag] 32\t\t\tcontract Gloomers is\\n    Star...\n      JUMPI \t\t\tcontract Gloomers is\\n    Star...\n      STOP \t\t\tcontract Gloomers is\\n    Star...\n    tag 47\t\t\tcontract Gloomers is\\n    Star...\n      JUMPDEST \t\t\tcontract Gloomers is\\n    Star...\n      DUP1 \t\t\tcontract Gloomers is\\n    Star...\n      PUSH 833B9499\t\t\tcontract Gloomers is\\n    Star...\n      EQ \t\t\tcontract Gloomers is\\n    Star...\n      PUSH [tag] 23\t\t\tcontract Gloomers is\\n    Star...\n      JUMPI \t\t\tcontract Gloomers is\\n    Star...\n      DUP1 \t\t\tcontract Gloomers is\\n    Star...\n      PUSH 8462151C\t\t\tcontract Gloomers is\\n    Star...\n      EQ \t\t\tcontract Gloomers is\\n    Star...\n      PUSH [tag] 24\t\t\tcontract Gloomers is\\n    Star...\n      JUMPI \t\t\tcontract Gloomers is\\n    Star...\n      DUP1 \t\t\tcontract Gloomers is\\n    Star...\n      PUSH 86879235\t\t\tcontract Gloomers is\\n    Star...\n      EQ \t\t\tcontract Gloomers is\\n    Star...\n      PUSH [tag] 25\t\t\tcontract Gloomers is\\n    Star...\n      JUMPI \t\t\tcontract Gloomers is\\n    Star...\n      DUP1 \t\t\tcontract Gloomers is\\n    Star...\n      PUSH 87F65C91\t\t\tcontract Gloomers is\\n    Star...\n      EQ \t\t\tcontract Gloomers is\\n    Star...\n      PUSH [tag] 26\t\t\tcontract Gloomers is\\n    Star...\n      JUMPI \t\t\tcontract Gloomers is\\n    Star...\n      DUP1 \t\t\tcontract Gloomers is\\n    Star...\n      PUSH 8DA5CB5B\t\t\tcontract Gloomers is\\n    Star...\n      EQ \t\t\tcontract Gloomers is\\n    Star...\n      PUSH [tag] 27\t\t\tcontract Gloomers is\\n    Star...\n      JUMPI \t\t\tcontract Gloomers is\\n    Star...\n      STOP \t\t\tcontract Gloomers is\\n    Star...\n    tag 44\t\t\tcontract Gloomers is\\n    Star...\n      JUMPDEST \t\t\tcontract Gloomers is\\n    Star...\n      DUP1 \t\t\tcontract Gloomers is\\n    Star...\n      PUSH 29510D34\t\t\tcontract Gloomers is\\n    Star...\n      GT \t\t\tcontract Gloomers is\\n    Star...\n      PUSH [tag] 48\t\t\tcontract Gloomers is\\n    Star...\n      JUMPI \t\t\tcontract Gloomers is\\n    Star...\n      DUP1 \t\t\tcontract Gloomers is\\n    Star...\n      PUSH 4B962D10\t\t\tcontract Gloomers is\\n    Star...\n      GT \t\t\tcontract Gloomers is\\n    Star...\n      PUSH [tag] 49\t\t\tcontract Gloomers is\\n    Star...\n      JUMPI \t\t\tcontract Gloomers is\\n    Star...\n      DUP1 \t\t\tcontract Gloomers is\\n    Star...\n      PUSH 4B962D10\t\t\tcontract Gloomers is\\n    Star...\n      EQ \t\t\tcontract Gloomers is\\n    Star...\n      PUSH [tag] 18\t\t\tcontract Gloomers is\\n    Star...\n      JUMPI \t\t\tcontract Gloomers is\\n    Star...\n      DUP1 \t\t\tcontract Gloomers is\\n    Star...\n      PUSH 5BBB2177\t\t\tcontract Gloomers is\\n    Star...\n      EQ \t\t\tcontract Gloomers is\\n    Star...\n      PUSH [tag] 19\t\t\tcontract Gloomers is\\n    Star...\n      JUMPI \t\t\tcontract Gloomers is\\n    Star...\n      DUP1 \t\t\tcontract Gloomers is\\n    Star...\n      PUSH 6352211E\t\t\tcontract Gloomers is\\n    Star...\n      EQ \t\t\tcontract Gloomers is\\n    Star...\n      PUSH [tag] 20\t\t\tcontract Gloomers is\\n    Star...\n      JUMPI \t\t\tcontract Gloomers is\\n    Star...\n      DUP1 \t\t\tcontract Gloomers is\\n    Star...\n      PUSH 70A08231\t\t\tcontract Gloomers is\\n    Star...\n      EQ \t\t\tcontract Gloomers is\\n    Star...\n      PUSH [tag] 21\t\t\tcontract Gloomers is\\n    Star...\n      JUMPI \t\t\tcontract Gloomers is\\n    Star...\n      DUP1 \t\t\tcontract Gloomers is\\n    Star...\n      PUSH 715018A6\t\t\tcontract Gloomers is\\n    Star...\n      EQ \t\t\tcontract Gloomers is\\n    Star...\n      PUSH [tag] 22\t\t\tcontract Gloomers is\\n    Star...\n      JUMPI \t\t\tcontract Gloomers is\\n    Star...\n      STOP \t\t\tcontract Gloomers is\\n    Star...\n    tag 49\t\t\tcontract Gloomers is\\n    Star...\n      JUMPDEST \t\t\tcontract Gloomers is\\n    Star...\n      DUP1 \t\t\tcontract Gloomers is\\n    Star...\n      PUSH 29510D34\t\t\tcontract Gloomers is\\n    Star...\n      EQ \t\t\tcontract Gloomers is\\n    Star...\n      PUSH [tag] 13\t\t\tcontract Gloomers is\\n    Star...\n      JUMPI \t\t\tcontract Gloomers is\\n    Star...\n      DUP1 \t\t\tcontract Gloomers is\\n    Star...\n      PUSH 2A55205A\t\t\tcontract Gloomers is\\n    Star...\n      EQ \t\t\tcontract Gloomers is\\n    Star...\n      PUSH [tag] 14\t\t\tcontract Gloomers is\\n    Star...\n      JUMPI \t\t\tcontract Gloomers is\\n    Star...\n      DUP1 \t\t\tcontract Gloomers is\\n    Star...\n      PUSH 3CCFD60B\t\t\tcontract Gloomers is\\n    Star...\n      EQ \t\t\tcontract Gloomers is\\n    Star...\n      PUSH [tag] 15\t\t\tcontract Gloomers is\\n    Star...\n      JUMPI \t\t\tcontract Gloomers is\\n    Star...\n      DUP1 \t\t\tcontract Gloomers is\\n    Star...\n      PUSH 42842E0E\t\t\tcontract Gloomers is\\n    Star...\n      EQ \t\t\tcontract Gloomers is\\n    Star...\n      PUSH [tag] 16\t\t\tcontract Gloomers is\\n    Star...\n      JUMPI \t\t\tcontract Gloomers is\\n    Star...\n      DUP1 \t\t\tcontract Gloomers is\\n    Star...\n      PUSH 46B00B6D\t\t\tcontract Gloomers is\\n    Star...\n      EQ \t\t\tcontract Gloomers is\\n    Star...\n      PUSH [tag] 17\t\t\tcontract Gloomers is\\n    Star...\n      JUMPI \t\t\tcontract Gloomers is\\n    Star...\n      STOP \t\t\tcontract Gloomers is\\n    Star...\n    tag 48\t\t\tcontract Gloomers is\\n    Star...\n      JUMPDEST \t\t\tcontract Gloomers is\\n    Star...\n      DUP1 \t\t\tcontract Gloomers is\\n    Star...\n      PUSH 81812FC\t\t\tcontract Gloomers is\\n    Star...\n      GT \t\t\tcontract Gloomers is\\n    Star...\n      PUSH [tag] 50\t\t\tcontract Gloomers is\\n    Star...\n      JUMPI \t\t\tcontract Gloomers is\\n    Star...\n      DUP1 \t\t\tcontract Gloomers is\\n    Star...\n      PUSH 81812FC\t\t\tcontract Gloomers is\\n    Star...\n      EQ \t\t\tcontract Gloomers is\\n    Star...\n      PUSH [tag] 8\t\t\tcontract Gloomers is\\n    Star...\n      JUMPI \t\t\tcontract Gloomers is\\n    Star...\n      DUP1 \t\t\tcontract Gloomers is\\n    Star...\n      PUSH 95EA7B3\t\t\tcontract Gloomers is\\n    Star...\n      EQ \t\t\tcontract Gloomers is\\n    Star...\n      PUSH [tag] 9\t\t\tcontract Gloomers is\\n    Star...\n      JUMPI \t\t\tcontract Gloomers is\\n    Star...\n      DUP1 \t\t\tcontract Gloomers is\\n    Star...\n      PUSH 18160DDD\t\t\tcontract Gloomers is\\n    Star...\n      EQ \t\t\tcontract Gloomers is\\n    Star...\n      PUSH [tag] 10\t\t\tcontract Gloomers is\\n    Star...\n      JUMPI \t\t\tcontract Gloomers is\\n    Star...\n      DUP1 \t\t\tcontract Gloomers is\\n    Star...\n      PUSH 23B872DD\t\t\tcontract Gloomers is\\n    Star...\n      EQ \t\t\tcontract Gloomers is\\n    Star...\n      PUSH [tag] 11\t\t\tcontract Gloomers is\\n    Star...\n      JUMPI \t\t\tcontract Gloomers is\\n    Star...\n      DUP1 \t\t\tcontract Gloomers is\\n    Star...\n      PUSH 242261AC\t\t\tcontract Gloomers is\\n    Star...\n      EQ \t\t\tcontract Gloomers is\\n    Star...\n      PUSH [tag] 12\t\t\tcontract Gloomers is\\n    Star...\n      JUMPI \t\t\tcontract Gloomers is\\n    Star...\n      STOP \t\t\tcontract Gloomers is\\n    Star...\n    tag 50\t\t\tcontract Gloomers is\\n    Star...\n      JUMPDEST \t\t\tcontract Gloomers is\\n    Star...\n      DUP1 \t\t\tcontract Gloomers is\\n    Star...\n      PUSH 1FFC9A7\t\t\tcontract Gloomers is\\n    Star...\n      EQ \t\t\tcontract Gloomers is\\n    Star...\n      PUSH [tag] 3\t\t\tcontract Gloomers is\\n    Star...\n      JUMPI \t\t\tcontract Gloomers is\\n    Star...\n      DUP1 \t\t\tcontract Gloomers is\\n    Star...\n      PUSH 4634D8D\t\t\tcontract Gloomers is\\n    Star...\n      EQ \t\t\tcontract Gloomers is\\n    Star...\n      PUSH [tag] 4\t\t\tcontract Gloomers is\\n    Star...\n      JUMPI \t\t\tcontract Gloomers is\\n    Star...\n      DUP1 \t\t\tcontract Gloomers is\\n    Star...\n      PUSH 46EF9A5\t\t\tcontract Gloomers is\\n    Star...\n      EQ \t\t\tcontract Gloomers is\\n    Star...\n      PUSH [tag] 5\t\t\tcontract Gloomers is\\n    Star...\n      JUMPI \t\t\tcontract Gloomers is\\n    Star...\n      DUP1 \t\t\tcontract Gloomers is\\n    Star...\n      PUSH 675B7C6\t\t\tcontract Gloomers is\\n    Star...\n      EQ \t\t\tcontract Gloomers is\\n    Star...\n      PUSH [tag] 6\t\t\tcontract Gloomers is\\n    Star...\n      JUMPI \t\t\tcontract Gloomers is\\n    Star...\n      DUP1 \t\t\tcontract Gloomers is\\n    Star...\n      PUSH 6FDDE03\t\t\tcontract Gloomers is\\n    Star...\n      EQ \t\t\tcontract Gloomers is\\n    Star...\n      PUSH [tag] 7\t\t\tcontract Gloomers is\\n    Star...\n      JUMPI \t\t\tcontract Gloomers is\\n    Star...\n      STOP \t\t\tcontract Gloomers is\\n    Star...\n    tag 1\t\t\tcontract Gloomers is\\n    Star...\n      JUMPDEST \t\t\tcontract Gloomers is\\n    Star...\n      CALLDATASIZE \t\t\tcontract Gloomers is\\n    Star...\n      PUSH [tag] 2\t\t\tcontract Gloomers is\\n    Star...\n      JUMPI \t\t\tcontract Gloomers is\\n    Star...\n      STOP \t\t\tcontract Gloomers is\\n    Star...\n    tag 2\t\t\tcontract Gloomers is\\n    Star...\n      JUMPDEST \t\t\tcontract Gloomers is\\n    Star...\n      STOP \t\t\tcontract Gloomers is\\n    Star...\n    tag 3\t\t\tfunction supportsInterface(\\n ...\n      JUMPDEST \t\t\tfunction supportsInterface(\\n ...\n      CALLVALUE \t\t\tfunction supportsInterface(\\n ...\n      DUP1 \t\t\tfunction supportsInterface(\\n ...\n      ISZERO \t\t\tfunction supportsInterface(\\n ...\n      PUSH [tag] 55\t\t\tfunction supportsInterface(\\n ...\n      JUMPI \t\t\tfunction supportsInterface(\\n ...\n      PUSH 0\t\t\tfunction supportsInterface(\\n ...\n      DUP1 \t\t\tfunction supportsInterface(\\n ...\n      REVERT \t\t\tfunction supportsInterface(\\n ...\n    tag 55\t\t\tfunction supportsInterface(\\n ...\n      JUMPDEST \t\t\tfunction supportsInterface(\\n ...\n      POP \t\t\t\n      PUSH [tag] 56\t\t\tfunction supportsInterface(\\n ...\n      PUSH [tag] 57\t\t\tfunction supportsInterface(\\n ...\n      CALLDATASIZE \t\t\tfunction supportsInterface(\\n ...\n      PUSH 4\t\t\tfunction supportsInterface(\\n ...\n      PUSH [tag] 58\t\t\tfunction supportsInterface(\\n ...\n      JUMP \t\t\tfunction supportsInterface(\\n ...\n    tag 57\t\t\tfunction supportsInterface(\\n ...\n      JUMPDEST \t\t\tfunction supportsInterface(\\n ...\n      PUSH [tag] 59\t\t\tfunction supportsInterface(\\n ...\n      JUMP \t\t\tfunction supportsInterface(\\n ...\n    tag 56\t\t\tfunction supportsInterface(\\n ...\n      JUMPDEST \t\t\tfunction supportsInterface(\\n ...\n      PUSH 40\t\t\tfunction supportsInterface(\\n ...\n      MLOAD \t\t\tfunction supportsInterface(\\n ...\n      SWAP1 \t\t\t periods.\\n * @\n      ISZERO \t\t\t periods.\\n * @\n      ISZERO \t\t\tminting periods.\\n * @n\n      DUP2 \t\t\telist, and public minting peri...\n      MSTORE \t\t\telist, and public minting peri...\n      PUSH 20\t\t\tre\n      ADD \t\t\tcontract with pres\n    tag 60\t\t\tfunction supportsInterface(\\n ...\n      JUMPDEST \t\t\tfunction supportsInterface(\\n ...\n      PUSH 40\t\t\tfunction supportsInterface(\\n ...\n      MLOAD \t\t\tfunction supportsInterface(\\n ...\n      DUP1 \t\t\tfunction supportsInterface(\\n ...\n      SWAP2 \t\t\tfunction supportsInterface(\\n ...\n      SUB \t\t\tfunction supportsInterface(\\n ...\n      SWAP1 \t\t\tfunction supportsInterface(\\n ...\n      RETURN \t\t\tfunction supportsInterface(\\n ...\n    tag 4\t\t\tfunction setDefaultRoyalty(\\n ...\n      JUMPDEST \t\t\tfunction setDefaultRoyalty(\\n ...\n      CALLVALUE \t\t\tfunction setDefaultRoyalty(\\n ...\n      DUP1 \t\t\tfunction setDefaultRoyalty(\\n ...\n      ISZERO \t\t\tfunction setDefaultRoyalty(\\n ...\n      PUSH [tag] 62\t\t\tfunction setDefaultRoyalty(\\n ...\n      JUMPI \t\t\tfunction setDefaultRoyalty(\\n ...\n      PUSH 0\t\t\tfunction setDefaultRoyalty(\\n ...\n      DUP1 \t\t\tfunction setDefaultRoyalty(\\n ...\n      REVERT \t\t\tfunction setDefaultRoyalty(\\n ...\n    tag 62\t\t\tfunction setDefaultRoyalty(\\n ...\n      JUMPDEST \t\t\tfunction setDefaultRoyalty(\\n ...\n      POP \t\t\t\n      PUSH [tag] 2\t\t\tfunction setDefaultRoyalty(\\n ...\n      PUSH [tag] 64\t\t\tfunction setDefaultRoyalty(\\n ...\n      CALLDATASIZE \t\t\tfunction setDefaultRoyalty(\\n ...\n      PUSH 4\t\t\tfunction setDefaultRoyalty(\\n ...\n      PUSH [tag] 65\t\t\tfunction setDefaultRoyalty(\\n ...\n      JUMP \t\t\tfunction setDefaultRoyalty(\\n ...\n    tag 64\t\t\tfunction setDefaultRoyalty(\\n ...\n      JUMPDEST \t\t\tfunction setDefaultRoyalty(\\n ...\n      PUSH [tag] 66\t\t\tfunction setDefaultRoyalty(\\n ...\n      JUMP \t\t\tfunction setDefaultRoyalty(\\n ...\n    tag 5\t\t\tfunction claimPresale()\\n     ...\n      JUMPDEST \t\t\tfunction claimPresale()\\n     ...\n      CALLVALUE \t\t\tfunction claimPresale()\\n     ...\n      DUP1 \t\t\tfunction claimPresale()\\n     ...\n      ISZERO \t\t\tfunction claimPresale()\\n     ...\n      PUSH [tag] 67\t\t\tfunction claimPresale()\\n     ...\n      JUMPI \t\t\tfunction claimPresale()\\n     ...\n      PUSH 0\t\t\tfunction claimPresale()\\n     ...\n      DUP1 \t\t\tfunction claimPresale()\\n     ...\n      REVERT \t\t\tfunction claimPresale()\\n     ...\n    tag 67\t\t\tfunction claimPresale()\\n     ...\n      JUMPDEST \t\t\tfunction claimPresale()\\n     ...\n      POP \t\t\tfunction claimPresale()\\n     ...\n      PUSH [tag] 2\t\t\tfunction claimPresale()\\n     ...\n      PUSH [tag] 69\t\t\tfunction claimPresale()\\n     ...\n      JUMP \t\t\tfunction claimPresale()\\n     ...\n    tag 6\t\t\tfunction setTokenUri(string ca...\n      JUMPDEST \t\t\tfunction setTokenUri(string ca...\n      CALLVALUE \t\t\tfunction setTokenUri(string ca...\n      DUP1 \t\t\tfunction setTokenUri(string ca...\n      ISZERO \t\t\tfunction setTokenUri(string ca...\n      PUSH [tag] 70\t\t\tfunction setTokenUri(string ca...\n      JUMPI \t\t\tfunction setTokenUri(string ca...\n      PUSH 0\t\t\tfunction setTokenUri(string ca...\n      DUP1 \t\t\tfunction setTokenUri(string ca...\n      REVERT \t\t\tfunction setTokenUri(string ca...\n    tag 70\t\t\tfunction setTokenUri(string ca...\n      JUMPDEST \t\t\tfunction setTokenUri(string ca...\n      POP \t\t\t\n      PUSH [tag] 2\t\t\tfunction setTokenUri(string ca...\n      PUSH [tag] 72\t\t\tfunction setTokenUri(string ca...\n      CALLDATASIZE \t\t\tfunction setTokenUri(string ca...\n      PUSH 4\t\t\tfunction setTokenUri(string ca...\n      PUSH [tag] 73\t\t\tfunction setTokenUri(string ca...\n      JUMP \t\t\tfunction setTokenUri(string ca...\n    tag 72\t\t\tfunction setTokenUri(string ca...\n      JUMPDEST \t\t\tfunction setTokenUri(string ca...\n      PUSH [tag] 74\t\t\tfunction setTokenUri(string ca...\n      JUMP \t\t\tfunction setTokenUri(string ca...\n    tag 7\t\t\t\n      JUMPDEST \t\t\t\n      CALLVALUE \t\t\t\n      DUP1 \t\t\t\n      ISZERO \t\t\t\n      PUSH [tag] 75\t\t\t\n      JUMPI \t\t\t\n      PUSH 0\t\t\t\n      DUP1 \t\t\t\n      REVERT \t\t\t\n    tag 75\t\t\t\n      JUMPDEST \t\t\t\n      POP \t\t\t\n      PUSH [tag] 76\t\t\t\n      PUSH [tag] 77\t\t\t\n      JUMP \t\t\t\n    tag 76\t\t\t\n      JUMPDEST \t\t\t\n      PUSH 40\t\t\t\n      MLOAD \t\t\t\n      PUSH [tag] 60\t\t\t\n      SWAP2 \t\t\t\n      SWAP1 \t\t\t\n      PUSH [tag] 79\t\t\t\n      JUMP \t\t\t\n    tag 8\t\t\t\n      JUMPDEST \t\t\t\n      CALLVALUE \t\t\t\n      DUP1 \t\t\t\n      ISZERO \t\t\t\n      PUSH [tag] 80\t\t\t\n      JUMPI \t\t\t\n      PUSH 0\t\t\t\n      DUP1 \t\t\t\n      REVERT \t\t\t\n    tag 80\t\t\t\n      JUMPDEST \t\t\t\n      POP \t\t\t\n      PUSH [tag] 81\t\t\t\n      PUSH [tag] 82\t\t\t\n      CALLDATASIZE \t\t\t\n      PUSH 4\t\t\t\n      PUSH [tag] 83\t\t\t\n      JUMP \t\t\t\n    tag 82\t\t\t\n      JUMPDEST \t\t\t\n      PUSH [tag] 84\t\t\t\n      JUMP \t\t\t\n    tag 81\t\t\t\n      JUMPDEST \t\t\t\n      PUSH 40\t\t\t\n      MLOAD \t\t\t\n      PUSH 1\t\t\t\n      PUSH 1\t\t\t\n      PUSH A0\t\t\t\n      SHL \t\t\t\n      SUB \t\t\t\n      SWAP1 \t\t\tr NonEOACaller();\\n\\n    modif...\n      SWAP2 \t\t\tr NonEOACaller();\\n\\n    modif...\n      AND \t\t\tr NonEOACaller();\\n\\n    modif...\n      DUP2 \t\t\ttFunds();\\n    error NonEOACal...\n      MSTORE \t\t\ttFunds();\\n    error NonEOACal...\n      PUSH 20\t\t\t I\n      ADD \t\t\tly();\\n    error In\n      PUSH [tag] 60\t\t\t\n      JUMP \t\t\te();\\n    error ClaimNotActive...\n    tag 9\t\t\t\n      JUMPDEST \t\t\t\n      PUSH [tag] 2\t\t\t\n      PUSH [tag] 88\t\t\t\n      CALLDATASIZE \t\t\t\n      PUSH 4\t\t\t\n      PUSH [tag] 89\t\t\t\n      JUMP \t\t\t\n    tag 88\t\t\t\n      JUMPDEST \t\t\t\n      PUSH [tag] 90\t\t\t\n      JUMP \t\t\t\n    tag 10\t\t\tsender, quantity);\\n\\n        ...\n      JUMPDEST \t\t\tsender, quantity);\\n\\n        ...\n      CALLVALUE \t\t\tsender, quantity);\\n\\n        ...\n      DUP1 \t\t\tsender, quantity);\\n\\n        ...\n      ISZERO \t\t\tsender, quantity);\\n\\n        ...\n      PUSH [tag] 91\t\t\tsender, quantity);\\n\\n        ...\n      JUMPI \t\t\tsender, quantity);\\n\\n        ...\n      PUSH 0\t\t\tsender, quantity);\\n\\n        ...\n      DUP1 \t\t\tsender, quantity);\\n\\n        ...\n      REVERT \t\t\tsender, quantity);\\n\\n        ...\n    tag 91\t\t\tsender, quantity);\\n\\n        ...\n      JUMPDEST \t\t\tsender, quantity);\\n\\n        ...\n      POP \t\t\tsender, quantity);\\n\\n        ...\n      PUSH [tag] 92\t\t\tsender, quantity);\\n\\n        ...\n      PUSH [tag] 93\t\t\tsender, quantity);\\n\\n        ...\n      JUMP \t\t\tsender, quantity);\\n\\n        ...\n    tag 92\t\t\tsender, quantity);\\n\\n        ...\n      JUMPDEST \t\t\tsender, quantity);\\n\\n        ...\n      PUSH 40\t\t\tsender, quantity);\\n\\n        ...\n      MLOAD \t\t\tsender, quantity);\\n\\n        ...\n      SWAP1 \t\t\tamp > PUBLIC_MINT_TIMESTA\n      DUP2 \t\t\tamp > PUBLIC_MINT_TIMESTA\n      MSTORE \t\t\tamp > PUBLIC_MINT_TIMESTA\n      PUSH 20\t\t\tbl\n      ADD \t\t\t||\\n            blo\n      PUSH [tag] 60\t\t\tsender, quantity);\\n\\n        ...\n      JUMP \t\t\t       _;\\n    }\\n\\n    modifi...\n    tag 11\t\t\t\n      JUMPDEST \t\t\t\n      PUSH [tag] 2\t\t\t\n      PUSH [tag] 97\t\t\t\n      CALLDATASIZE \t\t\t\n      PUSH 4\t\t\t\n      PUSH [tag] 98\t\t\t\n      JUMP \t\t\t\n    tag 97\t\t\t\n      JUMPDEST \t\t\t\n      PUSH [tag] 99\t\t\t\n      JUMP \t\t\t\n    tag 12\t\t\tfunction registerPresale(\\n   ...\n      JUMPDEST \t\t\tfunction registerPresale(\\n   ...\n      PUSH [tag] 2\t\t\tfunction registerPresale(\\n   ...\n      PUSH [tag] 101\t\t\tfunction registerPresale(\\n   ...\n      CALLDATASIZE \t\t\tfunction registerPresale(\\n   ...\n      PUSH 4\t\t\tfunction registerPresale(\\n   ...\n      PUSH [tag] 102\t\t\tfunction registerPresale(\\n   ...\n      JUMP \t\t\tfunction registerPresale(\\n   ...\n    tag 101\t\t\tfunction registerPresale(\\n   ...\n      JUMPDEST \t\t\tfunction registerPresale(\\n   ...\n      PUSH [tag] 103\t\t\tfunction registerPresale(\\n   ...\n      JUMP \t\t\tfunction registerPresale(\\n   ...\n    tag 13\t\t\tfunction mintWhitelist(\\n     ...\n      JUMPDEST \t\t\tfunction mintWhitelist(\\n     ...\n      PUSH [tag] 2\t\t\tfunction mintWhitelist(\\n     ...\n      PUSH [tag] 105\t\t\tfunction mintWhitelist(\\n     ...\n      CALLDATASIZE \t\t\tfunction mintWhitelist(\\n     ...\n      PUSH 4\t\t\tfunction mintWhitelist(\\n     ...\n      PUSH [tag] 102\t\t\tfunction mintWhitelist(\\n     ...\n      JUMP \t\t\tfunction mintWhitelist(\\n     ...\n    tag 105\t\t\tfunction mintWhitelist(\\n     ...\n      JUMPDEST \t\t\tfunction mintWhitelist(\\n     ...\n      PUSH [tag] 106\t\t\tfunction mintWhitelist(\\n     ...\n      JUMP \t\t\tfunction mintWhitelist(\\n     ...\n    tag 14\t\t\trror PublicMintNotActive();\\n ...\n      JUMPDEST \t\t\trror PublicMintNotActive();\\n ...\n      CALLVALUE \t\t\trror PublicMintNotActive();\\n ...\n      DUP1 \t\t\trror PublicMintNotActive();\\n ...\n      ISZERO \t\t\trror PublicMintNotActive();\\n ...\n      PUSH [tag] 107\t\t\trror PublicMintNotActive();\\n ...\n      JUMPI \t\t\trror PublicMintNotActive();\\n ...\n      PUSH 0\t\t\trror PublicMintNotActive();\\n ...\n      DUP1 \t\t\trror PublicMintNotActive();\\n ...\n      REVERT \t\t\trror PublicMintNotActive();\\n ...\n    tag 107\t\t\trror PublicMintNotActive();\\n ...\n      JUMPDEST \t\t\trror PublicMintNotActive();\\n ...\n      POP \t\t\t\n      PUSH [tag] 108\t\t\trror PublicMintNotActive();\\n ...\n      PUSH [tag] 109\t\t\trror PublicMintNotActive();\\n ...\n      CALLDATASIZE \t\t\trror PublicMintNotActive();\\n ...\n      PUSH 4\t\t\trror PublicMintNotActive();\\n ...\n      PUSH [tag] 102\t\t\trror PublicMintNotActive();\\n ...\n      JUMP \t\t\trror PublicMintNotActive();\\n ...\n    tag 109\t\t\trror PublicMintNotActive();\\n ...\n      JUMPDEST \t\t\trror PublicMintNotActive();\\n ...\n      PUSH [tag] 111\t\t\trror PublicMintNotActive();\\n ...\n      JUMP \t\t\trror PublicMintNotActive();\\n ...\n    tag 108\t\t\trror PublicMintNotActive();\\n ...\n      JUMPDEST \t\t\trror PublicMintNotActive();\\n ...\n      PUSH 40\t\t\trror PublicMintNotActive();\\n ...\n      DUP1 \t\t\trror PublicMintNotActive();\\n ...\n      MLOAD \t\t\trror PublicMintNotActive();\\n ...\n      PUSH 1\t\t\t\n      PUSH 1\t\t\t\n      PUSH A0\t\t\t\n      SHL \t\t\t\n      SUB \t\t\t\n      SWAP1 \t\t\tender] +\\n                _pre...\n      SWAP4 \t\t\tender] +\\n                _pre...\n      AND \t\t\tender] +\\n                _pre...\n      DUP4 \t\t\ttedPerWallet[msg.sender] +\\n  ...\n      MSTORE \t\t\ttedPerWallet[msg.sender] +\\n  ...\n      PUSH 20\t\t\t +\n      DUP4 \t\t\tlet[msg.sender] +\\n\n      ADD \t\t\tlet[msg.sender] +\\n\n      SWAP2 \t\t\tnsByWallet[msg.sender] +\\n    ...\n      SWAP1 \t\t\tnsByWallet[msg.sender] +\\n    ...\n      SWAP2 \t\t\tnsByWallet[msg.sender] +\\n    ...\n      MSTORE \t\t\tnsByWallet[msg.sender] +\\n    ...\n      ADD \t\t\t      if (\\n       \n      PUSH [tag] 60\t\t\trror PublicMintNotActive();\\n ...\n      JUMP \t\t\tCE_PER_TOKEN * quantity) {\\n  ...\n    tag 15\t\t\tfunction withdraw() public onl...\n      JUMPDEST \t\t\tfunction withdraw() public onl...\n      CALLVALUE \t\t\tfunction withdraw() public onl...\n      DUP1 \t\t\tfunction withdraw() public onl...\n      ISZERO \t\t\tfunction withdraw() public onl...\n      PUSH [tag] 114\t\t\tfunction withdraw() public onl...\n      JUMPI \t\t\tfunction withdraw() public onl...\n      PUSH 0\t\t\tfunction withdraw() public onl...\n      DUP1 \t\t\tfunction withdraw() public onl...\n      REVERT \t\t\tfunction withdraw() public onl...\n    tag 114\t\t\tfunction withdraw() public onl...\n      JUMPDEST \t\t\tfunction withdraw() public onl...\n      POP \t\t\tfunction withdraw() public onl...\n      PUSH [tag] 2\t\t\tfunction withdraw() public onl...\n      PUSH [tag] 116\t\t\tfunction withdraw() public onl...\n      JUMP \t\t\tfunction withdraw() public onl...\n    tag 16\t\t\t\n      JUMPDEST \t\t\t\n      PUSH [tag] 2\t\t\t\n      PUSH [tag] 118\t\t\t\n      CALLDATASIZE \t\t\t\n      PUSH 4\t\t\t\n      PUSH [tag] 98\t\t\t\n      JUMP \t\t\t\n    tag 118\t\t\t\n      JUMPDEST \t\t\t\n      PUSH [tag] 119\t\t\t\n      JUMP \t\t\t\n    tag 17\t\t\tDropStatus public dropStatus =...\n      JUMPDEST \t\t\tDropStatus public dropStatus =...\n      CALLVALUE \t\t\tDropStatus public dropStatus =...\n      DUP1 \t\t\tDropStatus public dropStatus =...\n      ISZERO \t\t\tDropStatus public dropStatus =...\n      PUSH [tag] 120\t\t\tDropStatus public dropStatus =...\n      JUMPI \t\t\tDropStatus public dropStatus =...\n      PUSH 0\t\t\tDropStatus public dropStatus =...\n      DUP1 \t\t\tDropStatus public dropStatus =...\n      REVERT \t\t\tDropStatus public dropStatus =...\n    tag 120\t\t\tDropStatus public dropStatus =...\n      JUMPDEST \t\t\tDropStatus public dropStatus =...\n      POP \t\t\t\n      PUSH B\t\t\tDropStatus public dropStatus =...\n      SLOAD \t\t\tDropStatus public dropStatus =...\n      PUSH [tag] 121\t\t\tDropStatus public dropStatus =...\n      SWAP1 \t\t\tDropStatus public dropStatus =...\n      PUSH 1\t\t\t\n      PUSH A0\t\t\t\n      SHL \t\t\t\n      SWAP1 \t\t\tDropStatus public dropStatus =...\n      DIV \t\t\tDropStatus public dropStatus =...\n      PUSH FF\t\t\tDropStatus public dropStatus =...\n      AND \t\t\tDropStatus public dropStatus =...\n      DUP2 \t\t\tDropStatus public dropStatus =...\n      JUMP \t\t\tDropStatus public dropStatus =...\n    tag 121\t\t\tDropStatus public dropStatus =...\n      JUMPDEST \t\t\tDropStatus public dropStatus =...\n      PUSH 40\t\t\tDropStatus public dropStatus =...\n      MLOAD \t\t\tDropStatus public dropStatus =...\n      PUSH [tag] 60\t\t\tDropStatus public dropStatus =...\n      SWAP2 \t\t\tDropStatus public dropStatus =...\n      SWAP1 \t\t\tDropStatus public dropStatus =...\n      PUSH [tag] 124\t\t\tDropStatus public dropStatus =...\n      JUMP \t\t\tDropStatus public dropStatus =...\n    tag 18\t\t\tfunction setDropStatus(DropSta...\n      JUMPDEST \t\t\tfunction setDropStatus(DropSta...\n      CALLVALUE \t\t\tfunction setDropStatus(DropSta...\n      DUP1 \t\t\tfunction setDropStatus(DropSta...\n      ISZERO \t\t\tfunction setDropStatus(DropSta...\n      PUSH [tag] 125\t\t\tfunction setDropStatus(DropSta...\n      JUMPI \t\t\tfunction setDropStatus(DropSta...\n      PUSH 0\t\t\tfunction setDropStatus(DropSta...\n      DUP1 \t\t\tfunction setDropStatus(DropSta...\n      REVERT \t\t\tfunction setDropStatus(DropSta...\n    tag 125\t\t\tfunction setDropStatus(DropSta...\n      JUMPDEST \t\t\tfunction setDropStatus(DropSta...\n      POP \t\t\t\n      PUSH [tag] 2\t\t\tfunction setDropStatus(DropSta...\n      PUSH [tag] 127\t\t\tfunction setDropStatus(DropSta...\n      CALLDATASIZE \t\t\tfunction setDropStatus(DropSta...\n      PUSH 4\t\t\tfunction setDropStatus(DropSta...\n      PUSH [tag] 128\t\t\tfunction setDropStatus(DropSta...\n      JUMP \t\t\tfunction setDropStatus(DropSta...\n    tag 127\t\t\tfunction setDropStatus(DropSta...\n      JUMPDEST \t\t\tfunction setDropStatus(DropSta...\n      PUSH [tag] 129\t\t\tfunction setDropStatus(DropSta...\n      JUMP \t\t\tfunction setDropStatus(DropSta...\n    tag 19\t\t\tomtoken.xyz/ipfs/bafybeidnrgag...\n      JUMPDEST \t\t\tomtoken.xyz/ipfs/bafybeidnrgag...\n      CALLVALUE \t\t\tomtoken.xyz/ipfs/bafybeidnrgag...\n      DUP1 \t\t\tomtoken.xyz/ipfs/bafybeidnrgag...\n      ISZERO \t\t\tomtoken.xyz/ipfs/bafybeidnrgag...\n      PUSH [tag] 130\t\t\tomtoken.xyz/ipfs/bafybeidnrgag...\n      JUMPI \t\t\tomtoken.xyz/ipfs/bafybeidnrgag...\n      PUSH 0\t\t\tomtoken.xyz/ipfs/bafybeidnrgag...\n      DUP1 \t\t\tomtoken.xyz/ipfs/bafybeidnrgag...\n      REVERT \t\t\tomtoken.xyz/ipfs/bafybeidnrgag...\n    tag 130\t\t\tomtoken.xyz/ipfs/bafybeidnrgag...\n      JUMPDEST \t\t\tomtoken.xyz/ipfs/bafybeidnrgag...\n      POP \t\t\t\n      PUSH [tag] 131\t\t\tomtoken.xyz/ipfs/bafybeidnrgag...\n      PUSH [tag] 132\t\t\tomtoken.xyz/ipfs/bafybeidnrgag...\n      CALLDATASIZE \t\t\tomtoken.xyz/ipfs/bafybeidnrgag...\n      PUSH 4\t\t\tomtoken.xyz/ipfs/bafybeidnrgag...\n      PUSH [tag] 133\t\t\tomtoken.xyz/ipfs/bafybeidnrgag...\n      JUMP \t\t\tomtoken.xyz/ipfs/bafybeidnrgag...\n    tag 132\t\t\tomtoken.xyz/ipfs/bafybeidnrgag...\n      JUMPDEST \t\t\tomtoken.xyz/ipfs/bafybeidnrgag...\n      PUSH [tag] 134\t\t\tomtoken.xyz/ipfs/bafybeidnrgag...\n      JUMP \t\t\tomtoken.xyz/ipfs/bafybeidnrgag...\n    tag 131\t\t\tomtoken.xyz/ipfs/bafybeidnrgag...\n      JUMPDEST \t\t\tomtoken.xyz/ipfs/bafybeidnrgag...\n      PUSH 40\t\t\tomtoken.xyz/ipfs/bafybeidnrgag...\n      MLOAD \t\t\tomtoken.xyz/ipfs/bafybeidnrgag...\n      PUSH [tag] 60\t\t\tomtoken.xyz/ipfs/bafybeidnrgag...\n      SWAP2 \t\t\tomtoken.xyz/ipfs/bafybeidnrgag...\n      SWAP1 \t\t\tomtoken.xyz/ipfs/bafybeidnrgag...\n      PUSH [tag] 136\t\t\tomtoken.xyz/ipfs/bafybeidnrgag...\n      JUMP \t\t\tomtoken.xyz/ipfs/bafybeidnrgag...\n    tag 20\t\t\t\n      JUMPDEST \t\t\t\n      CALLVALUE \t\t\t\n      DUP1 \t\t\t\n      ISZERO \t\t\t\n      PUSH [tag] 137\t\t\t\n      JUMPI \t\t\t\n      PUSH 0\t\t\t\n      DUP1 \t\t\t\n      REVERT \t\t\t\n    tag 137\t\t\t\n      JUMPDEST \t\t\t\n      POP \t\t\t\n      PUSH [tag] 81\t\t\t\n      PUSH [tag] 139\t\t\t\n      CALLDATASIZE \t\t\t\n      PUSH 4\t\t\t\n      PUSH [tag] 83\t\t\t\n      JUMP \t\t\t\n    tag 139\t\t\t\n      JUMPDEST \t\t\t\n      PUSH [tag] 140\t\t\t\n      JUMP \t\t\t\n    tag 21\t\t\ter {\\n        gloomerHash = gl...\n      JUMPDEST \t\t\ter {\\n        gloomerHash = gl...\n      CALLVALUE \t\t\ter {\\n        gloomerHash = gl...\n      DUP1 \t\t\ter {\\n        gloomerHash = gl...\n      ISZERO \t\t\ter {\\n        gloomerHash = gl...\n      PUSH [tag] 142\t\t\ter {\\n        gloomerHash = gl...\n      JUMPI \t\t\ter {\\n        gloomerHash = gl...\n      PUSH 0\t\t\ter {\\n        gloomerHash = gl...\n      DUP1 \t\t\ter {\\n        gloomerHash = gl...\n      REVERT \t\t\ter {\\n        gloomerHash = gl...\n    tag 142\t\t\ter {\\n        gloomerHash = gl...\n      JUMPDEST \t\t\ter {\\n        gloomerHash = gl...\n      POP \t\t\t\n      PUSH [tag] 92\t\t\ter {\\n        gloomerHash = gl...\n      PUSH [tag] 144\t\t\ter {\\n        gloomerHash = gl...\n      CALLDATASIZE \t\t\ter {\\n        gloomerHash = gl...\n      PUSH 4\t\t\ter {\\n        gloomerHash = gl...\n      PUSH [tag] 145\t\t\ter {\\n        gloomerHash = gl...\n      JUMP \t\t\ter {\\n        gloomerHash = gl...\n    tag 144\t\t\ter {\\n        gloomerHash = gl...\n      JUMPDEST \t\t\ter {\\n        gloomerHash = gl...\n      PUSH [tag] 146\t\t\ter {\\n        gloomerHash = gl...\n      JUMP \t\t\ter {\\n        gloomerHash = gl...\n    tag 22\t\t\t;\\n    event NewDropStatus(Dro...\n      JUMPDEST \t\t\t;\\n    event NewDropStatus(Dro...\n      CALLVALUE \t\t\t;\\n    event NewDropStatus(Dro...\n      DUP1 \t\t\t;\\n    event NewDropStatus(Dro...\n      ISZERO \t\t\t;\\n    event NewDropStatus(Dro...\n      PUSH [tag] 148\t\t\t;\\n    event NewDropStatus(Dro...\n      JUMPI \t\t\t;\\n    event NewDropStatus(Dro...\n      PUSH 0\t\t\t;\\n    event NewDropStatus(Dro...\n      DUP1 \t\t\t;\\n    event NewDropStatus(Dro...\n      REVERT \t\t\t;\\n    event NewDropStatus(Dro...\n    tag 148\t\t\t;\\n    event NewDropStatus(Dro...\n      JUMPDEST \t\t\t;\\n    event NewDropStatus(Dro...\n      POP \t\t\t;\\n    event NewDropStatus(Dro...\n      PUSH [tag] 2\t\t\t;\\n    event NewDropStatus(Dro...\n      PUSH [tag] 150\t\t\t;\\n    event NewDropStatus(Dro...\n      JUMP \t\t\t;\\n    event NewDropStatus(Dro...\n    tag 23\t\t\tuint256 public constant PRICE_...\n      JUMPDEST \t\t\tuint256 public constant PRICE_...\n      CALLVALUE \t\t\tuint256 public constant PRICE_...\n      DUP1 \t\t\tuint256 public constant PRICE_...\n      ISZERO \t\t\tuint256 public constant PRICE_...\n      PUSH [tag] 151\t\t\tuint256 public constant PRICE_...\n      JUMPI \t\t\tuint256 public constant PRICE_...\n      PUSH 0\t\t\tuint256 public constant PRICE_...\n      DUP1 \t\t\tuint256 public constant PRICE_...\n      REVERT \t\t\tuint256 public constant PRICE_...\n    tag 151\t\t\tuint256 public constant PRICE_...\n      JUMPDEST \t\t\tuint256 public constant PRICE_...\n      POP \t\t\tuint256 public constant PRICE_...\n      PUSH [tag] 92\t\t\tuint256 public constant PRICE_...\n      PUSH 6A94D74F430000\t\t\t0.03 ether\n      DUP2 \t\t\tuint256 public constant PRICE_...\n      JUMP \t\t\tuint256 public constant PRICE_...\n    tag 24\t\t\t\\n    }\\n\\n    modifier obeysW...\n      JUMPDEST \t\t\t\\n    }\\n\\n    modifier obeysW...\n      CALLVALUE \t\t\t\\n    }\\n\\n    modifier obeysW...\n      DUP1 \t\t\t\\n    }\\n\\n    modifier obeysW...\n      ISZERO \t\t\t\\n    }\\n\\n    modifier obeysW...\n      PUSH [tag] 155\t\t\t\\n    }\\n\\n    modifier obeysW...\n      JUMPI \t\t\t\\n    }\\n\\n    modifier obeysW...\n      PUSH 0\t\t\t\\n    }\\n\\n    modifier obeysW...\n      DUP1 \t\t\t\\n    }\\n\\n    modifier obeysW...\n      REVERT \t\t\t\\n    }\\n\\n    modifier obeysW...\n    tag 155\t\t\t\\n    }\\n\\n    modifier obeysW...\n      JUMPDEST \t\t\t\\n    }\\n\\n    modifier obeysW...\n      POP \t\t\t\n      PUSH [tag] 156\t\t\t\\n    }\\n\\n    modifier obeysW...\n      PUSH [tag] 157\t\t\t\\n    }\\n\\n    modifier obeysW...\n      CALLDATASIZE \t\t\t\\n    }\\n\\n    modifier obeysW...\n      PUSH 4\t\t\t\\n    }\\n\\n    modifier obeysW...\n      PUSH [tag] 145\t\t\t\\n    }\\n\\n    modifier obeysW...\n      JUMP \t\t\t\\n    }\\n\\n    modifier obeysW...\n    tag 157\t\t\t\\n    }\\n\\n    modifier obeysW...\n      JUMPDEST \t\t\t\\n    }\\n\\n    modifier obeysW...\n      PUSH [tag] 158\t\t\t\\n    }\\n\\n    modifier obeysW...\n      JUMP \t\t\t\\n    }\\n\\n    modifier obeysW...\n    tag 156\t\t\t\\n    }\\n\\n    modifier obeysW...\n      JUMPDEST \t\t\t\\n    }\\n\\n    modifier obeysW...\n      PUSH 40\t\t\t\\n    }\\n\\n    modifier obeysW...\n      MLOAD \t\t\t\\n    }\\n\\n    modifier obeysW...\n      PUSH [tag] 60\t\t\t\\n    }\\n\\n    modifier obeysW...\n      SWAP2 \t\t\t\\n    }\\n\\n    modifier obeysW...\n      SWAP1 \t\t\t\\n    }\\n\\n    modifier obeysW...\n      PUSH [tag] 160\t\t\t\\n    }\\n\\n    modifier obeysW...\n      JUMP \t\t\t\\n    }\\n\\n    modifier obeysW...\n    tag 25\t\t\tuint256 public constant END_TO...\n      JUMPDEST \t\t\tuint256 public constant END_TO...\n      CALLVALUE \t\t\tuint256 public constant END_TO...\n      DUP1 \t\t\tuint256 public constant END_TO...\n      ISZERO \t\t\tuint256 public constant END_TO...\n      PUSH [tag] 161\t\t\tuint256 public constant END_TO...\n      JUMPI \t\t\tuint256 public constant END_TO...\n      PUSH 0\t\t\tuint256 public constant END_TO...\n      DUP1 \t\t\tuint256 public constant END_TO...\n      REVERT \t\t\tuint256 public constant END_TO...\n    tag 161\t\t\tuint256 public constant END_TO...\n      JUMPDEST \t\t\tuint256 public constant END_TO...\n      POP \t\t\tuint256 public constant END_TO...\n      PUSH [tag] 92\t\t\tuint256 public constant END_TO...\n      PUSH 1A0A\t\t\t6666\n      DUP2 \t\t\tuint256 public constant END_TO...\n      JUMP \t\t\tuint256 public constant END_TO...\n    tag 26\t\t\tuint256 public constant START_...\n      JUMPDEST \t\t\tuint256 public constant START_...\n      CALLVALUE \t\t\tuint256 public constant START_...\n      DUP1 \t\t\tuint256 public constant START_...\n      ISZERO \t\t\tuint256 public constant START_...\n      PUSH [tag] 165\t\t\tuint256 public constant START_...\n      JUMPI \t\t\tuint256 public constant START_...\n      PUSH 0\t\t\tuint256 public constant START_...\n      DUP1 \t\t\tuint256 public constant START_...\n      REVERT \t\t\tuint256 public constant START_...\n    tag 165\t\t\tuint256 public constant START_...\n      JUMPDEST \t\t\tuint256 public constant START_...\n      POP \t\t\tuint256 public constant START_...\n      PUSH [tag] 92\t\t\tuint256 public constant START_...\n      PUSH D06\t\t\t3334\n      DUP2 \t\t\tuint256 public constant START_...\n      JUMP \t\t\tuint256 public constant START_...\n    tag 27\t\t\tddress) private _presaleWallet...\n      JUMPDEST \t\t\tddress) private _presaleWallet...\n      CALLVALUE \t\t\tddress) private _presaleWallet...\n      DUP1 \t\t\tddress) private _presaleWallet...\n      ISZERO \t\t\tddress) private _presaleWallet...\n      PUSH [tag] 169\t\t\tddress) private _presaleWallet...\n      JUMPI \t\t\tddress) private _presaleWallet...\n      PUSH 0\t\t\tddress) private _presaleWallet...\n      DUP1 \t\t\tddress) private _presaleWallet...\n      REVERT \t\t\tddress) private _presaleWallet...\n    tag 169\t\t\tddress) private _presaleWallet...\n      JUMPDEST \t\t\tddress) private _presaleWallet...\n      POP \t\t\t\n      PUSH B\t\t\t\\n    u\n      SLOAD \t\t\t\\n    u\n      PUSH 1\t\t\t\n      PUSH 1\t\t\t\n      PUSH A0\t\t\t\n      SHL \t\t\t\n      SUB \t\t\t\n      AND \t\t\t\\n    u\n      PUSH [tag] 81\t\t\tddress) private _presaleWallet...\n      JUMP \t\t\tddress) private _presaleWallet...\n    tag 28\t\t\t\n      JUMPDEST \t\t\t\n      CALLVALUE \t\t\t\n      DUP1 \t\t\t\n      ISZERO \t\t\t\n      PUSH [tag] 173\t\t\t\n      JUMPI \t\t\t\n      PUSH 0\t\t\t\n      DUP1 \t\t\t\n      REVERT \t\t\t\n    tag 173\t\t\t\n      JUMPDEST \t\t\t\n      POP \t\t\t\n      PUSH [tag] 76\t\t\t\n      PUSH [tag] 175\t\t\t\n      JUMP \t\t\t\n    tag 29\t\t\tblock.timestamp < WHITELIST_ST...\n      JUMPDEST \t\t\tblock.timestamp < WHITELIST_ST...\n      CALLVALUE \t\t\tblock.timestamp < WHITELIST_ST...\n      DUP1 \t\t\tblock.timestamp < WHITELIST_ST...\n      ISZERO \t\t\tblock.timestamp < WHITELIST_ST...\n      PUSH [tag] 177\t\t\tblock.timestamp < WHITELIST_ST...\n      JUMPI \t\t\tblock.timestamp < WHITELIST_ST...\n      PUSH 0\t\t\tblock.timestamp < WHITELIST_ST...\n      DUP1 \t\t\tblock.timestamp < WHITELIST_ST...\n      REVERT \t\t\tblock.timestamp < WHITELIST_ST...\n    tag 177\t\t\tblock.timestamp < WHITELIST_ST...\n      JUMPDEST \t\t\tblock.timestamp < WHITELIST_ST...\n      POP \t\t\t\n      PUSH [tag] 156\t\t\tblock.timestamp < WHITELIST_ST...\n      PUSH [tag] 179\t\t\tblock.timestamp < WHITELIST_ST...\n      CALLDATASIZE \t\t\tblock.timestamp < WHITELIST_ST...\n      PUSH 4\t\t\tblock.timestamp < WHITELIST_ST...\n      PUSH [tag] 180\t\t\tblock.timestamp < WHITELIST_ST...\n      JUMP \t\t\tblock.timestamp < WHITELIST_ST...\n    tag 179\t\t\tblock.timestamp < WHITELIST_ST...\n      JUMPDEST \t\t\tblock.timestamp < WHITELIST_ST...\n      PUSH [tag] 181\t\t\tblock.timestamp < WHITELIST_ST...\n      JUMP \t\t\tblock.timestamp < WHITELIST_ST...\n    tag 30\t\t\tuint256 public constant PUBLIC...\n      JUMPDEST \t\t\tuint256 public constant PUBLIC...\n      CALLVALUE \t\t\tuint256 public constant PUBLIC...\n      DUP1 \t\t\tuint256 public constant PUBLIC...\n      ISZERO \t\t\tuint256 public constant PUBLIC...\n      PUSH [tag] 183\t\t\tuint256 public constant PUBLIC...\n      JUMPI \t\t\tuint256 public constant PUBLIC...\n      PUSH 0\t\t\tuint256 public constant PUBLIC...\n      DUP1 \t\t\tuint256 public constant PUBLIC...\n      REVERT \t\t\tuint256 public constant PUBLIC...\n    tag 183\t\t\tuint256 public constant PUBLIC...\n      JUMPDEST \t\t\tuint256 public constant PUBLIC...\n      POP \t\t\tuint256 public constant PUBLIC...\n      PUSH [tag] 92\t\t\tuint256 public constant PUBLIC...\n      PUSH [tag] 185\t\t\tuint256 public constant PUBLIC...\n      JUMP \t\t\tuint256 public constant PUBLIC...\n    tag 31\t\t\tfunction mint(\\n        uint25...\n      JUMPDEST \t\t\tfunction mint(\\n        uint25...\n      PUSH [tag] 2\t\t\tfunction mint(\\n        uint25...\n      PUSH [tag] 188\t\t\tfunction mint(\\n        uint25...\n      CALLDATASIZE \t\t\tfunction mint(\\n        uint25...\n      PUSH 4\t\t\tfunction mint(\\n        uint25...\n      PUSH [tag] 83\t\t\tfunction mint(\\n        uint25...\n      JUMP \t\t\tfunction mint(\\n        uint25...\n    tag 188\t\t\tfunction mint(\\n        uint25...\n      JUMPDEST \t\t\tfunction mint(\\n        uint25...\n      PUSH [tag] 189\t\t\tfunction mint(\\n        uint25...\n      JUMP \t\t\tfunction mint(\\n        uint25...\n    tag 32\t\t\t\n      JUMPDEST \t\t\t\n      CALLVALUE \t\t\t\n      DUP1 \t\t\t\n      ISZERO \t\t\t\n      PUSH [tag] 190\t\t\t\n      JUMPI \t\t\t\n      PUSH 0\t\t\t\n      DUP1 \t\t\t\n      REVERT \t\t\t\n    tag 190\t\t\t\n      JUMPDEST \t\t\t\n      POP \t\t\t\n      PUSH [tag] 2\t\t\t\n      PUSH [tag] 192\t\t\t\n      CALLDATASIZE \t\t\t\n      PUSH 4\t\t\t\n      PUSH [tag] 193\t\t\t\n      JUMP \t\t\t\n    tag 192\t\t\t\n      JUMPDEST \t\t\t\n      PUSH [tag] 194\t\t\t\n      JUMP \t\t\t\n    tag 33\t\t\tuint256 public constant MAX_MI...\n      JUMPDEST \t\t\tuint256 public constant MAX_MI...\n      CALLVALUE \t\t\tuint256 public constant MAX_MI...\n      DUP1 \t\t\tuint256 public constant MAX_MI...\n      ISZERO \t\t\tuint256 public constant MAX_MI...\n      PUSH [tag] 195\t\t\tuint256 public constant MAX_MI...\n      JUMPI \t\t\tuint256 public constant MAX_MI...\n      PUSH 0\t\t\tuint256 public constant MAX_MI...\n      DUP1 \t\t\tuint256 public constant MAX_MI...\n      REVERT \t\t\tuint256 public constant MAX_MI...\n    tag 195\t\t\tuint256 public constant MAX_MI...\n      JUMPDEST \t\t\tuint256 public constant MAX_MI...\n      POP \t\t\tuint256 public constant MAX_MI...\n      PUSH [tag] 92\t\t\tuint256 public constant MAX_MI...\n      PUSH 3\t\t\t3\n      DUP2 \t\t\tuint256 public constant MAX_MI...\n      JUMP \t\t\tuint256 public constant MAX_MI...\n    tag 34\t\t\tfunction getPresaleAllocation(...\n      JUMPDEST \t\t\tfunction getPresaleAllocation(...\n      CALLVALUE \t\t\tfunction getPresaleAllocation(...\n      DUP1 \t\t\tfunction getPresaleAllocation(...\n      ISZERO \t\t\tfunction getPresaleAllocation(...\n      PUSH [tag] 199\t\t\tfunction getPresaleAllocation(...\n      JUMPI \t\t\tfunction getPresaleAllocation(...\n      PUSH 0\t\t\tfunction getPresaleAllocation(...\n      DUP1 \t\t\tfunction getPresaleAllocation(...\n      REVERT \t\t\tfunction getPresaleAllocation(...\n    tag 199\t\t\tfunction getPresaleAllocation(...\n      JUMPDEST \t\t\tfunction getPresaleAllocation(...\n      POP \t\t\t\n      PUSH [tag] 92\t\t\tfunction getPresaleAllocation(...\n      PUSH [tag] 201\t\t\tfunction getPresaleAllocation(...\n      CALLDATASIZE \t\t\tfunction getPresaleAllocation(...\n      PUSH 4\t\t\tfunction getPresaleAllocation(...\n      PUSH [tag] 145\t\t\tfunction getPresaleAllocation(...\n      JUMP \t\t\tfunction getPresaleAllocation(...\n    tag 201\t\t\tfunction getPresaleAllocation(...\n      JUMPDEST \t\t\tfunction getPresaleAllocation(...\n      PUSH 1\t\t\t\n      PUSH 1\t\t\t\n      PUSH A0\t\t\t\n      SHL \t\t\t\n      SUB \t\t\t\n      AND \t\t\t_presaleAllocationsByWallet[wa...\n      PUSH 0\t\t\tuint256\n      SWAP1 \t\t\t_presaleAllocationsByWallet[wa...\n      DUP2 \t\t\t_presaleAllocationsByWallet[wa...\n      MSTORE \t\t\t_presaleAllocationsByWallet[wa...\n      PUSH D\t\t\t_presaleAllocationsByWallet\n      PUSH 20\t\t\t_presaleAllocationsByWallet[wa...\n      MSTORE \t\t\t_presaleAllocationsByWallet[wa...\n      PUSH 40\t\t\t_presaleAllocationsByWallet[wa...\n      SWAP1 \t\t\t_presaleAllocationsByWallet[wa...\n      KECCAK256 \t\t\t_presaleAllocationsByWallet[wa...\n      SLOAD \t\t\t_presaleAllocationsByWallet[wa...\n      SWAP1 \t\t\t_presaleAllocationsByWallet[wa...\n      JUMP \t\t\tfunction getPresaleAllocation(...\n    tag 35\t\t\t\n      JUMPDEST \t\t\t\n      PUSH [tag] 2\t\t\t\n      PUSH [tag] 205\t\t\t\n      CALLDATASIZE \t\t\t\n      PUSH 4\t\t\t\n      PUSH [tag] 206\t\t\t\n      JUMP \t\t\t\n    tag 205\t\t\t\n      JUMPDEST \t\t\t\n      PUSH [tag] 207\t\t\t\n      JUMP \t\t\t\n    tag 36\t\t\t58cf3ac201d8d9dfe63ac7c7d1e7aa...\n      JUMPDEST \t\t\t58cf3ac201d8d9dfe63ac7c7d1e7aa...\n      CALLVALUE \t\t\t58cf3ac201d8d9dfe63ac7c7d1e7aa...\n      DUP1 \t\t\t58cf3ac201d8d9dfe63ac7c7d1e7aa...\n      ISZERO \t\t\t58cf3ac201d8d9dfe63ac7c7d1e7aa...\n      PUSH [tag] 208\t\t\t58cf3ac201d8d9dfe63ac7c7d1e7aa...\n      JUMPI \t\t\t58cf3ac201d8d9dfe63ac7c7d1e7aa...\n      PUSH 0\t\t\t58cf3ac201d8d9dfe63ac7c7d1e7aa...\n      DUP1 \t\t\t58cf3ac201d8d9dfe63ac7c7d1e7aa...\n      REVERT \t\t\t58cf3ac201d8d9dfe63ac7c7d1e7aa...\n    tag 208\t\t\t58cf3ac201d8d9dfe63ac7c7d1e7aa...\n      JUMPDEST \t\t\t58cf3ac201d8d9dfe63ac7c7d1e7aa...\n      POP \t\t\t\n      PUSH [tag] 209\t\t\t58cf3ac201d8d9dfe63ac7c7d1e7aa...\n      PUSH [tag] 210\t\t\t58cf3ac201d8d9dfe63ac7c7d1e7aa...\n      CALLDATASIZE \t\t\t58cf3ac201d8d9dfe63ac7c7d1e7aa...\n      PUSH 4\t\t\t58cf3ac201d8d9dfe63ac7c7d1e7aa...\n      PUSH [tag] 83\t\t\t58cf3ac201d8d9dfe63ac7c7d1e7aa...\n      JUMP \t\t\t58cf3ac201d8d9dfe63ac7c7d1e7aa...\n    tag 210\t\t\t58cf3ac201d8d9dfe63ac7c7d1e7aa...\n      JUMPDEST \t\t\t58cf3ac201d8d9dfe63ac7c7d1e7aa...\n      PUSH [tag] 211\t\t\t58cf3ac201d8d9dfe63ac7c7d1e7aa...\n      JUMP \t\t\t58cf3ac201d8d9dfe63ac7c7d1e7aa...\n    tag 209\t\t\t58cf3ac201d8d9dfe63ac7c7d1e7aa...\n      JUMPDEST \t\t\t58cf3ac201d8d9dfe63ac7c7d1e7aa...\n      PUSH 40\t\t\t58cf3ac201d8d9dfe63ac7c7d1e7aa...\n      MLOAD \t\t\t58cf3ac201d8d9dfe63ac7c7d1e7aa...\n      PUSH [tag] 60\t\t\t58cf3ac201d8d9dfe63ac7c7d1e7aa...\n      SWAP2 \t\t\t58cf3ac201d8d9dfe63ac7c7d1e7aa...\n      SWAP1 \t\t\t58cf3ac201d8d9dfe63ac7c7d1e7aa...\n      PUSH [tag] 213\t\t\t58cf3ac201d8d9dfe63ac7c7d1e7aa...\n      JUMP \t\t\t58cf3ac201d8d9dfe63ac7c7d1e7aa...\n    tag 37\t\t\tfunction setGloomerHash(bytes3...\n      JUMPDEST \t\t\tfunction setGloomerHash(bytes3...\n      CALLVALUE \t\t\tfunction setGloomerHash(bytes3...\n      DUP1 \t\t\tfunction setGloomerHash(bytes3...\n      ISZERO \t\t\tfunction setGloomerHash(bytes3...\n      PUSH [tag] 214\t\t\tfunction setGloomerHash(bytes3...\n      JUMPI \t\t\tfunction setGloomerHash(bytes3...\n      PUSH 0\t\t\tfunction setGloomerHash(bytes3...\n      DUP1 \t\t\tfunction setGloomerHash(bytes3...\n      REVERT \t\t\tfunction setGloomerHash(bytes3...\n    tag 214\t\t\tfunction setGloomerHash(bytes3...\n      JUMPDEST \t\t\tfunction setGloomerHash(bytes3...\n      POP \t\t\t\n      PUSH [tag] 2\t\t\tfunction setGloomerHash(bytes3...\n      PUSH [tag] 216\t\t\tfunction setGloomerHash(bytes3...\n      CALLDATASIZE \t\t\tfunction setGloomerHash(bytes3...\n      PUSH 4\t\t\tfunction setGloomerHash(bytes3...\n      PUSH [tag] 83\t\t\tfunction setGloomerHash(bytes3...\n      JUMP \t\t\tfunction setGloomerHash(bytes3...\n    tag 216\t\t\tfunction setGloomerHash(bytes3...\n      JUMPDEST \t\t\tfunction setGloomerHash(bytes3...\n      PUSH [tag] 218\t\t\tfunction setGloomerHash(bytes3...\n      JUMP \t\t\tfunction setGloomerHash(bytes3...\n    tag 38\t\t\tfunction tokenURI(\\n        ui...\n      JUMPDEST \t\t\tfunction tokenURI(\\n        ui...\n      CALLVALUE \t\t\tfunction tokenURI(\\n        ui...\n      DUP1 \t\t\tfunction tokenURI(\\n        ui...\n      ISZERO \t\t\tfunction tokenURI(\\n        ui...\n      PUSH [tag] 219\t\t\tfunction tokenURI(\\n        ui...\n      JUMPI \t\t\tfunction tokenURI(\\n        ui...\n      PUSH 0\t\t\tfunction tokenURI(\\n        ui...\n      DUP1 \t\t\tfunction tokenURI(\\n        ui...\n      REVERT \t\t\tfunction tokenURI(\\n        ui...\n    tag 219\t\t\tfunction tokenURI(\\n        ui...\n      JUMPDEST \t\t\tfunction tokenURI(\\n        ui...\n      POP \t\t\t\n      PUSH [tag] 76\t\t\tfunction tokenURI(\\n        ui...\n      PUSH [tag] 221\t\t\tfunction tokenURI(\\n        ui...\n      CALLDATASIZE \t\t\tfunction tokenURI(\\n        ui...\n      PUSH 4\t\t\tfunction tokenURI(\\n        ui...\n      PUSH [tag] 83\t\t\tfunction tokenURI(\\n        ui...\n      JUMP \t\t\tfunction tokenURI(\\n        ui...\n    tag 221\t\t\tfunction tokenURI(\\n        ui...\n      JUMPDEST \t\t\tfunction tokenURI(\\n        ui...\n      PUSH [tag] 222\t\t\tfunction tokenURI(\\n        ui...\n      JUMP \t\t\tfunction tokenURI(\\n        ui...\n    tag 39\t\t\tteleburning to Bitcoin\\n */\\nc...\n      JUMPDEST \t\t\tteleburning to Bitcoin\\n */\\nc...\n      CALLVALUE \t\t\tteleburning to Bitcoin\\n */\\nc...\n      DUP1 \t\t\tteleburning to Bitcoin\\n */\\nc...\n      ISZERO \t\t\tteleburning to Bitcoin\\n */\\nc...\n      PUSH [tag] 224\t\t\tteleburning to Bitcoin\\n */\\nc...\n      JUMPI \t\t\tteleburning to Bitcoin\\n */\\nc...\n      PUSH 0\t\t\tteleburning to Bitcoin\\n */\\nc...\n      DUP1 \t\t\tteleburning to Bitcoin\\n */\\nc...\n      REVERT \t\t\tteleburning to Bitcoin\\n */\\nc...\n    tag 224\t\t\tteleburning to Bitcoin\\n */\\nc...\n      JUMPDEST \t\t\tteleburning to Bitcoin\\n */\\nc...\n      POP \t\t\t\n      PUSH 28F75032\t\t\t ERC2981,\\n    Ownable\\n{\\n   ...\n      SLOAD \t\t\te,\\n    ERC2981,\\n    Ownable\\...\n      PUSH [tag] 92\t\t\tteleburning to Bitcoin\\n */\\nc...\n      JUMP \t\t\tteleburning to Bitcoin\\n */\\nc...\n    tag 40\t\t\t\n      JUMPDEST \t\t\t\n      CALLVALUE \t\t\t\n      DUP1 \t\t\t\n      ISZERO \t\t\t\n      PUSH [tag] 228\t\t\t\n      JUMPI \t\t\t\n      PUSH 0\t\t\t\n      DUP1 \t\t\t\n      REVERT \t\t\t\n    tag 228\t\t\t\n      JUMPDEST \t\t\t\n      POP \t\t\t\n      PUSH [tag] 56\t\t\t\n      PUSH [tag] 230\t\t\t\n      CALLDATASIZE \t\t\t\n      PUSH 4\t\t\t\n      PUSH [tag] 231\t\t\t\n      JUMP \t\t\t\n    tag 230\t\t\t\n      JUMPDEST \t\t\t\n      PUSH 1\t\t\t\n      PUSH 1\t\t\t\n      PUSH A0\t\t\t\n      SHL \t\t\t\n      SUB \t\t\t\n      SWAP2 \t\t\t\n      DUP3 \t\t\t\n      AND \t\t\t\n      PUSH 0\t\t\t\n      SWAP1 \t\t\t\n      DUP2 \t\t\t\n      MSTORE \t\t\t\n      PUSH 7\t\t\t\n      PUSH 20\t\t\t\n      SWAP1 \t\t\t\n      DUP2 \t\t\t\n      MSTORE \t\t\t\n      PUSH 40\t\t\t\n      DUP1 \t\t\t\n      DUP4 \t\t\t\n      KECCAK256 \t\t\t\n      SWAP4 \t\t\t\n      SWAP1 \t\t\t\n      SWAP5 \t\t\t\n      AND \t\t\t\n      DUP3 \t\t\t\n      MSTORE \t\t\t\n      SWAP2 \t\t\t\n      SWAP1 \t\t\t\n      SWAP2 \t\t\t\n      MSTORE \t\t\t\n      KECCAK256 \t\t\t\n      SLOAD \t\t\t\n      PUSH FF\t\t\t\n      AND \t\t\t\n      SWAP1 \t\t\t\n      JUMP \t\t\t\n    tag 41\t\t\tintPerWallet();\\n    error Exc...\n      JUMPDEST \t\t\tintPerWallet();\\n    error Exc...\n      CALLVALUE \t\t\tintPerWallet();\\n    error Exc...\n      DUP1 \t\t\tintPerWallet();\\n    error Exc...\n      ISZERO \t\t\tintPerWallet();\\n    error Exc...\n      PUSH [tag] 234\t\t\tintPerWallet();\\n    error Exc...\n      JUMPI \t\t\tintPerWallet();\\n    error Exc...\n      PUSH 0\t\t\tintPerWallet();\\n    error Exc...\n      DUP1 \t\t\tintPerWallet();\\n    error Exc...\n      REVERT \t\t\tintPerWallet();\\n    error Exc...\n    tag 234\t\t\tintPerWallet();\\n    error Exc...\n      JUMPDEST \t\t\tintPerWallet();\\n    error Exc...\n      POP \t\t\t\n      PUSH [tag] 2\t\t\tintPerWallet();\\n    error Exc...\n      PUSH [tag] 236\t\t\tintPerWallet();\\n    error Exc...\n      CALLDATASIZE \t\t\tintPerWallet();\\n    error Exc...\n      PUSH 4\t\t\tintPerWallet();\\n    error Exc...\n      PUSH [tag] 145\t\t\tintPerWallet();\\n    error Exc...\n      JUMP \t\t\tintPerWallet();\\n    error Exc...\n    tag 236\t\t\tintPerWallet();\\n    error Exc...\n      JUMPDEST \t\t\tintPerWallet();\\n    error Exc...\n      PUSH [tag] 237\t\t\tintPerWallet();\\n    error Exc...\n      JUMP \t\t\tintPerWallet();\\n    error Exc...\n    tag 42\t\t\tuint256 public constant WHITEL...\n      JUMPDEST \t\t\tuint256 public constant WHITEL...\n      CALLVALUE \t\t\tuint256 public constant WHITEL...\n      DUP1 \t\t\tuint256 public constant WHITEL...\n      ISZERO \t\t\tuint256 public constant WHITEL...\n      PUSH [tag] 238\t\t\tuint256 public constant WHITEL...\n      JUMPI \t\t\tuint256 public constant WHITEL...\n      PUSH 0\t\t\tuint256 public constant WHITEL...\n      DUP1 \t\t\tuint256 public constant WHITEL...\n      REVERT \t\t\tuint256 public constant WHITEL...\n    tag 238\t\t\tuint256 public constant WHITEL...\n      JUMPDEST \t\t\tuint256 public constant WHITEL...\n      POP \t\t\tuint256 public constant WHITEL...\n      PUSH [tag] 92\t\t\tuint256 public constant WHITEL...\n      PUSH 66365B80\t\t\t1714838400\n      DUP2 \t\t\tuint256 public constant WHITEL...\n      JUMP \t\t\tuint256 public constant WHITEL...\n    tag 43\t\t\tbytes32 public constant PROVEN...\n      JUMPDEST \t\t\tbytes32 public constant PROVEN...\n      CALLVALUE \t\t\tbytes32 public constant PROVEN...\n      DUP1 \t\t\tbytes32 public constant PROVEN...\n      ISZERO \t\t\tbytes32 public constant PROVEN...\n      PUSH [tag] 242\t\t\tbytes32 public constant PROVEN...\n      JUMPI \t\t\tbytes32 public constant PROVEN...\n      PUSH 0\t\t\tbytes32 public constant PROVEN...\n      DUP1 \t\t\tbytes32 public constant PROVEN...\n      REVERT \t\t\tbytes32 public constant PROVEN...\n    tag 242\t\t\tbytes32 public constant PROVEN...\n      JUMPDEST \t\t\tbytes32 public constant PROVEN...\n      POP \t\t\t\n      PUSH [tag] 92\t\t\tbytes32 public constant PROVEN...\n      PUSH 5158CF3AC201D8D9DFE63AC7C7D1E7AA58B7C33426665C9BF643E0003E095E2F\t\t\t0x5158cf3ac201d8d9dfe63ac7c7d1...\n      DUP2 \t\t\tbytes32 public constant PROVEN...\n      JUMP \t\t\tbytes32 public constant PROVEN...\n    tag 59\t\t\tfunction supportsInterface(\\n ...\n      JUMPDEST \t\t\tfunction supportsInterface(\\n ...\n      PUSH 0\t\t\tbool\n      PUSH [tag] 248\t\t\tERC721A.supportsInterface(inte...\n      DUP3 \t\t\tinterfaceId\n      PUSH [tag] 249\t\t\tERC721A.supportsInterface\n      JUMP \t\t\tERC721A.supportsInterface(inte...\n    tag 248\t\t\tERC721A.supportsInterface(inte...\n      JUMPDEST \t\t\tERC721A.supportsInterface(inte...\n      DUP1 \t\t\tERC721A.supportsInterface(inte...\n      PUSH [tag] 251\t\t\tERC721A.supportsInterface(inte...\n      JUMPI \t\t\tERC721A.supportsInterface(inte...\n      POP \t\t\tERC721A.supportsInterface(inte...\n      PUSH [tag] 251\t\t\tERC2981.supportsInterface(inte...\n      DUP3 \t\t\tinterfaceId\n      PUSH [tag] 252\t\t\tERC2981.supportsInterface\n      JUMP \t\t\tERC2981.supportsInterface(inte...\n    tag 251\t\t\tERC2981.supportsInterface(inte...\n      JUMPDEST \t\t\tERC2981.supportsInterface(inte...\n      SWAP3 \t\t\treturn\\n            ERC721A.su...\n      SWAP2 \t\t\tfunction supportsInterface(\\n ...\n      POP \t\t\t\n      POP \t\t\t\n      JUMP \t\t\tfunction supportsInterface(\\n ...\n    tag 66\t\t\tfunction setDefaultRoyalty(\\n ...\n      JUMPDEST \t\t\tfunction setDefaultRoyalty(\\n ...\n      PUSH [tag] 254\t\t\ttedPerWallet;\n      PUSH [tag] 255\t\t\ttedPerWalle\n      JUMP \t\t\ttedPerWallet;\n    tag 254\t\t\ttedPerWallet;\n      JUMPDEST \t\t\ttedPerWallet;\n      PUSH [tag] 257\t\t\t_setDefaultRoyalty(receiver, f...\n      DUP3 \t\t\treceiver\n      DUP3 \t\t\tfeeNumerator\n      PUSH [tag] 258\t\t\t_setDefaultRoyalty\n      JUMP \t\t\t_setDefaultRoyalty(receiver, f...\n    tag 257\t\t\t_setDefaultRoyalty(receiver, f...\n      JUMPDEST \t\t\t_setDefaultRoyalty(receiver, f...\n      POP \t\t\tfunction setDefaultRoyalty(\\n ...\n      POP \t\t\tfunction setDefaultRoyalty(\\n ...\n      JUMP \t\t\tfunction setDefaultRoyalty(\\n ...\n    tag 69\t\t\tfunction claimPresale()\\n     ...\n      JUMPDEST \t\t\tfunction claimPresale()\\n     ...\n      PUSH 0\t\t\tDropStatus.DISABLED\n      PUSH B\t\t\tdropStatus\n      SLOAD \t\t\tdropStatus\n      PUSH 1\t\t\t\n      PUSH A0\t\t\t\n      SHL \t\t\t\n      SWAP1 \t\t\tdropStatus\n      DIV \t\t\tdropStatus\n      PUSH FF\t\t\tdropStatus\n      AND \t\t\tdropStatus\n      PUSH 3\t\t\tdropStatus == DropStatus.DISAB...\n      DUP2 \t\t\tdropStatus == DropStatus.DISAB...\n      GT \t\t\tdropStatus == DropStatus.DISAB...\n      ISZERO \t\t\tdropStatus == DropStatus.DISAB...\n      PUSH [tag] 264\t\t\tdropStatus == DropStatus.DISAB...\n      JUMPI \t\t\tdropStatus == DropStatus.DISAB...\n      PUSH [tag] 264\t\t\tdropStatus == DropStatus.DISAB...\n      PUSH [tag] 262\t\t\tdropStatus == DropStatus.DISAB...\n      JUMP \t\t\tdropStatus == DropStatus.DISAB...\n    tag 264\t\t\tdropStatus == DropStatus.DISAB...\n      JUMPDEST \t\t\tdropStatus == DropStatus.DISAB...\n      SUB \t\t\tdropStatus == DropStatus.DISAB...\n      PUSH [tag] 265\t\t\tif (dropStatus == DropStatus.D...\n      JUMPI \t\t\tif (dropStatus == DropStatus.D...\n      PUSH 40\t\t\tMintingDisabled()\n      MLOAD \t\t\tMintingDisabled()\n      PUSH AF79B437\t\t\t\n      PUSH E0\t\t\t\n      SHL \t\t\t\n      DUP2 \t\t\tMintingDisabled()\n      MSTORE \t\t\tMintingDisabled()\n      PUSH 4\t\t\tMintingDisabled()\n      ADD \t\t\tMintingDisabled()\n      PUSH 40\t\t\tMintingDisabled()\n      MLOAD \t\t\tMintingDisabled()\n      DUP1 \t\t\tMintingDisabled()\n      SWAP2 \t\t\tMintingDisabled()\n      SUB \t\t\tMintingDisabled()\n      SWAP1 \t\t\tMintingDisabled()\n      REVERT \t\t\tMintingDisabled()\n    tag 265\t\t\tif (dropStatus == DropStatus.D...\n      JUMPDEST \t\t\tif (dropStatus == DropStatus.D...\n      PUSH 66365B80\t\t\t1714838400\n      TIMESTAMP \t\t\tblock.timestamp\n      LT \t\t\tblock.timestamp < WHITELIST_ST...\n      ISZERO \t\t\tif (block.timestamp < WHITELIS...\n      PUSH [tag] 267\t\t\tif (block.timestamp < WHITELIS...\n      JUMPI \t\t\tif (block.timestamp < WHITELIS...\n      PUSH 40\t\t\tClaimNotActive()\n      MLOAD \t\t\tClaimNotActive()\n      PUSH 24FBAA9\t\t\t\n      PUSH E4\t\t\t\n      SHL \t\t\t\n      DUP2 \t\t\tClaimNotActive()\n      MSTORE \t\t\tClaimNotActive()\n      PUSH 4\t\t\tClaimNotActive()\n      ADD \t\t\tClaimNotActive()\n      PUSH 40\t\t\tClaimNotActive()\n      MLOAD \t\t\tClaimNotActive()\n      DUP1 \t\t\tClaimNotActive()\n      SWAP2 \t\t\tClaimNotActive()\n      SUB \t\t\tClaimNotActive()\n      SWAP1 \t\t\tClaimNotActive()\n      REVERT \t\t\tClaimNotActive()\n    tag 267\t\t\tif (block.timestamp < WHITELIS...\n      JUMPDEST \t\t\tif (block.timestamp < WHITELIS...\n      CALLER \t\t\tmsg.sender\n      PUSH 0\t\t\t_presaleAllocationsByWallet[ms...\n      SWAP1 \t\t\t_presaleAllocationsByWallet[ms...\n      DUP2 \t\t\t_presaleAllocationsByWallet[ms...\n      MSTORE \t\t\t_presaleAllocationsByWallet[ms...\n      PUSH D\t\t\t_presaleAllocationsByWallet\n      PUSH 20\t\t\t_presaleAllocationsByWallet[ms...\n      MSTORE \t\t\t_presaleAllocationsByWallet[ms...\n      PUSH 40\t\t\t_presaleAllocationsByWallet[ms...\n      DUP2 \t\t\t_presaleAllocationsByWallet[ms...\n      KECCAK256 \t\t\t_presaleAllocationsByWallet[ms...\n      SLOAD \t\t\t_presaleAllocationsByWallet[ms...\n      SWAP1 \t\t\t_presaleAllocationsByWallet[ms...\n      SUB \t\t\t_presaleAllocationsByWallet[ms...\n      PUSH [tag] 269\t\t\tif (_presaleAllocationsByWalle...\n      JUMPI \t\t\tif (_presaleAllocationsByWalle...\n      PUSH 40\t\t\tNotEligible()\n      MLOAD \t\t\tNotEligible()\n      PUSH 7C75AA6F\t\t\t\n      PUSH E1\t\t\t\n      SHL \t\t\t\n      DUP2 \t\t\tNotEligible()\n      MSTORE \t\t\tNotEligible()\n      PUSH 4\t\t\tNotEligible()\n      ADD \t\t\tNotEligible()\n      PUSH 40\t\t\tNotEligible()\n      MLOAD \t\t\tNotEligible()\n      DUP1 \t\t\tNotEligible()\n      SWAP2 \t\t\tNotEligible()\n      SUB \t\t\tNotEligible()\n      SWAP1 \t\t\tNotEligible()\n      REVERT \t\t\tNotEligible()\n    tag 269\t\t\tif (_presaleAllocationsByWalle...\n      JUMPDEST \t\t\tif (_presaleAllocationsByWalle...\n      CALLER \t\t\tmsg.sender\n      PUSH 0\t\t\t_presaleAllocationsByWallet[ms...\n      SWAP1 \t\t\t_presaleAllocationsByWallet[ms...\n      DUP2 \t\t\t_presaleAllocationsByWallet[ms...\n      MSTORE \t\t\t_presaleAllocationsByWallet[ms...\n      PUSH D\t\t\t_presaleAllocationsByWallet\n      PUSH 20\t\t\t_presaleAllocationsByWallet[ms...\n      SWAP1 \t\t\t_presaleAllocationsByWallet[ms...\n      DUP2 \t\t\t_presaleAllocationsByWallet[ms...\n      MSTORE \t\t\t_presaleAllocationsByWallet[ms...\n      PUSH 40\t\t\t_presaleAllocationsByWallet[ms...\n      DUP1 \t\t\t_presaleAllocationsByWallet[ms...\n      DUP4 \t\t\t_presaleAllocationsByWallet[ms...\n      KECCAK256 \t\t\t_presaleAllocationsByWallet[ms...\n      SLOAD \t\t\t_presaleAllocationsByWallet[ms...\n      PUSH C\t\t\t_mintedPerWallet\n      SWAP1 \t\t\t_mintedPerWallet[msg.sender]\n      SWAP3 \t\t\t_mintedPerWallet[msg.sender]\n      MSTORE \t\t\t_mintedPerWallet[msg.sender]\n      SWAP1 \t\t\t_mintedPerWallet[msg.sender]\n      SWAP2 \t\t\t_mintedPerWallet[msg.sender]\n      KECCAK256 \t\t\t_mintedPerWallet[msg.sender]\n      SLOAD \t\t\t_mintedPerWallet[msg.sender]\n      PUSH 3\t\t\t3\n      SWAP1 \t\t\t3\n      DUP3 \t\t\t_presaleAllocationsByWallet[ms...\n      SWAP1 \t\t\t_presaleAllocationsByWallet[ms...\n      PUSH [tag] 271\t\t\t_mintedPerWallet[msg.sender] +...\n      SWAP1 \t\t\t_mintedPerWallet[msg.sender] +...\n      DUP3 \t\t\t_presaleAllocationsByWallet[ms...\n      SWAP1 \t\t\t_presaleAllocationsByWallet[ms...\n      PUSH [tag] 272\t\t\t_mintedPerWallet[msg.sender] +...\n      JUMP \t\t\t_mintedPerWallet[msg.sender] +...\n    tag 271\t\t\t_mintedPerWallet[msg.sender] +...\n      JUMPDEST \t\t\t_mintedPerWallet[msg.sender] +...\n      PUSH [tag] 273\t\t\t_mintedPerWallet[msg.sender] +...\n      SWAP2 \t\t\t_mintedPerWallet[msg.sender] +...\n      SWAP1 \t\t\t_mintedPerWallet[msg.sender] +...\n      PUSH [tag] 272\t\t\t_mintedPerWallet[msg.sender] +...\n      JUMP \t\t\t_mintedPerWallet[msg.sender] +...\n    tag 273\t\t\t_mintedPerWallet[msg.sender] +...\n      JUMPDEST \t\t\t_mintedPerWallet[msg.sender] +...\n      GT \t\t\t_mintedPerWallet[msg.sender] +...\n      DUP1 \t\t\t_mintedPerWallet[msg.sender] +...\n      ISZERO \t\t\t_mintedPerWallet[msg.sender] +...\n      PUSH [tag] 274\t\t\t_mintedPerWallet[msg.sender] +...\n      JUMPI \t\t\t_mintedPerWallet[msg.sender] +...\n      POP \t\t\t\n      PUSH B\t\t\t\\n    u\n      SLOAD \t\t\t\\n    u\n      PUSH 1\t\t\t\n      PUSH 1\t\t\t\n      PUSH A0\t\t\t\n      SHL \t\t\t\n      SUB \t\t\t\n      AND \t\t\t\\n    u\n      CALLER \t\t\tmsg.sender\n      EQ \t\t\tmsg.sender != owner()\n      ISZERO \t\t\tmsg.sender != owner()\n    tag 274\t\t\t_mintedPerWallet[msg.sender] +...\n      JUMPDEST \t\t\t_mintedPerWallet[msg.sender] +...\n      ISZERO \t\t\tif (\\n            _mintedPerWa...\n      PUSH [tag] 276\t\t\tif (\\n            _mintedPerWa...\n      JUMPI \t\t\tif (\\n            _mintedPerWa...\n      PUSH 40\t\t\tExceedsMaxMintPerWallet()\n      MLOAD \t\t\tExceedsMaxMintPerWallet()\n      PUSH 67EEC833\t\t\t\n      PUSH E0\t\t\t\n      SHL \t\t\t\n      DUP2 \t\t\tExceedsMaxMintPerWallet()\n      MSTORE \t\t\tExceedsMaxMintPerWallet()\n      PUSH 4\t\t\tExceedsMaxMintPerWallet()\n      ADD \t\t\tExceedsMaxMintPerWallet()\n      PUSH 40\t\t\tExceedsMaxMintPerWallet()\n      MLOAD \t\t\tExceedsMaxMintPerWallet()\n      DUP1 \t\t\tExceedsMaxMintPerWallet()\n      SWAP2 \t\t\tExceedsMaxMintPerWallet()\n      SUB \t\t\tExceedsMaxMintPerWallet()\n      SWAP1 \t\t\tExceedsMaxMintPerWallet()\n      REVERT \t\t\tExceedsMaxMintPerWallet()\n    tag 276\t\t\tif (\\n            _mintedPerWa...\n      JUMPDEST \t\t\tif (\\n            _mintedPerWa...\n      ORIGIN \t\t\ttx.origin\n      CALLER \t\t\tmsg.sender\n      EQ \t\t\ttx.origin != msg.sender\n      PUSH [tag] 278\t\t\tif (tx.origin != msg.sender) {...\n      JUMPI \t\t\tif (tx.origin != msg.sender) {...\n      PUSH 40\t\t\tNonEOACaller()\n      MLOAD \t\t\tNonEOACaller()\n      PUSH 58516B3F\t\t\t\n      PUSH E0\t\t\t\n      SHL \t\t\t\n      DUP2 \t\t\tNonEOACaller()\n      MSTORE \t\t\tNonEOACaller()\n      PUSH 4\t\t\tNonEOACaller()\n      ADD \t\t\tNonEOACaller()\n      PUSH 40\t\t\tNonEOACaller()\n      MLOAD \t\t\tNonEOACaller()\n      DUP1 \t\t\tNonEOACaller()\n      SWAP2 \t\t\tNonEOACaller()\n      SUB \t\t\tNonEOACaller()\n      SWAP1 \t\t\tNonEOACaller()\n      REVERT \t\t\tNonEOACaller()\n    tag 278\t\t\tif (tx.origin != msg.sender) {...\n      JUMPDEST \t\t\tif (tx.origin != msg.sender) {...\n      CALLER \t\t\tmsg.sender\n      PUSH 0\t\t\tuint256 quantity\n      SWAP1 \t\t\t_presaleAllocationsByWallet[ms...\n      DUP2 \t\t\t_presaleAllocationsByWallet[ms...\n      MSTORE \t\t\t_presaleAllocationsByWallet[ms...\n      PUSH D\t\t\t_presaleAllocationsByWallet\n      PUSH 20\t\t\t_presaleAllocationsByWallet[ms...\n      SWAP1 \t\t\t_presaleAllocationsByWallet[ms...\n      DUP2 \t\t\t_presaleAllocationsByWallet[ms...\n      MSTORE \t\t\t_presaleAllocationsByWallet[ms...\n      PUSH 40\t\t\t_presaleAllocationsByWallet[ms...\n      DUP1 \t\t\t_presaleAllocationsByWallet[ms...\n      DUP4 \t\t\t_presaleAllocationsByWallet[ms...\n      KECCAK256 \t\t\t_presaleAllocationsByWallet[ms...\n      SLOAD \t\t\t_presaleAllocationsByWallet[ms...\n      PUSH C\t\t\t_mintedPerWallet\n      SWAP1 \t\t\t_mintedPerWallet[msg.sender]\n      SWAP3 \t\t\t_mintedPerWallet[msg.sender]\n      MSTORE \t\t\t_mintedPerWallet[msg.sender]\n      DUP3 \t\t\t_mintedPerWallet[msg.sender]\n      KECCAK256 \t\t\t_mintedPerWallet[msg.sender]\n      DUP1 \t\t\t_mintedPerWallet[msg.sender] +...\n      SLOAD \t\t\t_mintedPerWallet[msg.sender] +...\n      SWAP2 \t\t\t_presaleAllocationsByWallet[ms...\n      SWAP3 \t\t\t_presaleAllocationsByWallet[ms...\n      DUP4 \t\t\t_presaleAllocationsByWallet[ms...\n      SWAP3 \t\t\t_presaleAllocationsByWallet[ms...\n      PUSH [tag] 280\t\t\t_mintedPerWallet[msg.sender] +...\n      SWAP1 \t\t\t_mintedPerWallet[msg.sender] +...\n      DUP5 \t\t\t_presaleAllocationsByWallet[ms...\n      SWAP1 \t\t\t_presaleAllocationsByWallet[ms...\n      PUSH [tag] 272\t\t\t_mintedPerWallet[msg.sender] +...\n      JUMP \t\t\t_mintedPerWallet[msg.sender] +...\n    tag 280\t\t\t_mintedPerWallet[msg.sender] +...\n      JUMPDEST \t\t\t_mintedPerWallet[msg.sender] +...\n      SWAP1 \t\t\t_mintedPerWallet[msg.sender] +...\n      SWAP2 \t\t\t_mintedPerWallet[msg.sender] +...\n      SSTORE \t\t\t_mintedPerWallet[msg.sender] +...\n      POP \t\t\t\n      POP \t\t\t\n      CALLER \t\t\tmsg.sender\n      PUSH 0\t\t\t0\n      SWAP1 \t\t\t_presaleAllocationsByWallet[ms...\n      DUP2 \t\t\t_presaleAllocationsByWallet[ms...\n      MSTORE \t\t\t_presaleAllocationsByWallet[ms...\n      PUSH D\t\t\t_presaleAllocationsByWallet\n      PUSH 20\t\t\t_presaleAllocationsByWallet[ms...\n      MSTORE \t\t\t_presaleAllocationsByWallet[ms...\n      PUSH 40\t\t\t_presaleAllocationsByWallet[ms...\n      DUP2 \t\t\t_presaleAllocationsByWallet[ms...\n      KECCAK256 \t\t\t_presaleAllocationsByWallet[ms...\n      DUP2 \t\t\t_presaleAllocationsByWallet[ms...\n      SWAP1 \t\t\t_presaleAllocationsByWallet[ms...\n      SSTORE \t\t\t_presaleAllocationsByWallet[ms...\n      PUSH 10\t\t\t_presaleSupplyOffset\n      DUP1 \t\t\t_presaleSupplyOffset -= quanti...\n      SLOAD \t\t\t_presaleSupplyOffset -= quanti...\n      DUP4 \t\t\tquantity\n      SWAP3 \t\t\tquantity\n      SWAP1 \t\t\t0\n      PUSH [tag] 281\t\t\t_presaleSupplyOffset -= quanti...\n      SWAP1 \t\t\t_presaleSupplyOffset -= quanti...\n      DUP5 \t\t\tquantity\n      SWAP1 \t\t\tquantity\n      PUSH [tag] 282\t\t\t_presaleSupplyOffset -= quanti...\n      JUMP \t\t\t_presaleSupplyOffset -= quanti...\n    tag 281\t\t\t_presaleSupplyOffset -= quanti...\n      JUMPDEST \t\t\t_presaleSupplyOffset -= quanti...\n      SWAP1 \t\t\t_presaleSupplyOffset -= quanti...\n      SWAP2 \t\t\t_presaleSupplyOffset -= quanti...\n      SSTORE \t\t\t_presaleSupplyOffset -= quanti...\n      POP \t\t\t\n      PUSH [tag] 283\t\t\t_mint(msg.sender, quantity)\n      SWAP1 \t\t\t_mint(msg.sender, quantity)\n      POP \t\t\t\n      CALLER \t\t\tmsg.sender\n      DUP3 \t\t\tquantity\n      PUSH [tag] 284\t\t\t_mint\n      JUMP \t\t\t_mint(msg.sender, quantity)\n    tag 283\t\t\t_mint(msg.sender, quantity)\n      JUMPDEST \t\t\t_mint(msg.sender, quantity)\n      PUSH 40\t\t\tGloomersMint(msg.sender, quant...\n      MLOAD \t\t\tGloomersMint(msg.sender, quant...\n      DUP2 \t\t\tamp > PUBLIC_MINT_TIMESTA\n      DUP2 \t\t\tamp > PUBLIC_MINT_TIMESTA\n      MSTORE \t\t\tamp > PUBLIC_MINT_TIMESTA\n      CALLER \t\t\tmsg.sender\n      SWAP1 \t\t\tmsg.sender\n      PUSH F07265907AAF7B6329BB73E97EA492CCBBC0678C94313E1F8331013A2E269D33\t\t\tGloomersMint(msg.sender, quant...\n      SWAP1 \t\t\tGloomersMint(msg.sender, quant...\n      PUSH 20\t\t\tbl\n      ADD \t\t\t||\\n            blo\n      PUSH 40\t\t\tGloomersMint(msg.sender, quant...\n      MLOAD \t\t\tGloomersMint(msg.sender, quant...\n      DUP1 \t\t\tGloomersMint(msg.sender, quant...\n      SWAP2 \t\t\tGloomersMint(msg.sender, quant...\n      SUB \t\t\tGloomersMint(msg.sender, quant...\n      SWAP1 \t\t\tGloomersMint(msg.sender, quant...\n      LOG2 \t\t\tGloomersMint(msg.sender, quant...\n      POP \t\t\t{\\n        uint256 quantity = ...\n      POP \t\t\t_\n      JUMP \t\t\tfunction claimPresale()\\n     ...\n    tag 74\t\t\tfunction setTokenUri(string ca...\n      JUMPDEST \t\t\tfunction setTokenUri(string ca...\n      PUSH [tag] 287\t\t\ttedPerWallet;\n      PUSH [tag] 255\t\t\ttedPerWalle\n      JUMP \t\t\ttedPerWallet;\n    tag 287\t\t\ttedPerWallet;\n      JUMPDEST \t\t\ttedPerWallet;\n      PUSH 12\t\t\trevealed\n      DUP1 \t\t\trevealed = true\n      SLOAD \t\t\trevealed = true\n      PUSH FF\t\t\t\n      NOT \t\t\t\n      AND \t\t\trevealed = true\n      PUSH 1\t\t\ttrue\n      OR \t\t\trevealed = true\n      SWAP1 \t\t\trevealed = true\n      SSTORE \t\t\trevealed = true\n      PUSH 13\t\t\t_baseTokenURI\n      PUSH [tag] 289\t\t\t_baseTokenURI = baseTokenURI_\n      DUP3 \t\t\tbaseTokenURI_\n      DUP5 \t\t\tbaseTokenURI_\n      DUP4 \t\t\t_baseTokenURI\n      PUSH [tag] 290\t\t\t_baseTokenURI = baseTokenURI_\n      JUMP \t\t\t_baseTokenURI = baseTokenURI_\n    tag 289\t\t\t_baseTokenURI = baseTokenURI_\n      JUMPDEST \t\t\t_baseTokenURI = baseTokenURI_\n      POP \t\t\t_baseTokenURI = baseTokenURI_\n      PUSH 6BD5C950A8D8DF17F772F5AF37CB3655737899CBF903264B9795592DA439661C\t\t\tBatchMetadataUpdate(_startToke...\n      PUSH [tag] 291\t\t\t_startTokenId()\n      PUSH [tag] 292\t\t\t_startTokenId\n      JUMP \t\t\t_startTokenId()\n    tag 291\t\t\t_startTokenId()\n      JUMPDEST \t\t\t_startTokenId()\n      PUSH 40\t\t\tBatchMetadataUpdate(_startToke...\n      DUP1 \t\t\tBatchMetadataUpdate(_startToke...\n      MLOAD \t\t\tBatchMetadataUpdate(_startToke...\n      SWAP2 \t\t\t\n      DUP3 \t\t\t\n      MSTORE \t\t\t\n      PUSH 0\t\t\t\n      NOT \t\t\t\n      PUSH 20\t\t\t\n      DUP4 \t\t\t\n      ADD \t\t\t\n      MSTORE \t\t\t\n      ADD \t\t\t\n      PUSH 40\t\t\tBatchMetadataUpdate(_startToke...\n      MLOAD \t\t\tBatchMetadataUpdate(_startToke...\n      DUP1 \t\t\tBatchMetadataUpdate(_startToke...\n      SWAP2 \t\t\tBatchMetadataUpdate(_startToke...\n      SUB \t\t\tBatchMetadataUpdate(_startToke...\n      SWAP1 \t\t\tBatchMetadataUpdate(_startToke...\n      LOG1 \t\t\tBatchMetadataUpdate(_startToke...\n      POP \t\t\tfunction setTokenUri(string ca...\n      POP \t\t\tfunction setTokenUri(string ca...\n      JUMP \t\t\tfunction setTokenUri(string ca...\n    tag 77\t\t\t\n      JUMPDEST \t\t\t\n      PUSH 60\t\t\t\n      PUSH 2\t\t\t\n      DUP1 \t\t\t\n      SLOAD \t\t\t\n      PUSH [tag] 296\t\t\t\n      SWAP1 \t\t\t\n      PUSH [tag] 297\t\t\t\n      JUMP \t\t\t\n    tag 296\t\t\t\n      JUMPDEST \t\t\t\n      DUP1 \t\t\t\n      PUSH 1F\t\t\t\n      ADD \t\t\t\n      PUSH 20\t\t\t\n      DUP1 \t\t\t\n      SWAP2 \t\t\t\n      DIV \t\t\t\n      MUL \t\t\t\n      PUSH 20\t\t\t\n      ADD \t\t\t\n      PUSH 40\t\t\t\n      MLOAD \t\t\t\n      SWAP1 \t\t\t\n      DUP2 \t\t\t\n      ADD \t\t\t\n      PUSH 40\t\t\t\n      MSTORE \t\t\t\n      DUP1 \t\t\t\n      SWAP3 \t\t\t\n      SWAP2 \t\t\t\n      SWAP1 \t\t\t\n      DUP2 \t\t\t\n      DUP2 \t\t\t\n      MSTORE \t\t\t\n      PUSH 20\t\t\t\n      ADD \t\t\t\n      DUP3 \t\t\t\n      DUP1 \t\t\t\n      SLOAD \t\t\t\n      PUSH [tag] 298\t\t\t\n      SWAP1 \t\t\t\n      PUSH [tag] 297\t\t\t\n      JUMP \t\t\t\n    tag 298\t\t\t\n      JUMPDEST \t\t\t\n      DUP1 \t\t\t\n      ISZERO \t\t\t\n      PUSH [tag] 299\t\t\t\n      JUMPI \t\t\t\n      DUP1 \t\t\t\n      PUSH 1F\t\t\t\n      LT \t\t\t\n      PUSH [tag] 300\t\t\t\n      JUMPI \t\t\t\n      PUSH 100\t\t\t\n      DUP1 \t\t\t\n      DUP4 \t\t\t\n      SLOAD \t\t\t\n      DIV \t\t\t\n      MUL \t\t\t\n      DUP4 \t\t\t\n      MSTORE \t\t\t\n      SWAP2 \t\t\t\n      PUSH 20\t\t\t\n      ADD \t\t\t\n      SWAP2 \t\t\t\n      PUSH [tag] 299\t\t\t\n      JUMP \t\t\t\n    tag 300\t\t\t\n      JUMPDEST \t\t\t\n      DUP3 \t\t\t\n      ADD \t\t\t\n      SWAP2 \t\t\t\n      SWAP1 \t\t\t\n      PUSH 0\t\t\t\n      MSTORE \t\t\t\n      PUSH 20\t\t\t\n      PUSH 0\t\t\t\n      KECCAK256 \t\t\t\n      SWAP1 \t\t\t\n    tag 301\t\t\t\n      JUMPDEST \t\t\t\n      DUP2 \t\t\t\n      SLOAD \t\t\t\n      DUP2 \t\t\t\n      MSTORE \t\t\t\n      SWAP1 \t\t\t\n      PUSH 1\t\t\t\n      ADD \t\t\t\n      SWAP1 \t\t\t\n      PUSH 20\t\t\t\n      ADD \t\t\t\n      DUP1 \t\t\t\n      DUP4 \t\t\t\n      GT \t\t\t\n      PUSH [tag] 301\t\t\t\n      JUMPI \t\t\t\n      DUP3 \t\t\t\n      SWAP1 \t\t\t\n      SUB \t\t\t\n      PUSH 1F\t\t\t\n      AND \t\t\t\n      DUP3 \t\t\t\n      ADD \t\t\t\n      SWAP2 \t\t\t\n    tag 299\t\t\t\n      JUMPDEST \t\t\t\n      POP \t\t\t\n      POP \t\t\t\n      POP \t\t\t\n      POP \t\t\t\n      POP \t\t\t\n      SWAP1 \t\t\t\n      POP \t\t\t\n      SWAP1 \t\t\t\n      JUMP \t\t\t\n    tag 84\t\t\t\n      JUMPDEST \t\t\t\n      PUSH 0\t\t\t\n      PUSH [tag] 303\t\t\t\n      DUP3 \t\t\t\n      PUSH [tag] 304\t\t\t\n      JUMP \t\t\t\n    tag 303\t\t\t\n      JUMPDEST \t\t\t\n      PUSH [tag] 306\t\t\t\n      JUMPI \t\t\t\n      PUSH [tag] 306\t\t\t\n      PUSH 33D1C039\t\t\t\n      PUSH E2\t\t\t\n      SHL \t\t\t\n      PUSH [tag] 307\t\t\t\n      JUMP \t\t\t\n    tag 306\t\t\t\n      JUMPDEST \t\t\t\n      POP \t\t\t\n      PUSH 0\t\t\t\n      SWAP1 \t\t\t\n      DUP2 \t\t\t\n      MSTORE \t\t\t\n      PUSH 6\t\t\t\n      PUSH 20\t\t\t\n      MSTORE \t\t\t\n      PUSH 40\t\t\t\n      SWAP1 \t\t\t\n      KECCAK256 \t\t\t\n      SLOAD \t\t\t\n      PUSH 1\t\t\t\n      PUSH 1\t\t\t\n      PUSH A0\t\t\t\n      SHL \t\t\t\n      SUB \t\t\t\n      AND \t\t\t\n      SWAP1 \t\t\t\n      JUMP \t\t\t\n    tag 90\t\t\t\n      JUMPDEST \t\t\t\n      PUSH [tag] 257\t\t\t\n      DUP3 \t\t\t\n      DUP3 \t\t\t\n      PUSH 1\t\t\t\n      PUSH [tag] 310\t\t\t\n      JUMP \t\t\t\n    tag 93\t\t\tsender, quantity);\\n\\n        ...\n      JUMPDEST \t\t\tsender, quantity);\\n\\n        ...\n      PUSH 0\t\t\tntity);\\n    }\\n\n      PUSH [tag] 312\t\t\t    {\\n        r\n      PUSH [tag] 292\t\t\t    {\\n       \n      JUMP \t\t\t    {\\n        r\n    tag 312\t\t\t    {\\n        r\n      JUMPDEST \t\t\t    {\\n        r\n      PUSH 1\t\t\tstring memor\n      SLOAD \t\t\tstring memor\n      PUSH 0\t\t\t       return\n      SLOAD \t\t\t       return\n      SUB \t\t\t       returns (string memor\n      SUB \t\t\t       returns (string memory)...\n      SWAP1 \t\t\t       returns (string memory)...\n      POP \t\t\t\n      SWAP1 \t\t\tsender, quantity);\\n\\n        ...\n      JUMP \t\t\tsender, quantity);\\n\\n        ...\n    tag 99\t\t\t\n      JUMPDEST \t\t\t\n      PUSH 0\t\t\t\n      PUSH [tag] 317\t\t\t\n      DUP3 \t\t\t\n      PUSH [tag] 318\t\t\t\n      JUMP \t\t\t\n    tag 317\t\t\t\n      JUMPDEST \t\t\t\n      PUSH 1\t\t\t\n      PUSH 1\t\t\t\n      PUSH A0\t\t\t\n      SHL \t\t\t\n      SUB \t\t\t\n      SWAP5 \t\t\t\n      DUP6 \t\t\t\n      AND \t\t\t\n      SWAP5 \t\t\t\n      SWAP1 \t\t\t\n      SWAP2 \t\t\t\n      POP \t\t\t\n      DUP2 \t\t\t\n      AND \t\t\t\n      DUP5 \t\t\t\n      EQ \t\t\t\n      PUSH [tag] 320\t\t\t\n      JUMPI \t\t\t\n      PUSH [tag] 320\t\t\t\n      PUSH A11481\t\t\t\n      PUSH E8\t\t\t\n      SHL \t\t\t\n      PUSH [tag] 307\t\t\t\n      JUMP \t\t\t\n    tag 320\t\t\t\n      JUMPDEST \t\t\t\n      PUSH 0\t\t\t\n      DUP3 \t\t\t\n      DUP2 \t\t\t\n      MSTORE \t\t\t\n      PUSH 6\t\t\t\n      PUSH 20\t\t\t\n      MSTORE \t\t\t\n      PUSH 40\t\t\t\n      SWAP1 \t\t\t\n      KECCAK256 \t\t\t\n      DUP1 \t\t\t\n      SLOAD \t\t\t\n      CALLER \t\t\t\n      DUP1 \t\t\t\n      DUP3 \t\t\t\n      EQ \t\t\t\n      PUSH 1\t\t\t\n      PUSH 1\t\t\t\n      PUSH A0\t\t\t\n      SHL \t\t\t\n      SUB \t\t\t\n      DUP9 \t\t\t\n      AND \t\t\t\n      SWAP1 \t\t\t\n      SWAP2 \t\t\t\n      EQ \t\t\t\n      OR \t\t\t\n      PUSH [tag] 331\t\t\t\n      JUMPI \t\t\t\n      PUSH [tag] 328\t\t\t\n      DUP7 \t\t\t\n      CALLER \t\t\t\n      PUSH [tag] 230\t\t\t\n      JUMP \t\t\t\n    tag 328\t\t\t\n      JUMPDEST \t\t\t\n      PUSH [tag] 331\t\t\t\n      JUMPI \t\t\t\n      PUSH [tag] 331\t\t\t\n      PUSH 2CE44B5F\t\t\t\n      PUSH E1\t\t\t\n      SHL \t\t\t\n      PUSH [tag] 307\t\t\t\n      JUMP \t\t\t\n    tag 331\t\t\t\n      JUMPDEST \t\t\t\n      DUP1 \t\t\t\n      ISZERO \t\t\t\n      PUSH [tag] 334\t\t\t\n      JUMPI \t\t\t\n      PUSH 0\t\t\t\n      DUP3 \t\t\t\n      SSTORE \t\t\t\n    tag 334\t\t\t\n      JUMPDEST \t\t\t\n      PUSH 1\t\t\t\n      PUSH 1\t\t\t\n      PUSH A0\t\t\t\n      SHL \t\t\t\n      SUB \t\t\t\n      DUP7 \t\t\t\n      DUP2 \t\t\t\n      AND \t\t\t\n      PUSH 0\t\t\t\n      SWAP1 \t\t\t\n      DUP2 \t\t\t\n      MSTORE \t\t\t\n      PUSH 5\t\t\t\n      PUSH 20\t\t\t\n      MSTORE \t\t\t\n      PUSH 40\t\t\t\n      DUP1 \t\t\t\n      DUP3 \t\t\t\n      KECCAK256 \t\t\t\n      DUP1 \t\t\t\n      SLOAD \t\t\t\n      PUSH 0\t\t\t\n      NOT \t\t\t\n      ADD \t\t\t\n      SWAP1 \t\t\t\n      SSTORE \t\t\t\n      SWAP2 \t\t\t\n      DUP8 \t\t\t\n      AND \t\t\t\n      DUP1 \t\t\t\n      DUP3 \t\t\t\n      MSTORE \t\t\t\n      SWAP2 \t\t\t\n      SWAP1 \t\t\t\n      KECCAK256 \t\t\t\n      DUP1 \t\t\t\n      SLOAD \t\t\t\n      PUSH 1\t\t\t\n      ADD \t\t\t\n      SWAP1 \t\t\t\n      SSTORE \t\t\t\n      TIMESTAMP \t\t\t\n      PUSH A0\t\t\t\n      SHL \t\t\t\n      OR \t\t\t\n      PUSH 1\t\t\t\n      PUSH E1\t\t\t\n      SHL \t\t\t\n      OR \t\t\t\n      PUSH 0\t\t\t\n      DUP6 \t\t\t\n      DUP2 \t\t\t\n      MSTORE \t\t\t\n      PUSH 4\t\t\t\n      PUSH 20\t\t\t\n      MSTORE \t\t\t\n      PUSH 40\t\t\t\n      DUP2 \t\t\t\n      KECCAK256 \t\t\t\n      SWAP2 \t\t\t\n      SWAP1 \t\t\t\n      SWAP2 \t\t\t\n      SSTORE \t\t\t\n      PUSH 1\t\t\t\n      PUSH E1\t\t\t\n      SHL \t\t\t\n      DUP5 \t\t\t\n      AND \t\t\t\n      SWAP1 \t\t\t\n      SUB \t\t\t\n      PUSH [tag] 339\t\t\t\n      JUMPI \t\t\t\n      PUSH 1\t\t\t\n      DUP5 \t\t\t\n      ADD \t\t\t\n      PUSH 0\t\t\t\n      DUP2 \t\t\t\n      DUP2 \t\t\t\n      MSTORE \t\t\t\n      PUSH 4\t\t\t\n      PUSH 20\t\t\t\n      MSTORE \t\t\t\n      PUSH 40\t\t\t\n      DUP2 \t\t\t\n      KECCAK256 \t\t\t\n      SLOAD \t\t\t\n      SWAP1 \t\t\t\n      SUB \t\t\t\n      PUSH [tag] 341\t\t\t\n      JUMPI \t\t\t\n      PUSH 0\t\t\t\n      SLOAD \t\t\t\n      DUP2 \t\t\t\n      EQ \t\t\t\n      PUSH [tag] 341\t\t\t\n      JUMPI \t\t\t\n      PUSH 0\t\t\t\n      DUP2 \t\t\t\n      DUP2 \t\t\t\n      MSTORE \t\t\t\n      PUSH 4\t\t\t\n      PUSH 20\t\t\t\n      MSTORE \t\t\t\n      PUSH 40\t\t\t\n      SWAP1 \t\t\t\n      KECCAK256 \t\t\t\n      DUP5 \t\t\t\n      SWAP1 \t\t\t\n      SSTORE \t\t\t\n    tag 341\t\t\t\n      JUMPDEST \t\t\t\n      POP \t\t\t\n    tag 339\t\t\t\n      JUMPDEST \t\t\t\n      PUSH 1\t\t\t\n      PUSH 1\t\t\t\n      PUSH A0\t\t\t\n      SHL \t\t\t\n      SUB \t\t\t\n      DUP6 \t\t\t\n      AND \t\t\t\n      DUP5 \t\t\t\n      DUP2 \t\t\t\n      DUP9 \t\t\t\n      PUSH DDF252AD1BE2C89B69C2B068FC378DAA952BA7F163C4A11628F55A4DF523B3EF\t\t\t\n      PUSH 0\t\t\t\n      DUP1 \t\t\t\n      LOG4 \t\t\t\n      DUP1 \t\t\t\n      PUSH 0\t\t\t\n      SUB \t\t\t\n      PUSH [tag] 343\t\t\t\n      JUMPI \t\t\t\n      PUSH [tag] 343\t\t\t\n      PUSH 3A954ECD\t\t\t\n      PUSH E2\t\t\t\n      SHL \t\t\t\n      PUSH [tag] 307\t\t\t\n      JUMP \t\t\t\n    tag 343\t\t\t\n      JUMPDEST \t\t\t\n      POP \t\t\t\n      POP \t\t\t\n      POP \t\t\t\n      POP \t\t\t\n      POP \t\t\t\n      POP \t\t\t\n      POP \t\t\t\n      JUMP \t\t\t\n    tag 103\t\t\tfunction registerPresale(\\n   ...\n      JUMPDEST \t\t\tfunction registerPresale(\\n   ...\n      PUSH 0\t\t\tDropStatus.DISABLED\n      PUSH B\t\t\tdropStatus\n      SLOAD \t\t\tdropStatus\n      PUSH 1\t\t\t\n      PUSH A0\t\t\t\n      SHL \t\t\t\n      SWAP1 \t\t\tdropStatus\n      DIV \t\t\tdropStatus\n      PUSH FF\t\t\tdropStatus\n      AND \t\t\tdropStatus\n      PUSH 3\t\t\tdropStatus == DropStatus.DISAB...\n      DUP2 \t\t\tdropStatus == DropStatus.DISAB...\n      GT \t\t\tdropStatus == DropStatus.DISAB...\n      ISZERO \t\t\tdropStatus == DropStatus.DISAB...\n      PUSH [tag] 350\t\t\tdropStatus == DropStatus.DISAB...\n      JUMPI \t\t\tdropStatus == DropStatus.DISAB...\n      PUSH [tag] 350\t\t\tdropStatus == DropStatus.DISAB...\n      PUSH [tag] 262\t\t\tdropStatus == DropStatus.DISAB...\n      JUMP \t\t\tdropStatus == DropStatus.DISAB...\n    tag 350\t\t\tdropStatus == DropStatus.DISAB...\n      JUMPDEST \t\t\tdropStatus == DropStatus.DISAB...\n      SUB \t\t\tdropStatus == DropStatus.DISAB...\n      PUSH [tag] 351\t\t\tif (dropStatus == DropStatus.D...\n      JUMPI \t\t\tif (dropStatus == DropStatus.D...\n      PUSH 40\t\t\tMintingDisabled()\n      MLOAD \t\t\tMintingDisabled()\n      PUSH AF79B437\t\t\t\n      PUSH E0\t\t\t\n      SHL \t\t\t\n      DUP2 \t\t\tMintingDisabled()\n      MSTORE \t\t\tMintingDisabled()\n      PUSH 4\t\t\tMintingDisabled()\n      ADD \t\t\tMintingDisabled()\n      PUSH 40\t\t\tMintingDisabled()\n      MLOAD \t\t\tMintingDisabled()\n      DUP1 \t\t\tMintingDisabled()\n      SWAP2 \t\t\tMintingDisabled()\n      SUB \t\t\tMintingDisabled()\n      SWAP1 \t\t\tMintingDisabled()\n      REVERT \t\t\tMintingDisabled()\n    tag 351\t\t\tif (dropStatus == DropStatus.D...\n      JUMPDEST \t\t\tif (dropStatus == DropStatus.D...\n      PUSH 66365B80\t\t\t1714838400\n      TIMESTAMP \t\t\tblock.timestamp\n      GT \t\t\tblock.timestamp > WHITELIST_ST...\n      ISZERO \t\t\tif (block.timestamp > WHITELIS...\n      PUSH [tag] 353\t\t\tif (block.timestamp > WHITELIS...\n      JUMPI \t\t\tif (block.timestamp > WHITELIS...\n      PUSH 40\t\t\tPresaleNotActive()\n      MLOAD \t\t\tPresaleNotActive()\n      PUSH 3844DA57\t\t\t\n      PUSH E2\t\t\t\n      SHL \t\t\t\n      DUP2 \t\t\tPresaleNotActive()\n      MSTORE \t\t\tPresaleNotActive()\n      PUSH 4\t\t\tPresaleNotActive()\n      ADD \t\t\tPresaleNotActive()\n      PUSH 40\t\t\tPresaleNotActive()\n      MLOAD \t\t\tPresaleNotActive()\n      DUP1 \t\t\tPresaleNotActive()\n      SWAP2 \t\t\tPresaleNotActive()\n      SUB \t\t\tPresaleNotActive()\n      SWAP1 \t\t\tPresaleNotActive()\n      REVERT \t\t\tPresaleNotActive()\n    tag 353\t\t\tif (block.timestamp > WHITELIS...\n      JUMPDEST \t\t\tif (block.timestamp > WHITELIS...\n      DUP2 \t\t\tquantity\n      PUSH [tag] 355\t\t\tPRICE_PER_TOKEN * quantity\n      DUP2 \t\t\tquantity\n      PUSH 6A94D74F430000\t\t\t0.03 ether\n      PUSH [tag] 356\t\t\tPRICE_PER_TOKEN * quantity\n      JUMP \t\t\tPRICE_PER_TOKEN * quantity\n    tag 355\t\t\tPRICE_PER_TOKEN * quantity\n      JUMPDEST \t\t\tPRICE_PER_TOKEN * quantity\n      CALLVALUE \t\t\tmsg.value\n      LT \t\t\tmsg.value < PRICE_PER_TOKEN * ...\n      ISZERO \t\t\tif (msg.value < PRICE_PER_TOKE...\n      PUSH [tag] 357\t\t\tif (msg.value < PRICE_PER_TOKE...\n      JUMPI \t\t\tif (msg.value < PRICE_PER_TOKE...\n      PUSH 40\t\t\tInsufficientFunds()\n      MLOAD \t\t\tInsufficientFunds()\n      PUSH 356680B7\t\t\t\n      PUSH E0\t\t\t\n      SHL \t\t\t\n      DUP2 \t\t\tInsufficientFunds()\n      MSTORE \t\t\tInsufficientFunds()\n      PUSH 4\t\t\tInsufficientFunds()\n      ADD \t\t\tInsufficientFunds()\n      PUSH 40\t\t\tInsufficientFunds()\n      MLOAD \t\t\tInsufficientFunds()\n      DUP1 \t\t\tInsufficientFunds()\n      SWAP2 \t\t\tInsufficientFunds()\n      SUB \t\t\tInsufficientFunds()\n      SWAP1 \t\t\tInsufficientFunds()\n      REVERT \t\t\tInsufficientFunds()\n    tag 357\t\t\tif (msg.value < PRICE_PER_TOKE...\n      JUMPDEST \t\t\tif (msg.value < PRICE_PER_TOKE...\n      CALLER \t\t\tmsg.sender\n      PUSH 0\t\t\t_presaleAllocationsByWallet[ms...\n      SWAP1 \t\t\t_presaleAllocationsByWallet[ms...\n      DUP2 \t\t\t_presaleAllocationsByWallet[ms...\n      MSTORE \t\t\t_presaleAllocationsByWallet[ms...\n      PUSH D\t\t\t_presaleAllocationsByWallet\n      PUSH 20\t\t\t_presaleAllocationsByWallet[ms...\n      SWAP1 \t\t\t_presaleAllocationsByWallet[ms...\n      DUP2 \t\t\t_presaleAllocationsByWallet[ms...\n      MSTORE \t\t\t_presaleAllocationsByWallet[ms...\n      PUSH 40\t\t\t_presaleAllocationsByWallet[ms...\n      DUP1 \t\t\t_presaleAllocationsByWallet[ms...\n      DUP4 \t\t\t_presaleAllocationsByWallet[ms...\n      KECCAK256 \t\t\t_presaleAllocationsByWallet[ms...\n      SLOAD \t\t\t_presaleAllocationsByWallet[ms...\n      PUSH C\t\t\t_mintedPerWallet\n      SWAP1 \t\t\t_mintedPerWallet[msg.sender]\n      SWAP3 \t\t\t_mintedPerWallet[msg.sender]\n      MSTORE \t\t\t_mintedPerWallet[msg.sender]\n      SWAP1 \t\t\t_mintedPerWallet[msg.sender]\n      SWAP2 \t\t\t_mintedPerWallet[msg.sender]\n      KECCAK256 \t\t\t_mintedPerWallet[msg.sender]\n      SLOAD \t\t\t_mintedPerWallet[msg.sender]\n      DUP5 \t\t\tquantity\n      SWAP2 \t\t\tquantity\n      PUSH 3\t\t\t3\n      SWAP2 \t\t\t3\n      DUP4 \t\t\tquantity\n      SWAP2 \t\t\tquantity\n      PUSH [tag] 359\t\t\t_mintedPerWallet[msg.sender] +...\n      SWAP2 \t\t\t_mintedPerWallet[msg.sender] +...\n      PUSH [tag] 272\t\t\t_mintedPerWallet[msg.sender] +...\n      JUMP \t\t\t_mintedPerWallet[msg.sender] +...\n    tag 359\t\t\t_mintedPerWallet[msg.sender] +...\n      JUMPDEST \t\t\t_mintedPerWallet[msg.sender] +...\n      PUSH [tag] 360\t\t\t_mintedPerWallet[msg.sender] +...\n      SWAP2 \t\t\t_mintedPerWallet[msg.sender] +...\n      SWAP1 \t\t\t_mintedPerWallet[msg.sender] +...\n      PUSH [tag] 272\t\t\t_mintedPerWallet[msg.sender] +...\n      JUMP \t\t\t_mintedPerWallet[msg.sender] +...\n    tag 360\t\t\t_mintedPerWallet[msg.sender] +...\n      JUMPDEST \t\t\t_mintedPerWallet[msg.sender] +...\n      GT \t\t\t_mintedPerWallet[msg.sender] +...\n      DUP1 \t\t\t_mintedPerWallet[msg.sender] +...\n      ISZERO \t\t\t_mintedPerWallet[msg.sender] +...\n      PUSH [tag] 361\t\t\t_mintedPerWallet[msg.sender] +...\n      JUMPI \t\t\t_mintedPerWallet[msg.sender] +...\n      POP \t\t\t\n      PUSH B\t\t\t\\n    u\n      SLOAD \t\t\t\\n    u\n      PUSH 1\t\t\t\n      PUSH 1\t\t\t\n      PUSH A0\t\t\t\n      SHL \t\t\t\n      SUB \t\t\t\n      AND \t\t\t\\n    u\n      CALLER \t\t\tmsg.sender\n      EQ \t\t\tmsg.sender != owner()\n      ISZERO \t\t\tmsg.sender != owner()\n    tag 361\t\t\t_mintedPerWallet[msg.sender] +...\n      JUMPDEST \t\t\t_mintedPerWallet[msg.sender] +...\n      ISZERO \t\t\tif (\\n            _mintedPerWa...\n      PUSH [tag] 363\t\t\tif (\\n            _mintedPerWa...\n      JUMPI \t\t\tif (\\n            _mintedPerWa...\n      PUSH 40\t\t\tExceedsMaxMintPerWallet()\n      MLOAD \t\t\tExceedsMaxMintPerWallet()\n      PUSH 67EEC833\t\t\t\n      PUSH E0\t\t\t\n      SHL \t\t\t\n      DUP2 \t\t\tExceedsMaxMintPerWallet()\n      MSTORE \t\t\tExceedsMaxMintPerWallet()\n      PUSH 4\t\t\tExceedsMaxMintPerWallet()\n      ADD \t\t\tExceedsMaxMintPerWallet()\n      PUSH 40\t\t\tExceedsMaxMintPerWallet()\n      MLOAD \t\t\tExceedsMaxMintPerWallet()\n      DUP1 \t\t\tExceedsMaxMintPerWallet()\n      SWAP2 \t\t\tExceedsMaxMintPerWallet()\n      SUB \t\t\tExceedsMaxMintPerWallet()\n      SWAP1 \t\t\tExceedsMaxMintPerWallet()\n      REVERT \t\t\tExceedsMaxMintPerWallet()\n    tag 363\t\t\tif (\\n            _mintedPerWa...\n      JUMPDEST \t\t\tif (\\n            _mintedPerWa...\n      DUP4 \t\t\tquantity\n      PUSH 10\t\t\t_presaleSupplyOffset\n      SLOAD \t\t\t_presaleSupplyOffset\n      PUSH 1A0A\t\t\t6666\n      PUSH [tag] 365\t\t\tEND_TOKEN_ID - _presaleSupplyO...\n      SWAP2 \t\t\tEND_TOKEN_ID - _presaleSupplyO...\n      SWAP1 \t\t\tEND_TOKEN_ID - _presaleSupplyO...\n      PUSH [tag] 282\t\t\tEND_TOKEN_ID - _presaleSupplyO...\n      JUMP \t\t\tEND_TOKEN_ID - _presaleSupplyO...\n    tag 365\t\t\tEND_TOKEN_ID - _presaleSupplyO...\n      JUMPDEST \t\t\tEND_TOKEN_ID - _presaleSupplyO...\n      PUSH 1\t\t\t1\n      PUSH [tag] 366\t\t\t_nextTokenId()\n      PUSH 0\t\t\t    onl\n      SLOAD \t\t\tuint256 quant\n      SWAP1 \t\t\tuint256 quant\n      JUMP \t\t\tlletLimit(_presaleAllocationsB...\n    tag 366\t\t\t_nextTokenId()\n      JUMPDEST \t\t\t_nextTokenId()\n      PUSH [tag] 368\t\t\tquantity + _nextTokenId()\n      SWAP1 \t\t\tquantity + _nextTokenId()\n      DUP5 \t\t\tquantity\n      PUSH [tag] 272\t\t\tquantity + _nextTokenId()\n      JUMP \t\t\tquantity + _nextTokenId()\n    tag 368\t\t\tquantity + _nextTokenId()\n      JUMPDEST \t\t\tquantity + _nextTokenId()\n      PUSH [tag] 369\t\t\tquantity + _nextTokenId() - 1\n      SWAP2 \t\t\tquantity + _nextTokenId() - 1\n      SWAP1 \t\t\tquantity + _nextTokenId() - 1\n      PUSH [tag] 282\t\t\tquantity + _nextTokenId() - 1\n      JUMP \t\t\tquantity + _nextTokenId() - 1\n    tag 369\t\t\tquantity + _nextTokenId() - 1\n      JUMPDEST \t\t\tquantity + _nextTokenId() - 1\n      GT \t\t\tquantity + _nextTokenId() - 1 ...\n      ISZERO \t\t\tif (\\n            quantity + _...\n      PUSH [tag] 370\t\t\tif (\\n            quantity + _...\n      JUMPI \t\t\tif (\\n            quantity + _...\n      PUSH 40\t\t\tExceedsMaxSupply()\n      MLOAD \t\t\tExceedsMaxSupply()\n      PUSH C30436E9\t\t\t\n      PUSH E0\t\t\t\n      SHL \t\t\t\n      DUP2 \t\t\tExceedsMaxSupply()\n      MSTORE \t\t\tExceedsMaxSupply()\n      PUSH 4\t\t\tExceedsMaxSupply()\n      ADD \t\t\tExceedsMaxSupply()\n      PUSH 40\t\t\tExceedsMaxSupply()\n      MLOAD \t\t\tExceedsMaxSupply()\n      DUP1 \t\t\tExceedsMaxSupply()\n      SWAP2 \t\t\tExceedsMaxSupply()\n      SUB \t\t\tExceedsMaxSupply()\n      SWAP1 \t\t\tExceedsMaxSupply()\n      REVERT \t\t\tExceedsMaxSupply()\n    tag 370\t\t\tif (\\n            quantity + _...\n      JUMPDEST \t\t\tif (\\n            quantity + _...\n      DUP4 \t\t\tgloomerHash_\n      DUP1 \t\t\tgloomerHash_\n      PUSH 11\t\t\tgloomerHash\n      SLOAD \t\t\tgloomerHash\n      EQ \t\t\tgloomerHash != gloomerHash_\n      PUSH [tag] 372\t\t\tif (gloomerHash != gloomerHash...\n      JUMPI \t\t\tif (gloomerHash != gloomerHash...\n      PUSH 40\t\t\tNotEligible()\n      MLOAD \t\t\tNotEligible()\n      PUSH 7C75AA6F\t\t\t\n      PUSH E1\t\t\t\n      SHL \t\t\t\n      DUP2 \t\t\tNotEligible()\n      MSTORE \t\t\tNotEligible()\n      PUSH 4\t\t\tNotEligible()\n      ADD \t\t\tNotEligible()\n      PUSH 40\t\t\tNotEligible()\n      MLOAD \t\t\tNotEligible()\n      DUP1 \t\t\tNotEligible()\n      SWAP2 \t\t\tNotEligible()\n      SUB \t\t\tNotEligible()\n      SWAP1 \t\t\tNotEligible()\n      REVERT \t\t\tNotEligible()\n    tag 372\t\t\tif (gloomerHash != gloomerHash...\n      JUMPDEST \t\t\tif (gloomerHash != gloomerHash...\n      ORIGIN \t\t\ttx.origin\n      CALLER \t\t\tmsg.sender\n      EQ \t\t\ttx.origin != msg.sender\n      PUSH [tag] 374\t\t\tif (tx.origin != msg.sender) {...\n      JUMPI \t\t\tif (tx.origin != msg.sender) {...\n      PUSH 40\t\t\tNonEOACaller()\n      MLOAD \t\t\tNonEOACaller()\n      PUSH 58516B3F\t\t\t\n      PUSH E0\t\t\t\n      SHL \t\t\t\n      DUP2 \t\t\tNonEOACaller()\n      MSTORE \t\t\tNonEOACaller()\n      PUSH 4\t\t\tNonEOACaller()\n      ADD \t\t\tNonEOACaller()\n      PUSH 40\t\t\tNonEOACaller()\n      MLOAD \t\t\tNonEOACaller()\n      DUP1 \t\t\tNonEOACaller()\n      SWAP2 \t\t\tNonEOACaller()\n      SUB \t\t\tNonEOACaller()\n      SWAP1 \t\t\tNonEOACaller()\n      REVERT \t\t\tNonEOACaller()\n    tag 374\t\t\tif (tx.origin != msg.sender) {...\n      JUMPDEST \t\t\tif (tx.origin != msg.sender) {...\n      PUSH F\t\t\t_presalesCount\n      PUSH 0\t\t\t_presalesCount\n      DUP2 \t\t\t++_presalesCount\n      SLOAD \t\t\t++_presalesCount\n      PUSH [tag] 376\t\t\t++_presalesCount\n      SWAP1 \t\t\t++_presalesCount\n      PUSH [tag] 377\t\t\t++_presalesCount\n      JUMP \t\t\t++_presalesCount\n    tag 376\t\t\t++_presalesCount\n      JUMPDEST \t\t\t++_presalesCount\n      SWAP2 \t\t\t++_presalesCount\n      SWAP1 \t\t\t++_presalesCount\n      POP \t\t\t++_presalesCount\n      DUP2 \t\t\t++_presalesCount\n      SWAP1 \t\t\t++_presalesCount\n      SSTORE \t\t\t++_presalesCount\n      POP \t\t\t++_presalesCount\n      DUP6 \t\t\tquantity\n      PUSH 10\t\t\t_presaleSupplyOffset\n      PUSH 0\t\t\t_presaleSupplyOffset\n      DUP3 \t\t\t_presaleSupplyOffset += quanti...\n      DUP3 \t\t\t_presaleSupplyOffset += quanti...\n      SLOAD \t\t\t_presaleSupplyOffset += quanti...\n      PUSH [tag] 378\t\t\t_presaleSupplyOffset += quanti...\n      SWAP2 \t\t\t_presaleSupplyOffset += quanti...\n      SWAP1 \t\t\t_presaleSupplyOffset += quanti...\n      PUSH [tag] 272\t\t\t_presaleSupplyOffset += quanti...\n      JUMP \t\t\t_presaleSupplyOffset += quanti...\n    tag 378\t\t\t_presaleSupplyOffset += quanti...\n      JUMPDEST \t\t\t_presaleSupplyOffset += quanti...\n      SWAP1 \t\t\t_presaleSupplyOffset += quanti...\n      SWAP2 \t\t\t_presaleSupplyOffset += quanti...\n      SSTORE \t\t\t_presaleSupplyOffset += quanti...\n      POP \t\t\t\n      POP \t\t\t\n      CALLER \t\t\tmsg.sender\n      PUSH 0\t\t\t_presaleAllocationsByWallet[ms...\n      DUP2 \t\t\t_presaleAllocationsByWallet[ms...\n      DUP2 \t\t\t_presaleAllocationsByWallet[ms...\n      MSTORE \t\t\t_presaleAllocationsByWallet[ms...\n      PUSH D\t\t\t_presaleAllocationsByWallet\n      PUSH 20\t\t\t_presaleAllocationsByWallet[ms...\n      SWAP1 \t\t\t_presaleAllocationsByWallet[ms...\n      DUP2 \t\t\t_presaleAllocationsByWallet[ms...\n      MSTORE \t\t\t_presaleAllocationsByWallet[ms...\n      PUSH 40\t\t\t_presaleAllocationsByWallet[ms...\n      DUP1 \t\t\t_presaleAllocationsByWallet[ms...\n      DUP4 \t\t\t_presaleAllocationsByWallet[ms...\n      KECCAK256 \t\t\t_presaleAllocationsByWallet[ms...\n      DUP11 \t\t\t_presaleAllocationsByWallet[ms...\n      SWAP1 \t\t\t_presaleAllocationsByWallet[ms...\n      SSTORE \t\t\t_presaleAllocationsByWallet[ms...\n      PUSH F\t\t\t_presalesCount\n      SLOAD \t\t\t_presalesCount\n      DUP4 \t\t\t_presaleWalletsById[_presalesC...\n      MSTORE \t\t\t_presaleWalletsById[_presalesC...\n      PUSH E\t\t\t_presaleWalletsById\n      DUP3 \t\t\t_presaleWalletsById[_presalesC...\n      MSTORE \t\t\t_presaleWalletsById[_presalesC...\n      SWAP2 \t\t\t_presaleWalletsById[_presalesC...\n      DUP3 \t\t\t_presaleWalletsById[_presalesC...\n      SWAP1 \t\t\t_presaleWalletsById[_presalesC...\n      KECCAK256 \t\t\t_presaleWalletsById[_presalesC...\n      DUP1 \t\t\t_presaleWalletsById[_presalesC...\n      SLOAD \t\t\t_presaleWalletsById[_presalesC...\n      PUSH 1\t\t\t\n      PUSH 1\t\t\t\n      PUSH A0\t\t\t\n      SHL \t\t\t\n      SUB \t\t\t\n      NOT \t\t\t\n      AND \t\t\t_presaleWalletsById[_presalesC...\n      DUP5 \t\t\t_presaleWalletsById[_presalesC...\n      OR \t\t\t_presaleWalletsById[_presalesC...\n      SWAP1 \t\t\t_presaleWalletsById[_presalesC...\n      SSTORE \t\t\t_presaleWalletsById[_presalesC...\n      SWAP1 \t\t\tRegisterPresale(msg.sender, qu...\n      MLOAD \t\t\tRegisterPresale(msg.sender, qu...\n      DUP9 \t\t\tamp > PUBLIC_MINT_TIMESTA\n      DUP2 \t\t\tamp > PUBLIC_MINT_TIMESTA\n      MSTORE \t\t\tamp > PUBLIC_MINT_TIMESTA\n      PUSH 954E53AAA9EE9F9AE7F4CC7C0BA01DE261F35BD07352E3C3383EA3B45AD216D4\t\t\tRegisterPresale(msg.sender, qu...\n      SWAP2 \t\t\tRegisterPresale(msg.sender, qu...\n      ADD \t\t\t||\\n            blo\n    tag 379\t\t\tRegisterPresale(msg.sender, qu...\n      JUMPDEST \t\t\tRegisterPresale(msg.sender, qu...\n      PUSH 40\t\t\tRegisterPresale(msg.sender, qu...\n      MLOAD \t\t\tRegisterPresale(msg.sender, qu...\n      DUP1 \t\t\tRegisterPresale(msg.sender, qu...\n      SWAP2 \t\t\tRegisterPresale(msg.sender, qu...\n      SUB \t\t\tRegisterPresale(msg.sender, qu...\n      SWAP1 \t\t\tRegisterPresale(msg.sender, qu...\n      LOG2 \t\t\tRegisterPresale(msg.sender, qu...\n      POP \t\t\t_\n      POP \t\t\t_\n      POP \t\t\t_\n      POP \t\t\t_\n      POP \t\t\tfunction registerPresale(\\n   ...\n      POP \t\t\tfunction registerPresale(\\n   ...\n      JUMP \t\t\tfunction registerPresale(\\n   ...\n    tag 106\t\t\tfunction mintWhitelist(\\n     ...\n      JUMPDEST \t\t\tfunction mintWhitelist(\\n     ...\n      PUSH 0\t\t\tDropStatus.DISABLED\n      PUSH B\t\t\tdropStatus\n      SLOAD \t\t\tdropStatus\n      PUSH 1\t\t\t\n      PUSH A0\t\t\t\n      SHL \t\t\t\n      SWAP1 \t\t\tdropStatus\n      DIV \t\t\tdropStatus\n      PUSH FF\t\t\tdropStatus\n      AND \t\t\tdropStatus\n      PUSH 3\t\t\tdropStatus == DropStatus.DISAB...\n      DUP2 \t\t\tdropStatus == DropStatus.DISAB...\n      GT \t\t\tdropStatus == DropStatus.DISAB...\n      ISZERO \t\t\tdropStatus == DropStatus.DISAB...\n      PUSH [tag] 384\t\t\tdropStatus == DropStatus.DISAB...\n      JUMPI \t\t\tdropStatus == DropStatus.DISAB...\n      PUSH [tag] 384\t\t\tdropStatus == DropStatus.DISAB...\n      PUSH [tag] 262\t\t\tdropStatus == DropStatus.DISAB...\n      JUMP \t\t\tdropStatus == DropStatus.DISAB...\n    tag 384\t\t\tdropStatus == DropStatus.DISAB...\n      JUMPDEST \t\t\tdropStatus == DropStatus.DISAB...\n      SUB \t\t\tdropStatus == DropStatus.DISAB...\n      PUSH [tag] 385\t\t\tif (dropStatus == DropStatus.D...\n      JUMPI \t\t\tif (dropStatus == DropStatus.D...\n      PUSH 40\t\t\tMintingDisabled()\n      MLOAD \t\t\tMintingDisabled()\n      PUSH AF79B437\t\t\t\n      PUSH E0\t\t\t\n      SHL \t\t\t\n      DUP2 \t\t\tMintingDisabled()\n      MSTORE \t\t\tMintingDisabled()\n      PUSH 4\t\t\tMintingDisabled()\n      ADD \t\t\tMintingDisabled()\n      PUSH 40\t\t\tMintingDisabled()\n      MLOAD \t\t\tMintingDisabled()\n      DUP1 \t\t\tMintingDisabled()\n      SWAP2 \t\t\tMintingDisabled()\n      SUB \t\t\tMintingDisabled()\n      SWAP1 \t\t\tMintingDisabled()\n      REVERT \t\t\tMintingDisabled()\n    tag 385\t\t\tif (dropStatus == DropStatus.D...\n      JUMPDEST \t\t\tif (dropStatus == DropStatus.D...\n      PUSH 66365B80\t\t\t1714838400\n      TIMESTAMP \t\t\tblock.timestamp\n      LT \t\t\tblock.timestamp < WHITELIST_ST...\n      DUP1 \t\t\tblock.timestamp < WHITELIST_ST...\n      PUSH [tag] 387\t\t\tblock.timestamp < WHITELIST_ST...\n      JUMPI \t\t\tblock.timestamp < WHITELIST_ST...\n      POP \t\t\t\n      PUSH [tag] 388\t\t\tWHITELIST_START_TIMESTAMP + 3 ...\n      PUSH 66365B80\t\t\t1714838400\n      PUSH 2A30\t\t\t3 hours\n      PUSH [tag] 272\t\t\tWHITELIST_START_TIMESTAMP + 3 ...\n      JUMP \t\t\tWHITELIST_START_TIMESTAMP + 3 ...\n    tag 388\t\t\tWHITELIST_START_TIMESTAMP + 3 ...\n      JUMPDEST \t\t\tWHITELIST_START_TIMESTAMP + 3 ...\n      TIMESTAMP \t\t\tblock.timestamp\n      GT \t\t\tblock.timestamp > PUBLIC_MINT_...\n    tag 387\t\t\tblock.timestamp < WHITELIST_ST...\n      JUMPDEST \t\t\tblock.timestamp < WHITELIST_ST...\n      ISZERO \t\t\tif (\\n            block.timest...\n      PUSH [tag] 389\t\t\tif (\\n            block.timest...\n      JUMPI \t\t\tif (\\n            block.timest...\n      PUSH 40\t\t\tWhitelistNotActive()\n      MLOAD \t\t\tWhitelistNotActive()\n      PUSH 2664E71\t\t\t\n      PUSH E1\t\t\t\n      SHL \t\t\t\n      DUP2 \t\t\tWhitelistNotActive()\n      MSTORE \t\t\tWhitelistNotActive()\n      PUSH 4\t\t\tWhitelistNotActive()\n      ADD \t\t\tWhitelistNotActive()\n      PUSH 40\t\t\tWhitelistNotActive()\n      MLOAD \t\t\tWhitelistNotActive()\n      DUP1 \t\t\tWhitelistNotActive()\n      SWAP2 \t\t\tWhitelistNotActive()\n      SUB \t\t\tWhitelistNotActive()\n      SWAP1 \t\t\tWhitelistNotActive()\n      REVERT \t\t\tWhitelistNotActive()\n    tag 389\t\t\tif (\\n            block.timest...\n      JUMPDEST \t\t\tif (\\n            block.timest...\n      DUP2 \t\t\tquantity\n      PUSH [tag] 391\t\t\tPRICE_PER_TOKEN * quantity\n      DUP2 \t\t\tquantity\n      PUSH 6A94D74F430000\t\t\t0.03 ether\n      PUSH [tag] 356\t\t\tPRICE_PER_TOKEN * quantity\n      JUMP \t\t\tPRICE_PER_TOKEN * quantity\n    tag 391\t\t\tPRICE_PER_TOKEN * quantity\n      JUMPDEST \t\t\tPRICE_PER_TOKEN * quantity\n      CALLVALUE \t\t\tmsg.value\n      LT \t\t\tmsg.value < PRICE_PER_TOKEN * ...\n      ISZERO \t\t\tif (msg.value < PRICE_PER_TOKE...\n      PUSH [tag] 392\t\t\tif (msg.value < PRICE_PER_TOKE...\n      JUMPI \t\t\tif (msg.value < PRICE_PER_TOKE...\n      PUSH 40\t\t\tInsufficientFunds()\n      MLOAD \t\t\tInsufficientFunds()\n      PUSH 356680B7\t\t\t\n      PUSH E0\t\t\t\n      SHL \t\t\t\n      DUP2 \t\t\tInsufficientFunds()\n      MSTORE \t\t\tInsufficientFunds()\n      PUSH 4\t\t\tInsufficientFunds()\n      ADD \t\t\tInsufficientFunds()\n      PUSH 40\t\t\tInsufficientFunds()\n      MLOAD \t\t\tInsufficientFunds()\n      DUP1 \t\t\tInsufficientFunds()\n      SWAP2 \t\t\tInsufficientFunds()\n      SUB \t\t\tInsufficientFunds()\n      SWAP1 \t\t\tInsufficientFunds()\n      REVERT \t\t\tInsufficientFunds()\n    tag 392\t\t\tif (msg.value < PRICE_PER_TOKE...\n      JUMPDEST \t\t\tif (msg.value < PRICE_PER_TOKE...\n      CALLER \t\t\tmsg.sender\n      PUSH 0\t\t\t_presaleAllocationsByWallet[ms...\n      SWAP1 \t\t\t_presaleAllocationsByWallet[ms...\n      DUP2 \t\t\t_presaleAllocationsByWallet[ms...\n      MSTORE \t\t\t_presaleAllocationsByWallet[ms...\n      PUSH D\t\t\t_presaleAllocationsByWallet\n      PUSH 20\t\t\t_presaleAllocationsByWallet[ms...\n      SWAP1 \t\t\t_presaleAllocationsByWallet[ms...\n      DUP2 \t\t\t_presaleAllocationsByWallet[ms...\n      MSTORE \t\t\t_presaleAllocationsByWallet[ms...\n      PUSH 40\t\t\t_presaleAllocationsByWallet[ms...\n      DUP1 \t\t\t_presaleAllocationsByWallet[ms...\n      DUP4 \t\t\t_presaleAllocationsByWallet[ms...\n      KECCAK256 \t\t\t_presaleAllocationsByWallet[ms...\n      SLOAD \t\t\t_presaleAllocationsByWallet[ms...\n      PUSH C\t\t\t_mintedPerWallet\n      SWAP1 \t\t\t_mintedPerWallet[msg.sender]\n      SWAP3 \t\t\t_mintedPerWallet[msg.sender]\n      MSTORE \t\t\t_mintedPerWallet[msg.sender]\n      SWAP1 \t\t\t_mintedPerWallet[msg.sender]\n      SWAP2 \t\t\t_mintedPerWallet[msg.sender]\n      KECCAK256 \t\t\t_mintedPerWallet[msg.sender]\n      SLOAD \t\t\t_mintedPerWallet[msg.sender]\n      DUP5 \t\t\tquantity\n      SWAP2 \t\t\tquantity\n      PUSH 3\t\t\t3\n      SWAP2 \t\t\t3\n      DUP4 \t\t\tquantity\n      SWAP2 \t\t\tquantity\n      PUSH [tag] 394\t\t\t_mintedPerWallet[msg.sender] +...\n      SWAP2 \t\t\t_mintedPerWallet[msg.sender] +...\n      PUSH [tag] 272\t\t\t_mintedPerWallet[msg.sender] +...\n      JUMP \t\t\t_mintedPerWallet[msg.sender] +...\n    tag 394\t\t\t_mintedPerWallet[msg.sender] +...\n      JUMPDEST \t\t\t_mintedPerWallet[msg.sender] +...\n      PUSH [tag] 395\t\t\t_mintedPerWallet[msg.sender] +...\n      SWAP2 \t\t\t_mintedPerWallet[msg.sender] +...\n      SWAP1 \t\t\t_mintedPerWallet[msg.sender] +...\n      PUSH [tag] 272\t\t\t_mintedPerWallet[msg.sender] +...\n      JUMP \t\t\t_mintedPerWallet[msg.sender] +...\n    tag 395\t\t\t_mintedPerWallet[msg.sender] +...\n      JUMPDEST \t\t\t_mintedPerWallet[msg.sender] +...\n      GT \t\t\t_mintedPerWallet[msg.sender] +...\n      DUP1 \t\t\t_mintedPerWallet[msg.sender] +...\n      ISZERO \t\t\t_mintedPerWallet[msg.sender] +...\n      PUSH [tag] 396\t\t\t_mintedPerWallet[msg.sender] +...\n      JUMPI \t\t\t_mintedPerWallet[msg.sender] +...\n      POP \t\t\t\n      PUSH B\t\t\t\\n    u\n      SLOAD \t\t\t\\n    u\n      PUSH 1\t\t\t\n      PUSH 1\t\t\t\n      PUSH A0\t\t\t\n      SHL \t\t\t\n      SUB \t\t\t\n      AND \t\t\t\\n    u\n      CALLER \t\t\tmsg.sender\n      EQ \t\t\tmsg.sender != owner()\n      ISZERO \t\t\tmsg.sender != owner()\n    tag 396\t\t\t_mintedPerWallet[msg.sender] +...\n      JUMPDEST \t\t\t_mintedPerWallet[msg.sender] +...\n      ISZERO \t\t\tif (\\n            _mintedPerWa...\n      PUSH [tag] 398\t\t\tif (\\n            _mintedPerWa...\n      JUMPI \t\t\tif (\\n            _mintedPerWa...\n      PUSH 40\t\t\tExceedsMaxMintPerWallet()\n      MLOAD \t\t\tExceedsMaxMintPerWallet()\n      PUSH 67EEC833\t\t\t\n      PUSH E0\t\t\t\n      SHL \t\t\t\n      DUP2 \t\t\tExceedsMaxMintPerWallet()\n      MSTORE \t\t\tExceedsMaxMintPerWallet()\n      PUSH 4\t\t\tExceedsMaxMintPerWallet()\n      ADD \t\t\tExceedsMaxMintPerWallet()\n      PUSH 40\t\t\tExceedsMaxMintPerWallet()\n      MLOAD \t\t\tExceedsMaxMintPerWallet()\n      DUP1 \t\t\tExceedsMaxMintPerWallet()\n      SWAP2 \t\t\tExceedsMaxMintPerWallet()\n      SUB \t\t\tExceedsMaxMintPerWallet()\n      SWAP1 \t\t\tExceedsMaxMintPerWallet()\n      REVERT \t\t\tExceedsMaxMintPerWallet()\n    tag 398\t\t\tif (\\n            _mintedPerWa...\n      JUMPDEST \t\t\tif (\\n            _mintedPerWa...\n      DUP4 \t\t\tquantity\n      PUSH 10\t\t\t_presaleSupplyOffset\n      SLOAD \t\t\t_presaleSupplyOffset\n      PUSH 1A0A\t\t\t6666\n      PUSH [tag] 400\t\t\tEND_TOKEN_ID - _presaleSupplyO...\n      SWAP2 \t\t\tEND_TOKEN_ID - _presaleSupplyO...\n      SWAP1 \t\t\tEND_TOKEN_ID - _presaleSupplyO...\n      PUSH [tag] 282\t\t\tEND_TOKEN_ID - _presaleSupplyO...\n      JUMP \t\t\tEND_TOKEN_ID - _presaleSupplyO...\n    tag 400\t\t\tEND_TOKEN_ID - _presaleSupplyO...\n      JUMPDEST \t\t\tEND_TOKEN_ID - _presaleSupplyO...\n      PUSH 1\t\t\t1\n      PUSH [tag] 401\t\t\t_nextTokenId()\n      PUSH 0\t\t\t    onl\n      SLOAD \t\t\tuint256 quant\n      SWAP1 \t\t\tuint256 quant\n      JUMP \t\t\tlletLimit(_presaleAllocationsB...\n    tag 401\t\t\t_nextTokenId()\n      JUMPDEST \t\t\t_nextTokenId()\n      PUSH [tag] 402\t\t\tquantity + _nextTokenId()\n      SWAP1 \t\t\tquantity + _nextTokenId()\n      DUP5 \t\t\tquantity\n      PUSH [tag] 272\t\t\tquantity + _nextTokenId()\n      JUMP \t\t\tquantity + _nextTokenId()\n    tag 402\t\t\tquantity + _nextTokenId()\n      JUMPDEST \t\t\tquantity + _nextTokenId()\n      PUSH [tag] 403\t\t\tquantity + _nextTokenId() - 1\n      SWAP2 \t\t\tquantity + _nextTokenId() - 1\n      SWAP1 \t\t\tquantity + _nextTokenId() - 1\n      PUSH [tag] 282\t\t\tquantity + _nextTokenId() - 1\n      JUMP \t\t\tquantity + _nextTokenId() - 1\n    tag 403\t\t\tquantity + _nextTokenId() - 1\n      JUMPDEST \t\t\tquantity + _nextTokenId() - 1\n      GT \t\t\tquantity + _nextTokenId() - 1 ...\n      ISZERO \t\t\tif (\\n            quantity + _...\n      PUSH [tag] 404\t\t\tif (\\n            quantity + _...\n      JUMPI \t\t\tif (\\n            quantity + _...\n      PUSH 40\t\t\tExceedsMaxSupply()\n      MLOAD \t\t\tExceedsMaxSupply()\n      PUSH C30436E9\t\t\t\n      PUSH E0\t\t\t\n      SHL \t\t\t\n      DUP2 \t\t\tExceedsMaxSupply()\n      MSTORE \t\t\tExceedsMaxSupply()\n      PUSH 4\t\t\tExceedsMaxSupply()\n      ADD \t\t\tExceedsMaxSupply()\n      PUSH 40\t\t\tExceedsMaxSupply()\n      MLOAD \t\t\tExceedsMaxSupply()\n      DUP1 \t\t\tExceedsMaxSupply()\n      SWAP2 \t\t\tExceedsMaxSupply()\n      SUB \t\t\tExceedsMaxSupply()\n      SWAP1 \t\t\tExceedsMaxSupply()\n      REVERT \t\t\tExceedsMaxSupply()\n    tag 404\t\t\tif (\\n            quantity + _...\n      JUMPDEST \t\t\tif (\\n            quantity + _...\n      DUP4 \t\t\tgloomerHash_\n      DUP1 \t\t\tgloomerHash_\n      PUSH 11\t\t\tgloomerHash\n      SLOAD \t\t\tgloomerHash\n      EQ \t\t\tgloomerHash != gloomerHash_\n      PUSH [tag] 406\t\t\tif (gloomerHash != gloomerHash...\n      JUMPI \t\t\tif (gloomerHash != gloomerHash...\n      PUSH 40\t\t\tNotEligible()\n      MLOAD \t\t\tNotEligible()\n      PUSH 7C75AA6F\t\t\t\n      PUSH E1\t\t\t\n      SHL \t\t\t\n      DUP2 \t\t\tNotEligible()\n      MSTORE \t\t\tNotEligible()\n      PUSH 4\t\t\tNotEligible()\n      ADD \t\t\tNotEligible()\n      PUSH 40\t\t\tNotEligible()\n      MLOAD \t\t\tNotEligible()\n      DUP1 \t\t\tNotEligible()\n      SWAP2 \t\t\tNotEligible()\n      SUB \t\t\tNotEligible()\n      SWAP1 \t\t\tNotEligible()\n      REVERT \t\t\tNotEligible()\n    tag 406\t\t\tif (gloomerHash != gloomerHash...\n      JUMPDEST \t\t\tif (gloomerHash != gloomerHash...\n      ORIGIN \t\t\ttx.origin\n      CALLER \t\t\tmsg.sender\n      EQ \t\t\ttx.origin != msg.sender\n      PUSH [tag] 408\t\t\tif (tx.origin != msg.sender) {...\n      JUMPI \t\t\tif (tx.origin != msg.sender) {...\n      PUSH 40\t\t\tNonEOACaller()\n      MLOAD \t\t\tNonEOACaller()\n      PUSH 58516B3F\t\t\t\n      PUSH E0\t\t\t\n      SHL \t\t\t\n      DUP2 \t\t\tNonEOACaller()\n      MSTORE \t\t\tNonEOACaller()\n      PUSH 4\t\t\tNonEOACaller()\n      ADD \t\t\tNonEOACaller()\n      PUSH 40\t\t\tNonEOACaller()\n      MLOAD \t\t\tNonEOACaller()\n      DUP1 \t\t\tNonEOACaller()\n      SWAP2 \t\t\tNonEOACaller()\n      SUB \t\t\tNonEOACaller()\n      SWAP1 \t\t\tNonEOACaller()\n      REVERT \t\t\tNonEOACaller()\n    tag 408\t\t\tif (tx.origin != msg.sender) {...\n      JUMPDEST \t\t\tif (tx.origin != msg.sender) {...\n      DUP5 \t\t\tgloomerHash_\n      PUSH 11\t\t\tgloomerHash\n      SLOAD \t\t\tgloomerHash\n      EQ \t\t\tgloomerHash != gloomerHash_\n      PUSH [tag] 410\t\t\tif (gloomerHash != gloomerHash...\n      JUMPI \t\t\tif (gloomerHash != gloomerHash...\n      PUSH 40\t\t\tNotEligible()\n      MLOAD \t\t\tNotEligible()\n      PUSH 7C75AA6F\t\t\t\n      PUSH E1\t\t\t\n      SHL \t\t\t\n      DUP2 \t\t\tNotEligible()\n      MSTORE \t\t\tNotEligible()\n      PUSH 4\t\t\tNotEligible()\n      ADD \t\t\tNotEligible()\n      PUSH 40\t\t\tNotEligible()\n      MLOAD \t\t\tNotEligible()\n      DUP1 \t\t\tNotEligible()\n      SWAP2 \t\t\tNotEligible()\n      SUB \t\t\tNotEligible()\n      SWAP1 \t\t\tNotEligible()\n      REVERT \t\t\tNotEligible()\n    tag 410\t\t\tif (gloomerHash != gloomerHash...\n      JUMPDEST \t\t\tif (gloomerHash != gloomerHash...\n      CALLER \t\t\tmsg.sender\n      PUSH 0\t\t\t_mintedPerWallet[msg.sender]\n      SWAP1 \t\t\t_mintedPerWallet[msg.sender]\n      DUP2 \t\t\t_mintedPerWallet[msg.sender]\n      MSTORE \t\t\t_mintedPerWallet[msg.sender]\n      PUSH C\t\t\t_mintedPerWallet\n      PUSH 20\t\t\t_mintedPerWallet[msg.sender]\n      MSTORE \t\t\t_mintedPerWallet[msg.sender]\n      PUSH 40\t\t\t_mintedPerWallet[msg.sender]\n      DUP2 \t\t\t_mintedPerWallet[msg.sender]\n      KECCAK256 \t\t\t_mintedPerWallet[msg.sender]\n      DUP1 \t\t\t_mintedPerWallet[msg.sender] +...\n      SLOAD \t\t\t_mintedPerWallet[msg.sender] +...\n      DUP9 \t\t\tquantity\n      SWAP3 \t\t\tquantity\n      SWAP1 \t\t\t_mintedPerWallet[msg.sender]\n      PUSH [tag] 411\t\t\t_mintedPerWallet[msg.sender] +...\n      SWAP1 \t\t\t_mintedPerWallet[msg.sender] +...\n      DUP5 \t\t\tquantity\n      SWAP1 \t\t\tquantity\n      PUSH [tag] 272\t\t\t_mintedPerWallet[msg.sender] +...\n      JUMP \t\t\t_mintedPerWallet[msg.sender] +...\n    tag 411\t\t\t_mintedPerWallet[msg.sender] +...\n      JUMPDEST \t\t\t_mintedPerWallet[msg.sender] +...\n      SWAP1 \t\t\t_mintedPerWallet[msg.sender] +...\n      SWAP2 \t\t\t_mintedPerWallet[msg.sender] +...\n      SSTORE \t\t\t_mintedPerWallet[msg.sender] +...\n      POP \t\t\t\n      PUSH [tag] 412\t\t\t_mint(msg.sender, quantity)\n      SWAP1 \t\t\t_mint(msg.sender, quantity)\n      POP \t\t\t\n      CALLER \t\t\tmsg.sender\n      DUP8 \t\t\tquantity\n      PUSH [tag] 284\t\t\t_mint\n      JUMP \t\t\t_mint(msg.sender, quantity)\n    tag 412\t\t\t_mint(msg.sender, quantity)\n      JUMPDEST \t\t\t_mint(msg.sender, quantity)\n      PUSH 40\t\t\tMintWhitelist(msg.sender, quan...\n      MLOAD \t\t\tMintWhitelist(msg.sender, quan...\n      DUP7 \t\t\tamp > PUBLIC_MINT_TIMESTA\n      DUP2 \t\t\tamp > PUBLIC_MINT_TIMESTA\n      MSTORE \t\t\tamp > PUBLIC_MINT_TIMESTA\n      CALLER \t\t\tmsg.sender\n      SWAP1 \t\t\tmsg.sender\n      PUSH DA47E427FB170A95B4539EA720C3CAF8AD5A319335B1A85FB3A8DB83A61159C0\t\t\tMintWhitelist(msg.sender, quan...\n      SWAP1 \t\t\tMintWhitelist(msg.sender, quan...\n      PUSH 20\t\t\tbl\n      ADD \t\t\t||\\n            blo\n      PUSH [tag] 379\t\t\tMintWhitelist(msg.sender, quan...\n      JUMP \t\t\t       _;\\n    }\\n\\n    modifi...\n    tag 111\t\t\trror PublicMintNotActive();\\n ...\n      JUMPDEST \t\t\trror PublicMintNotActive();\\n ...\n      PUSH 0\t\t\t();\\n   \n      DUP3 \t\t\t    error ExceedsMaxMintPe\n      DUP2 \t\t\t    error ExceedsMaxMintPe\n      MSTORE \t\t\t    error ExceedsMaxMintPe\n      PUSH A\t\t\t    error Exceeds\n      PUSH 20\t\t\t    error ExceedsMaxMintPe\n      SWAP1 \t\t\t    error ExceedsMaxMintPe\n      DUP2 \t\t\t    error ExceedsMaxMintPe\n      MSTORE \t\t\t    error ExceedsMaxMintPe\n      PUSH 40\t\t\t    error ExceedsMaxMintPe\n      DUP1 \t\t\t    error ExceedsMaxMintPe\n      DUP4 \t\t\t    error ExceedsMaxMintPe\n      KECCAK256 \t\t\t    error ExceedsMaxMintPe\n      DUP2 \t\t\t();\\n    error NotEligible();\\...\n      MLOAD \t\t\t();\\n    error NotEligible();\\...\n      DUP1 \t\t\t();\\n    error NotEligible();\\...\n      DUP4 \t\t\t();\\n    error NotEligible();\\...\n      ADD \t\t\t();\\n    error NotEligible();\\...\n      SWAP1 \t\t\t();\\n    error NotEligible();\\...\n      SWAP3 \t\t\t();\\n    error NotEligible();\\...\n      MSTORE \t\t\t();\\n    error NotEligible();\\...\n      SLOAD \t\t\t();\\n    error NotEligible();\\...\n      PUSH 1\t\t\t\n      PUSH 1\t\t\t\n      PUSH A0\t\t\t\n      SHL \t\t\t\n      SUB \t\t\t\n      DUP2 \t\t\t();\\n    error NotEligible();\\...\n      AND \t\t\t();\\n    error NotEligible();\\...\n      DUP1 \t\t\t();\\n    error NotEligible();\\...\n      DUP4 \t\t\t();\\n    error NotEligible();\\...\n      MSTORE \t\t\t();\\n    error NotEligible();\\...\n      PUSH 1\t\t\t\n      PUSH A0\t\t\t\n      SHL \t\t\t\n      SWAP1 \t\t\t();\\n    error NotEligible();\\...\n      SWAP2 \t\t\t();\\n    error NotEligible();\\...\n      DIV \t\t\t();\\n    error NotEligible();\\...\n      PUSH 1\t\t\t\n      PUSH 1\t\t\t\n      PUSH 60\t\t\t\n      SHL \t\t\t\n      SUB \t\t\t\n      AND \t\t\t();\\n    error NotEligible();\\...\n      SWAP3 \t\t\t();\\n    error NotEligible();\\...\n      DUP3 \t\t\t();\\n    error NotEligible();\\...\n      ADD \t\t\t();\\n    error NotEligible();\\...\n      SWAP3 \t\t\t();\\n    error NotEligible();\\...\n      SWAP1 \t\t\t();\\n    error NotEligible();\\...\n      SWAP3 \t\t\t();\\n    error NotEligible();\\...\n      MSTORE \t\t\t();\\n    error NotEligible();\\...\n      DUP3 \t\t\t();\\n   \n      SWAP2 \t\t\t();\\n   \n      PUSH [tag] 415\t\t\t    error ExceedsMaxSupply();\\...\n      JUMPI \t\t\t    error ExceedsMaxSupply();\\...\n      POP \t\t\t\n      PUSH 40\t\t\tntFunds();\\n    error NonEOACa\n      DUP1 \t\t\tntFunds();\\n    error NonEOACa\n      MLOAD \t\t\tntFunds();\\n    error NonEOACa\n      DUP1 \t\t\tntFunds();\\n    error NonEOACa\n      DUP3 \t\t\tntFunds();\\n    error NonEOACa\n      ADD \t\t\tntFunds();\\n    error NonEOACa\n      SWAP1 \t\t\tntFunds();\\n    error NonEOACa\n      SWAP2 \t\t\tntFunds();\\n    error NonEOACa\n      MSTORE \t\t\tntFunds();\\n    error NonEOACa\n      PUSH 9\t\t\t\\n    error NonEOACa\n      SLOAD \t\t\tntFunds();\\n    error NonEOACa\n      PUSH 1\t\t\t\n      PUSH 1\t\t\t\n      PUSH A0\t\t\t\n      SHL \t\t\t\n      SUB \t\t\t\n      DUP2 \t\t\tntFunds();\\n    error NonEOACa\n      AND \t\t\tntFunds();\\n    error NonEOACa\n      DUP3 \t\t\tntFunds();\\n    error NonEOACa\n      MSTORE \t\t\tntFunds();\\n    error NonEOACa\n      PUSH 1\t\t\t\n      PUSH A0\t\t\t\n      SHL \t\t\t\n      SWAP1 \t\t\tntFunds();\\n    error NonEOACa\n      DIV \t\t\tntFunds();\\n    error NonEOACa\n      PUSH 1\t\t\t\n      PUSH 1\t\t\t\n      PUSH 60\t\t\t\n      SHL \t\t\t\n      SUB \t\t\t\n      AND \t\t\tntFunds();\\n    error NonEOACa\n      PUSH 20\t\t\tntFunds();\\n    error NonEOACa\n      DUP3 \t\t\tntFunds();\\n    error NonEOACa\n      ADD \t\t\tntFunds();\\n    error NonEOACa\n      MSTORE \t\t\tntFunds();\\n    error NonEOACa\n    tag 415\t\t\t    error ExceedsMaxSupply();\\...\n      JUMPDEST \t\t\t    error ExceedsMaxSupply();\\...\n      PUSH 20\t\t\tus == DropStatus.DISABL\n      DUP2 \t\t\tus == DropStatus.DISABL\n      ADD \t\t\tus == DropStatus.DISABL\n      MLOAD \t\t\tus == DropStatus.DISABL\n      PUSH 0\t\t\t dropEnabled() {\\n    \n      SWAP1 \t\t\t dropEnabled() {\\n    \n      PUSH 2710\t\t\t;\\n   \n      SWAP1 \t\t\t;\\n   \n      PUSH [tag] 418\t\t\tif (dropStatus == DropStatus.D...\n      SWAP1 \t\t\tif (dropStatus == DropStatus.D...\n      PUSH 1\t\t\t\n      PUSH 1\t\t\t\n      PUSH 60\t\t\t\n      SHL \t\t\t\n      SUB \t\t\t\n      AND \t\t\tif (dropStatus == DropStatus.D...\n      DUP8 \t\t\tif (dropS\n      PUSH [tag] 356\t\t\tif (dropStatus == DropStatus.D...\n      JUMP \t\t\tif (dropStatus == DropStatus.D...\n    tag 418\t\t\tif (dropStatus == DropStatus.D...\n      JUMPDEST \t\t\tif (dropStatus == DropStatus.D...\n      PUSH [tag] 419\t\t\t if (dropStatus == DropStatus....\n      SWAP2 \t\t\t if (dropStatus == DropStatus....\n      SWAP1 \t\t\t if (dropStatus == DropStatus....\n      PUSH [tag] 420\t\t\t if (dropStatus == DropStatus....\n      JUMP \t\t\t if (dropStatus == DropStatus....\n    tag 419\t\t\t if (dropStatus == DropStatus....\n      JUMPDEST \t\t\t if (dropStatus == DropStatus....\n      SWAP2 \t\t\t();\\n        }\\n  \n      MLOAD \t\t\t();\\n        }\\n  \n      SWAP7 \t\t\t();\\n        }\\n  \n      SWAP2 \t\t\t();\\n        }\\n  \n      SWAP6 \t\t\t();\\n        }\\n  \n      POP \t\t\t\n      SWAP1 \t\t\trror PublicMintNotActive();\\n ...\n      SWAP4 \t\t\trror PublicMintNotActive();\\n ...\n      POP \t\t\t\n      POP \t\t\t\n      POP \t\t\t\n      POP \t\t\t\n      JUMP \t\t\trror PublicMintNotActive();\\n ...\n    tag 116\t\t\tfunction withdraw() public onl...\n      JUMPDEST \t\t\tfunction withdraw() public onl...\n      PUSH [tag] 422\t\t\ttedPerWallet;\n      PUSH [tag] 255\t\t\ttedPerWalle\n      JUMP \t\t\ttedPerWallet;\n    tag 422\t\t\ttedPerWallet;\n      JUMPDEST \t\t\ttedPerWallet;\n      PUSH 40\t\t\tpayable(msg.sender).transfer(a...\n      MLOAD \t\t\tpayable(msg.sender).transfer(a...\n      CALLER \t\t\tmsg.sender\n      SWAP1 \t\t\tmsg.sender\n      SELFBALANCE \t\t\taddress(this).balance\n      DUP1 \t\t\tpayable(msg.sender).transfer(a...\n      ISZERO \t\t\tpayable(msg.sender).transfer(a...\n      PUSH 8FC\t\t\tpayable(msg.sender).transfer(a...\n      MUL \t\t\tpayable(msg.sender).transfer(a...\n      SWAP2 \t\t\tpayable(msg.sender).transfer(a...\n      PUSH 0\t\t\tpayable(msg.sender).transfer(a...\n      DUP2 \t\t\tpayable(msg.sender).transfer(a...\n      DUP2 \t\t\tpayable(msg.sender).transfer(a...\n      DUP2 \t\t\tpayable(msg.sender).transfer(a...\n      DUP6 \t\t\taddress(this).balance\n      DUP9 \t\t\tmsg.sender\n      DUP9 \t\t\tpayable(msg.sender).transfer(a...\n      CALL \t\t\tpayable(msg.sender).transfer(a...\n      SWAP4 \t\t\tpayable(msg.sender).transfer(a...\n      POP \t\t\tpayable(msg.sender).transfer(a...\n      POP \t\t\tpayable(msg.sender).transfer(a...\n      POP \t\t\tpayable(msg.sender).transfer(a...\n      POP \t\t\tpayable(msg.sender).transfer(a...\n      ISZERO \t\t\tpayable(msg.sender).transfer(a...\n      DUP1 \t\t\tpayable(msg.sender).transfer(a...\n      ISZERO \t\t\tpayable(msg.sender).transfer(a...\n      PUSH [tag] 425\t\t\tpayable(msg.sender).transfer(a...\n      JUMPI \t\t\tpayable(msg.sender).transfer(a...\n      RETURNDATASIZE \t\t\tpayable(msg.sender).transfer(a...\n      PUSH 0\t\t\tpayable(msg.sender).transfer(a...\n      DUP1 \t\t\tpayable(msg.sender).transfer(a...\n      RETURNDATACOPY \t\t\tpayable(msg.sender).transfer(a...\n      RETURNDATASIZE \t\t\tpayable(msg.sender).transfer(a...\n      PUSH 0\t\t\tpayable(msg.sender).transfer(a...\n      REVERT \t\t\tpayable(msg.sender).transfer(a...\n    tag 425\t\t\tpayable(msg.sender).transfer(a...\n      JUMPDEST \t\t\tpayable(msg.sender).transfer(a...\n      POP \t\t\tpayable(msg.sender).transfer(a...\n      JUMP \t\t\tfunction withdraw() public onl...\n    tag 119\t\t\t\n      JUMPDEST \t\t\t\n      PUSH [tag] 427\t\t\t\n      DUP4 \t\t\t\n      DUP4 \t\t\t\n      DUP4 \t\t\t\n      PUSH 40\t\t\t\n      MLOAD \t\t\t\n      DUP1 \t\t\t\n      PUSH 20\t\t\t\n      ADD \t\t\t\n      PUSH 40\t\t\t\n      MSTORE \t\t\t\n      DUP1 \t\t\t\n      PUSH 0\t\t\t\n      DUP2 \t\t\t\n      MSTORE \t\t\t\n      POP \t\t\t\n      PUSH [tag] 207\t\t\t\n      JUMP \t\t\t\n    tag 427\t\t\t\n      JUMPDEST \t\t\t\n      POP \t\t\t\n      POP \t\t\t\n      POP \t\t\t\n      JUMP \t\t\t\n    tag 129\t\t\tfunction setDropStatus(DropSta...\n      JUMPDEST \t\t\tfunction setDropStatus(DropSta...\n      PUSH [tag] 429\t\t\ttedPerWallet;\n      PUSH [tag] 255\t\t\ttedPerWalle\n      JUMP \t\t\ttedPerWallet;\n    tag 429\t\t\ttedPerWallet;\n      JUMPDEST \t\t\ttedPerWallet;\n      PUSH B\t\t\tdropStatus\n      DUP1 \t\t\tdropStatus = newDropStatus\n      SLOAD \t\t\tdropStatus = newDropStatus\n      DUP3 \t\t\tnewDropStatus\n      SWAP2 \t\t\tnewDropStatus\n      SWAP1 \t\t\tdropStatus\n      PUSH FF\t\t\t\n      PUSH A0\t\t\t\n      SHL \t\t\t\n      NOT \t\t\t\n      AND \t\t\tdropStatus = newDropStatus\n      PUSH 1\t\t\t\n      PUSH A0\t\t\t\n      SHL \t\t\t\n      DUP4 \t\t\tnewDropStatus\n      PUSH 3\t\t\tdropStatus = newDropStatus\n      DUP2 \t\t\tdropStatus = newDropStatus\n      GT \t\t\tdropStatus = newDropStatus\n      ISZERO \t\t\tdropStatus = newDropStatus\n      PUSH [tag] 432\t\t\tdropStatus = newDropStatus\n      JUMPI \t\t\tdropStatus = newDropStatus\n      PUSH [tag] 432\t\t\tdropStatus = newDropStatus\n      PUSH [tag] 262\t\t\tdropStatus = newDropStatus\n      JUMP \t\t\tdropStatus = newDropStatus\n    tag 432\t\t\tdropStatus = newDropStatus\n      JUMPDEST \t\t\tdropStatus = newDropStatus\n      MUL \t\t\tdropStatus = newDropStatus\n      OR \t\t\tdropStatus = newDropStatus\n      SWAP1 \t\t\tdropStatus = newDropStatus\n      SSTORE \t\t\tdropStatus = newDropStatus\n      POP \t\t\tdropStatus = newDropStatus\n      PUSH 3BC110370C8D062D875866567D288433541B3F5F05C98FA991B82EF9F6315881\t\t\tNewDropStatus(newDropStatus)\n      DUP2 \t\t\tnewDropStatus\n      PUSH 40\t\t\tNewDropStatus(newDropStatus)\n      MLOAD \t\t\tNewDropStatus(newDropStatus)\n      PUSH [tag] 433\t\t\tNewDropStatus(newDropStatus)\n      SWAP2 \t\t\tNewDropStatus(newDropStatus)\n      SWAP1 \t\t\tNewDropStatus(newDropStatus)\n      PUSH [tag] 124\t\t\tNewDropStatus(newDropStatus)\n      JUMP \t\t\tNewDropStatus(newDropStatus)\n    tag 433\t\t\tNewDropStatus(newDropStatus)\n      JUMPDEST \t\t\tNewDropStatus(newDropStatus)\n      PUSH 40\t\t\tNewDropStatus(newDropStatus)\n      MLOAD \t\t\tNewDropStatus(newDropStatus)\n      DUP1 \t\t\tNewDropStatus(newDropStatus)\n      SWAP2 \t\t\tNewDropStatus(newDropStatus)\n      SUB \t\t\tNewDropStatus(newDropStatus)\n      SWAP1 \t\t\tNewDropStatus(newDropStatus)\n      LOG1 \t\t\tNewDropStatus(newDropStatus)\n      POP \t\t\tfunction setDropStatus(DropSta...\n      JUMP \t\t\tfunction setDropStatus(DropSta...\n    tag 134\t\t\tomtoken.xyz/ipfs/bafybeidnrgag...\n      JUMPDEST \t\t\tomtoken.xyz/ipfs/bafybeidnrgag...\n      PUSH 40\t\t\t;\\n  \n      DUP1 \t\t\tntity);\\n   \n      MLOAD \t\t\tntity);\\n   \n      DUP3 \t\t\t56 _quantity);\\n    ev\n      DUP2 \t\t\t56 _quantity);\\n    ev\n      MSTORE \t\t\t56 _quantity);\\n    ev\n      PUSH 5\t\t\tA\n      DUP4 \t\t\ttNotActiv\n      SWAP1 \t\t\ttNotActiv\n      SHL \t\t\ttNotActiv\n      DUP1 \t\t\tmNotActive();\\n    error NotEl\n      DUP3 \t\t\tmNotActive();\\n    error NotEl\n      ADD \t\t\tmNotActive();\\n    error NotEl\n      PUSH 20\t\t\tror \n      ADD \t\t\tmNotActive();\\n    error NotEl\n      SWAP1 \t\t\t   error ClaimNotActive();\\n  ...\n      SWAP3 \t\t\t   error ClaimNotActive();\\n  ...\n      MSTORE \t\t\t   error ClaimNotActive();\\n  ...\n      PUSH 60\t\t\t _toTokenId);\\n    event\n      SWAP2 \t\t\t _toTokenId);\\n    event\n    tag 435\t\t\tExceedsMaxMintPerWallet();\\n  ...\n      JUMPDEST \t\t\tExceedsMaxMintPerWallet();\\n  ...\n      DUP1 \t\t\tMaxMin\n      ISZERO \t\t\tMaxMin\n      PUSH [tag] 436\t\t\tExceedsMaxMintPerWallet();\\n  ...\n      JUMPI \t\t\tExceedsMaxMintPerWallet();\\n  ...\n      PUSH 1F\t\t\t\n      NOT \t\t\t\n      DUP1 \t\t\t  error NonE\n      DUP3 \t\t\t  error NonE\n      ADD \t\t\t  error NonE\n      SWAP2 \t\t\t  error NonE\n      DUP7 \t\t\t\\n        if (dropStatus\n      ADD \t\t\t\\n        if (dropStatus\n      ADD \t\t\t\\n        if (dropStatus\n      CALLDATALOAD \t\t\topEnabled() {\\n        if (dro...\n      PUSH 0\t\t\t  error Exceeds\n      PUSH [tag] 437\t\t\t);\\n        }\\n        _;\\n   ...\n      DUP3 \t\t\topEnabled() {\\n        if (dro...\n      PUSH [tag] 211\t\t\t);\\n        }\\n      \n      JUMP \t\t\t);\\n        }\\n        _;\\n   ...\n    tag 437\t\t\t);\\n        }\\n        _;\\n   ...\n      JUMPDEST \t\t\t);\\n        }\\n        _;\\n   ...\n      DUP5 \t\t\te();\\n        }\\n        _;\\n ...\n      DUP5 \t\t\te();\\n        }\\n        _;\\n ...\n      ADD \t\t\te();\\n        }\\n        _;\\n ...\n      PUSH 20\t\t\t   _\n      ADD \t\t\te();\\n        }\\n        _;\\n ...\n      MSTORE \t\t\totActive();\\n        }\\n      ...\n      POP \t\t\t\n      PUSH [tag] 435\t\t\tExceedsMaxMintPerWallet();\\n  ...\n      SWAP1 \t\t\tExceedsMaxMintPerWallet();\\n  ...\n      POP \t\t\t\n      JUMP \t\t\tExceedsMaxMintPerWallet();\\n  ...\n    tag 436\t\t\tExceedsMaxMintPerWallet();\\n  ...\n      JUMPDEST \t\t\tExceedsMaxMintPerWallet();\\n  ...\n      POP \t\t\t\n      SWAP4 \t\t\t          \n      SWAP3 \t\t\tomtoken.xyz/ipfs/bafybeidnrgag...\n      POP \t\t\t\n      POP \t\t\t\n      POP \t\t\t\n      JUMP \t\t\tomtoken.xyz/ipfs/bafybeidnrgag...\n    tag 140\t\t\t\n      JUMPDEST \t\t\t\n      PUSH 0\t\t\t\n      PUSH [tag] 251\t\t\t\n      DUP3 \t\t\t\n      PUSH [tag] 318\t\t\t\n      JUMP \t\t\t\n    tag 146\t\t\ter {\\n        gloomerHash = gl...\n      JUMPDEST \t\t\ter {\\n        gloomerHash = gl...\n      PUSH 0\t\t\tpublic \n      PUSH 1\t\t\t\n      PUSH 1\t\t\t\n      PUSH A0\t\t\t\n      SHL \t\t\t\n      SUB \t\t\t\n      DUP3 \t\t\t    payable(msg.sen\n      AND \t\t\t    payable(msg.sen\n      PUSH [tag] 442\t\t\t        payable(msg.sender).tr...\n      JUMPI \t\t\t        payable(msg.sender).tr...\n      PUSH [tag] 442\t\t\tr).transfer(address(this).bala...\n      PUSH 23D3AD81\t\t\t\n      PUSH E2\t\t\t\n      SHL \t\t\t\n      PUSH [tag] 307\t\t\tr).tran\n      JUMP \t\t\tr).transfer(address(this).bala...\n    tag 442\t\t\tr).transfer(address(this).bala...\n      JUMPDEST \t\t\tr).transfer(address(this).bala...\n      POP \t\t\t\n      PUSH 1\t\t\t\n      PUSH 1\t\t\t\n      PUSH A0\t\t\t\n      SHL \t\t\t\n      SUB \t\t\t\n      AND \t\t\ternal payable {}\\n\\n    rec\n      PUSH 0\t\t\ternal payable {}\\n\\n    rec\n      SWAP1 \t\t\ternal payable {}\\n\\n    rec\n      DUP2 \t\t\ternal payable {}\\n\\n    rec\n      MSTORE \t\t\ternal payable {}\\n\\n    rec\n      PUSH 5\t\t\ternal payable {}\\n\\n\n      PUSH 20\t\t\ternal payable {}\\n\\n    rec\n      MSTORE \t\t\ternal payable {}\\n\\n    rec\n      PUSH 40\t\t\ternal payable {}\\n\\n    rec\n      SWAP1 \t\t\ternal payable {}\\n\\n    rec\n      KECCAK256 \t\t\ternal payable {}\\n\\n    rec\n      SLOAD \t\t\ternal payable {}\\n\\n    rec\n      PUSH FFFFFFFFFFFFFFFF\t\t\tng(address =>\n      AND \t\t\ternal payable {}\\n\\n    receiv...\n      SWAP1 \t\t\ternal payable {}\\n\\n    receiv...\n      JUMP \t\t\ter {\\n        gloomerHash = gl...\n    tag 150\t\t\t;\\n    event NewDropStatus(Dro...\n      JUMPDEST \t\t\t;\\n    event NewDropStatus(Dro...\n      PUSH [tag] 444\t\t\ttedPerWallet;\n      PUSH [tag] 255\t\t\ttedPerWalle\n      JUMP \t\t\ttedPerWallet;\n    tag 444\t\t\ttedPerWallet;\n      JUMPDEST \t\t\ttedPerWallet;\n      PUSH [tag] 446\t\t\tntingDisabled();\\n    error Pu...\n      PUSH 0\t\t\tP\n      PUSH [tag] 447\t\t\tntingDisabled();\\n \n      JUMP \t\t\tntingDisabled();\\n    error Pu...\n    tag 446\t\t\tntingDisabled();\\n    error Pu...\n      JUMPDEST \t\t\tntingDisabled();\\n    error Pu...\n      JUMP \t\t\t;\\n    event NewDropStatus(Dro...\n    tag 158\t\t\t\\n    }\\n\\n    modifier obeysW...\n      JUMPDEST \t\t\t\\n    }\\n\\n    modifier obeysW...\n      PUSH 60\t\t\t     _mintedPerW\n      PUSH 0\t\t\t     ) {\\n    \n      PUSH [tag] 452\t\t\t     revert Exc\n      PUSH [tag] 292\t\t\t     revert E\n      JUMP \t\t\t     revert Exc\n    tag 452\t\t\t     revert Exc\n      JUMPDEST \t\t\t     revert Exc\n      SWAP1 \t\t\t     ) {\\n            revert E...\n      POP \t\t\t     ) {\\n            revert E...\n      PUSH 0\t\t\ttPerWallet()\n      PUSH [tag] 453\t\t\t       }\\n     \n      PUSH 0\t\t\t    onl\n      SLOAD \t\t\tuint256 quant\n      SWAP1 \t\t\tuint256 quant\n      JUMP \t\t\tlletLimit(_presaleAllocationsB...\n    tag 453\t\t\t       }\\n     \n      JUMPDEST \t\t\t       }\\n     \n      SWAP1 \t\t\ttPerWallet();\\n        }\\n    ...\n      POP \t\t\ttPerWallet();\\n        }\\n    ...\n      PUSH 60\t\t\t}\\n\\n    modifier gloomin(b\n      DUP2 \t\t\t    \n      DUP4 \t\t\tHash_\n      EQ \t\t\tHash_) {\\n    \n      PUSH [tag] 454\t\t\tomerHash_) {\\n        if (gloo...\n      JUMPI \t\t\tomerHash_) {\\n        if (gloo...\n      PUSH [tag] 455\t\t\terHash != gloomerHash_) {\\n   ...\n      DUP6 \t\t\tHash_\n      DUP5 \t\t\t{\\n   \n      DUP5 \t\t\t    \n      PUSH [tag] 456\t\t\terHash != gloome\n      JUMP \t\t\terHash != gloomerHash_) {\\n   ...\n    tag 455\t\t\terHash != gloomerHash_) {\\n   ...\n      JUMPDEST \t\t\terHash != gloomerHash_) {\\n   ...\n      SWAP1 \t\t\t  if (gloomerHash != gloomerHa...\n      POP \t\t\t  if (gloomerHash != gloomerHa...\n    tag 454\t\t\tomerHash_) {\\n        if (gloo...\n      JUMPDEST \t\t\tomerHash_) {\\n        if (gloo...\n      SWAP5 \t\t\tble();\\n \n      SWAP4 \t\t\t\\n    }\\n\\n    modifier obeysW...\n      POP \t\t\t\n      POP \t\t\t\n      POP \t\t\t\n      POP \t\t\t\n      JUMP \t\t\t\\n    }\\n\\n    modifier obeysW...\n    tag 175\t\t\t\n      JUMPDEST \t\t\t\n      PUSH 60\t\t\t\n      PUSH 3\t\t\t\n      DUP1 \t\t\t\n      SLOAD \t\t\t\n      PUSH [tag] 296\t\t\t\n      SWAP1 \t\t\t\n      PUSH [tag] 297\t\t\t\n      JUMP \t\t\t\n    tag 181\t\t\tblock.timestamp < WHITELIST_ST...\n      JUMPDEST \t\t\tblock.timestamp < WHITELIST_ST...\n      PUSH 60\t\t\tim() {\\n        i\n      PUSH [tag] 454\t\t\tonsByWallet[msg.sender] == 0) ...\n      DUP5 \t\t\tender\n      DUP5 \t\t\t== 0)\n      DUP5 \t\t\t\\n   \n      PUSH [tag] 456\t\t\tonsByWallet[msg.\n      JUMP \t\t\tonsByWallet[msg.sender] == 0) ...\n    tag 185\t\t\tuint256 public constant PUBLIC...\n      JUMPDEST \t\t\tuint256 public constant PUBLIC...\n      PUSH [tag] 466\t\t\tWHITELIST_START_TIMESTAMP + 3 ...\n      PUSH 66365B80\t\t\t1714838400\n      PUSH 2A30\t\t\t3 hours\n      PUSH [tag] 272\t\t\tWHITELIST_START_TIMESTAMP + 3 ...\n      JUMP \t\t\tWHITELIST_START_TIMESTAMP + 3 ...\n    tag 466\t\t\tWHITELIST_START_TIMESTAMP + 3 ...\n      JUMPDEST \t\t\tWHITELIST_START_TIMESTAMP + 3 ...\n      DUP2 \t\t\tuint256 public constant PUBLIC...\n      JUMP \t\t\tuint256 public constant PUBLIC...\n    tag 189\t\t\tfunction mint(\\n        uint25...\n      JUMPDEST \t\t\tfunction mint(\\n        uint25...\n      PUSH 0\t\t\tDropStatus.DISABLED\n      PUSH B\t\t\tdropStatus\n      SLOAD \t\t\tdropStatus\n      PUSH 1\t\t\t\n      PUSH A0\t\t\t\n      SHL \t\t\t\n      SWAP1 \t\t\tdropStatus\n      DIV \t\t\tdropStatus\n      PUSH FF\t\t\tdropStatus\n      AND \t\t\tdropStatus\n      PUSH 3\t\t\tdropStatus == DropStatus.DISAB...\n      DUP2 \t\t\tdropStatus == DropStatus.DISAB...\n      GT \t\t\tdropStatus == DropStatus.DISAB...\n      ISZERO \t\t\tdropStatus == DropStatus.DISAB...\n      PUSH [tag] 471\t\t\tdropStatus == DropStatus.DISAB...\n      JUMPI \t\t\tdropStatus == DropStatus.DISAB...\n      PUSH [tag] 471\t\t\tdropStatus == DropStatus.DISAB...\n      PUSH [tag] 262\t\t\tdropStatus == DropStatus.DISAB...\n      JUMP \t\t\tdropStatus == DropStatus.DISAB...\n    tag 471\t\t\tdropStatus == DropStatus.DISAB...\n      JUMPDEST \t\t\tdropStatus == DropStatus.DISAB...\n      SUB \t\t\tdropStatus == DropStatus.DISAB...\n      PUSH [tag] 472\t\t\tif (dropStatus == DropStatus.D...\n      JUMPI \t\t\tif (dropStatus == DropStatus.D...\n      PUSH 40\t\t\tMintingDisabled()\n      MLOAD \t\t\tMintingDisabled()\n      PUSH AF79B437\t\t\t\n      PUSH E0\t\t\t\n      SHL \t\t\t\n      DUP2 \t\t\tMintingDisabled()\n      MSTORE \t\t\tMintingDisabled()\n      PUSH 4\t\t\tMintingDisabled()\n      ADD \t\t\tMintingDisabled()\n      PUSH 40\t\t\tMintingDisabled()\n      MLOAD \t\t\tMintingDisabled()\n      DUP1 \t\t\tMintingDisabled()\n      SWAP2 \t\t\tMintingDisabled()\n      SUB \t\t\tMintingDisabled()\n      SWAP1 \t\t\tMintingDisabled()\n      REVERT \t\t\tMintingDisabled()\n    tag 472\t\t\tif (dropStatus == DropStatus.D...\n      JUMPDEST \t\t\tif (dropStatus == DropStatus.D...\n      PUSH [tag] 474\t\t\tWHITELIST_START_TIMESTAMP + 3 ...\n      PUSH 66365B80\t\t\t1714838400\n      PUSH 2A30\t\t\t3 hours\n      PUSH [tag] 272\t\t\tWHITELIST_START_TIMESTAMP + 3 ...\n      JUMP \t\t\tWHITELIST_START_TIMESTAMP + 3 ...\n    tag 474\t\t\tWHITELIST_START_TIMESTAMP + 3 ...\n      JUMPDEST \t\t\tWHITELIST_START_TIMESTAMP + 3 ...\n      TIMESTAMP \t\t\tblock.timestamp\n      LT \t\t\tblock.timestamp < PUBLIC_MINT_...\n      ISZERO \t\t\tif (block.timestamp < PUBLIC_M...\n      PUSH [tag] 475\t\t\tif (block.timestamp < PUBLIC_M...\n      JUMPI \t\t\tif (block.timestamp < PUBLIC_M...\n      PUSH 40\t\t\tPublicMintNotActive()\n      MLOAD \t\t\tPublicMintNotActive()\n      PUSH CD967E35\t\t\t\n      PUSH E0\t\t\t\n      SHL \t\t\t\n      DUP2 \t\t\tPublicMintNotActive()\n      MSTORE \t\t\tPublicMintNotActive()\n      PUSH 4\t\t\tPublicMintNotActive()\n      ADD \t\t\tPublicMintNotActive()\n      PUSH 40\t\t\tPublicMintNotActive()\n      MLOAD \t\t\tPublicMintNotActive()\n      DUP1 \t\t\tPublicMintNotActive()\n      SWAP2 \t\t\tPublicMintNotActive()\n      SUB \t\t\tPublicMintNotActive()\n      SWAP1 \t\t\tPublicMintNotActive()\n      REVERT \t\t\tPublicMintNotActive()\n    tag 475\t\t\tif (block.timestamp < PUBLIC_M...\n      JUMPDEST \t\t\tif (block.timestamp < PUBLIC_M...\n      DUP1 \t\t\tquantity\n      PUSH [tag] 477\t\t\tPRICE_PER_TOKEN * quantity\n      DUP2 \t\t\tquantity\n      PUSH 6A94D74F430000\t\t\t0.03 ether\n      PUSH [tag] 356\t\t\tPRICE_PER_TOKEN * quantity\n      JUMP \t\t\tPRICE_PER_TOKEN * quantity\n    tag 477\t\t\tPRICE_PER_TOKEN * quantity\n      JUMPDEST \t\t\tPRICE_PER_TOKEN * quantity\n      CALLVALUE \t\t\tmsg.value\n      LT \t\t\tmsg.value < PRICE_PER_TOKEN * ...\n      ISZERO \t\t\tif (msg.value < PRICE_PER_TOKE...\n      PUSH [tag] 478\t\t\tif (msg.value < PRICE_PER_TOKE...\n      JUMPI \t\t\tif (msg.value < PRICE_PER_TOKE...\n      PUSH 40\t\t\tInsufficientFunds()\n      MLOAD \t\t\tInsufficientFunds()\n      PUSH 356680B7\t\t\t\n      PUSH E0\t\t\t\n      SHL \t\t\t\n      DUP2 \t\t\tInsufficientFunds()\n      MSTORE \t\t\tInsufficientFunds()\n      PUSH 4\t\t\tInsufficientFunds()\n      ADD \t\t\tInsufficientFunds()\n      PUSH 40\t\t\tInsufficientFunds()\n      MLOAD \t\t\tInsufficientFunds()\n      DUP1 \t\t\tInsufficientFunds()\n      SWAP2 \t\t\tInsufficientFunds()\n      SUB \t\t\tInsufficientFunds()\n      SWAP1 \t\t\tInsufficientFunds()\n      REVERT \t\t\tInsufficientFunds()\n    tag 478\t\t\tif (msg.value < PRICE_PER_TOKE...\n      JUMPDEST \t\t\tif (msg.value < PRICE_PER_TOKE...\n      CALLER \t\t\tmsg.sender\n      PUSH 0\t\t\t_presaleAllocationsByWallet[ms...\n      SWAP1 \t\t\t_presaleAllocationsByWallet[ms...\n      DUP2 \t\t\t_presaleAllocationsByWallet[ms...\n      MSTORE \t\t\t_presaleAllocationsByWallet[ms...\n      PUSH D\t\t\t_presaleAllocationsByWallet\n      PUSH 20\t\t\t_presaleAllocationsByWallet[ms...\n      SWAP1 \t\t\t_presaleAllocationsByWallet[ms...\n      DUP2 \t\t\t_presaleAllocationsByWallet[ms...\n      MSTORE \t\t\t_presaleAllocationsByWallet[ms...\n      PUSH 40\t\t\t_presaleAllocationsByWallet[ms...\n      DUP1 \t\t\t_presaleAllocationsByWallet[ms...\n      DUP4 \t\t\t_presaleAllocationsByWallet[ms...\n      KECCAK256 \t\t\t_presaleAllocationsByWallet[ms...\n      SLOAD \t\t\t_presaleAllocationsByWallet[ms...\n      PUSH C\t\t\t_mintedPerWallet\n      SWAP1 \t\t\t_mintedPerWallet[msg.sender]\n      SWAP3 \t\t\t_mintedPerWallet[msg.sender]\n      MSTORE \t\t\t_mintedPerWallet[msg.sender]\n      SWAP1 \t\t\t_mintedPerWallet[msg.sender]\n      SWAP2 \t\t\t_mintedPerWallet[msg.sender]\n      KECCAK256 \t\t\t_mintedPerWallet[msg.sender]\n      SLOAD \t\t\t_mintedPerWallet[msg.sender]\n      DUP4 \t\t\tquantity\n      SWAP2 \t\t\tquantity\n      PUSH 3\t\t\t3\n      SWAP2 \t\t\t3\n      DUP4 \t\t\tquantity\n      SWAP2 \t\t\tquantity\n      PUSH [tag] 480\t\t\t_mintedPerWallet[msg.sender] +...\n      SWAP2 \t\t\t_mintedPerWallet[msg.sender] +...\n      PUSH [tag] 272\t\t\t_mintedPerWallet[msg.sender] +...\n      JUMP \t\t\t_mintedPerWallet[msg.sender] +...\n    tag 480\t\t\t_mintedPerWallet[msg.sender] +...\n      JUMPDEST \t\t\t_mintedPerWallet[msg.sender] +...\n      PUSH [tag] 481\t\t\t_mintedPerWallet[msg.sender] +...\n      SWAP2 \t\t\t_mintedPerWallet[msg.sender] +...\n      SWAP1 \t\t\t_mintedPerWallet[msg.sender] +...\n      PUSH [tag] 272\t\t\t_mintedPerWallet[msg.sender] +...\n      JUMP \t\t\t_mintedPerWallet[msg.sender] +...\n    tag 481\t\t\t_mintedPerWallet[msg.sender] +...\n      JUMPDEST \t\t\t_mintedPerWallet[msg.sender] +...\n      GT \t\t\t_mintedPerWallet[msg.sender] +...\n      DUP1 \t\t\t_mintedPerWallet[msg.sender] +...\n      ISZERO \t\t\t_mintedPerWallet[msg.sender] +...\n      PUSH [tag] 482\t\t\t_mintedPerWallet[msg.sender] +...\n      JUMPI \t\t\t_mintedPerWallet[msg.sender] +...\n      POP \t\t\t\n      PUSH B\t\t\t\\n    u\n      SLOAD \t\t\t\\n    u\n      PUSH 1\t\t\t\n      PUSH 1\t\t\t\n      PUSH A0\t\t\t\n      SHL \t\t\t\n      SUB \t\t\t\n      AND \t\t\t\\n    u\n      CALLER \t\t\tmsg.sender\n      EQ \t\t\tmsg.sender != owner()\n      ISZERO \t\t\tmsg.sender != owner()\n    tag 482\t\t\t_mintedPerWallet[msg.sender] +...\n      JUMPDEST \t\t\t_mintedPerWallet[msg.sender] +...\n      ISZERO \t\t\tif (\\n            _mintedPerWa...\n      PUSH [tag] 484\t\t\tif (\\n            _mintedPerWa...\n      JUMPI \t\t\tif (\\n            _mintedPerWa...\n      PUSH 40\t\t\tExceedsMaxMintPerWallet()\n      MLOAD \t\t\tExceedsMaxMintPerWallet()\n      PUSH 67EEC833\t\t\t\n      PUSH E0\t\t\t\n      SHL \t\t\t\n      DUP2 \t\t\tExceedsMaxMintPerWallet()\n      MSTORE \t\t\tExceedsMaxMintPerWallet()\n      PUSH 4\t\t\tExceedsMaxMintPerWallet()\n      ADD \t\t\tExceedsMaxMintPerWallet()\n      PUSH 40\t\t\tExceedsMaxMintPerWallet()\n      MLOAD \t\t\tExceedsMaxMintPerWallet()\n      DUP1 \t\t\tExceedsMaxMintPerWallet()\n      SWAP2 \t\t\tExceedsMaxMintPerWallet()\n      SUB \t\t\tExceedsMaxMintPerWallet()\n      SWAP1 \t\t\tExceedsMaxMintPerWallet()\n      REVERT \t\t\tExceedsMaxMintPerWallet()\n    tag 484\t\t\tif (\\n            _mintedPerWa...\n      JUMPDEST \t\t\tif (\\n            _mintedPerWa...\n      DUP3 \t\t\tquantity\n      PUSH 10\t\t\t_presaleSupplyOffset\n      SLOAD \t\t\t_presaleSupplyOffset\n      PUSH 1A0A\t\t\t6666\n      PUSH [tag] 486\t\t\tEND_TOKEN_ID - _presaleSupplyO...\n      SWAP2 \t\t\tEND_TOKEN_ID - _presaleSupplyO...\n      SWAP1 \t\t\tEND_TOKEN_ID - _presaleSupplyO...\n      PUSH [tag] 282\t\t\tEND_TOKEN_ID - _presaleSupplyO...\n      JUMP \t\t\tEND_TOKEN_ID - _presaleSupplyO...\n    tag 486\t\t\tEND_TOKEN_ID - _presaleSupplyO...\n      JUMPDEST \t\t\tEND_TOKEN_ID - _presaleSupplyO...\n      PUSH 1\t\t\t1\n      PUSH [tag] 487\t\t\t_nextTokenId()\n      PUSH 0\t\t\t    onl\n      SLOAD \t\t\tuint256 quant\n      SWAP1 \t\t\tuint256 quant\n      JUMP \t\t\tlletLimit(_presaleAllocationsB...\n    tag 487\t\t\t_nextTokenId()\n      JUMPDEST \t\t\t_nextTokenId()\n      PUSH [tag] 488\t\t\tquantity + _nextTokenId()\n      SWAP1 \t\t\tquantity + _nextTokenId()\n      DUP5 \t\t\tquantity\n      PUSH [tag] 272\t\t\tquantity + _nextTokenId()\n      JUMP \t\t\tquantity + _nextTokenId()\n    tag 488\t\t\tquantity + _nextTokenId()\n      JUMPDEST \t\t\tquantity + _nextTokenId()\n      PUSH [tag] 489\t\t\tquantity + _nextTokenId() - 1\n      SWAP2 \t\t\tquantity + _nextTokenId() - 1\n      SWAP1 \t\t\tquantity + _nextTokenId() - 1\n      PUSH [tag] 282\t\t\tquantity + _nextTokenId() - 1\n      JUMP \t\t\tquantity + _nextTokenId() - 1\n    tag 489\t\t\tquantity + _nextTokenId() - 1\n      JUMPDEST \t\t\tquantity + _nextTokenId() - 1\n      GT \t\t\tquantity + _nextTokenId() - 1 ...\n      ISZERO \t\t\tif (\\n            quantity + _...\n      PUSH [tag] 490\t\t\tif (\\n            quantity + _...\n      JUMPI \t\t\tif (\\n            quantity + _...\n      PUSH 40\t\t\tExceedsMaxSupply()\n      MLOAD \t\t\tExceedsMaxSupply()\n      PUSH C30436E9\t\t\t\n      PUSH E0\t\t\t\n      SHL \t\t\t\n      DUP2 \t\t\tExceedsMaxSupply()\n      MSTORE \t\t\tExceedsMaxSupply()\n      PUSH 4\t\t\tExceedsMaxSupply()\n      ADD \t\t\tExceedsMaxSupply()\n      PUSH 40\t\t\tExceedsMaxSupply()\n      MLOAD \t\t\tExceedsMaxSupply()\n      DUP1 \t\t\tExceedsMaxSupply()\n      SWAP2 \t\t\tExceedsMaxSupply()\n      SUB \t\t\tExceedsMaxSupply()\n      SWAP1 \t\t\tExceedsMaxSupply()\n      REVERT \t\t\tExceedsMaxSupply()\n    tag 490\t\t\tif (\\n            quantity + _...\n      JUMPDEST \t\t\tif (\\n            quantity + _...\n      ORIGIN \t\t\ttx.origin\n      CALLER \t\t\tmsg.sender\n      EQ \t\t\ttx.origin != msg.sender\n      PUSH [tag] 492\t\t\tif (tx.origin != msg.sender) {...\n      JUMPI \t\t\tif (tx.origin != msg.sender) {...\n      PUSH 40\t\t\tNonEOACaller()\n      MLOAD \t\t\tNonEOACaller()\n      PUSH 58516B3F\t\t\t\n      PUSH E0\t\t\t\n      SHL \t\t\t\n      DUP2 \t\t\tNonEOACaller()\n      MSTORE \t\t\tNonEOACaller()\n      PUSH 4\t\t\tNonEOACaller()\n      ADD \t\t\tNonEOACaller()\n      PUSH 40\t\t\tNonEOACaller()\n      MLOAD \t\t\tNonEOACaller()\n      DUP1 \t\t\tNonEOACaller()\n      SWAP2 \t\t\tNonEOACaller()\n      SUB \t\t\tNonEOACaller()\n      SWAP1 \t\t\tNonEOACaller()\n      REVERT \t\t\tNonEOACaller()\n    tag 492\t\t\tif (tx.origin != msg.sender) {...\n      JUMPDEST \t\t\tif (tx.origin != msg.sender) {...\n      CALLER \t\t\tmsg.sender\n      PUSH 0\t\t\t_mintedPerWallet[msg.sender]\n      SWAP1 \t\t\t_mintedPerWallet[msg.sender]\n      DUP2 \t\t\t_mintedPerWallet[msg.sender]\n      MSTORE \t\t\t_mintedPerWallet[msg.sender]\n      PUSH C\t\t\t_mintedPerWallet\n      PUSH 20\t\t\t_mintedPerWallet[msg.sender]\n      MSTORE \t\t\t_mintedPerWallet[msg.sender]\n      PUSH 40\t\t\t_mintedPerWallet[msg.sender]\n      DUP2 \t\t\t_mintedPerWallet[msg.sender]\n      KECCAK256 \t\t\t_mintedPerWallet[msg.sender]\n      DUP1 \t\t\t_mintedPerWallet[msg.sender] +...\n      SLOAD \t\t\t_mintedPerWallet[msg.sender] +...\n      DUP7 \t\t\tquantity\n      SWAP3 \t\t\tquantity\n      SWAP1 \t\t\t_mintedPerWallet[msg.sender]\n      PUSH [tag] 494\t\t\t_mintedPerWallet[msg.sender] +...\n      SWAP1 \t\t\t_mintedPerWallet[msg.sender] +...\n      DUP5 \t\t\tquantity\n      SWAP1 \t\t\tquantity\n      PUSH [tag] 272\t\t\t_mintedPerWallet[msg.sender] +...\n      JUMP \t\t\t_mintedPerWallet[msg.sender] +...\n    tag 494\t\t\t_mintedPerWallet[msg.sender] +...\n      JUMPDEST \t\t\t_mintedPerWallet[msg.sender] +...\n      SWAP1 \t\t\t_mintedPerWallet[msg.sender] +...\n      SWAP2 \t\t\t_mintedPerWallet[msg.sender] +...\n      SSTORE \t\t\t_mintedPerWallet[msg.sender] +...\n      POP \t\t\t\n      PUSH [tag] 495\t\t\t_mint(msg.sender, quantity)\n      SWAP1 \t\t\t_mint(msg.sender, quantity)\n      POP \t\t\t\n      CALLER \t\t\tmsg.sender\n      DUP6 \t\t\tquantity\n      PUSH [tag] 284\t\t\t_mint\n      JUMP \t\t\t_mint(msg.sender, quantity)\n    tag 495\t\t\t_mint(msg.sender, quantity)\n      JUMPDEST \t\t\t_mint(msg.sender, quantity)\n      PUSH 40\t\t\tGloomersMint(msg.sender, quant...\n      MLOAD \t\t\tGloomersMint(msg.sender, quant...\n      DUP5 \t\t\tamp > PUBLIC_MINT_TIMESTA\n      DUP2 \t\t\tamp > PUBLIC_MINT_TIMESTA\n      MSTORE \t\t\tamp > PUBLIC_MINT_TIMESTA\n      CALLER \t\t\tmsg.sender\n      SWAP1 \t\t\tmsg.sender\n      PUSH F07265907AAF7B6329BB73E97EA492CCBBC0678C94313E1F8331013A2E269D33\t\t\tGloomersMint(msg.sender, quant...\n      SWAP1 \t\t\tGloomersMint(msg.sender, quant...\n      PUSH 20\t\t\tbl\n      ADD \t\t\t||\\n            blo\n      PUSH 40\t\t\tGloomersMint(msg.sender, quant...\n      MLOAD \t\t\tGloomersMint(msg.sender, quant...\n      DUP1 \t\t\tGloomersMint(msg.sender, quant...\n      SWAP2 \t\t\tGloomersMint(msg.sender, quant...\n      SUB \t\t\tGloomersMint(msg.sender, quant...\n      SWAP1 \t\t\tGloomersMint(msg.sender, quant...\n      LOG2 \t\t\tGloomersMint(msg.sender, quant...\n      POP \t\t\t_\n      POP \t\t\t_\n      POP \t\t\t_\n      POP \t\t\tfunction mint(\\n        uint25...\n      JUMP \t\t\tfunction mint(\\n        uint25...\n    tag 194\t\t\t\n      JUMPDEST \t\t\t\n      CALLER \t\t\t\n      PUSH 0\t\t\t\n      DUP2 \t\t\t\n      DUP2 \t\t\t\n      MSTORE \t\t\t\n      PUSH 7\t\t\t\n      PUSH 20\t\t\t\n      SWAP1 \t\t\t\n      DUP2 \t\t\t\n      MSTORE \t\t\t\n      PUSH 40\t\t\t\n      DUP1 \t\t\t\n      DUP4 \t\t\t\n      KECCAK256 \t\t\t\n      PUSH 1\t\t\t\n      PUSH 1\t\t\t\n      PUSH A0\t\t\t\n      SHL \t\t\t\n      SUB \t\t\t\n      DUP8 \t\t\t\n      AND \t\t\t\n      DUP1 \t\t\t\n      DUP6 \t\t\t\n      MSTORE \t\t\t\n      SWAP1 \t\t\t\n      DUP4 \t\t\t\n      MSTORE \t\t\t\n      SWAP3 \t\t\t\n      DUP2 \t\t\t\n      SWAP1 \t\t\t\n      KECCAK256 \t\t\t\n      DUP1 \t\t\t\n      SLOAD \t\t\t\n      PUSH FF\t\t\t\n      NOT \t\t\t\n      AND \t\t\t\n      DUP7 \t\t\t\n      ISZERO \t\t\t\n      ISZERO \t\t\t\n      SWAP1 \t\t\t\n      DUP2 \t\t\t\n      OR \t\t\t\n      SWAP1 \t\t\t\n      SWAP2 \t\t\t\n      SSTORE \t\t\t\n      SWAP1 \t\t\t\n      MLOAD \t\t\t\n      SWAP1 \t\t\telist, and public minting peri...\n      DUP2 \t\t\telist, and public minting peri...\n      MSTORE \t\t\telist, and public minting peri...\n      SWAP2 \t\t\t\n      SWAP3 \t\t\t\n      SWAP2 \t\t\t\n      PUSH 17307EAB39AB6107E8899845AD3D59BD9653F200F220920489CA2B5937696C31\t\t\t\n      SWAP2 \t\t\t\n      ADD \t\t\tcontract with pres\n      PUSH 40\t\t\t\n      MLOAD \t\t\t\n      DUP1 \t\t\t\n      SWAP2 \t\t\t\n      SUB \t\t\t\n      SWAP1 \t\t\t\n      LOG3 \t\t\t\n      POP \t\t\t\n      POP \t\t\t\n      JUMP \t\t\t\n    tag 207\t\t\t\n      JUMPDEST \t\t\t\n      PUSH [tag] 503\t\t\t\n      DUP5 \t\t\t\n      DUP5 \t\t\t\n      DUP5 \t\t\t\n      PUSH [tag] 99\t\t\t\n      JUMP \t\t\t\n    tag 503\t\t\t\n      JUMPDEST \t\t\t\n      PUSH 1\t\t\t\n      PUSH 1\t\t\t\n      PUSH A0\t\t\t\n      SHL \t\t\t\n      SUB \t\t\t\n      DUP4 \t\t\t\n      AND \t\t\t\n      EXTCODESIZE \t\t\t\n      ISZERO \t\t\t\n      PUSH [tag] 508\t\t\t\n      JUMPI \t\t\t\n      PUSH [tag] 505\t\t\t\n      DUP5 \t\t\t\n      DUP5 \t\t\t\n      DUP5 \t\t\t\n      DUP5 \t\t\t\n      PUSH [tag] 506\t\t\t\n      JUMP \t\t\t\n    tag 505\t\t\t\n      JUMPDEST \t\t\t\n      PUSH [tag] 508\t\t\t\n      JUMPI \t\t\t\n      PUSH [tag] 508\t\t\t\n      PUSH 68D2BF6B\t\t\t\n      PUSH E1\t\t\t\n      SHL \t\t\t\n      PUSH [tag] 307\t\t\t\n      JUMP \t\t\t\n    tag 508\t\t\t\n      JUMPDEST \t\t\t\n      POP \t\t\t\n      POP \t\t\t\n      POP \t\t\t\n      POP \t\t\t\n      JUMP \t\t\t\n    tag 211\t\t\t58cf3ac201d8d9dfe63ac7c7d1e7aa...\n      JUMPDEST \t\t\t58cf3ac201d8d9dfe63ac7c7d1e7aa...\n      PUSH 40\t\t\t\n      DUP1 \t\t\t\n      MLOAD \t\t\t\n      PUSH 80\t\t\t\n      DUP2 \t\t\t\n      ADD \t\t\t\n      DUP3 \t\t\t\n      MSTORE \t\t\t\n      PUSH 0\t\t\t\n      DUP1 \t\t\t\n      DUP3 \t\t\t\n      MSTORE \t\t\t\n      PUSH 20\t\t\t\n      DUP3 \t\t\t\n      ADD \t\t\t\n      DUP2 \t\t\t\n      SWAP1 \t\t\t\n      MSTORE \t\t\t\n      SWAP2 \t\t\t\n      DUP2 \t\t\t\n      ADD \t\t\t\n      DUP3 \t\t\t\n      SWAP1 \t\t\t\n      MSTORE \t\t\t\n      PUSH 60\t\t\t\n      DUP2 \t\t\t\n      ADD \t\t\t\n      SWAP2 \t\t\t\n      SWAP1 \t\t\t\n      SWAP2 \t\t\t\n      MSTORE \t\t\t\n      PUSH [tag] 512\t\t\tAMP =\\n        W\n      PUSH [tag] 292\t\t\tAMP =\\n       \n      JUMP \t\t\tAMP =\\n        W\n    tag 512\t\t\tAMP =\\n        W\n      JUMPDEST \t\t\tAMP =\\n        W\n      DUP3 \t\t\tMINT_TI\n      LT \t\t\tMINT_TIMESTAMP =\\n        W\n      PUSH [tag] 519\t\t\tLIC_MINT_TIMESTAMP =\\n        ...\n      JUMPI \t\t\tLIC_MINT_TIMESTAMP =\\n        ...\n      PUSH 0\t\t\t    onl\n      SLOAD \t\t\tuint256 quant\n      DUP3 \t\t\tITELIST\n      LT \t\t\tITELIST,\\n        PUBLIC\\n\n      ISZERO \t\t\t  WHITELIST,\\n        PUBLIC\\n...\n      PUSH [tag] 519\t\t\t  WHITELIST,\\n        PUBLIC\\n...\n      JUMPI \t\t\t  WHITELIST,\\n        PUBLIC\\n...\n    tag 520\t\t\tivate _presaleAllocationsByWal...\n      JUMPDEST \t\t\tivate _presaleAllocationsByWal...\n      PUSH 0\t\t\t\n      DUP3 \t\t\t\n      DUP2 \t\t\t\n      MSTORE \t\t\t\n      PUSH 4\t\t\t\n      PUSH 20\t\t\t\n      MSTORE \t\t\t\n      PUSH 40\t\t\t\n      SWAP1 \t\t\t\n      KECCAK256 \t\t\t\n      SLOAD \t\t\t\n      PUSH [tag] 521\t\t\tivate _presaleAllocationsByWal...\n      JUMPI \t\t\tivate _presaleAllocationsByWal...\n      PUSH 0\t\t\t\n      NOT \t\t\t\n      SWAP1 \t\t\tping(uint\n      SWAP2 \t\t\tping(uint\n      ADD \t\t\tping(uint\n      SWAP1 \t\t\tping(uint\n      PUSH [tag] 520\t\t\tivate _presaleAllocationsByWal...\n      JUMP \t\t\tivate _presaleAllocationsByWal...\n    tag 521\t\t\tivate _presaleAllocationsByWal...\n      JUMPDEST \t\t\tivate _presaleAllocationsByWal...\n      PUSH [tag] 251\t\t\taleWalletsById;\\n    u\n      DUP3 \t\t\td;\\n    \n      PUSH [tag] 517\t\t\taleWalletsBy\n      JUMP \t\t\taleWalletsById;\\n    u\n    tag 519\t\t\t  WHITELIST,\\n        PUBLIC\\n...\n      JUMPDEST \t\t\t  WHITELIST,\\n        PUBLIC\\n...\n      SWAP2 \t\t\t58cf3ac201d8d9dfe63ac7c7d1e7aa...\n      SWAP1 \t\t\t58cf3ac201d8d9dfe63ac7c7d1e7aa...\n      POP \t\t\t58cf3ac201d8d9dfe63ac7c7d1e7aa...\n      JUMP \t\t\t58cf3ac201d8d9dfe63ac7c7d1e7aa...\n    tag 218\t\t\tfunction setGloomerHash(bytes3...\n      JUMPDEST \t\t\tfunction setGloomerHash(bytes3...\n      PUSH [tag] 526\t\t\ttedPerWallet;\n      PUSH [tag] 255\t\t\ttedPerWalle\n      JUMP \t\t\ttedPerWallet;\n    tag 526\t\t\ttedPerWallet;\n      JUMPDEST \t\t\ttedPerWallet;\n      PUSH 11\t\t\tgloomerHash\n      SSTORE \t\t\tgloomerHash = gloomerHash_\n      JUMP \t\t\tfunction setGloomerHash(bytes3...\n    tag 222\t\t\tfunction tokenURI(\\n        ui...\n      JUMPDEST \t\t\tfunction tokenURI(\\n        ui...\n      PUSH 12\t\t\trevealed\n      SLOAD \t\t\trevealed\n      PUSH 60\t\t\tstring memory\n      SWAP1 \t\t\tstring memory\n      PUSH FF\t\t\trevealed\n      AND \t\t\trevealed\n      PUSH [tag] 529\t\t\tif (!revealed) {\\n            ...\n      JUMPI \t\t\tif (!revealed) {\\n            ...\n      PUSH [tag] 251\t\t\t_baseURI()\n      PUSH [tag] 531\t\t\t_baseURI\n      JUMP \t\t\t_baseURI()\n    tag 529\t\t\tif (!revealed) {\\n            ...\n      JUMPDEST \t\t\tif (!revealed) {\\n            ...\n      PUSH [tag] 532\t\t\t_exists(tokenId)\n      DUP3 \t\t\ttokenId\n      PUSH [tag] 304\t\t\t_exists\n      JUMP \t\t\t_exists(tokenId)\n    tag 532\t\t\t_exists(tokenId)\n      JUMPDEST \t\t\t_exists(tokenId)\n      PUSH [tag] 533\t\t\tif (!_exists(tokenId)) {\\n    ...\n      JUMPI \t\t\tif (!_exists(tokenId)) {\\n    ...\n      PUSH 40\t\t\tURIQueryForNonexistentToken()\n      MLOAD \t\t\tURIQueryForNonexistentToken()\n      PUSH A14C4B5\t\t\t\n      PUSH E4\t\t\t\n      SHL \t\t\t\n      DUP2 \t\t\tURIQueryForNonexistentToken()\n      MSTORE \t\t\tURIQueryForNonexistentToken()\n      PUSH 4\t\t\tURIQueryForNonexistentToken()\n      ADD \t\t\tURIQueryForNonexistentToken()\n      PUSH 40\t\t\tURIQueryForNonexistentToken()\n      MLOAD \t\t\tURIQueryForNonexistentToken()\n      DUP1 \t\t\tURIQueryForNonexistentToken()\n      SWAP2 \t\t\tURIQueryForNonexistentToken()\n      SUB \t\t\tURIQueryForNonexistentToken()\n      SWAP1 \t\t\tURIQueryForNonexistentToken()\n      REVERT \t\t\tURIQueryForNonexistentToken()\n    tag 533\t\t\tif (!_exists(tokenId)) {\\n    ...\n      JUMPDEST \t\t\tif (!_exists(tokenId)) {\\n    ...\n      PUSH 0\t\t\tstring memory baseURI\n      PUSH [tag] 534\t\t\t_baseURI()\n      PUSH [tag] 531\t\t\t_baseURI\n      JUMP \t\t\t_baseURI()\n    tag 534\t\t\t_baseURI()\n      JUMPDEST \t\t\t_baseURI()\n      PUSH 12\t\t\trevealed\n      SLOAD \t\t\trevealed\n      SWAP1 \t\t\tstring memory baseURI = _baseU...\n      SWAP2 \t\t\tstring memory baseURI = _baseU...\n      POP \t\t\t\n      PUSH 0\t\t\tstring memory metadataPointerI...\n      SWAP1 \t\t\tstring memory metadataPointerI...\n      PUSH FF\t\t\trevealed\n      AND \t\t\trevealed\n      ISZERO \t\t\t!revealed\n      PUSH [tag] 535\t\t\t!revealed ? \"\" : _toString(tok...\n      JUMPI \t\t\t!revealed ? \"\" : _toString(tok...\n      PUSH [tag] 536\t\t\t_toString(tokenId)\n      DUP5 \t\t\ttokenId\n      PUSH [tag] 537\t\t\t_toString\n      JUMP \t\t\t_toString(tokenId)\n    tag 536\t\t\t_toString(tokenId)\n      JUMPDEST \t\t\t_toString(tokenId)\n      PUSH [tag] 538\t\t\t!revealed ? \"\" : _toString(tok...\n      JUMP \t\t\t!revealed ? \"\" : _toString(tok...\n    tag 535\t\t\t!revealed ? \"\" : _toString(tok...\n      JUMPDEST \t\t\t!revealed ? \"\" : _toString(tok...\n      PUSH 40\t\t\t!revealed ? \"\" : _toString(tok...\n      MLOAD \t\t\t!revealed ? \"\" : _toString(tok...\n      DUP1 \t\t\t!revealed ? \"\" : _toString(tok...\n      PUSH 20\t\t\t!revealed ? \"\" : _toString(tok...\n      ADD \t\t\t!revealed ? \"\" : _toString(tok...\n      PUSH 40\t\t\t!revealed ? \"\" : _toString(tok...\n      MSTORE \t\t\t!revealed ? \"\" : _toString(tok...\n      DUP1 \t\t\t!revealed ? \"\" : _toString(tok...\n      PUSH 0\t\t\t!revealed ? \"\" : _toString(tok...\n      DUP2 \t\t\t!revealed ? \"\" : _toString(tok...\n      MSTORE \t\t\t!revealed ? \"\" : _toString(tok...\n      POP \t\t\t!revealed ? \"\" : _toString(tok...\n    tag 538\t\t\t!revealed ? \"\" : _toString(tok...\n      JUMPDEST \t\t\t!revealed ? \"\" : _toString(tok...\n      SWAP1 \t\t\tstring memory metadataPointerI...\n      POP \t\t\tstring memory metadataPointerI...\n      PUSH 0\t\t\tstring memory result\n      DUP3 \t\t\tbaseURI\n      DUP3 \t\t\tmetadataPointerId\n      PUSH 40\t\t\tabi.encodePacked(baseURI, meta...\n      MLOAD \t\t\tabi.encodePacked(baseURI, meta...\n      PUSH 20\t\t\tabi.encodePacked(baseURI, meta...\n      ADD \t\t\tabi.encodePacked(baseURI, meta...\n      PUSH [tag] 539\t\t\tabi.encodePacked(baseURI, meta...\n      SWAP3 \t\t\tabi.encodePacked(baseURI, meta...\n      SWAP2 \t\t\tabi.encodePacked(baseURI, meta...\n      SWAP1 \t\t\tabi.encodePacked(baseURI, meta...\n      PUSH [tag] 540\t\t\tabi.encodePacked(baseURI, meta...\n      JUMP \t\t\tabi.encodePacked(baseURI, meta...\n    tag 539\t\t\tabi.encodePacked(baseURI, meta...\n      JUMPDEST \t\t\tabi.encodePacked(baseURI, meta...\n      PUSH 40\t\t\tabi.encodePacked(baseURI, meta...\n      MLOAD \t\t\tabi.encodePacked(baseURI, meta...\n      PUSH 20\t\t\tabi.encodePacked(baseURI, meta...\n      DUP2 \t\t\tabi.encodePacked(baseURI, meta...\n      DUP4 \t\t\tabi.encodePacked(baseURI, meta...\n      SUB \t\t\tabi.encodePacked(baseURI, meta...\n      SUB \t\t\tabi.encodePacked(baseURI, meta...\n      DUP2 \t\t\tabi.encodePacked(baseURI, meta...\n      MSTORE \t\t\tabi.encodePacked(baseURI, meta...\n      SWAP1 \t\t\tabi.encodePacked(baseURI, meta...\n      PUSH 40\t\t\tabi.encodePacked(baseURI, meta...\n      MSTORE \t\t\tabi.encodePacked(baseURI, meta...\n      SWAP1 \t\t\tstring memory result = string(...\n      POP \t\t\tstring memory result = string(...\n      DUP3 \t\t\tbaseURI\n      MLOAD \t\t\tbytes(baseURI).length\n      PUSH 0\t\t\t0\n      SUB \t\t\tbytes(baseURI).length != 0\n      PUSH [tag] 454\t\t\tbytes(baseURI).length != 0 ? r...\n      JUMPI \t\t\tbytes(baseURI).length != 0 ? r...\n      PUSH 40\t\t\tbytes(baseURI).length != 0 ? r...\n      MLOAD \t\t\tbytes(baseURI).length != 0 ? r...\n      DUP1 \t\t\tbytes(baseURI).length != 0 ? r...\n      PUSH 20\t\t\tbytes(baseURI).length != 0 ? r...\n      ADD \t\t\tbytes(baseURI).length != 0 ? r...\n      PUSH 40\t\t\tbytes(baseURI).length != 0 ? r...\n      MSTORE \t\t\tbytes(baseURI).length != 0 ? r...\n      DUP1 \t\t\tbytes(baseURI).length != 0 ? r...\n      PUSH 0\t\t\tbytes(baseURI).length != 0 ? r...\n      DUP2 \t\t\tbytes(baseURI).length != 0 ? r...\n      MSTORE \t\t\tbytes(baseURI).length != 0 ? r...\n      POP \t\t\tbytes(baseURI).length != 0 ? r...\n      SWAP6 \t\t\treturn bytes(baseURI).length !...\n      SWAP5 \t\t\tfunction tokenURI(\\n        ui...\n      POP \t\t\t\n      POP \t\t\t\n      POP \t\t\t\n      POP \t\t\t\n      POP \t\t\t\n      JUMP \t\t\tfunction tokenURI(\\n        ui...\n    tag 237\t\t\tintPerWallet();\\n    error Exc...\n      JUMPDEST \t\t\tintPerWallet();\\n    error Exc...\n      PUSH [tag] 546\t\t\ttedPerWallet;\n      PUSH [tag] 255\t\t\ttedPerWalle\n      JUMP \t\t\ttedPerWallet;\n    tag 546\t\t\ttedPerWallet;\n      JUMPDEST \t\t\ttedPerWallet;\n      PUSH 1\t\t\t\n      PUSH 1\t\t\t\n      PUSH A0\t\t\t\n      SHL \t\t\t\n      SUB \t\t\t\n      DUP2 \t\t\tor NonEOACaller();\\n\\n  \n      AND \t\t\tor NonEOACaller();\\n\\n  \n      PUSH [tag] 548\t\t\t error NonEOACaller();\\n\\n    ...\n      JUMPI \t\t\t error NonEOACaller();\\n\\n    ...\n      PUSH 40\t\t\t) {\\n        if (dropStatus ==...\n      MLOAD \t\t\t) {\\n        if (dropStatus ==...\n      PUSH 1E4FBDF7\t\t\t\n      PUSH E0\t\t\t\n      SHL \t\t\t\n      DUP2 \t\t\t) {\\n        if (dropStatus ==...\n      MSTORE \t\t\t) {\\n        if (dropStatus ==...\n      PUSH 0\t\t\t=\n      PUSH 4\t\t\t) {\\n        if (dropStatus ==...\n      DUP3 \t\t\t) {\\n        if (dropStatus ==...\n      ADD \t\t\t) {\\n        if (dropStatus ==...\n      MSTORE \t\t\ttFunds();\\n    error NonEOACal...\n      PUSH 24\t\t\tly();\\n    error In\n      ADD \t\t\tly();\\n    error In\n    tag 549\t\t\t) {\\n        if (dropStatus ==...\n      JUMPDEST \t\t\t) {\\n        if (dropStatus ==...\n      PUSH 40\t\t\t) {\\n        if (dropStatus ==...\n      MLOAD \t\t\t) {\\n        if (dropStatus ==...\n      DUP1 \t\t\t) {\\n        if (dropStatus ==...\n      SWAP2 \t\t\t) {\\n        if (dropStatus ==...\n      SUB \t\t\t) {\\n        if (dropStatus ==...\n      SWAP1 \t\t\t) {\\n        if (dropStatus ==...\n      REVERT \t\t\t) {\\n        if (dropStatus ==...\n    tag 548\t\t\t error NonEOACaller();\\n\\n    ...\n      JUMPDEST \t\t\t error NonEOACaller();\\n\\n    ...\n      PUSH [tag] 425\t\t\t{\\n            revert Minting\n      DUP2 \t\t\tt Mintin\n      PUSH [tag] 447\t\t\t{\\n            reve\n      JUMP \t\t\t{\\n            revert Minting\n    tag 249\t\t\t\n      JUMPDEST \t\t\t\n      PUSH 0\t\t\t\n      PUSH 1FFC9A7\t\t\t\n      PUSH E0\t\t\t\n      SHL \t\t\t\n      PUSH 1\t\t\t\n      PUSH 1\t\t\t\n      PUSH E0\t\t\t\n      SHL \t\t\t\n      SUB \t\t\t\n      NOT \t\t\t\n      DUP4 \t\t\t\n      AND \t\t\t\n      EQ \t\t\t\n      DUP1 \t\t\t\n      PUSH [tag] 552\t\t\t\n      JUMPI \t\t\t\n      POP \t\t\t\n      PUSH 80AC58CD\t\t\t\n      PUSH E0\t\t\t\n      SHL \t\t\t\n      PUSH 1\t\t\t\n      PUSH 1\t\t\t\n      PUSH E0\t\t\t\n      SHL \t\t\t\n      SUB \t\t\t\n      NOT \t\t\t\n      DUP4 \t\t\t\n      AND \t\t\t\n      EQ \t\t\t\n    tag 552\t\t\t\n      JUMPDEST \t\t\t\n      DUP1 \t\t\t\n      PUSH [tag] 251\t\t\t\n      JUMPI \t\t\t\n      POP \t\t\t\n      POP \t\t\t\n      PUSH 1\t\t\t\n      PUSH 1\t\t\t\n      PUSH E0\t\t\t\n      SHL \t\t\t\n      SUB \t\t\t\n      NOT \t\t\t\n      AND \t\t\t\n      PUSH 5B5E139F\t\t\t\n      PUSH E0\t\t\t\n      SHL \t\t\t\n      EQ \t\t\t\n      SWAP1 \t\t\t\n      JUMP \t\t\t\n    tag 252\t\t\ttelist(address indexed _to, ui...\n      JUMPDEST \t\t\ttelist(address indexed _to, ui...\n      PUSH 0\t\t\t _qu\n      PUSH 1\t\t\t\n      PUSH 1\t\t\t\n      PUSH E0\t\t\t\n      SHL \t\t\t\n      SUB \t\t\t\n      NOT \t\t\t\n      DUP3 \t\t\tClaimPresale(address indexed _...\n      AND \t\t\tClaimPresale(address indexed _...\n      PUSH 152A902D\t\t\t\n      PUSH E1\t\t\t\n      SHL \t\t\t\n      EQ \t\t\tClaimPresale(address indexed _...\n      DUP1 \t\t\tClaimPresale(address indexed _...\n      PUSH [tag] 251\t\t\tClaimPresale(address indexed _...\n      JUMPI \t\t\tClaimPresale(address indexed _...\n      POP \t\t\t\n      PUSH 1FFC9A7\t\t\t\n      PUSH E0\t\t\t\n      SHL \t\t\t\n      PUSH 1\t\t\t\n      PUSH 1\t\t\t\n      PUSH E0\t\t\t\n      SHL \t\t\t\n      SUB \t\t\t\n      NOT \t\t\t\n      DUP4 \t\t\t56 public constant END_TOKEN_I...\n      AND \t\t\t56 public constant END_TOKEN_I...\n      EQ \t\t\t56 public constant END_TOKEN_I...\n      PUSH [tag] 251\t\t\tantity);\\n    event NewDropSta...\n      JUMP \t\t\tAQueryable,\\n    ERC2981,\\n   ...\n    tag 255\t\t\tprivate revealed = false;\\n   ...\n      JUMPDEST \t\t\tprivate revealed = false;\\n   ...\n      PUSH B\t\t\t\\n    u\n      SLOAD \t\t\t\\n    u\n      PUSH 1\t\t\t\n      PUSH 1\t\t\t\n      PUSH A0\t\t\t\n      SHL \t\t\t\n      SUB \t\t\t\n      AND \t\t\t\\n    u\n      CALLER \t\t\t\n      EQ \t\t\t=\\n        \"https://ipfs\n      PUSH [tag] 446\t\t\tURI =\\n        \"https://ipfs.g...\n      JUMPI \t\t\tURI =\\n        \"https://ipfs.g...\n      PUSH 40\t\t\tfybeidnrgagzrjvavrsjtnz6qhqvnl...\n      MLOAD \t\t\tfybeidnrgagzrjvavrsjtnz6qhqvnl...\n      PUSH 118CDAA7\t\t\t\n      PUSH E0\t\t\t\n      SHL \t\t\t\n      DUP2 \t\t\tfybeidnrgagzrjvavrsjtnz6qhqvnl...\n      MSTORE \t\t\tfybeidnrgagzrjvavrsjtnz6qhqvnl...\n      CALLER \t\t\t\n      PUSH 4\t\t\tfybeidnrgagzrjvavrsjtnz6qhqvnl...\n      DUP3 \t\t\tfybeidnrgagzrjvavrsjtnz6qhqvnl...\n      ADD \t\t\tfybeidnrgagzrjvavrsjtnz6qhqvnl...\n      MSTORE \t\t\ttFunds();\\n    error NonEOACal...\n      PUSH 24\t\t\tly();\\n    error In\n      ADD \t\t\tly();\\n    error In\n      PUSH [tag] 549\t\t\tfybeidnrgagzrjvavrsjtnz6qhqvnl...\n      JUMP \t\t\te();\\n    error ClaimNotActive...\n    tag 258\t\t\tP) {\\n            revert Claim...\n      JUMPDEST \t\t\tP) {\\n            revert Claim...\n      PUSH 2710\t\t\t;\\n   \n      PUSH 1\t\t\t\n      PUSH 1\t\t\t\n      PUSH 60\t\t\t\n      SHL \t\t\t\n      SUB \t\t\t\n      DUP3 \t\t\t.sender] == 0) {\\n         \n      AND \t\t\t.sender] == 0) {\\n         \n      DUP2 \t\t\t.sender] == 0) {\\n         \n      LT \t\t\t\n      ISZERO \t\t\t[msg.sender] == 0) {\\n        ...\n      PUSH [tag] 567\t\t\t[msg.sender] == 0) {\\n        ...\n      JUMPI \t\t\t[msg.sender] == 0) {\\n        ...\n      PUSH 40\t\t\tilable(uint256 quantity) {\\n  ...\n      MLOAD \t\t\tilable(uint256 quantity) {\\n  ...\n      PUSH 6F483D09\t\t\t\n      PUSH E0\t\t\t\n      SHL \t\t\t\n      DUP2 \t\t\tilable(uint256 quantity) {\\n  ...\n      MSTORE \t\t\tilable(uint256 quantity) {\\n  ...\n      PUSH 1\t\t\t\n      PUSH 1\t\t\t\n      PUSH 60\t\t\t\n      SHL \t\t\t\n      SUB \t\t\t\n      DUP4 \t\t\t\n      AND \t\t\t\n      PUSH 4\t\t\tilable(uint256 quantity) {\\n  ...\n      DUP3 \t\t\tilable(uint256 quantity) {\\n  ...\n      ADD \t\t\tilable(uint256 quantity) {\\n  ...\n      MSTORE \t\t\t\n      PUSH 24\t\t\t\n      DUP2 \t\t\t\n      ADD \t\t\t\n      DUP3 \t\t\t\n      SWAP1 \t\t\t\n      MSTORE \t\t\t\n      PUSH 44\t\t\t\n      ADD \t\t\t\n      PUSH [tag] 549\t\t\tilable(uint256 quantity) {\\n  ...\n      JUMP \t\t\t\n    tag 567\t\t\t[msg.sender] == 0) {\\n        ...\n      JUMPDEST \t\t\t[msg.sender] == 0) {\\n        ...\n      PUSH 1\t\t\t\n      PUSH 1\t\t\t\n      PUSH A0\t\t\t\n      SHL \t\t\t\n      SUB \t\t\t\n      DUP4 \t\t\t 1 > END_TOKEN_ID - _p\n      AND \t\t\t 1 > END_TOKEN_ID - _p\n      PUSH [tag] 570\t\t\t() - 1 > END_TOKEN_ID - _presa...\n      JUMPI \t\t\t() - 1 > END_TOKEN_ID - _presa...\n      PUSH 40\t\t\t    ) {\\n            revert Ex...\n      MLOAD \t\t\t    ) {\\n            revert Ex...\n      PUSH 5B6CC805\t\t\t\n      PUSH E1\t\t\t\n      SHL \t\t\t\n      DUP2 \t\t\t    ) {\\n            revert Ex...\n      MSTORE \t\t\t    ) {\\n            revert Ex...\n      PUSH 0\t\t\t;\n      PUSH 4\t\t\t    ) {\\n            revert Ex...\n      DUP3 \t\t\t    ) {\\n            revert Ex...\n      ADD \t\t\t    ) {\\n            revert Ex...\n      MSTORE \t\t\ttFunds();\\n    error NonEOACal...\n      PUSH 24\t\t\tly();\\n    error In\n      ADD \t\t\tly();\\n    error In\n      PUSH [tag] 549\t\t\t    ) {\\n            revert Ex...\n      JUMP \t\t\te();\\n    error ClaimNotActive...\n    tag 570\t\t\t() - 1 > END_TOKEN_ID - _presa...\n      JUMPDEST \t\t\t() - 1 > END_TOKEN_ID - _presa...\n      POP \t\t\t\n      PUSH 40\t\t\tdsAttached(uint256 quantity) {...\n      DUP1 \t\t\tdsAttached(uint256 quantity) {...\n      MLOAD \t\t\tdsAttached(uint256 quantity) {...\n      DUP1 \t\t\tdsAttached(uint256 quantity) {...\n      DUP3 \t\t\tdsAttached(uint256 quantity) {...\n      ADD \t\t\tdsAttached(uint256 quantity) {...\n      SWAP1 \t\t\tdsAttached(uint256 quantity) {...\n      SWAP2 \t\t\tdsAttached(uint256 quantity) {...\n      MSTORE \t\t\tdsAttached(uint256 quantity) {...\n      PUSH 1\t\t\t\n      PUSH 1\t\t\t\n      PUSH A0\t\t\t\n      SHL \t\t\t\n      SUB \t\t\t\n      SWAP1 \t\t\tdsAttached(uint256 quantity) {...\n      SWAP3 \t\t\tdsAttached(uint256 quantity) {...\n      AND \t\t\tdsAttached(uint256 quantity) {...\n      DUP1 \t\t\tdsAttached(uint256 quantity) {...\n      DUP4 \t\t\tdsAttached(uint256 quantity) {...\n      MSTORE \t\t\tdsAttached(uint256 quantity) {...\n      PUSH 1\t\t\t\n      PUSH 1\t\t\t\n      PUSH 60\t\t\t\n      SHL \t\t\t\n      SUB \t\t\t\n      SWAP1 \t\t\tdsAttached(uint256 quantity) {...\n      SWAP2 \t\t\tdsAttached(uint256 quantity) {...\n      AND \t\t\tdsAttached(uint256 quantity) {...\n      PUSH 20\t\t\tdsAttached(uint256 quantity) {...\n      SWAP1 \t\t\tdsAttached(uint256 quantity) {...\n      SWAP3 \t\t\tdsAttached(uint256 quantity) {...\n      ADD \t\t\tdsAttached(uint256 quantity) {...\n      DUP3 \t\t\tdsAttached(uint256 quantity) {...\n      SWAP1 \t\t\tdsAttached(uint256 quantity) {...\n      MSTORE \t\t\tdsAttached(uint256 quantity) {...\n      PUSH 1\t\t\t\n      PUSH A0\t\t\t\n      SHL \t\t\t\n      SWAP1 \t\t\t   }\\n\\n    modifier fundsAtta...\n      SWAP2 \t\t\t   }\\n\\n    modifier fundsAtta...\n      MUL \t\t\t   }\\n\\n    modifier fundsAtta...\n      OR \t\t\t   }\\n\\n    modifier fundsAtta...\n      PUSH 9\t\t\t   }\\n\\n    modifier \n      SSTORE \t\t\t   }\\n\\n    modifier fundsAtta...\n      JUMP \t\t\tP) {\\n            revert Claim...\n    tag 284\t\t\t\n      JUMPDEST \t\t\t\n      PUSH 0\t\t\t\n      DUP1 \t\t\t\n      SLOAD \t\t\t\n      SWAP1 \t\t\t\n      DUP3 \t\t\t\n      SWAP1 \t\t\t\n      SUB \t\t\t\n      PUSH [tag] 574\t\t\t\n      JUMPI \t\t\t\n      PUSH [tag] 574\t\t\t\n      PUSH B562E8DD\t\t\t\n      PUSH E0\t\t\t\n      SHL \t\t\t\n      PUSH [tag] 307\t\t\t\n      JUMP \t\t\t\n    tag 574\t\t\t\n      JUMPDEST \t\t\t\n      PUSH 0\t\t\t\n      DUP2 \t\t\t\n      DUP2 \t\t\t\n      MSTORE \t\t\t\n      PUSH 4\t\t\t\n      PUSH 20\t\t\t\n      SWAP1 \t\t\t\n      DUP2 \t\t\t\n      MSTORE \t\t\t\n      PUSH 40\t\t\t\n      DUP1 \t\t\t\n      DUP4 \t\t\t\n      KECCAK256 \t\t\t\n      PUSH 1\t\t\t\n      PUSH 1\t\t\t\n      PUSH A0\t\t\t\n      SHL \t\t\t\n      SUB \t\t\t\n      DUP8 \t\t\t\n      AND \t\t\t\n      TIMESTAMP \t\t\t\n      PUSH A0\t\t\t\n      SHL \t\t\t\n      PUSH 1\t\t\t\n      DUP9 \t\t\t\n      EQ \t\t\t\n      PUSH E1\t\t\t\n      SHL \t\t\t\n      OR \t\t\t\n      DUP2 \t\t\t\n      OR \t\t\t\n      SWAP1 \t\t\t\n      SWAP2 \t\t\t\n      SSTORE \t\t\t\n      DUP1 \t\t\t\n      DUP5 \t\t\t\n      MSTORE \t\t\t\n      PUSH 5\t\t\t\n      SWAP1 \t\t\t\n      SWAP3 \t\t\t\n      MSTORE \t\t\t\n      DUP3 \t\t\t\n      KECCAK256 \t\t\t\n      DUP1 \t\t\t\n      SLOAD \t\t\t\n      PUSH 10000000000000001\t\t\t\n      DUP7 \t\t\t\n      MUL \t\t\t\n      ADD \t\t\t\n      SWAP1 \t\t\t\n      SSTORE \t\t\t\n      SWAP1 \t\t\t\n      DUP2 \t\t\t\n      SWAP1 \t\t\t\n      SUB \t\t\t\n      PUSH [tag] 581\t\t\t\n      JUMPI \t\t\t\n      PUSH [tag] 581\t\t\t\n      PUSH 2E0763\t\t\t\n      PUSH E8\t\t\t\n      SHL \t\t\t\n      PUSH [tag] 307\t\t\t\n      JUMP \t\t\t\n    tag 581\t\t\t\n      JUMPDEST \t\t\t\n      DUP2 \t\t\t\n      DUP4 \t\t\t\n      ADD \t\t\t\n      DUP3 \t\t\t\n    tag 585\t\t\t\n      JUMPDEST \t\t\t\n      DUP1 \t\t\t\n      DUP4 \t\t\t\n      PUSH 0\t\t\t\n      PUSH DDF252AD1BE2C89B69C2B068FC378DAA952BA7F163C4A11628F55A4DF523B3EF\t\t\t\n      PUSH 0\t\t\t\n      DUP1 \t\t\t\n      LOG4 \t\t\t\n      DUP2 \t\t\t\n      DUP2 \t\t\t\n      PUSH 1\t\t\t\n      ADD \t\t\t\n      SWAP2 \t\t\t\n      POP \t\t\t\n      DUP2 \t\t\t\n      SUB \t\t\t\n      PUSH [tag] 585\t\t\t\n      JUMPI \t\t\t\n      POP \t\t\t\n      PUSH 0\t\t\t\n      SSTORE \t\t\t\n      POP \t\t\t\n      POP \t\t\t\n      POP \t\t\t\n      POP \t\t\t\n      JUMP \t\t\t\n    tag 292\t\t\tfunction _startTokenId() inter...\n      JUMPDEST \t\t\tfunction _startTokenId() inter...\n      PUSH 0\t\t\tuint256\n      PUSH [tag] 590\t\t\tstartTokenId()\n      PUSH 28F75032\t\t\t ERC2981,\\n    Ownable\\n{\\n   ...\n      SLOAD \t\t\te,\\n    ERC2981,\\n    Ownable\\...\n      SWAP1 \t\t\te,\\n    ERC2981,\\n    Ownable\\...\n      JUMP \t\t\tteleburning to Bitcoin\\n */\\nc...\n    tag 590\t\t\tstartTokenId()\n      JUMPDEST \t\t\tstartTokenId()\n      SWAP1 \t\t\treturn startTokenId()\n      POP \t\t\treturn startTokenId()\n      SWAP1 \t\t\tfunction _startTokenId() inter...\n      JUMP \t\t\tfunction _startTokenId() inter...\n    tag 304\t\t\t\n      JUMPDEST \t\t\t\n      PUSH 0\t\t\t\n      DUP2 \t\t\t\n      PUSH [tag] 592\t\t\t\n      PUSH [tag] 292\t\t\t\n      JUMP \t\t\t\n    tag 592\t\t\t\n      JUMPDEST \t\t\t\n      GT \t\t\t\n      PUSH [tag] 519\t\t\t\n      JUMPI \t\t\t\n      PUSH 0\t\t\t\n      SLOAD \t\t\t\n      DUP3 \t\t\t\n      LT \t\t\t\n      ISZERO \t\t\t\n      PUSH [tag] 519\t\t\t\n      JUMPI \t\t\t\n      PUSH 0\t\t\t\n    tag 599\t\t\t\n      JUMPDEST \t\t\t\n      POP \t\t\t\n      PUSH 0\t\t\t\n      DUP3 \t\t\t\n      DUP2 \t\t\t\n      MSTORE \t\t\t\n      PUSH 4\t\t\t\n      PUSH 20\t\t\t\n      MSTORE \t\t\t\n      PUSH 40\t\t\t\n      DUP2 \t\t\t\n      KECCAK256 \t\t\t\n      SLOAD \t\t\t\n      SWAP1 \t\t\t\n      DUP2 \t\t\t\n      SWAP1 \t\t\t\n      SUB \t\t\t\n      PUSH [tag] 600\t\t\t\n      JUMPI \t\t\t\n      PUSH [tag] 601\t\t\t\n      DUP4 \t\t\t\n      PUSH [tag] 602\t\t\t\n      JUMP \t\t\t\n    tag 601\t\t\t\n      JUMPDEST \t\t\t\n      SWAP3 \t\t\t\n      POP \t\t\t\n      PUSH [tag] 599\t\t\t\n      JUMP \t\t\t\n    tag 600\t\t\t\n      JUMPDEST \t\t\t\n      PUSH 1\t\t\t\n      PUSH E0\t\t\t\n      SHL \t\t\t\n      AND \t\t\t\n      ISZERO \t\t\t\n      SWAP3 \t\t\t\n      SWAP2 \t\t\t\n      POP \t\t\t\n      POP \t\t\t\n      JUMP \t\t\t\n    tag 307\t\t\t\n      JUMPDEST \t\t\t\n      DUP1 \t\t\t\n      PUSH 0\t\t\t\n      MSTORE \t\t\t\n      PUSH 4\t\t\t\n      PUSH 0\t\t\t\n      REVERT \t\t\t\n    tag 310\t\t\t\n      JUMPDEST \t\t\t\n      PUSH 0\t\t\t\n      PUSH [tag] 605\t\t\t\n      DUP4 \t\t\t\n      PUSH [tag] 140\t\t\t\n      JUMP \t\t\t\n    tag 605\t\t\t\n      JUMPDEST \t\t\t\n      SWAP1 \t\t\t\n      POP \t\t\t\n      DUP2 \t\t\t\n      DUP1 \t\t\t\n      ISZERO \t\t\t\n      PUSH [tag] 606\t\t\t\n      JUMPI \t\t\t\n      POP \t\t\t\n      CALLER \t\t\t\n      PUSH 1\t\t\t\n      PUSH 1\t\t\t\n      PUSH A0\t\t\t\n      SHL \t\t\t\n      SUB \t\t\t\n      DUP3 \t\t\t\n      AND \t\t\t\n      EQ \t\t\t\n      ISZERO \t\t\t\n    tag 606\t\t\t\n      JUMPDEST \t\t\t\n      ISZERO \t\t\t\n      PUSH [tag] 612\t\t\t\n      JUMPI \t\t\t\n      PUSH [tag] 609\t\t\t\n      DUP2 \t\t\t\n      CALLER \t\t\t\n      PUSH [tag] 230\t\t\t\n      JUMP \t\t\t\n    tag 609\t\t\t\n      JUMPDEST \t\t\t\n      PUSH [tag] 612\t\t\t\n      JUMPI \t\t\t\n      PUSH [tag] 612\t\t\t\n      PUSH 67D9DCA1\t\t\t\n      PUSH E1\t\t\t\n      SHL \t\t\t\n      PUSH [tag] 307\t\t\t\n      JUMP \t\t\t\n    tag 612\t\t\t\n      JUMPDEST \t\t\t\n      PUSH 0\t\t\t\n      DUP4 \t\t\t\n      DUP2 \t\t\t\n      MSTORE \t\t\t\n      PUSH 6\t\t\t\n      PUSH 20\t\t\t\n      MSTORE \t\t\t\n      PUSH 40\t\t\t\n      DUP1 \t\t\t\n      DUP3 \t\t\t\n      KECCAK256 \t\t\t\n      DUP1 \t\t\t\n      SLOAD \t\t\t\n      PUSH 1\t\t\t\n      PUSH 1\t\t\t\n      PUSH A0\t\t\t\n      SHL \t\t\t\n      SUB \t\t\t\n      NOT \t\t\t\n      AND \t\t\t\n      PUSH 1\t\t\t\n      PUSH 1\t\t\t\n      PUSH A0\t\t\t\n      SHL \t\t\t\n      SUB \t\t\t\n      DUP9 \t\t\t\n      DUP2 \t\t\t\n      AND \t\t\t\n      SWAP2 \t\t\t\n      DUP3 \t\t\t\n      OR \t\t\t\n      SWAP1 \t\t\t\n      SWAP3 \t\t\t\n      SSTORE \t\t\t\n      SWAP2 \t\t\t\n      MLOAD \t\t\t\n      DUP7 \t\t\t\n      SWAP4 \t\t\t\n      SWAP2 \t\t\t\n      DUP6 \t\t\t\n      AND \t\t\t\n      SWAP2 \t\t\t\n      PUSH 8C5BE1E5EBEC7D5BD14F71427D1E84F3DD0314C0F7B2291E5B200AC8C7C3B925\t\t\t\n      SWAP2 \t\t\t\n      LOG4 \t\t\t\n      POP \t\t\t\n      POP \t\t\t\n      POP \t\t\t\n      POP \t\t\t\n      JUMP \t\t\t\n    tag 318\t\t\t\n      JUMPDEST \t\t\t\n      PUSH 0\t\t\t\n      DUP2 \t\t\t\n      PUSH [tag] 615\t\t\t\n      PUSH [tag] 292\t\t\t\n      JUMP \t\t\t\n    tag 615\t\t\t\n      JUMPDEST \t\t\t\n      GT \t\t\t\n      PUSH [tag] 631\t\t\t\n      JUMPI \t\t\t\n      POP \t\t\t\n      PUSH 0\t\t\t\n      DUP2 \t\t\t\n      DUP2 \t\t\t\n      MSTORE \t\t\t\n      PUSH 4\t\t\t\n      PUSH 20\t\t\t\n      MSTORE \t\t\t\n      PUSH 40\t\t\t\n      SWAP1 \t\t\t\n      KECCAK256 \t\t\t\n      SLOAD \t\t\t\n      DUP1 \t\t\t\n      PUSH 0\t\t\t\n      SUB \t\t\t\n      PUSH [tag] 622\t\t\t\n      JUMPI \t\t\t\n      PUSH 0\t\t\t\n      SLOAD \t\t\t\n      DUP3 \t\t\t\n      LT \t\t\t\n      PUSH [tag] 624\t\t\t\n      JUMPI \t\t\t\n      PUSH [tag] 624\t\t\t\n      PUSH 6F96CDA1\t\t\t\n      PUSH E1\t\t\t\n      SHL \t\t\t\n      PUSH [tag] 307\t\t\t\n      JUMP \t\t\t\n    tag 624\t\t\t\n      JUMPDEST \t\t\t\n    tag 625\t\t\t\n      JUMPDEST \t\t\t\n      POP \t\t\t\n      PUSH 0\t\t\t\n      NOT \t\t\t\n      ADD \t\t\t\n      PUSH 0\t\t\t\n      DUP2 \t\t\t\n      DUP2 \t\t\t\n      MSTORE \t\t\t\n      PUSH 4\t\t\t\n      PUSH 20\t\t\t\n      MSTORE \t\t\t\n      PUSH 40\t\t\t\n      SWAP1 \t\t\t\n      KECCAK256 \t\t\t\n      SLOAD \t\t\t\n      DUP1 \t\t\t\n      ISZERO \t\t\t\n      PUSH [tag] 625\t\t\t\n      JUMPI \t\t\t\n      PUSH 1\t\t\t\n      PUSH E0\t\t\t\n      SHL \t\t\t\n      DUP2 \t\t\t\n      AND \t\t\t\n      PUSH 0\t\t\t\n      SUB \t\t\t\n      PUSH [tag] 629\t\t\t\n      JUMPI \t\t\t\n      SWAP2 \t\t\t\n      SWAP1 \t\t\t\n      POP \t\t\t\n      JUMP \t\t\t\n    tag 629\t\t\t\n      JUMPDEST \t\t\t\n      PUSH [tag] 630\t\t\t\n      PUSH 6F96CDA1\t\t\t\n      PUSH E1\t\t\t\n      SHL \t\t\t\n      PUSH [tag] 307\t\t\t\n      JUMP \t\t\t\n    tag 630\t\t\t\n      JUMPDEST \t\t\t\n      PUSH [tag] 625\t\t\t\n      JUMP \t\t\t\n    tag 622\t\t\t\n      JUMPDEST \t\t\t\n      PUSH 1\t\t\t\n      PUSH E0\t\t\t\n      SHL \t\t\t\n      DUP2 \t\t\t\n      AND \t\t\t\n      PUSH 0\t\t\t\n      SUB \t\t\t\n      PUSH [tag] 631\t\t\t\n      JUMPI \t\t\t\n      SWAP2 \t\t\t\n      SWAP1 \t\t\t\n      POP \t\t\t\n      JUMP \t\t\t\n    tag 631\t\t\t\n      JUMPDEST \t\t\t\n      PUSH [tag] 519\t\t\t\n      PUSH 6F96CDA1\t\t\t\n      PUSH E1\t\t\t\n      SHL \t\t\t\n      PUSH [tag] 307\t\t\t\n      JUMP \t\t\t\n    tag 447\t\t\ttive();\\n        }\\n        _;...\n      JUMPDEST \t\t\ttive();\\n        }\\n        _;...\n      PUSH B\t\t\t  bloc\n      DUP1 \t\t\t  bloc\n      SLOAD \t\t\t  bloc\n      PUSH 1\t\t\t\n      PUSH 1\t\t\t\n      PUSH A0\t\t\t\n      SHL \t\t\t\n      SUB \t\t\t\n      DUP4 \t\t\tp < WHITELIST_STA\n      DUP2 \t\t\tp < WHITELIST_STA\n      AND \t\t\tp < WHITELIST_STA\n      PUSH 1\t\t\t\n      PUSH 1\t\t\t\n      PUSH A0\t\t\t\n      SHL \t\t\t\n      SUB \t\t\t\n      NOT \t\t\t\n      DUP4 \t\t\tp < WHITELIST_STA\n      AND \t\t\tp < WHITELIST_STA\n      DUP2 \t\t\tp < WHITELIST_STA\n      OR \t\t\tp < WHITELIST_STA\n      SWAP1 \t\t\tp < WHITELIST_STA\n      SWAP4 \t\t\tp < WHITELIST_STA\n      SSTORE \t\t\tp < WHITELIST_STA\n      PUSH 40\t\t\t\\n            block.timestamp ...\n      MLOAD \t\t\t\\n            block.timestamp ...\n      SWAP2 \t\t\t  bloc\n      AND \t\t\t  bloc\n      SWAP2 \t\t\t  bloc\n      SWAP1 \t\t\tp < WHITELIST_STA\n      DUP3 \t\t\t  bloc\n      SWAP1 \t\t\t  bloc\n      PUSH 8BE0079C531659141344CD1FD0A4F28419497F9722A3DAAFE3B4186F6B6457E0\t\t\t\\n            block.timestamp ...\n      SWAP1 \t\t\t\\n            block.timestamp ...\n      PUSH 0\t\t\t    if (\\n       \n      SWAP1 \t\t\t    if (\\n       \n      LOG3 \t\t\t\\n            block.timestamp ...\n      POP \t\t\te() {\\n        if (\\n         ...\n      POP \t\t\ttive();\\n        }\\n        _;...\n      JUMP \t\t\ttive();\\n        }\\n        _;...\n    tag 456\t\t\t        Ownable(msg.sender)\\n ...\n      JUMPDEST \t\t\t        Ownable(msg.sender)\\n ...\n      PUSH 60\t\t\tuantity\\n    )\\n        ext\n      DUP2 \t\t\t pub\n      DUP4 \t\t\td\\n   \n      LT \t\t\td\\n        pub\n      PUSH [tag] 647\t\t\tabled\\n        publicMintActiv...\n      JUMPI \t\t\tabled\\n        publicMintActiv...\n      PUSH [tag] 647\t\t\tcMintActive\\n        fundsAtta...\n      PUSH 1960CCAD\t\t\t\n      PUSH E1\t\t\t\n      SHL \t\t\t\n      PUSH [tag] 307\t\t\tcMintAc\n      JUMP \t\t\tcMintActive\\n        fundsAtta...\n    tag 647\t\t\tcMintActive\\n        fundsAtta...\n      JUMPDEST \t\t\tcMintActive\\n        fundsAtta...\n      PUSH [tag] 648\t\t\t    onlyEOA\\n   \n      PUSH [tag] 292\t\t\t    onlyEOA\\n \n      JUMP \t\t\t    onlyEOA\\n   \n    tag 648\t\t\t    onlyEOA\\n   \n      JUMPDEST \t\t\t    onlyEOA\\n   \n      DUP4 \t\t\tty)\\n \n      LT \t\t\tty)\\n        onlyEOA\\n   \n      ISZERO \t\t\tantity)\\n        onlyEOA\\n    ...\n      PUSH [tag] 649\t\t\tantity)\\n        onlyEOA\\n    ...\n      JUMPI \t\t\tantity)\\n        onlyEOA\\n    ...\n      PUSH [tag] 650\t\t\t _mintedPerWall\n      PUSH [tag] 292\t\t\t _mintedPerWa\n      JUMP \t\t\t _mintedPerWall\n    tag 650\t\t\t _mintedPerWall\n      JUMPDEST \t\t\t _mintedPerWall\n      SWAP3 \t\t\t\\n        _mintedPerWall\n      POP \t\t\t\\n        _mintedPerWall\n    tag 649\t\t\tantity)\\n        onlyEOA\\n    ...\n      JUMPDEST \t\t\tantity)\\n        onlyEOA\\n    ...\n      PUSH 0\t\t\t += quantity;\\n     \n      SLOAD \t\t\tuint256 quant\n      DUP1 \t\t\tuint256 quant\n      DUP1 \t\t\tndsAttached(quant\n      DUP5 \t\t\tndsAttached(quant\n      LT \t\t\tndsAttached(quant\n      PUSH [tag] 655\t\t\t  fundsAttached(quantity)\\n   ...\n      JUMPI \t\t\t  fundsAttached(quantity)\\n   ...\n      DUP1 \t\t\t    obeys\n      SWAP4 \t\t\ty)\\n        obeys\n      POP \t\t\ty)\\n        obeys\n    tag 655\t\t\t  fundsAttached(quantity)\\n   ...\n      JUMPDEST \t\t\t  fundsAttached(quantity)\\n   ...\n      PUSH 0\t\t\ty)\\n        gloomin(gloome\n      PUSH [tag] 656\t\t\tsh_)\\n        onl\n      DUP8 \t\t\t   on\n      PUSH [tag] 146\t\t\tsh_)\\n    \n      JUMP \t\t\tsh_)\\n        onl\n    tag 656\t\t\tsh_)\\n        onl\n      JUMPDEST \t\t\tsh_)\\n        onl\n      SWAP1 \t\t\ty)\\n        gloomin(gloomerHas...\n      POP \t\t\ty)\\n        gloomin(gloomerHas...\n      DUP5 \t\t\tmint\n      DUP7 \t\t\t     \n      LT \t\t\t        _mint\n      PUSH [tag] 657\t\t\t  }\\n        _mintedPerWallet[...\n      JUMPI \t\t\t  }\\n        _mintedPerWallet[...\n      POP \t\t\t\n      PUSH 0\t\t\t]\n    tag 657\t\t\t  }\\n        _mintedPerWallet[...\n      JUMPDEST \t\t\t  }\\n        _mintedPerWallet[...\n      DUP1 \t\t\tlist(msg.sender, quant\n      ISZERO \t\t\tlist(msg.sender, quant\n      PUSH [tag] 658\t\t\thitelist(msg.sender, quantity)...\n      JUMPI \t\t\thitelist(msg.sender, quantity)...\n      DUP1 \t\t\th_\\n    )\\n        \n      DUP7 \t\t\tloome\n      DUP7 \t\t\ttes3\n      SUB \t\t\ttes32 gloome\n      GT \t\t\ttes32 gloomerHash_\\n    )\\n   ...\n      PUSH [tag] 659\t\t\t  bytes32 gloomerHash_\\n    )\\...\n      JUMPI \t\t\t  bytes32 gloomerHash_\\n    )\\...\n      POP \t\t\t\n      DUP5 \t\t\tle\\n        d\n      DUP5 \t\t\tle\\n        d\n      SUB \t\t\tle\\n        d\n    tag 659\t\t\t  bytes32 gloomerHash_\\n    )\\...\n      JUMPDEST \t\t\t  bytes32 gloomerHash_\\n    )\\...\n      PUSH 40\t\t\tyEOA\n      DUP1 \t\t\t   onlyEOA\\n\n      MLOAD \t\t\t   onlyEOA\\n\n      PUSH 1\t\t\tn\n      DUP4 \t\t\tPresale(msg.sender, quant\n      ADD \t\t\tPresale(msg.sender, quant\n      PUSH 5\t\t\tt\n      SHL \t\t\tegisterPresale(msg.sender, qua...\n      DUP2 \t\t\t        emit RegisterPresale(m...\n      ADD \t\t\t        emit RegisterPresale(m...\n      SWAP2 \t\t\ter, quantity);\\n\n      DUP3 \t\t\ter, quantity);\\n\n      SWAP1 \t\t\ter, quantity);\\n\n      MSTORE \t\t\ter, quantity);\\n\n      SWAP5 \t\t\t   onlyEOA\\n\n      POP \t\t\t\n      PUSH 0\t\t\t presaleA\n      PUSH [tag] 660\t\t\t\\n        uint256 quantity \n      DUP9 \t\t\tntity\n      PUSH [tag] 211\t\t\t\\n        uint256 qu\n      JUMP \t\t\t\\n        uint256 quantity \n    tag 660\t\t\t\\n        uint256 quantity \n      JUMPDEST \t\t\t\\n        uint256 quantity \n      SWAP1 \t\t\tmsg.sender])\\n        onlyEOA\\...\n      POP \t\t\tmsg.sender])\\n        onlyEOA\\...\n      PUSH 0\t\t\tonsByWallet[msg.sender];\\n\n      DUP2 \t\t\tation(\\n  \n      PUSH 40\t\t\tation(\\n        a\n      ADD \t\t\tation(\\n        a\n      MLOAD \t\t\tation(\\n        a\n      PUSH [tag] 661\t\t\tAllocation(\\n        address w...\n      JUMPI \t\t\tAllocation(\\n        address w...\n      POP \t\t\t\n      DUP1 \t\t\tblic view retu\n      MLOAD \t\t\tblic view retu\n    tag 661\t\t\tAllocation(\\n        address w...\n      JUMPDEST \t\t\tAllocation(\\n        address w...\n      PUSH 0\t\t\t      return _presa\n    tag 662\t\t\tI()\\n        internal\\n       ...\n      JUMPDEST \t\t\tI()\\n        internal\\n       ...\n      PUSH [tag] 671\t\t\t  string memory met\n      DUP11 \t\t\try me\n      PUSH [tag] 517\t\t\t  string mem\n      JUMP \t\t\t  string memory met\n    tag 671\t\t\t  string memory met\n      JUMPDEST \t\t\t  string memory met\n      SWAP3 \t\t\tRI();\\n        string memory m...\n      POP \t\t\tRI();\\n        string memory m...\n      PUSH 40\t\t\tbase\n      DUP4 \t\t\tcodePacke\n      ADD \t\t\ti.encodePacked(baseU\n      MLOAD \t\t\t    abi.encodePacked(baseUR\n      PUSH 0\t\t\t\\n\n      DUP2 \t\t\t: \"\";\\n    }\\n\\n    function s...\n      EQ \t\t\t: \"\";\\n    }\\n\\n    function s...\n      PUSH [tag] 673\t\t\t: \"\";\\n    }\\n\\n    function s...\n      JUMPI \t\t\t: \"\";\\n    }\\n\\n    function s...\n      PUSH 0\t\t\t\n      SWAP3 \t\t\t\n      POP \t\t\t\n      PUSH [tag] 675\t\t\t           abi.encodePacked(ba...\n      JUMP \t\t\t           abi.encodePacked(ba...\n    tag 673\t\t\t: \"\";\\n    }\\n\\n    function s...\n      JUMPDEST \t\t\t: \"\";\\n    }\\n\\n    function s...\n      DUP4 \t\t\ts receive\n      MLOAD \t\t\taddress receiver\n      ISZERO \t\t\t   address receiver,\\n        ...\n      PUSH [tag] 674\t\t\t   address receiver,\\n        ...\n      JUMPI \t\t\t   address receiver,\\n        ...\n      DUP4 \t\t\t _setDefa\n      MLOAD \t\t\t       _setDefau\n      SWAP3 \t\t\t public onlyOwner {\\n        _...\n      POP \t\t\t public onlyOwner {\\n        _...\n    tag 674\t\t\t   address receiver,\\n        ...\n      JUMPDEST \t\t\t   address receiver,\\n        ...\n      DUP12 \t\t\tuncti\n      DUP4 \t\t\tHash_;\\n    }\\n\\n   \n      XOR \t\t\tomerHash_;\\n    }\\n\\n    funct...\n      PUSH 60\t\t\t g\n      SHL \t\t\tsh = gloomerHash_;\\n    }\\n\\n ...\n      PUSH [tag] 675\t\t\t gloomerHash = gloomerHash_;\\n...\n      JUMPI \t\t\t gloomerHash = gloomerHash_;\\n...\n      PUSH 1\t\t\ta\n      DUP3 \t\t\ter).transfe\n      ADD \t\t\tsender).transfer(ad\n      SWAP2 \t\t\t   payable(msg.sender).transfe...\n      POP \t\t\t   payable(msg.sender).transfe...\n      DUP11 \t\t\t() ex\n      DUP3 \t\t\t{}\\n\\n    rec\n      PUSH 5\t\t\tl\n      SHL \t\t\tayable {}\\n\\n    rece\n      DUP11 \t\t\texternal\n      ADD \t\t\tk() external payable {}\\n\\n   ...\n      MSTORE \t\t\tfallback() external payable {}...\n    tag 675\t\t\t gloomerHash = gloomerHash_;\\n...\n      JUMPDEST \t\t\t gloomerHash = gloomerHash_;\\n...\n      POP \t\t\t           abi.encodePacked(ba...\n      PUSH 1\t\t\t\n      DUP11 \t\t\t\n      ADD \t\t\t\n      SWAP10 \t\t\t\n      POP \t\t\t\n      DUP4 \t\t\t\n      PUSH 40\t\t\t\n      MSTORE \t\t\t\n      DUP9 \t\t\t\n      DUP11 \t\t\t\n      EQ \t\t\t\n      DUP1 \t\t\t\n      PUSH [tag] 676\t\t\t\n      JUMPI \t\t\t\n      POP \t\t\t\n      DUP5 \t\t\t\n      DUP2 \t\t\t\n      EQ \t\t\t\n    tag 676\t\t\t\n      JUMPDEST \t\t\t\n      ISZERO \t\t\t\n      PUSH [tag] 662\t\t\tI()\\n        internal\\n       ...\n      JUMPI \t\t\tI()\\n        internal\\n       ...\n      DUP8 \t\t\t\n      MSTORE \t\t\t\n      POP \t\t\t\n      POP \t\t\t\n      POP \t\t\t\n    tag 658\t\t\thitelist(msg.sender, quantity)...\n      JUMPDEST \t\t\thitelist(msg.sender, quantity)...\n      POP \t\t\t  payable\\n        dropEnabled...\n      POP \t\t\t  payable\\n        dropEnabled...\n      POP \t\t\t  payable\\n        dropEnabled...\n      SWAP4 \t\t\t        Ownable(msg.sender)\\n ...\n      SWAP3 \t\t\t        Ownable(msg.sender)\\n ...\n      POP \t\t\t        Ownable(msg.sender)\\n ...\n      POP \t\t\t        Ownable(msg.sender)\\n ...\n      POP \t\t\t        Ownable(msg.sender)\\n ...\n      JUMP \t\t\t        Ownable(msg.sender)\\n ...\n    tag 506\t\t\t\n      JUMPDEST \t\t\t\n      PUSH 40\t\t\t\n      MLOAD \t\t\t\n      PUSH A85BD01\t\t\t\n      PUSH E1\t\t\t\n      SHL \t\t\t\n      DUP2 \t\t\t\n      MSTORE \t\t\t\n      PUSH 0\t\t\t\n      SWAP1 \t\t\t\n      PUSH 1\t\t\t\n      PUSH 1\t\t\t\n      PUSH A0\t\t\t\n      SHL \t\t\t\n      SUB \t\t\t\n      DUP6 \t\t\t\n      AND \t\t\t\n      SWAP1 \t\t\t\n      PUSH 150B7A02\t\t\t\n      SWAP1 \t\t\t\n      PUSH [tag] 679\t\t\t\n      SWAP1 \t\t\t\n      CALLER \t\t\t\n      SWAP1 \t\t\t\n      DUP10 \t\t\t\n      SWAP1 \t\t\t\n      DUP9 \t\t\t\n      SWAP1 \t\t\t\n      DUP9 \t\t\t\n      SWAP1 \t\t\t\n      PUSH 4\t\t\t\n      ADD \t\t\t\n      PUSH [tag] 680\t\t\t\n      JUMP \t\t\t\n    tag 679\t\t\t\n      JUMPDEST \t\t\t\n      PUSH 20\t\t\t\n      PUSH 40\t\t\t\n      MLOAD \t\t\t\n      DUP1 \t\t\t\n      DUP4 \t\t\t\n      SUB \t\t\t\n      DUP2 \t\t\t\n      PUSH 0\t\t\t\n      DUP8 \t\t\t\n      GAS \t\t\t\n      CALL \t\t\t\n      SWAP3 \t\t\t\n      POP \t\t\t\n      POP \t\t\t\n      POP \t\t\t\n      DUP1 \t\t\t\n      ISZERO \t\t\t\n      PUSH [tag] 681\t\t\t\n      JUMPI \t\t\t\n      POP \t\t\t\n      PUSH 40\t\t\t\n      DUP1 \t\t\t\n      MLOAD \t\t\t\n      PUSH 1F\t\t\t\n      RETURNDATASIZE \t\t\t\n      SWAP1 \t\t\t\n      DUP2 \t\t\t\n      ADD \t\t\t\n      PUSH 1F\t\t\t\n      NOT \t\t\t\n      AND \t\t\t\n      DUP3 \t\t\t\n      ADD \t\t\t\n      SWAP1 \t\t\t\n      SWAP3 \t\t\t\n      MSTORE \t\t\t\n      PUSH [tag] 682\t\t\t\n      SWAP2 \t\t\t\n      DUP2 \t\t\t\n      ADD \t\t\t\n      SWAP1 \t\t\t\n      PUSH [tag] 683\t\t\t\n      JUMP \t\t\t\n    tag 682\t\t\t\n      JUMPDEST \t\t\t\n      PUSH 1\t\t\t\n    tag 681\t\t\t\n      JUMPDEST \t\t\t\n      PUSH [tag] 684\t\t\t\n      JUMPI \t\t\t\n      RETURNDATASIZE \t\t\t\n      DUP1 \t\t\t\n      DUP1 \t\t\t\n      ISZERO \t\t\t\n      PUSH [tag] 689\t\t\t\n      JUMPI \t\t\t\n      PUSH 40\t\t\t\n      MLOAD \t\t\t\n      SWAP2 \t\t\t\n      POP \t\t\t\n      PUSH 1F\t\t\t\n      NOT \t\t\t\n      PUSH 3F\t\t\t\n      RETURNDATASIZE \t\t\t\n      ADD \t\t\t\n      AND \t\t\t\n      DUP3 \t\t\t\n      ADD \t\t\t\n      PUSH 40\t\t\t\n      MSTORE \t\t\t\n      RETURNDATASIZE \t\t\t\n      DUP3 \t\t\t\n      MSTORE \t\t\t\n      RETURNDATASIZE \t\t\t\n      PUSH 0\t\t\t\n      PUSH 20\t\t\t\n      DUP5 \t\t\t\n      ADD \t\t\t\n      RETURNDATACOPY \t\t\t\n      PUSH [tag] 688\t\t\t\n      JUMP \t\t\t\n    tag 689\t\t\t\n      JUMPDEST \t\t\t\n      PUSH 60\t\t\t\n      SWAP2 \t\t\t\n      POP \t\t\t\n    tag 688\t\t\t\n      JUMPDEST \t\t\t\n      POP \t\t\t\n      DUP1 \t\t\t\n      MLOAD \t\t\t\n      PUSH 0\t\t\t\n      SUB \t\t\t\n      PUSH [tag] 691\t\t\t\n      JUMPI \t\t\t\n      PUSH [tag] 691\t\t\t\n      PUSH 68D2BF6B\t\t\t\n      PUSH E1\t\t\t\n      SHL \t\t\t\n      PUSH [tag] 307\t\t\t\n      JUMP \t\t\t\n    tag 691\t\t\t\n      JUMPDEST \t\t\t\n      DUP1 \t\t\t\n      MLOAD \t\t\t\n      DUP2 \t\t\t\n      PUSH 20\t\t\t\n      ADD \t\t\t\n      REVERT \t\t\t\n    tag 684\t\t\t\n      JUMPDEST \t\t\t\n      PUSH 1\t\t\t\n      PUSH 1\t\t\t\n      PUSH E0\t\t\t\n      SHL \t\t\t\n      SUB \t\t\t\n      NOT \t\t\t\n      AND \t\t\t\n      PUSH A85BD01\t\t\t\n      PUSH E1\t\t\t\n      SHL \t\t\t\n      EQ \t\t\t\n      SWAP1 \t\t\t\n      POP \t\t\t\n      SWAP5 \t\t\t\n      SWAP4 \t\t\t\n      POP \t\t\t\n      POP \t\t\t\n      POP \t\t\t\n      POP \t\t\t\n      JUMP \t\t\t\n    tag 517\t\t\t\n      JUMPDEST \t\t\t\n      PUSH 40\t\t\t\n      DUP1 \t\t\t\n      MLOAD \t\t\t\n      PUSH 80\t\t\t\n      DUP2 \t\t\t\n      ADD \t\t\t\n      DUP3 \t\t\t\n      MSTORE \t\t\t\n      PUSH 0\t\t\t\n      DUP1 \t\t\t\n      DUP3 \t\t\t\n      MSTORE \t\t\t\n      PUSH 20\t\t\t\n      DUP3 \t\t\t\n      ADD \t\t\t\n      DUP2 \t\t\t\n      SWAP1 \t\t\t\n      MSTORE \t\t\t\n      SWAP2 \t\t\t\n      DUP2 \t\t\t\n      ADD \t\t\t\n      DUP3 \t\t\t\n      SWAP1 \t\t\t\n      MSTORE \t\t\t\n      PUSH 60\t\t\t\n      DUP2 \t\t\t\n      ADD \t\t\t\n      SWAP2 \t\t\t\n      SWAP1 \t\t\t\n      SWAP2 \t\t\t\n      MSTORE \t\t\t\n      PUSH 0\t\t\t\n      DUP3 \t\t\t\n      DUP2 \t\t\t\n      MSTORE \t\t\t\n      PUSH 4\t\t\t\n      PUSH 20\t\t\t\n      MSTORE \t\t\t\n      PUSH 40\t\t\t\n      SWAP1 \t\t\t\n      KECCAK256 \t\t\t\n      SLOAD \t\t\t\n      PUSH [tag] 251\t\t\t\n      SWAP1 \t\t\t\n      PUSH 40\t\t\t\n      DUP1 \t\t\t\n      MLOAD \t\t\t\n      PUSH 80\t\t\t\n      DUP2 \t\t\t\n      ADD \t\t\t\n      DUP3 \t\t\t\n      MSTORE \t\t\t\n      PUSH 1\t\t\t\n      PUSH 1\t\t\t\n      PUSH A0\t\t\t\n      SHL \t\t\t\n      SUB \t\t\t\n      DUP4 \t\t\t\n      AND \t\t\t\n      DUP2 \t\t\t\n      MSTORE \t\t\t\n      PUSH A0\t\t\tto,\n      DUP4 \t\t\t\n      SWAP1 \t\t\t\n      SHR \t\t\t\n      PUSH FFFFFFFFFFFFFFFF\t\t\t\n      AND \t\t\t\n      PUSH 20\t\t\t\n      DUP3 \t\t\t\n      ADD \t\t\t\n      MSTORE \t\t\t\n      PUSH 1\t\t\t\n      PUSH E0\t\t\t\n      SHL \t\t\t\n      DUP4 \t\t\t\n      AND \t\t\t\n      ISZERO \t\t\t\n      ISZERO \t\t\t\n      SWAP2 \t\t\t\n      DUP2 \t\t\t\n      ADD \t\t\t\n      SWAP2 \t\t\t\n      SWAP1 \t\t\t\n      SWAP2 \t\t\t\n      MSTORE \t\t\t\n      PUSH E8\t\t\t  m\n      SWAP2 \t\t\t\n      SWAP1 \t\t\t\n      SWAP2 \t\t\t\n      SHR \t\t\t\n      PUSH 60\t\t\t\n      DUP3 \t\t\t\n      ADD \t\t\t\n      MSTORE \t\t\t\n      SWAP1 \t\t\t\n      JUMP \t\t\t\n    tag 531\t\t\tfunction _baseURI()\\n        i...\n      JUMPDEST \t\t\tfunction _baseURI()\\n        i...\n      PUSH 60\t\t\tstring memory\n      PUSH 13\t\t\t_baseTokenURI\n      DUP1 \t\t\treturn _baseTokenURI\n      SLOAD \t\t\treturn _baseTokenURI\n      PUSH [tag] 296\t\t\treturn _baseTokenURI\n      SWAP1 \t\t\treturn _baseTokenURI\n      PUSH [tag] 297\t\t\treturn _baseTokenURI\n      JUMP \t\t\treturn _baseTokenURI\n    tag 537\t\t\t\n      JUMPDEST \t\t\t\n      PUSH 60\t\t\t\n      PUSH A0\t\t\t\n      PUSH 40\t\t\t\n      MLOAD \t\t\t\n      ADD \t\t\t\n      DUP1 \t\t\t\n      PUSH 40\t\t\t\n      MSTORE \t\t\t\n      PUSH 20\t\t\t\n      DUP2 \t\t\t\n      SUB \t\t\t\n      SWAP2 \t\t\t\n      POP \t\t\t\n      POP \t\t\t\n      PUSH 0\t\t\t\n      DUP2 \t\t\t\n      MSTORE \t\t\t\n      DUP1 \t\t\t\n      DUP3 \t\t\t\n    tag 705\t\t\t\n      JUMPDEST \t\t\t\n      PUSH 1\t\t\t\n      DUP4 \t\t\t\n      SUB \t\t\t\n      SWAP3 \t\t\t\n      POP \t\t\t\n      PUSH A\t\t\t\n      DUP2 \t\t\t\n      MOD \t\t\t\n      PUSH 30\t\t\t\n      ADD \t\t\t\n      DUP4 \t\t\t\n      MSTORE8 \t\t\t\n      PUSH A\t\t\t\n      SWAP1 \t\t\t\n      DIV \t\t\t\n      DUP1 \t\t\t\n      PUSH [tag] 705\t\t\t\n      JUMPI \t\t\t\n      POP \t\t\t\n      DUP2 \t\t\t\n      SWAP1 \t\t\t\n      SUB \t\t\t\n      PUSH 1F\t\t\t\n      NOT \t\t\t\n      SWAP1 \t\t\t\n      SWAP2 \t\t\t\n      ADD \t\t\t\n      SWAP1 \t\t\t\n      DUP2 \t\t\t\n      MSTORE \t\t\t\n      SWAP2 \t\t\t\n      SWAP1 \t\t\t\n      POP \t\t\t\n      JUMP \t\t\t\n    tag 716\t\t\te-Identifier: MIT\\npragma soli...\n      JUMPDEST \t\t\te-Identifier: MIT\\npragma soli...\n      PUSH 1\t\t\t\n      PUSH 1\t\t\t\n      PUSH E0\t\t\t\n      SHL \t\t\t\n      SUB \t\t\t\n      NOT \t\t\t\n      DUP2 \t\t\tA.sol\";\\nimport {IERC721A} fro...\n      AND \t\t\tA.sol\";\\nimport {IERC721A} fro...\n      DUP2 \t\t\t \"./ERC721A.sol\";\\nimport {IER...\n      EQ \t\t\t \"./ERC721A.sol\";\\nimport {IER...\n      PUSH [tag] 425\t\t\t721A} from \"./ERC721A.sol\";\\ni...\n      JUMPI \t\t\t721A} from \"./ERC721A.sol\";\\ni...\n      PUSH 0\t\t\t;\n      DUP1 \t\t\to\n      REVERT \t\t\tC721A.sol\";\\n\n    tag 58\t\t\t1AQueryable} from \"./ERC721AQu...\n      JUMPDEST \t\t\t1AQueryable} from \"./ERC721AQu...\n      PUSH 0\t\t\tokenId\n      PUSH 20\t\t\t {\n      DUP3 \t\t\tsol\";\\nimp\n      DUP5 \t\t\tIdHelpe\n      SUB \t\t\tokenIdHelper.sol\";\\nimpo\n      SLT \t\t\tartTokenIdHelper.sol\";\\nimport...\n      ISZERO \t\t\t/StartTokenIdHelper.sol\";\\nimp...\n      PUSH [tag] 730\t\t\t/StartTokenIdHelper.sol\";\\nimp...\n      JUMPI \t\t\t/StartTokenIdHelper.sol\";\\nimp...\n      PUSH 0\t\t\t\"\n      DUP1 \t\t\to\n      REVERT \t\t\tble} from \"@\n    tag 730\t\t\t/StartTokenIdHelper.sol\";\\nimp...\n      JUMPDEST \t\t\t/StartTokenIdHelper.sol\";\\nimp...\n      DUP2 \t\t\t.sol\";\\nim\n      CALLDATALOAD \t\t\tccess/Ownable.sol\";\\nimp\n      PUSH [tag] 731\t\t\t981} from \"@openzeppelin/contr\n      DUP2 \t\t\t/cont\n      PUSH [tag] 716\t\t\t981} from \"@openzeppelin/contr\n      JUMP \t\t\t981} from \"@openzeppelin/contr\n    tag 731\t\t\t981} from \"@openzeppelin/contr\n      JUMPDEST \t\t\t981} from \"@openzeppelin/contr\n      SWAP4 \t\t\tRC298\n      SWAP3 \t\t\t1AQueryable} from \"./ERC721AQu...\n      POP \t\t\t\n      POP \t\t\t\n      POP \t\t\t\n      JUMP \t\t\t1AQueryable} from \"./ERC721AQu...\n    tag 717\t\t\trs is a 10k PFP collection lau...\n      JUMPDEST \t\t\trs is a 10k PFP collection lau...\n      DUP1 \t\t\tm with teleburning t\n      CALLDATALOAD \t\t\tm with teleburning t\n      PUSH 1\t\t\t\n      PUSH 1\t\t\t\n      PUSH A0\t\t\t\n      SHL \t\t\t\n      SUB \t\t\t\n      DUP2 \t\t\trs is\\n    StartTokenIdHelper,...\n      AND \t\t\trs is\\n    StartTokenIdHelper,...\n      DUP2 \t\t\tact Gloomers is\\n    StartToke...\n      EQ \t\t\tact Gloomers is\\n    StartToke...\n      PUSH [tag] 519\t\t\t\\n */\\ncontract Gloomers is\\n ...\n      JUMPI \t\t\t\\n */\\ncontract Gloomers is\\n ...\n      PUSH 0\t\t\t \n      DUP1 \t\t\t \n      REVERT \t\t\tC721A,\\n    E\n    tag 65\t\t\tle,\\n    ERC2981,\\n    Ownable...\n      JUMPDEST \t\t\tle,\\n    ERC2981,\\n    Ownable...\n      PUSH 0\t\t\tKEN_ID\n      DUP1 \t\t\t 3334;\n      PUSH 40\t\t\t6;\n      DUP4 \t\t\tKEN_ID = \n      DUP6 \t\t\tnt END_\n      SUB \t\t\tnstant END_TOKEN_ID = 6\n      SLT \t\t\tc constant END_TOKEN_ID = 6666...\n      ISZERO \t\t\tblic constant END_TOKEN_ID = 6...\n      PUSH [tag] 736\t\t\tblic constant END_TOKEN_ID = 6...\n      JUMPI \t\t\tblic constant END_TOKEN_ID = 6...\n      PUSH 0\t\t\tu\n      DUP1 \t\t\t6\n      REVERT \t\t\t uint256 pub\n    tag 736\t\t\tblic constant END_TOKEN_ID = 6...\n      JUMPDEST \t\t\tblic constant END_TOKEN_ID = 6...\n      PUSH [tag] 737\t\t\tR_TOKEN = 0.03 ether;\\n    uin\n      DUP4 \t\t\tr;\\n    ui\n      PUSH [tag] 717\t\t\tR_TOKEN = 0.03 ether;\\n    uin\n      JUMP \t\t\tR_TOKEN = 0.03 ether;\\n    uin\n    tag 737\t\t\tR_TOKEN = 0.03 ether;\\n    uin\n      JUMPDEST \t\t\tR_TOKEN = 0.03 ether;\\n    uin\n      SWAP2 \t\t\tt PRICE_PER_TOKEN = 0.03 ether...\n      POP \t\t\tt PRICE_PER_TOKEN = 0.03 ether...\n      PUSH 20\t\t\tby\n      DUP4 \t\t\tT = 3;\\n  \n      ADD \t\t\tALLET = 3;\\n    byt\n      CALLDATALOAD \t\t\tAX_MINT_PER_WALLET = 3;\\n    b...\n      PUSH 1\t\t\t\n      PUSH 1\t\t\t\n      PUSH 60\t\t\t\n      SHL \t\t\t\n      SUB \t\t\t\n      DUP2 \t\t\tSH =\\n\n      AND \t\t\tE_HASH =\\n        0x5158cf3ac2...\n      DUP2 \t\t\tOVENA\n      EQ \t\t\t PROVENANCE_HASH =\\n        0x...\n      PUSH [tag] 738\t\t\tc constant PROVENANCE_HASH =\\n...\n      JUMPI \t\t\tc constant PROVENANCE_HASH =\\n...\n      PUSH 0\t\t\tb\n      DUP1 \t\t\ta\n      REVERT \t\t\tc7d1e7aa58b7\n    tag 738\t\t\tc constant PROVENANCE_HASH =\\n...\n      JUMPDEST \t\t\tc constant PROVENANCE_HASH =\\n...\n      DUP1 \t\t\te095e\n      SWAP2 \t\t\tbf643e0003e095e\n      POP \t\t\tbf643e0003e095e\n      POP \t\t\tbf643e0003e095e\n      SWAP3 \t\t\tle,\\n    ERC2981,\\n    Ownable...\n      POP \t\t\tle,\\n    ERC2981,\\n    Ownable...\n      SWAP3 \t\t\tle,\\n    ERC2981,\\n    Ownable...\n      SWAP1 \t\t\tle,\\n    ERC2981,\\n    Ownable...\n      POP \t\t\tle,\\n    ERC2981,\\n    Ownable...\n      JUMP \t\t\tle,\\n    ERC2981,\\n    Ownable...\n    tag 73\t\t\tt256 public constant WHITELIST...\n      JUMPDEST \t\t\tt256 public constant WHITELIST...\n      PUSH 0\t\t\t 04 20\n      DUP1 \t\t\t 16:00\n      PUSH 20\t\t\t_T\n      DUP4 \t\t\t PUBLIC_M\n      DUP6 \t\t\t consta\n      SUB \t\t\tblic constant PUBLIC_MI\n      SLT \t\t\t6 public constant PUBLIC_MINT_...\n      ISZERO \t\t\tt256 public constant PUBLIC_MI...\n      PUSH [tag] 740\t\t\tt256 public constant PUBLIC_MI...\n      JUMPI \t\t\tt256 public constant PUBLIC_MI...\n      PUSH 0\t\t\t \n      DUP1 \t\t\t \n      REVERT \t\t\tTAMP =\\n     \n    tag 740\t\t\tt256 public constant PUBLIC_MI...\n      JUMPDEST \t\t\tt256 public constant PUBLIC_MI...\n      DUP3 \t\t\t;\\n\\n    en\n      CALLDATALOAD \t\t\tAMP + 3 hours;\\n\\n    enu\n      PUSH FFFFFFFFFFFFFFFF\t\t\t    DISABLED,\\n    \n      DUP1 \t\t\tIT\n      DUP3 \t\t\t      \n      GT \t\t\t\\n        WHITE\n      ISZERO \t\t\tLE,\\n        WHITELIST,\\n     ...\n      PUSH [tag] 741\t\t\tLE,\\n        WHITELIST,\\n     ...\n      JUMPI \t\t\tLE,\\n        WHITELIST,\\n     ...\n      PUSH 0\t\t\t \n      DUP1 \t\t\t \n      REVERT \t\t\tT,\\n        P\n    tag 741\t\t\tLE,\\n        WHITELIST,\\n     ...\n      JUMPDEST \t\t\tLE,\\n        WHITELIST,\\n     ...\n      DUP2 \t\t\tropSta\n      DUP6 \t\t\tus public\n      ADD \t\t\tStatus public dropStat\n      SWAP2 \t\t\t\\n\\n    DropStatus public drop...\n      POP \t\t\t\\n\\n    DropStatus public drop...\n      DUP6 \t\t\t(addres\n      PUSH 1F\t\t\tmapp\n      DUP4 \t\t\t  \n      ADD \t\t\tD;\\n\\n    mappi\n      SLT \t\t\tABLED;\\n\\n    mapping(address\n      PUSH [tag] 742\t\t\tStatus.DISABLED;\\n\\n    mappin...\n      JUMPI \t\t\tStatus.DISABLED;\\n\\n    mappin...\n      PUSH 0\t\t\tr\n      DUP1 \t\t\t)\n      REVERT \t\t\tuint256) pri\n    tag 742\t\t\tStatus.DISABLED;\\n\\n    mappin...\n      JUMPDEST \t\t\tStatus.DISABLED;\\n\\n    mappin...\n      DUP2 \t\t\tre\n      CALLDATALOAD \t\t\t  mapping(addres\n      DUP2 \t\t\tpr\n      DUP2 \t\t\trivate\n      GT \t\t\t) private _pre\n      ISZERO \t\t\t256) private _presaleAllocatio...\n      PUSH [tag] 743\t\t\t256) private _presaleAllocatio...\n      JUMPI \t\t\t256) private _presaleAllocatio...\n      PUSH 0\t\t\tn\n      DUP1 \t\t\tt\n      REVERT \t\t\teAllocations\n    tag 743\t\t\t256) private _presaleAllocatio...\n      JUMPDEST \t\t\t256) private _presaleAllocatio...\n      DUP7 \t\t\trivate \n      PUSH 20\t\t\tss\n      DUP3 \t\t\t => ad\n      DUP6 \t\t\tt2\n      ADD \t\t\t(uint256 => add\n      ADD \t\t\tping(uint256 => address)\n      GT \t\t\tmapping(uint256 => address) pr...\n      ISZERO \t\t\t   mapping(uint256 => address)...\n      PUSH [tag] 744\t\t\t   mapping(uint256 => address)...\n      JUMPI \t\t\t   mapping(uint256 => address)...\n      PUSH 0\t\t\ts\n      DUP1 \t\t\tl\n      REVERT \t\t\tsaleWalletsB\n    tag 744\t\t\t   mapping(uint256 => address)...\n      JUMPDEST \t\t\t   mapping(uint256 => address)...\n      PUSH 20\t\t\tsa\n      SWAP3 \t\t\tate _presal\n      SWAP1 \t\t\tate _presal\n      SWAP3 \t\t\tate _presal\n      ADD \t\t\tate _presal\n      SWAP7 \t\t\tate _presal\n      SWAP2 \t\t\t6 priv\n      SWAP6 \t\t\t6 priv\n      POP \t\t\t\n      SWAP1 \t\t\tt256 public constant WHITELIST...\n      SWAP4 \t\t\tt256 public constant WHITELIST...\n      POP \t\t\t\n      POP \t\t\t\n      POP \t\t\t\n      POP \t\t\t\n      JUMP \t\t\tt256 public constant WHITELIST...\n    tag 718\t\t\teSupplyOffset;\\n    bytes32 pr...\n      JUMPDEST \t\t\teSupplyOffset;\\n    bytes32 pr...\n      PUSH 0\t\t\tboo\n      DUP2 \t\t\ting p\n      MLOAD \t\t\t   string pr\n      DUP1 \t\t\t\\n     \n      DUP5 \t\t\tURI\n      MSTORE \t\t\tseTokenURI =\\n      \n      DUP1 \t\t\tzrjvav\n      PUSH 20\t\t\tidnr\n      DUP5 \t\t\t/bafy\n      ADD \t\t\tipfs/bafybeidnrg\n      PUSH 20\t\t\ten.x\n      DUP7 \t\t\tomt\n      ADD \t\t\t.gloomtoken.xy\n      MCOPY \t\t\t//ipfs.gloomtoken.xyz/ipfs/baf...\n      PUSH 0\t\t\t \n      PUSH 20\t\t\ty\";\\n\n      DUP3 \t\t\t6ylsxw\n      DUP7 \t\t\tgkj\n      ADD \t\t\t35gfgkj236ylsxwp\n      ADD \t\t\tvh5q35gfgkj236ylsxwpmsy\";\\n\\n\n      MSTORE \t\t\tvnlbkz3vh5q35gfgkj236ylsxwpmsy...\n      PUSH 20\t\t\tkenI\n      PUSH 1F\t\t\t6 \n      NOT \t\t\tnt256 _\n      PUSH 1F\t\t\td,\n      DUP4 \t\t\tomToke\n      ADD \t\t\t _fromTokenId, \n      AND \t\t\tt256 _fromTokenId, uint256 _t\n      DUP6 \t\t\te(u\n      ADD \t\t\tpdate(uint256 _fromTokenId, ui...\n      ADD \t\t\tataUpdate(uint256 _fromTokenId...\n      SWAP2 \t\t\tchMetadataUpdate(uint256 _from...\n      POP \t\t\tchMetadataUpdate(uint256 _from...\n      POP \t\t\tchMetadataUpdate(uint256 _from...\n      SWAP3 \t\t\teSupplyOffset;\\n    bytes32 pr...\n      SWAP2 \t\t\teSupplyOffset;\\n    bytes32 pr...\n      POP \t\t\teSupplyOffset;\\n    bytes32 pr...\n      POP \t\t\teSupplyOffset;\\n    bytes32 pr...\n      JUMP \t\t\teSupplyOffset;\\n    bytes32 pr...\n    tag 79\t\t\tt GloomersMint(address indexed...\n      JUMPDEST \t\t\tt GloomersMint(address indexed...\n      PUSH 20\t\t\tdr\n      DUP2 \t\t\trPresale(\n      MSTORE \t\t\tRegisterPresale(addre\n      PUSH 0\t\t\tanti\n      PUSH [tag] 731\t\t\tint256 _quantity);\\n    event ...\n      PUSH 20\t\t\tde\n      DUP4 \t\t\t(address \n      ADD \t\t\tsale(address index\n      DUP5 \t\t\tClaimP\n      PUSH [tag] 718\t\t\tint256 _quantity);\\n    event ...\n      JUMP \t\t\tint256 _quantity);\\n    event ...\n    tag 83\t\t\t256 _quantity);\\n    event New...\n      JUMPDEST \t\t\t256 _quantity);\\n    event New...\n      PUSH 0\t\t\ttus);\\n\n      PUSH 20\t\t\tin\n      DUP3 \t\t\trror Publ\n      DUP5 \t\t\t();\\n   \n      SUB \t\t\tbled();\\n    error Publi\n      SLT \t\t\tDisabled();\\n    error PublicM...\n      ISZERO \t\t\tingDisabled();\\n    error Publ...\n      PUSH [tag] 749\t\t\tingDisabled();\\n    error Publ...\n      JUMPI \t\t\tingDisabled();\\n    error Publ...\n      PUSH 0\t\t\t \n      DUP1 \t\t\t)\n      REVERT \t\t\tActive();\\n  \n    tag 749\t\t\tingDisabled();\\n    error Publ...\n      JUMPDEST \t\t\tingDisabled();\\n    error Publ...\n      POP \t\t\t\n      CALLDATALOAD \t\t\tctive();\\n    error Pres\n      SWAP2 \t\t\tctive();\\n    error Pres\n      SWAP1 \t\t\t256 _quantity);\\n    event New...\n      POP \t\t\t\n      JUMP \t\t\t256 _quantity);\\n    event New...\n    tag 89\t\t\t) {\\n        if (dropStatus ==...\n      JUMPDEST \t\t\t) {\\n        if (dropStatus ==...\n      PUSH 0\t\t\tert Mi\n      DUP1 \t\t\tingDis\n      PUSH 40\t\t\ter\n      DUP4 \t\t\t\\n\\n    mod\n      DUP6 \t\t\t _;\\n   \n      SUB \t\t\t     _;\\n    }\\n\\n    modi\n      SLT \t\t\t\\n        _;\\n    }\\n\\n    mod...\n      ISZERO \t\t\t  }\\n        _;\\n    }\\n\\n    ...\n      PUSH [tag] 752\t\t\t  }\\n        _;\\n    }\\n\\n    ...\n      JUMPI \t\t\t  }\\n        _;\\n    }\\n\\n    ...\n      PUSH 0\t\t\t(\n      DUP1 \t\t\ti\n      REVERT \t\t\tsaleActive()\n    tag 752\t\t\t  }\\n        _;\\n    }\\n\\n    ...\n      JUMPDEST \t\t\t  }\\n        _;\\n    }\\n\\n    ...\n      PUSH [tag] 753\t\t\ttimestamp > WHITELIST_START_T\n      DUP4 \t\t\tST_START_\n      PUSH [tag] 717\t\t\ttimestamp > WHITELIST_START_T\n      JUMP \t\t\ttimestamp > WHITELIST_START_T\n    tag 753\t\t\ttimestamp > WHITELIST_START_T\n      JUMPDEST \t\t\ttimestamp > WHITELIST_START_T\n      SWAP5 \t\t\tif (block.timestamp > WHITELIS...\n      PUSH 20\t\t\t()\n      SWAP4 \t\t\tresaleNotActive();\n      SWAP1 \t\t\tresaleNotActive();\n      SWAP4 \t\t\tresaleNotActive();\n      ADD \t\t\tresaleNotActive();\n      CALLDATALOAD \t\t\t     revert PresaleNotActive()...\n      SWAP4 \t\t\t     revert PresaleNotActive()...\n      POP \t\t\t\n      POP \t\t\t\n      POP \t\t\t\n      JUMP \t\t\t) {\\n        if (dropStatus ==...\n    tag 98\t\t\t) {\\n            revert Whitel...\n      JUMPDEST \t\t\t) {\\n            revert Whitel...\n      PUSH 0\t\t\tmodifi\n      DUP1 \t\t\t publi\n      PUSH 0\t\t\tintAct\n      PUSH 60\t\t\tNT\n      DUP5 \t\t\t < PUBLIC\n      DUP7 \t\t\ttimesta\n      SUB \t\t\tock.timestamp < PUBLIC_\n      SLT \t\t\t (block.timestamp < PUBLIC_MIN...\n      ISZERO \t\t\t if (block.timestamp < PUBLIC_...\n      PUSH [tag] 756\t\t\t if (block.timestamp < PUBLIC_...\n      JUMPI \t\t\t if (block.timestamp < PUBLIC_...\n      PUSH 0\t\t\t \n      DUP1 \t\t\t \n      REVERT \t\t\tESTAMP) {\\n  \n    tag 756\t\t\t if (block.timestamp < PUBLIC_...\n      JUMPDEST \t\t\t if (block.timestamp < PUBLIC_...\n      PUSH [tag] 757\t\t\ticMintNotActive();\\n        }\\...\n      DUP5 \t\t\t        }\n      PUSH [tag] 717\t\t\ticMintNotActive();\\n        }\\...\n      JUMP \t\t\ticMintNotActive();\\n        }\\...\n    tag 757\t\t\ticMintNotActive();\\n        }\\...\n      JUMPDEST \t\t\ticMintNotActive();\\n        }\\...\n      SWAP3 \t\t\tevert PublicMintNotActive();\\n...\n      POP \t\t\tevert PublicMintNotActive();\\n...\n      PUSH [tag] 758\t\t\t   modifier claimEnabled() {\\n...\n      PUSH 20\t\t\t  \n      DUP6 \t\t\td() {\\n   \n      ADD \t\t\tabled() {\\n        \n      PUSH [tag] 717\t\t\t   modifier claimEnabled() {\\n...\n      JUMP \t\t\t   modifier claimEnabled() {\\n...\n    tag 758\t\t\t   modifier claimEnabled() {\\n...\n      JUMPDEST \t\t\t   modifier claimEnabled() {\\n...\n      SWAP2 \t\t\t;\\n    }\\n\\n    modifier claim...\n      POP \t\t\t;\\n    }\\n\\n    modifier claim...\n      PUSH 40\t\t\t {\n      DUP5 \t\t\t_TIMESTAM\n      ADD \t\t\tTART_TIMESTAMP) {\\n\n      CALLDATALOAD \t\t\t< WHITELIST_START_TIMESTAMP) {...\n      SWAP1 \t\t\ttimestamp < WHITELIST_START_TI...\n      POP \t\t\ttimestamp < WHITELIST_START_TI...\n      SWAP3 \t\t\t) {\\n            revert Whitel...\n      POP \t\t\t) {\\n            revert Whitel...\n      SWAP3 \t\t\t) {\\n            revert Whitel...\n      POP \t\t\t) {\\n            revert Whitel...\n      SWAP3 \t\t\t) {\\n            revert Whitel...\n      JUMP \t\t\t) {\\n            revert Whitel...\n    tag 102\t\t\trevert ClaimNotActive();\\n    ...\n      JUMPDEST \t\t\trevert ClaimNotActive();\\n    ...\n      PUSH 0\t\t\tigible\n      DUP1 \t\t\trClaim\n      PUSH 40\t\t\tg.\n      DUP4 \t\t\tsByWallet\n      DUP6 \t\t\tllocati\n      SUB \t\t\taleAllocationsByWallet[\n      SLT \t\t\tpresaleAllocationsByWallet[msg...\n      ISZERO \t\t\t (_presaleAllocationsByWallet[...\n      PUSH [tag] 760\t\t\t (_presaleAllocationsByWallet[...\n      JUMPI \t\t\t (_presaleAllocationsByWallet[...\n      PUSH 0\t\t\t{\n      DUP1 \t\t\t0\n      REVERT \t\t\ter] == 0) {\\n\n    tag 760\t\t\t (_presaleAllocationsByWallet[...\n      JUMPDEST \t\t\t (_presaleAllocationsByWallet[...\n      POP \t\t\t\n      POP \t\t\t\n      DUP1 \t\t\ttEligible();\\n        }\\n\n      CALLDATALOAD \t\t\ttEligible();\\n        }\\n\n      SWAP3 \t\t\ttEligible();\\n        }\\n\n      PUSH 20\t\t\te(\n      SWAP1 \t\t\tupplyIsAvailable(u\n      SWAP2 \t\t\tupplyIsAvailable(u\n      ADD \t\t\tupplyIsAvailable(u\n      CALLDATALOAD \t\t\t   modifier supplyIsAvailable(...\n      SWAP2 \t\t\t   modifier supplyIsAvailable(...\n      POP \t\t\t\n      JUMP \t\t\trevert ClaimNotActive();\\n    ...\n    tag 262\t\t\ttity >\\n            MAX_MINT_P...\n      JUMPDEST \t\t\ttity >\\n            MAX_MINT_P...\n      PUSH 4E487B71\t\t\tder != own\n      PUSH E0\t\t\tg.s\n      SHL \t\t\t  msg.sender != owne\n      PUSH 0\t\t\t \n      MSTORE \t\t\t            msg.sender != owne...\n      PUSH 21\t\t\t    \n      PUSH 4\t\t\t \n      MSTORE \t\t\t  ) {\\n         \n      PUSH 24\t\t\txMin\n      PUSH 0\t\t\ts\n      REVERT \t\t\t ExceedsMaxMint\n    tag 124\t\t\t;\\n        }\\n        _;\\n    ...\n      JUMPDEST \t\t\t;\\n        }\\n        _;\\n    ...\n      PUSH 20\t\t\te(\n      DUP2 \t\t\tvert NotEligible()\n      ADD \t\t\tvert NotEligible()\n      PUSH 4\t\t\t \n      DUP4 \t\t\t _;\\n    }\\n\\n  \n      LT \t\t\t _;\\n    }\\n\\n  \n      PUSH [tag] 766\t\t\t }\\n        _;\\n    }\\n\\n    m...\n      JUMPI \t\t\t }\\n        _;\\n    }\\n\\n    m...\n      PUSH 4E487B71\t\t\tn != msg.s\n      PUSH E0\t\t\tori\n      SHL \t\t\t(tx.origin != msg.se\n      PUSH 0\t\t\ti\n      MSTORE \t\t\t       if (tx.origin != msg.se...\n      PUSH 21\t\t\trt N\n      PUSH 4\t\t\te\n      MSTORE \t\t\t      revert No\n      PUSH 24\t\t\t\\n   \n      PUSH 0\t\t\t \n      REVERT \t\t\t\\n        }\\n    \n    tag 766\t\t\t }\\n        _;\\n    }\\n\\n    m...\n      JUMPDEST \t\t\t }\\n        _;\\n    }\\n\\n    m...\n      SWAP2 \t\t\tonstructor()\\n        Star\n      SWAP1 \t\t\tonstructor()\\n        Star\n      MSTORE \t\t\tonstructor()\\n        Star\n      SWAP1 \t\t\t;\\n        }\\n        _;\\n    ...\n      JUMP \t\t\t;\\n        }\\n        _;\\n    ...\n    tag 128\t\t\tper(START_TOKEN_ID)\\n        E...\n      JUMPDEST \t\t\tper(START_TOKEN_ID)\\n        E...\n      PUSH 0\t\t\te(msg.\n      PUSH 20\t\t\tnd\n      DUP3 \t\t\tyalty(msg\n      DUP5 \t\t\tDefault\n      SUB \t\t\t_setDefaultRoyalty(msg.\n      SLT \t\t\t    _setDefaultRoyalty(msg.sen...\n      ISZERO \t\t\t       _setDefaultRoyalty(msg....\n      PUSH [tag] 768\t\t\t       _setDefaultRoyalty(msg....\n      JUMPI \t\t\t       _setDefaultRoyalty(msg....\n      PUSH 0\t\t\t}\n      DUP1 \t\t\t \n      REVERT \t\t\t500);\\n    }\\n\n    tag 768\t\t\t       _setDefaultRoyalty(msg....\n      JUMPDEST \t\t\t       _setDefaultRoyalty(msg....\n      DUP2 \t\t\tuantity\\n \n      CALLDATALOAD \t\t\t    uint256 quantity\\n  \n      PUSH 4\t\t\tp\n      DUP2 \t\t\t     \n      LT \t\t\tl\\n        pa\n      PUSH [tag] 731\t\t\t   external\\n        payable\\n...\n      JUMPI \t\t\t   external\\n        payable\\n...\n      PUSH 0\t\t\td\n      DUP1 \t\t\t \n      REVERT \t\t\te\\n        dr\n    tag 133\t\t\t      fundsAttached(quantity)\\...\n      JUMPDEST \t\t\t      fundsAttached(quantity)\\...\n      PUSH 0\t\t\table(q\n      DUP1 \t\t\tntity)\n      PUSH 20\t\t\t[m\n      DUP4 \t\t\ttedPerWal\n      DUP6 \t\t\t     _m\n      SUB \t\t\t\\n        _mintedPerWall\n      SLT \t\t\t   {\\n        _mintedPerWallet...\n      ISZERO \t\t\tA\\n    {\\n        _mintedPerWa...\n      PUSH [tag] 771\t\t\tA\\n    {\\n        _mintedPerWa...\n      JUMPI \t\t\tA\\n    {\\n        _mintedPerWa...\n      PUSH 0\t\t\tq\n      DUP1 \t\t\t+\n      REVERT \t\t\tender] += qu\n    tag 771\t\t\tA\\n    {\\n        _mintedPerWa...\n      JUMPDEST \t\t\tA\\n    {\\n        _mintedPerWa...\n      DUP3 \t\t\ttity);\\n\\n \n      CALLDATALOAD \t\t\t.sender, quantity);\\n\\n  \n      PUSH FFFFFFFFFFFFFFFF\t\t\tMint(msg.sender, q\n      DUP1 \t\t\tnc\n      DUP3 \t\t\t\\n\\n    \n      GT \t\t\t  }\\n\\n    funct\n      ISZERO \t\t\t\\n    }\\n\\n    function mintWh...\n      PUSH [tag] 772\t\t\t\\n    }\\n\\n    function mintWh...\n      JUMPI \t\t\t\\n    }\\n\\n    function mintWh...\n      PUSH 0\t\t\tl\n      DUP1 \t\t\ti\n      REVERT \t\t\t mintWhiteli\n    tag 772\t\t\t\\n    }\\n\\n    function mintWh...\n      JUMPDEST \t\t\t\\n    }\\n\\n    function mintWh...\n      DUP2 \t\t\t  byte\n      DUP6 \t\t\tity,\\n    \n      ADD \t\t\tuantity,\\n        bytes\n      SWAP2 \t\t\t uint256 quantity,\\n        by...\n      POP \t\t\t uint256 quantity,\\n        by...\n      DUP6 \t\t\t\\n      \n      PUSH 1F\t\t\txter\n      DUP4 \t\t\t  \n      ADD \t\t\t       extern\n      SLT \t\t\t )\\n        external\\n       \n      PUSH [tag] 773\t\t\trHash_\\n    )\\n        externa...\n      JUMPI \t\t\trHash_\\n    )\\n        externa...\n      PUSH 0\t\t\t \n      DUP1 \t\t\t \n      REVERT \t\t\table\\n       \n    tag 773\t\t\trHash_\\n    )\\n        externa...\n      JUMPDEST \t\t\trHash_\\n    )\\n        externa...\n      DUP2 \t\t\t  \n      CALLDATALOAD \t\t\telistActive\\n    \n      DUP2 \t\t\tit\n      DUP2 \t\t\ted(qua\n      GT \t\t\tached(quantity\n      ISZERO \t\t\tAttached(quantity)\\n        ob...\n      PUSH [tag] 774\t\t\tAttached(quantity)\\n        ob...\n      JUMPI \t\t\tAttached(quantity)\\n        ob...\n      PUSH 0\t\t\ty\n      DUP1 \t\t\to\n      REVERT \t\t\t       obeys\n    tag 774\t\t\tAttached(quantity)\\n        ob...\n      JUMPDEST \t\t\tAttached(quantity)\\n        ob...\n      DUP7 \t\t\tntity)\\n\n      PUSH 20\t\t\te(\n      DUP3 \t\t\tIsAvai\n      PUSH 5\t\t\tp\n      SHL \t\t\t supplyIsAvail\n      DUP6 \t\t\t  \n      ADD \t\t\t\\n        supplyIsAvaila\n      ADD \t\t\tity)\\n        supplyIsAvailabl...\n      GT \t\t\tantity)\\n        supplyIsAvail...\n      ISZERO \t\t\t(quantity)\\n        supplyIsAv...\n      PUSH [tag] 744\t\t\t(quantity)\\n        supplyIsAv...\n      JUMPI \t\t\t(quantity)\\n        supplyIsAv...\n      PUSH 0\t\t\tn\n      DUP1 \t\t\to\n      REVERT \t\t\t    gloomin(\n    tag 719\t\t\terHash_) {\\n            revert...\n      JUMPDEST \t\t\terHash_) {\\n            revert...\n      DUP1 \t\t\tsender] += q\n      MLOAD \t\t\tsender] += q\n      PUSH 1\t\t\t\n      PUSH 1\t\t\t\n      PUSH A0\t\t\t\n      SHL \t\t\t\n      SUB \t\t\t\n      AND \t\t\tmsg.sender] += quantity;\\n    ...\n      DUP3 \t\t\tedPerWallet[msg.sender] += qua...\n      MSTORE \t\t\tedPerWallet[msg.sender] += qua...\n      PUSH 20\t\t\tg.se\n      DUP1 \t\t\thitelist(msg.sen\n      DUP3 \t\t\thitelist(msg.sen\n      ADD \t\t\thitelist(msg.sen\n      MLOAD \t\t\t MintWhitelist(msg.send\n      PUSH FFFFFFFFFFFFFFFF\t\t\t, quantity);\\n     \n      AND \t\t\temit MintWhitelist(msg.sender,...\n      SWAP1 \t\t\ttity);\\n\\n      \n      DUP4 \t\t\ttity);\\n\\n      \n      ADD \t\t\ttity);\\n\\n      \n      MSTORE \t\t\tr, quantity);\\n\\n        emit ...\n      PUSH 40\t\t\t    \n      DUP1 \t\t\trPresale(\\n      \n      DUP3 \t\t\trPresale(\\n      \n      ADD \t\t\trPresale(\\n      \n      MLOAD \t\t\tegisterPresale(\\n       \n      ISZERO \t\t\tction registerPresale(\\n      ...\n      ISZERO \t\t\t    function registerPresale(\\...\n      SWAP1 \t\t\tantity);\\n    }\n      DUP4 \t\t\tantity);\\n    }\n      ADD \t\t\tantity);\\n    }\n      MSTORE \t\t\tder, quantity);\\n    }\\n\\n    ...\n      PUSH 60\t\t\t    \n      SWAP1 \t\t\th_\\n    )\\n       \n      DUP2 \t\t\th_\\n    )\\n       \n      ADD \t\t\th_\\n    )\\n       \n      MLOAD \t\t\tmerHash_\\n    )\\n        \n      PUSH FFFFFF\t\t\tternal\\n \n      AND \t\t\tgloomerHash_\\n    )\\n        e...\n      SWAP2 \t\t\t        bytes3\n      ADD \t\t\t        bytes3\n      MSTORE \t\t\tntity,\\n        bytes32 gloome...\n      JUMP \t\t\terHash_) {\\n            revert...\n    tag 136\t\t\te\\n        dropEnabled\\n      ...\n      JUMPDEST \t\t\te\\n        dropEnabled\\n      ...\n      PUSH 20\t\t\tre\n      DUP1 \t\t\tcationsByWallet[msg.s\n      DUP3 \t\t\tcationsByWallet[msg.s\n      MSTORE \t\t\tcationsByWallet[msg.s\n      DUP3 \t\t\tresalesCount]\n      MLOAD \t\t\tresalesCount]\n      DUP3 \t\t\tntity;\\n        _pr\n      DUP3 \t\t\tntity;\\n        _pr\n      ADD \t\t\tntity;\\n        _pr\n      DUP2 \t\t\tnder;\\n\\n        emit Re\n      SWAP1 \t\t\tnder;\\n\\n        emit Re\n      MSTORE \t\t\tnder;\\n\\n        emit Re\n      PUSH 0\t\t\t ++_\n      SWAP2 \t\t\t ++_\n      SWAP1 \t\t\tre\n      DUP5 \t\t\t quantity);\\n   \n      DUP3 \t\t\t quantity);\\n   \n      ADD \t\t\t quantity);\\n   \n      SWAP1 \t\t\t quantity);\\n   \n      PUSH 40\t\t\tit\n      DUP6 \t\t\tg.sender, quantity\n      ADD \t\t\tg.sender, quantity\n      SWAP1 \t\t\tg.sender, quantity\n      DUP5 \t\t\t ++_\n    tag 778\t\t\te()\\n        external\\n       ...\n      JUMPDEST \t\t\te()\\n        external\\n       ...\n      DUP2 \t\t\tternal\n      DUP2 \t\t\t \n      LT \t\t\t    external\\n\n      ISZERO \t\t\te()\\n        external\\n       ...\n      PUSH [tag] 780\t\t\te()\\n        external\\n       ...\n      JUMPI \t\t\te()\\n        external\\n       ...\n      PUSH [tag] 781\t\t\t       eligibleForClaim\\n     ...\n      DUP4 \t\t\t(_p\n      DUP6 \t\t\tlletLi\n      MLOAD \t\t\tbeysWalletLim\n      PUSH [tag] 719\t\t\t       eligibleForClaim\\n     ...\n      JUMP \t\t\t       eligibleForClaim\\n     ...\n    tag 781\t\t\t       eligibleForClaim\\n     ...\n      JUMPDEST \t\t\t       eligibleForClaim\\n     ...\n      SWAP3 \t\t\t {\\n        uint\n      DUP5 \t\t\t {\\n        uint\n      ADD \t\t\t {\\n        uint\n      SWAP3 \t\t\t {\\n        uint\n      PUSH 80\t\t\tsend\n      SWAP3 \t\t\tllet[msg.sende\n      SWAP1 \t\t\tllet[msg.sende\n      SWAP3 \t\t\tllet[msg.sende\n      ADD \t\t\tllet[msg.sende\n      SWAP2 \t\t\tllet[msg.sende\n      PUSH 1\t\t\tb\n      ADD \t\t\tdropEnabl\n      PUSH [tag] 778\t\t\te()\\n        external\\n       ...\n      JUMP \t\t\te()\\n        external\\n       ...\n    tag 780\t\t\te()\\n        external\\n       ...\n      JUMPDEST \t\t\te()\\n        external\\n       ...\n      POP \t\t\t\n      SWAP1 \t\t\tcat\n      SWAP7 \t\t\tcat\n      SWAP6 \t\t\te\\n        dropEnabled\\n      ...\n      POP \t\t\t\n      POP \t\t\t\n      POP \t\t\t\n      POP \t\t\t\n      POP \t\t\t\n      POP \t\t\t\n      JUMP \t\t\te\\n        dropEnabled\\n      ...\n    tag 145\t\t\tt[msg.sender];\\n        _minte...\n      JUMPDEST \t\t\tt[msg.sender];\\n        _minte...\n      PUSH 0\t\t\ttity;\\n\n      PUSH 20\t\t\t =\n      DUP3 \t\t\t[msg.send\n      DUP5 \t\t\tsByWall\n      SUB \t\t\ttionsByWallet[msg.sende\n      SLT \t\t\tlocationsByWallet[msg.sender] ...\n      ISZERO \t\t\teAllocationsByWallet[msg.sende...\n      PUSH [tag] 783\t\t\teAllocationsByWallet[msg.sende...\n      JUMPI \t\t\teAllocationsByWallet[msg.sende...\n      PUSH 0\t\t\tr\n      DUP1 \t\t\t \n      REVERT \t\t\t        _pre\n    tag 783\t\t\teAllocationsByWallet[msg.sende...\n      JUMPDEST \t\t\teAllocationsByWallet[msg.sende...\n      PUSH [tag] 731\t\t\tuantity;\\n        _mint(msg.se\n      DUP3 \t\t\tint(msg.s\n      PUSH [tag] 717\t\t\tuantity;\\n        _mint(msg.se\n      JUMP \t\t\tuantity;\\n        _mint(msg.se\n    tag 160\t\t\tity);\\n\\n        emit Gloomers...\n      JUMPDEST \t\t\tity);\\n\\n        emit Gloomers...\n      PUSH 20\t\t\trn\n      DUP1 \t\t\tunction _startTokenId\n      DUP3 \t\t\tunction _startTokenId\n      MSTORE \t\t\tunction _startTokenId\n      DUP3 \t\t\t     return s\n      MLOAD \t\t\t     return s\n      DUP3 \t\t\tallet[wallet];\\n   \n      DUP3 \t\t\tallet[wallet];\\n   \n      ADD \t\t\tallet[wallet];\\n   \n      DUP2 \t\t\tId();\\n    }\\n\\n    funct\n      SWAP1 \t\t\tId();\\n    }\\n\\n    funct\n      MSTORE \t\t\tId();\\n    }\\n\\n    funct\n      PUSH 0\t\t\turns\n      SWAP2 \t\t\turns\n      SWAP1 \t\t\trn\n      DUP5 \t\t\tride(ERC721A)\\n \n      DUP3 \t\t\tride(ERC721A)\\n \n      ADD \t\t\tride(ERC721A)\\n \n      SWAP1 \t\t\tride(ERC721A)\\n \n      PUSH 40\t\t\t\\n \n      DUP6 \t\t\t       internal\\n  \n      ADD \t\t\t       internal\\n  \n      SWAP1 \t\t\t       internal\\n  \n      DUP5 \t\t\turns\n    tag 786\t\t\ty)\\n    {\\n        return _bas...\n      JUMPDEST \t\t\ty)\\n    {\\n        return _bas...\n      DUP2 \t\t\t   ret\n      DUP2 \t\t\t \n      LT \t\t\t\\n        retu\n      ISZERO \t\t\ty)\\n    {\\n        return _bas...\n      PUSH [tag] 780\t\t\ty)\\n    {\\n        return _bas...\n      JUMPI \t\t\ty)\\n    {\\n        return _bas...\n      DUP4 \t\t\t  uint256 tok\n      MLOAD \t\t\t  uint256 tok\n      DUP4 \t\t\tnURI(\\n        uint256 toke\n      MSTORE \t\t\tnURI(\\n        uint256 toke\n      SWAP3 \t\t\tns (string memo\n      DUP5 \t\t\tns (string memo\n      ADD \t\t\tns (string memo\n      SWAP3 \t\t\tns (string memo\n      SWAP2 \t\t\tw override(I\n      DUP5 \t\t\tw override(I\n      ADD \t\t\tw override(I\n      SWAP2 \t\t\tw override(I\n      PUSH 1\t\t\tI\n      ADD \t\t\tTokenURI;\n      PUSH [tag] 786\t\t\ty)\\n    {\\n        return _bas...\n      JUMP \t\t\ty)\\n    {\\n        return _bas...\n    tag 180\t\t\t  return _baseURI();\\n        ...\n      JUMPDEST \t\t\t  return _baseURI();\\n        ...\n      PUSH 0\t\t\tevert \n      DUP1 \t\t\tIQuery\n      PUSH 0\t\t\trNonex\n      PUSH 60\t\t\tba\n      DUP5 \t\t\tring memo\n      DUP7 \t\t\t       \n      SUB \t\t\t }\\n        string memor\n      SLT \t\t\t     }\\n        string memory ...\n      ISZERO \t\t\t        }\\n        string memo...\n      PUSH [tag] 790\t\t\t        }\\n        string memo...\n      JUMPI \t\t\t        }\\n        string memo...\n      PUSH 0\t\t\tR\n      DUP1 \t\t\ts\n      REVERT \t\t\tI = _baseURI\n    tag 790\t\t\t        }\\n        string memo...\n      JUMPDEST \t\t\t        }\\n        string memo...\n      PUSH [tag] 791\t\t\tmory metadataPointerId = !rev\n      DUP5 \t\t\trId = !re\n      PUSH [tag] 717\t\t\tmory metadataPointerId = !rev\n      JUMP \t\t\tmory metadataPointerId = !rev\n    tag 791\t\t\tmory metadataPointerId = !rev\n      JUMPDEST \t\t\tmory metadataPointerId = !rev\n      SWAP6 \t\t\t string memory metadataPointer...\n      PUSH 20\t\t\t m\n      DUP6 \t\t\t\\n        string me\n      ADD \t\t\t\\n        string me\n      CALLDATALOAD \t\t\ting(tokenId);\\n        string ...\n      SWAP6 \t\t\ting(tokenId);\\n        string ...\n      POP \t\t\t\n      PUSH 40\t\t\ted\n      SWAP1 \t\t\t abi.encodePacked(\n      SWAP5 \t\t\t abi.encodePacked(\n      ADD \t\t\t abi.encodePacked(\n      CALLDATALOAD \t\t\t(\\n            abi.encodePacke...\n      SWAP4 \t\t\t(\\n            abi.encodePacke...\n      SWAP3 \t\t\t  return _baseURI();\\n        ...\n      POP \t\t\t\n      POP \t\t\t\n      POP \t\t\t\n      JUMP \t\t\t  return _baseURI();\\n        ...\n    tag 193\t\t\tadataPointerId)\\n        );\\n ...\n      JUMPDEST \t\t\tadataPointerId)\\n        );\\n ...\n      PUSH 0\t\t\t= 0 ? \n      DUP1 \t\t\tsult :\n      PUSH 40\t\t\tld\n      DUP4 \t\t\ti(string \n      DUP6 \t\t\tetToken\n      SUB \t\t\ton setTokenUri(string c\n      SLT \t\t\tnction setTokenUri(string call...\n      ISZERO \t\t\t function setTokenUri(string c...\n      PUSH [tag] 793\t\t\t function setTokenUri(string c...\n      JUMPI \t\t\t function setTokenUri(string c...\n      PUSH 0\t\t\tR\n      DUP1 \t\t\te\n      REVERT \t\t\tbaseTokenURI\n    tag 793\t\t\t function setTokenUri(string c...\n      JUMPDEST \t\t\t function setTokenUri(string c...\n      PUSH [tag] 794\t\t\t {\\n        revealed = true;\\n...\n      DUP4 \t\t\t = true;\\n\n      PUSH [tag] 717\t\t\t {\\n        revealed = true;\\n...\n      JUMP \t\t\t {\\n        revealed = true;\\n...\n    tag 794\t\t\t {\\n        revealed = true;\\n...\n      JUMPDEST \t\t\t {\\n        revealed = true;\\n...\n      SWAP2 \t\t\t onlyOwner {\\n        revealed...\n      POP \t\t\t onlyOwner {\\n        revealed...\n      PUSH 20\t\t\t B\n      DUP4 \t\t\t       em\n      ADD \t\t\t_;\\n        emit Ba\n      CALLDATALOAD \t\t\t baseTokenURI_;\\n        emit ...\n      DUP1 \t\t\tt256)\n      ISZERO \t\t\type(uint256).\n      ISZERO \t\t\td(), (type(uint256).m\n      DUP2 \t\t\ttToke\n      EQ \t\t\ttartTokenId(), (type(uint256)....\n      PUSH [tag] 738\t\t\taUpdate(_startTokenId(), (type...\n      JUMPI \t\t\taUpdate(_startTokenId(), (type...\n      PUSH 0\t\t\t \n      DUP1 \t\t\t\\n\n      REVERT \t\t\t\\n    }\\n\\n    \n    tag 720\t\t\tddress receiver,\\n        uint...\n      JUMPDEST \t\t\tddress receiver,\\n        uint...\n      PUSH 4E487B71\t\t\tyOwner {\\n \n      PUSH E0\t\t\tc o\n      SHL \t\t\tublic onlyOwner {\\n  \n      PUSH 0\t\t\t)\n      MSTORE \t\t\tor\\n    ) public onlyOwner {\\n...\n      PUSH 41\t\t\talty\n      PUSH 4\t\t\tR\n      MSTORE \t\t\tDefaultRoyalty(\n      PUSH 24\t\t\ttor)\n      PUSH 0\t\t\te\n      REVERT \t\t\t feeNumerator);\n    tag 206\t\t\t function setDropStatus(DropSt...\n      JUMPDEST \t\t\t function setDropStatus(DropSt...\n      PUSH 0\t\t\topStat\n      DUP1 \t\t\t;\\n    \n      PUSH 0\t\t\t  emit\n      DUP1 \t\t\tewDrop\n      PUSH 80\t\t\tloo\n      DUP6 \t\t\tunction s\n      DUP8 \t\t\t }\\n\\n   \n      SUB \t\t\t\\n    }\\n\\n    function se\n      SLT \t\t\tus);\\n    }\\n\\n    function se...\n      ISZERO \t\t\ttatus);\\n    }\\n\\n    function...\n      PUSH [tag] 798\t\t\ttatus);\\n    }\\n\\n    function...\n      JUMPI \t\t\ttatus);\\n    }\\n\\n    function...\n      PUSH 0\t\t\t2\n      DUP1 \t\t\te\n      REVERT \t\t\tash(bytes32 \n    tag 798\t\t\ttatus);\\n    }\\n\\n    function...\n      JUMPDEST \t\t\ttatus);\\n    }\\n\\n    function...\n      PUSH [tag] 799\t\t\tonlyOwner {\\n        gloomerHa\n      DUP6 \t\t\t gloomerH\n      PUSH [tag] 717\t\t\tonlyOwner {\\n        gloomerHa\n      JUMP \t\t\tonlyOwner {\\n        gloomerHa\n    tag 799\t\t\tonlyOwner {\\n        gloomerHa\n      JUMPDEST \t\t\tonlyOwner {\\n        gloomerHa\n      SWAP4 \t\t\t_) public onlyOwner {\\n       ...\n      POP \t\t\t_) public onlyOwner {\\n       ...\n      PUSH [tag] 800\t\t\t    }\\n\\n    function withdraw...\n      PUSH 20\t\t\tli\n      DUP7 \t\t\thdraw() p\n      ADD \t\t\t withdraw() public\n      PUSH [tag] 717\t\t\t    }\\n\\n    function withdraw...\n      JUMP \t\t\t    }\\n\\n    function withdraw...\n    tag 800\t\t\t    }\\n\\n    function withdraw...\n      JUMPDEST \t\t\t    }\\n\\n    function withdraw...\n      SWAP3 \t\t\tmerHash_;\\n    }\\n\\n    functi...\n      POP \t\t\tmerHash_;\\n    }\\n\\n    functi...\n      PUSH 40\t\t\tr(\n      DUP6 \t\t\ter).trans\n      ADD \t\t\tsender).transfer(a\n      CALLDATALOAD \t\t\t payable(msg.sender).transfer(...\n      SWAP2 \t\t\t {\\n        payable(msg.sender...\n      POP \t\t\t {\\n        payable(msg.sender...\n      PUSH 60\t\t\tl \n      DUP6 \t\t\tk() exter\n      ADD \t\t\tlback() external p\n      CALLDATALOAD \t\t\t   }\\n\\n    fallback() externa...\n      PUSH FFFFFFFFFFFFFFFF\t\t\tve() external paya\n      DUP1 \t\t\tpp\n      DUP3 \t\t\tction \n      GT \t\t\tfunction suppo\n      ISZERO \t\t\t   function supportsInterface(...\n      PUSH [tag] 801\t\t\t   function supportsInterface(...\n      JUMPI \t\t\t   function supportsInterface(...\n      PUSH 0\t\t\t\\n\n      DUP1 \t\t\tc\n      REVERT \t\t\tInterface(\\n \n    tag 801\t\t\t   function supportsInterface(...\n      JUMPDEST \t\t\t   function supportsInterface(...\n      DUP2 \t\t\tic vie\n      DUP8 \t\t\t\\n    ) pu\n      ADD \t\t\tceId\\n    ) public view\n      SWAP2 \t\t\ts4 interfaceId\\n    ) public v...\n      POP \t\t\ts4 interfaceId\\n    ) public v...\n      DUP8 \t\t\tRC2981)\n      PUSH 1F\t\t\t721A\n      DUP4 \t\t\t E\n      ADD \t\t\t21A, ERC721A,\n      SLT \t\t\tERC721A, ERC721A, ERC2981) \n      PUSH [tag] 802\t\t\toverride(IERC721A, ERC721A, ER...\n      JUMPI \t\t\toverride(IERC721A, ERC721A, ER...\n      PUSH 0\t\t\t \n      DUP1 \t\t\to\n      REVERT \t\t\trns (bool) {\n    tag 802\t\t\toverride(IERC721A, ERC721A, ER...\n      JUMPDEST \t\t\toverride(IERC721A, ERC721A, ER...\n      DUP2 \t\t\tA.\n      CALLDATALOAD \t\t\t       ERC721A.s\n      DUP2 \t\t\tte\n      DUP2 \t\t\te(\n      GT \t\t\tface(inter\n      ISZERO \t\t\tterface(interfaceId) ||\\n     ...\n      PUSH [tag] 804\t\t\tterface(interfaceId) ||\\n     ...\n      JUMPI \t\t\tterface(interfaceId) ||\\n     ...\n      PUSH [tag] 804\t\t\teId) ||\\n          \n      PUSH [tag] 720\t\t\teId) ||\\n          \n      JUMP \t\t\teId) ||\\n          \n    tag 804\t\t\teId) ||\\n          \n      JUMPDEST \t\t\teId) ||\\n          \n      PUSH 40\t\t\t\n      MLOAD \t\t\t\n      PUSH 1F\t\t\tce\n      DUP3 \t\t\t\n      ADD \t\t\t\n      PUSH 1F\t\t\t\n      NOT \t\t\t\n      SWAP1 \t\t\t\n      DUP2 \t\t\t\n      AND \t\t\t\n      PUSH 3F\t\t\t\n      ADD \t\t\t\n      AND \t\t\t\n      DUP2 \t\t\t\n      ADD \t\t\t\n      SWAP1 \t\t\t\n      DUP4 \t\t\t\n      DUP3 \t\t\t\n      GT \t\t\t\n      DUP2 \t\t\t\n      DUP4 \t\t\t\n      LT \t\t\t\n      OR \t\t\t\n      ISZERO \t\t\t\n      PUSH [tag] 806\t\t\t\n      JUMPI \t\t\t\n      PUSH [tag] 806\t\t\t\n      PUSH [tag] 720\t\t\t\n      JUMP \t\t\t\n    tag 806\t\t\t\n      JUMPDEST \t\t\t\n      DUP2 \t\t\t\n      PUSH 40\t\t\t\n      MSTORE \t\t\t\n      DUP3 \t\t\t\n      DUP2 \t\t\t\n      MSTORE \t\t\t\n      DUP11 \t\t\t\n      PUSH 20\t\t\t\n      DUP5 \t\t\t\n      DUP8 \t\t\t\n      ADD \t\t\t\n      ADD \t\t\t\n      GT \t\t\t\n      ISZERO \t\t\t\n      PUSH [tag] 807\t\t\t\n      JUMPI \t\t\t\n      PUSH 0\t\t\t\n      DUP1 \t\t\t\n      REVERT \t\t\t\n    tag 807\t\t\t\n      JUMPDEST \t\t\t\n      DUP3 \t\t\t\n      PUSH 20\t\t\t\n      DUP7 \t\t\t\n      ADD \t\t\t\n      PUSH 20\t\t\t\n      DUP4 \t\t\t\n      ADD \t\t\t\n      CALLDATACOPY \t\t\t\n      PUSH 0\t\t\t\n      PUSH 20\t\t\t\n      DUP5 \t\t\t\n      DUP4 \t\t\t\n      ADD \t\t\t\n      ADD \t\t\t\n      MSTORE \t\t\t\n      DUP1 \t\t\t\n      SWAP6 \t\t\t\n      POP \t\t\t\n      POP \t\t\t\n      POP \t\t\t\n      POP \t\t\t\n      POP \t\t\t\n      POP \t\t\t\n      SWAP3 \t\t\t function setDropStatus(DropSt...\n      SWAP6 \t\t\t function setDropStatus(DropSt...\n      SWAP2 \t\t\t function setDropStatus(DropSt...\n      SWAP5 \t\t\t function setDropStatus(DropSt...\n      POP \t\t\t function setDropStatus(DropSt...\n      SWAP3 \t\t\t function setDropStatus(DropSt...\n      POP \t\t\t function setDropStatus(DropSt...\n      JUMP \t\t\t function setDropStatus(DropSt...\n    tag 213\t\t\t\n      JUMPDEST \t\t\t\n      PUSH 80\t\t\t\n      DUP2 \t\t\t\n      ADD \t\t\t\n      PUSH [tag] 251\t\t\t\n      DUP3 \t\t\t\n      DUP5 \t\t\t\n      PUSH [tag] 719\t\t\t\n      JUMP \t\t\t\n    tag 231\t\t\t\n      JUMPDEST \t\t\t\n      PUSH 0\t\t\t\n      DUP1 \t\t\t\n      PUSH 40\t\t\t\n      DUP4 \t\t\t\n      DUP6 \t\t\t\n      SUB \t\t\t\n      SLT \t\t\t\n      ISZERO \t\t\t\n      PUSH [tag] 813\t\t\t\n      JUMPI \t\t\t\n      PUSH 0\t\t\t\n      DUP1 \t\t\t\n      REVERT \t\t\t\n    tag 813\t\t\t\n      JUMPDEST \t\t\t\n      PUSH [tag] 814\t\t\t\n      DUP4 \t\t\t\n      PUSH [tag] 717\t\t\t\n      JUMP \t\t\t\n    tag 814\t\t\t\n      JUMPDEST \t\t\t\n      SWAP2 \t\t\t\n      POP \t\t\t\n      PUSH [tag] 815\t\t\t\n      PUSH 20\t\t\t\n      DUP5 \t\t\t\n      ADD \t\t\t\n      PUSH [tag] 717\t\t\t\n      JUMP \t\t\t\n    tag 815\t\t\t\n      JUMPDEST \t\t\t\n      SWAP1 \t\t\t\n      POP \t\t\t\n      SWAP3 \t\t\t\n      POP \t\t\t\n      SWAP3 \t\t\t\n      SWAP1 \t\t\t\n      POP \t\t\t\n      JUMP \t\t\t\n    tag 721\t\t\t\n      JUMPDEST \t\t\t\n      PUSH 4E487B71\t\t\t\n      PUSH E0\t\t\t\n      SHL \t\t\t\n      PUSH 0\t\t\t\n      MSTORE \t\t\t\n      PUSH 11\t\t\t\n      PUSH 4\t\t\t\n      MSTORE \t\t\t\n      PUSH 24\t\t\t\n      PUSH 0\t\t\t\n      REVERT \t\t\t\n    tag 272\t\t\t\n      JUMPDEST \t\t\t\n      DUP1 \t\t\t\n      DUP3 \t\t\t\n      ADD \t\t\t\n      DUP1 \t\t\t\n      DUP3 \t\t\t\n      GT \t\t\t\n      ISZERO \t\t\t\n      PUSH [tag] 251\t\t\t\n      JUMPI \t\t\t\n      PUSH [tag] 251\t\t\t\n      PUSH [tag] 721\t\t\t\n      JUMP \t\t\t\n    tag 282\t\t\t\n      JUMPDEST \t\t\t\n      DUP2 \t\t\t\n      DUP2 \t\t\t\n      SUB \t\t\t\n      DUP2 \t\t\t\n      DUP2 \t\t\t\n      GT \t\t\t\n      ISZERO \t\t\t\n      PUSH [tag] 251\t\t\t\n      JUMPI \t\t\t\n      PUSH [tag] 251\t\t\t\n      PUSH [tag] 721\t\t\t\n      JUMP \t\t\t\n    tag 297\t\t\t\n      JUMPDEST \t\t\t\n      PUSH 1\t\t\t\n      DUP2 \t\t\t\n      DUP2 \t\t\t\n      SHR \t\t\t\n      SWAP1 \t\t\t\n      DUP3 \t\t\t\n      AND \t\t\t\n      DUP1 \t\t\t\n      PUSH [tag] 825\t\t\t\n      JUMPI \t\t\t\n      PUSH 7F\t\t\t\n      DUP3 \t\t\t\n      AND \t\t\t\n      SWAP2 \t\t\t\n      POP \t\t\t\n    tag 825\t\t\t\n      JUMPDEST \t\t\t\n      PUSH 20\t\t\t\n      DUP3 \t\t\t\n      LT \t\t\t\n      DUP2 \t\t\t\n      SUB \t\t\t\n      PUSH [tag] 826\t\t\t\n      JUMPI \t\t\t\n      PUSH 4E487B71\t\t\t\n      PUSH E0\t\t\t\n      SHL \t\t\t\n      PUSH 0\t\t\t\n      MSTORE \t\t\t\n      PUSH 22\t\t\t\n      PUSH 4\t\t\t\n      MSTORE \t\t\t\n      PUSH 24\t\t\t\n      PUSH 0\t\t\t\n      REVERT \t\t\t\n    tag 826\t\t\t\n      JUMPDEST \t\t\t\n      POP \t\t\t\n      SWAP2 \t\t\t\n      SWAP1 \t\t\t\n      POP \t\t\t\n      JUMP \t\t\t\n    tag 723\t\t\t\n      JUMPDEST \t\t\t\n      PUSH 1F\t\t\t\n      DUP3 \t\t\t\n      GT \t\t\t\n      ISZERO \t\t\t\n      PUSH [tag] 427\t\t\t\n      JUMPI \t\t\t\n      DUP1 \t\t\t\n      PUSH 0\t\t\t\n      MSTORE \t\t\t\n      PUSH 20\t\t\t\n      PUSH 0\t\t\t\n      KECCAK256 \t\t\t\n      PUSH 1F\t\t\t\n      DUP5 \t\t\t\n      ADD \t\t\t\n      PUSH 5\t\t\t\n      SHR \t\t\t\n      DUP2 \t\t\t\n      ADD \t\t\t\n      PUSH 20\t\t\t\n      DUP6 \t\t\t\n      LT \t\t\t\n      ISZERO \t\t\t\n      PUSH [tag] 830\t\t\t\n      JUMPI \t\t\t\n      POP \t\t\t\n      DUP1 \t\t\t\n    tag 830\t\t\t\n      JUMPDEST \t\t\t\n      PUSH 1F\t\t\t\n      DUP5 \t\t\t\n      ADD \t\t\t\n      PUSH 5\t\t\t\n      SHR \t\t\t\n      DUP3 \t\t\t\n      ADD \t\t\t\n      SWAP2 \t\t\t\n      POP \t\t\t\n    tag 831\t\t\t\n      JUMPDEST \t\t\t\n      DUP2 \t\t\t\n      DUP2 \t\t\t\n      LT \t\t\t\n      ISZERO \t\t\t\n      PUSH [tag] 833\t\t\t\n      JUMPI \t\t\t\n      PUSH 0\t\t\t\n      DUP2 \t\t\t\n      SSTORE \t\t\t\n      PUSH 1\t\t\t\n      ADD \t\t\t\n      PUSH [tag] 831\t\t\t\n      JUMP \t\t\t\n    tag 833\t\t\t\n      JUMPDEST \t\t\t\n      POP \t\t\t\n      POP \t\t\t\n      POP \t\t\t\n      POP \t\t\t\n      POP \t\t\t\n      JUMP \t\t\t\n    tag 290\t\t\t\n      JUMPDEST \t\t\t\n      PUSH FFFFFFFFFFFFFFFF\t\t\t\n      DUP4 \t\t\t\n      GT \t\t\t\n      ISZERO \t\t\t\n      PUSH [tag] 837\t\t\t\n      JUMPI \t\t\t\n      PUSH [tag] 837\t\t\t\n      PUSH [tag] 720\t\t\t\n      JUMP \t\t\t\n    tag 837\t\t\t\n      JUMPDEST \t\t\t\n      PUSH [tag] 838\t\t\t\n      DUP4 \t\t\t\n      PUSH [tag] 839\t\t\t\n      DUP4 \t\t\t\n      SLOAD \t\t\t\n      PUSH [tag] 297\t\t\t\n      JUMP \t\t\t\n    tag 839\t\t\t\n      JUMPDEST \t\t\t\n      DUP4 \t\t\t\n      PUSH [tag] 723\t\t\t\n      JUMP \t\t\t\n    tag 838\t\t\t\n      JUMPDEST \t\t\t\n      PUSH 0\t\t\t\n      PUSH 1F\t\t\t\n      DUP5 \t\t\t\n      GT \t\t\t\n      PUSH 1\t\t\t\n      DUP2 \t\t\t\n      EQ \t\t\t\n      PUSH [tag] 841\t\t\t\n      JUMPI \t\t\t\n      PUSH 0\t\t\t\n      DUP6 \t\t\t\n      ISZERO \t\t\t\n      PUSH [tag] 842\t\t\t\n      JUMPI \t\t\t\n      POP \t\t\t\n      DUP4 \t\t\t\n      DUP3 \t\t\t\n      ADD \t\t\t\n      CALLDATALOAD \t\t\t\n    tag 842\t\t\t\n      JUMPDEST \t\t\t\n      PUSH 0\t\t\t\n      NOT \t\t\t\n      PUSH 3\t\t\t\n      DUP8 \t\t\t\n      SWAP1 \t\t\t\n      SHL \t\t\t\n      SHR \t\t\t\n      NOT \t\t\t\n      AND \t\t\t\n      PUSH 1\t\t\t\n      DUP7 \t\t\t\n      SWAP1 \t\t\t\n      SHL \t\t\t\n      OR \t\t\t\n      DUP4 \t\t\t\n      SSTORE \t\t\t\n      PUSH [tag] 833\t\t\t\n      JUMP \t\t\t\n    tag 841\t\t\t\n      JUMPDEST \t\t\t\n      PUSH 0\t\t\t\n      DUP4 \t\t\t\n      DUP2 \t\t\t\n      MSTORE \t\t\t\n      PUSH 20\t\t\t\n      DUP2 \t\t\t\n      KECCAK256 \t\t\t\n      PUSH 1F\t\t\t\n      NOT \t\t\t\n      DUP8 \t\t\t\n      AND \t\t\t\n      SWAP2 \t\t\t\n    tag 845\t\t\t\n      JUMPDEST \t\t\t\n      DUP3 \t\t\t\n      DUP2 \t\t\t\n      LT \t\t\t\n      ISZERO \t\t\t\n      PUSH [tag] 847\t\t\t\n      JUMPI \t\t\t\n      DUP7 \t\t\t\n      DUP6 \t\t\t\n      ADD \t\t\t\n      CALLDATALOAD \t\t\t\n      DUP3 \t\t\t\n      SSTORE \t\t\t\n      PUSH 20\t\t\t\n      SWAP5 \t\t\t\n      DUP6 \t\t\t\n      ADD \t\t\t\n      SWAP5 \t\t\t\n      PUSH 1\t\t\t\n      SWAP1 \t\t\t\n      SWAP3 \t\t\t\n      ADD \t\t\t\n      SWAP2 \t\t\t\n      ADD \t\t\t\n      PUSH [tag] 845\t\t\t\n      JUMP \t\t\t\n    tag 847\t\t\t\n      JUMPDEST \t\t\t\n      POP \t\t\t\n      DUP7 \t\t\t\n      DUP3 \t\t\t\n      LT \t\t\t\n      ISZERO \t\t\t\n      PUSH [tag] 848\t\t\t\n      JUMPI \t\t\t\n      PUSH 0\t\t\t\n      NOT \t\t\t\n      PUSH F8\t\t\t\n      DUP9 \t\t\t\n      PUSH 3\t\t\t\n      SHL \t\t\t\n      AND \t\t\t\n      SHR \t\t\t\n      NOT \t\t\t\n      DUP5 \t\t\t\n      DUP8 \t\t\t\n      ADD \t\t\t\n      CALLDATALOAD \t\t\t\n      AND \t\t\t\n      DUP2 \t\t\t\n      SSTORE \t\t\t\n    tag 848\t\t\t\n      JUMPDEST \t\t\t\n      POP \t\t\t\n      POP \t\t\t\n      PUSH 1\t\t\t\n      DUP6 \t\t\t\n      PUSH 1\t\t\t\n      SHL \t\t\t\n      ADD \t\t\t\n      DUP4 \t\t\t\n      SSTORE \t\t\t\n      POP \t\t\t\n      POP \t\t\t\n      POP \t\t\t\n      POP \t\t\t\n      POP \t\t\t\n      JUMP \t\t\t\n    tag 356\t\t\t\n      JUMPDEST \t\t\t\n      DUP1 \t\t\t\n      DUP3 \t\t\t\n      MUL \t\t\t\n      DUP2 \t\t\t\n      ISZERO \t\t\t\n      DUP3 \t\t\t\n      DUP3 \t\t\t\n      DIV \t\t\t\n      DUP5 \t\t\t\n      EQ \t\t\t\n      OR \t\t\t\n      PUSH [tag] 251\t\t\t\n      JUMPI \t\t\t\n      PUSH [tag] 251\t\t\t\n      PUSH [tag] 721\t\t\t\n      JUMP \t\t\t\n    tag 377\t\t\t\n      JUMPDEST \t\t\t\n      PUSH 0\t\t\t\n      PUSH 1\t\t\t\n      DUP3 \t\t\t\n      ADD \t\t\t\n      PUSH [tag] 855\t\t\t\n      JUMPI \t\t\t\n      PUSH [tag] 855\t\t\t\n      PUSH [tag] 721\t\t\t\n      JUMP \t\t\t\n    tag 855\t\t\t\n      JUMPDEST \t\t\t\n      POP \t\t\t\n      PUSH 1\t\t\t\n      ADD \t\t\t\n      SWAP1 \t\t\t\n      JUMP \t\t\t\n    tag 420\t\t\t\n      JUMPDEST \t\t\t\n      PUSH 0\t\t\t\n      DUP3 \t\t\t\n      PUSH [tag] 857\t\t\t\n      JUMPI \t\t\t\n      PUSH 4E487B71\t\t\t\n      PUSH E0\t\t\t\n      SHL \t\t\t\n      PUSH 0\t\t\t\n      MSTORE \t\t\t\n      PUSH 12\t\t\t\n      PUSH 4\t\t\t\n      MSTORE \t\t\t\n      PUSH 24\t\t\t\n      PUSH 0\t\t\t\n      REVERT \t\t\t\n    tag 857\t\t\t\n      JUMPDEST \t\t\t\n      POP \t\t\t\n      DIV \t\t\t\n      SWAP1 \t\t\t\n      JUMP \t\t\t\n    tag 725\t\t\t\n      JUMPDEST \t\t\t\n      PUSH 0\t\t\t\n      DUP2 \t\t\t\n      MLOAD \t\t\t\n      DUP1 \t\t\t\n      PUSH 20\t\t\t\n      DUP5 \t\t\t\n      ADD \t\t\t\n      DUP6 \t\t\t\n      MCOPY \t\t\t\n      PUSH 0\t\t\t\n      SWAP4 \t\t\t\n      ADD \t\t\t\n      SWAP3 \t\t\t\n      DUP4 \t\t\t\n      MSTORE \t\t\t\n      POP \t\t\t\n      SWAP1 \t\t\t\n      SWAP2 \t\t\t\n      SWAP1 \t\t\t\n      POP \t\t\t\n      JUMP \t\t\t\n    tag 540\t\t\t\n      JUMPDEST \t\t\t\n      PUSH 0\t\t\t\n      PUSH [tag] 454\t\t\t\n      PUSH [tag] 861\t\t\t\n      DUP4 \t\t\t\n      DUP7 \t\t\t\n      PUSH [tag] 725\t\t\t\n      JUMP \t\t\t\n    tag 861\t\t\t\n      JUMPDEST \t\t\t\n      DUP5 \t\t\t\n      PUSH [tag] 725\t\t\t\n      JUMP \t\t\t\n    tag 602\t\t\t\n      JUMPDEST \t\t\t\n      PUSH 0\t\t\t\n      DUP2 \t\t\t\n      PUSH [tag] 865\t\t\t\n      JUMPI \t\t\t\n      PUSH [tag] 865\t\t\t\n      PUSH [tag] 721\t\t\t\n      JUMP \t\t\t\n    tag 865\t\t\t\n      JUMPDEST \t\t\t\n      POP \t\t\t\n      PUSH 0\t\t\t\n      NOT \t\t\t\n      ADD \t\t\t\n      SWAP1 \t\t\t\n      JUMP \t\t\t\n    tag 680\t\t\t\n      JUMPDEST \t\t\t\n      PUSH 1\t\t\t\n      PUSH 1\t\t\t\n      PUSH A0\t\t\t\n      SHL \t\t\t\n      SUB \t\t\t\n      DUP6 \t\t\t\n      DUP2 \t\t\t\n      AND \t\t\t\n      DUP3 \t\t\t\n      MSTORE \t\t\t\n      DUP5 \t\t\t\n      AND \t\t\t\n      PUSH 20\t\t\t\n      DUP3 \t\t\t\n      ADD \t\t\t\n      MSTORE \t\t\t\n      PUSH 40\t\t\t\n      DUP2 \t\t\t\n      ADD \t\t\t\n      DUP4 \t\t\t\n      SWAP1 \t\t\t\n      MSTORE \t\t\t\n      PUSH 80\t\t\t\n      PUSH 60\t\t\t\n      DUP3 \t\t\t\n      ADD \t\t\t\n      DUP2 \t\t\t\n      SWAP1 \t\t\t\n      MSTORE \t\t\t\n      PUSH 0\t\t\t\n      SWAP1 \t\t\t\n      PUSH [tag] 867\t\t\t\n      SWAP1 \t\t\t\n      DUP4 \t\t\t\n      ADD \t\t\t\n      DUP5 \t\t\t\n      PUSH [tag] 718\t\t\t\n      JUMP \t\t\t\n    tag 867\t\t\t\n      JUMPDEST \t\t\t\n      SWAP7 \t\t\t\n      SWAP6 \t\t\t\n      POP \t\t\t\n      POP \t\t\t\n      POP \t\t\t\n      POP \t\t\t\n      POP \t\t\t\n      POP \t\t\t\n      JUMP \t\t\t\n    tag 683\t\t\t\n      JUMPDEST \t\t\t\n      PUSH 0\t\t\t\n      PUSH 20\t\t\t\n      DUP3 \t\t\t\n      DUP5 \t\t\t\n      SUB \t\t\t\n      SLT \t\t\t\n      ISZERO \t\t\t\n      PUSH [tag] 869\t\t\t\n      JUMPI \t\t\t\n      PUSH 0\t\t\t\n      DUP1 \t\t\t\n      REVERT \t\t\t\n    tag 869\t\t\t\n      JUMPDEST \t\t\t\n      DUP2 \t\t\t\n      MLOAD \t\t\t\n      PUSH [tag] 731\t\t\t\n      DUP2 \t\t\t\n      PUSH [tag] 716\t\t\t\n      JUMP \t\t\t\n    .data\n  CF74D66FE868420D434BE9B09CA8E38CFEA32209A70393FE7659CF3EB6C10014:\n    68747470733a2f2f697066732e676c6f6f6d746f6b656e2e78797a2f697066732f62616679626569646e726761677a726a76617672736a746e7a36716871766e6c626b7a337668357133356766676b6a323336796c737877706d7379\n"
}